{
  "_format": "hh-sol-artifact-1",
  "contractName": "TreasuryVester",
  "sourceName": "contracts/TreasuryVester.sol",
  "abi": [
    {
      "inputs": [
        {
          "internalType": "address",
          "name": "gtc_",
          "type": "address"
        },
        {
          "internalType": "address",
          "name": "recipient_",
          "type": "address"
        },
        {
          "internalType": "uint256",
          "name": "vestingAmount_",
          "type": "uint256"
        },
        {
          "internalType": "uint256",
          "name": "vestingBegin_",
          "type": "uint256"
        },
        {
          "internalType": "uint256",
          "name": "vestingCliff_",
          "type": "uint256"
        },
        {
          "internalType": "uint256",
          "name": "vestingEnd_",
          "type": "uint256"
        }
      ],
      "stateMutability": "nonpayable",
      "type": "constructor"
    },
    {
      "anonymous": false,
      "inputs": [
        {
          "indexed": true,
          "internalType": "address",
          "name": "previousOwner",
          "type": "address"
        },
        {
          "indexed": true,
          "internalType": "address",
          "name": "newOwner",
          "type": "address"
        }
      ],
      "name": "OwnershipTransferred",
      "type": "event"
    },
    {
      "inputs": [],
      "name": "claim",
      "outputs": [],
      "stateMutability": "nonpayable",
      "type": "function"
    },
    {
      "inputs": [],
      "name": "gtc",
      "outputs": [
        {
          "internalType": "address",
          "name": "",
          "type": "address"
        }
      ],
      "stateMutability": "view",
      "type": "function"
    },
    {
      "inputs": [],
      "name": "lastUpdate",
      "outputs": [
        {
          "internalType": "uint256",
          "name": "",
          "type": "uint256"
        }
      ],
      "stateMutability": "view",
      "type": "function"
    },
    {
      "inputs": [],
      "name": "owner",
      "outputs": [
        {
          "internalType": "address",
          "name": "",
          "type": "address"
        }
      ],
      "stateMutability": "view",
      "type": "function"
    },
    {
      "inputs": [],
      "name": "recipient",
      "outputs": [
        {
          "internalType": "address",
          "name": "",
          "type": "address"
        }
      ],
      "stateMutability": "view",
      "type": "function"
    },
    {
      "inputs": [],
      "name": "renounceOwnership",
      "outputs": [],
      "stateMutability": "nonpayable",
      "type": "function"
    },
    {
      "inputs": [
        {
          "internalType": "address",
          "name": "recipient_",
          "type": "address"
        }
      ],
      "name": "setRecipient",
      "outputs": [],
      "stateMutability": "nonpayable",
      "type": "function"
    },
    {
      "inputs": [
        {
          "internalType": "uint256",
          "name": "_amount",
          "type": "uint256"
        }
      ],
      "name": "setVestingAmount",
      "outputs": [],
      "stateMutability": "nonpayable",
      "type": "function"
    },
    {
      "inputs": [
        {
          "internalType": "uint256",
          "name": "_vestingBegin",
          "type": "uint256"
        },
        {
          "internalType": "uint256",
          "name": "_vestingEnd",
          "type": "uint256"
        }
      ],
      "name": "setVestingPeriod",
      "outputs": [],
      "stateMutability": "nonpayable",
      "type": "function"
    },
    {
      "inputs": [
        {
          "internalType": "address",
          "name": "newOwner",
          "type": "address"
        }
      ],
      "name": "transferOwnership",
      "outputs": [],
      "stateMutability": "nonpayable",
      "type": "function"
    },
    {
      "inputs": [],
      "name": "vestingAmount",
      "outputs": [
        {
          "internalType": "uint256",
          "name": "",
          "type": "uint256"
        }
      ],
      "stateMutability": "view",
      "type": "function"
    },
    {
      "inputs": [],
      "name": "vestingBegin",
      "outputs": [
        {
          "internalType": "uint256",
          "name": "",
          "type": "uint256"
        }
      ],
      "stateMutability": "view",
      "type": "function"
    },
    {
      "inputs": [],
      "name": "vestingCliff",
      "outputs": [
        {
          "internalType": "uint256",
          "name": "",
          "type": "uint256"
        }
      ],
      "stateMutability": "view",
      "type": "function"
    },
    {
      "inputs": [],
      "name": "vestingEnd",
      "outputs": [
        {
          "internalType": "uint256",
          "name": "",
          "type": "uint256"
        }
      ],
      "stateMutability": "view",
      "type": "function"
    }
  ],
  "bytecode": "0x60a060405234801561001057600080fd5b50604051610bb9380380610bb983398101604081905261002f9161023f565b610038336101d3565b428310156100b35760405162461bcd60e51b815260206004820152603460248201527f54726561737572795665737465723a3a636f6e7374727563746f723a2076657360448201527f74696e6720626567696e20746f6f206561726c7900000000000000000000000060648201526084015b60405180910390fd5b8282101561011b5760405162461bcd60e51b815260206004820152602f60248201527f54726561737572795665737465723a3a636f6e7374727563746f723a20636c6960448201526e666620697320746f6f206561726c7960881b60648201526084016100aa565b8181116101805760405162461bcd60e51b815260206004820152602d60248201527f54726561737572795665737465723a3a636f6e7374727563746f723a20656e6460448201526c20697320746f6f206561726c7960981b60648201526084016100aa565b60609590951b6001600160601b031916608052600180546001600160a01b0319166001600160a01b0395909516949094179093556002919091556003819055600491909155600591909155600655610296565b600080546001600160a01b038381166001600160a01b0319831681178455604051919092169283917f8be0079c531659141344cd1fd0a4f28419497f9722a3daafe3b4186f6b6457e09190a35050565b80516001600160a01b038116811461023a57600080fd5b919050565b60008060008060008060c08789031215610257578182fd5b61026087610223565b955061026e60208801610223565b945060408701519350606087015192506080870151915060a087015190509295509295509295565b60805160601c6108f76102c2600039600081816101b10152818161040d015261051201526108f76000f3fe608060405234801561001057600080fd5b50600436106100e95760003560e01c80638da5cb5b1161008c578063e29bc68b11610066578063e29bc68b146101a3578063e419d406146101ac578063f2fde38b146101d3578063f3640e74146101e657600080fd5b80638da5cb5b14610176578063c046371114610187578063d80c13e61461019057600080fd5b80634e71d92d116100c85780634e71d92d1461013257806366d003ac1461013a578063715018a61461016557806384a1931f1461016d57600080fd5b8062728f76146100ee57806308ac2ebe1461010a5780633bbed4a01461011f575b600080fd5b6100f760025481565b6040519081526020015b60405180910390f35b61011d610118366004610804565b6101ef565b005b61011d61012d3660046107bd565b610253565b61011d61035c565b60015461014d906001600160a01b031681565b6040516001600160a01b039091168152602001610101565b61011d610594565b6100f760055481565b6000546001600160a01b031661014d565b6100f760065481565b61011d61019e366004610834565b6105fa565b6100f760035481565b61014d7f000000000000000000000000000000000000000000000000000000000000000081565b61011d6101e13660046107bd565b61065f565b6100f760045481565b6000546001600160a01b0316331461024e5760405162461bcd60e51b815260206004820181905260248201527f4f776e61626c653a2063616c6c6572206973206e6f7420746865206f776e657260448201526064015b60405180910390fd5b600255565b6000546001600160a01b031633146102ad5760405162461bcd60e51b815260206004820181905260248201527f4f776e61626c653a2063616c6c6572206973206e6f7420746865206f776e65726044820152606401610245565b6001546001600160a01b0316331461032d5760405162461bcd60e51b815260206004820152602a60248201527f54726561737572795665737465723a3a736574526563697069656e743a20756e60448201527f617574686f72697a6564000000000000000000000000000000000000000000006064820152608401610245565b6001805473ffffffffffffffffffffffffffffffffffffffff19166001600160a01b0392909216919091179055565b6004544210156103d45760405162461bcd60e51b815260206004820152602360248201527f54726561737572795665737465723a3a636c61696d3a206e6f742074696d652060448201527f79657400000000000000000000000000000000000000000000000000000000006064820152608401610245565b60006005544210610496576040517f70a082310000000000000000000000000000000000000000000000000000000081523060048201527f00000000000000000000000000000000000000000000000000000000000000006001600160a01b0316906370a082319060240160206040518083038186803b15801561045757600080fd5b505afa15801561046b573d6000803e3d6000fd5b505050506040513d601f19601f8201168201806040525081019061048f919061081c565b90506104d0565b6104c96003546005546104a99190610894565b6104c3600654426104ba9190610894565b60025490610741565b90610754565b4260065590505b6001546040517fa9059cbb0000000000000000000000000000000000000000000000000000000081526001600160a01b039182166004820152602481018390527f00000000000000000000000000000000000000000000000000000000000000009091169063a9059cbb90604401602060405180830381600087803b15801561055857600080fd5b505af115801561056c573d6000803e3d6000fd5b505050506040513d601f19601f8201168201806040525081019061059091906107e4565b5050565b6000546001600160a01b031633146105ee5760405162461bcd60e51b815260206004820181905260248201527f4f776e61626c653a2063616c6c6572206973206e6f7420746865206f776e65726044820152606401610245565b6105f86000610760565b565b6000546001600160a01b031633146106545760405162461bcd60e51b815260206004820181905260248201527f4f776e61626c653a2063616c6c6572206973206e6f7420746865206f776e65726044820152606401610245565b600391909155600555565b6000546001600160a01b031633146106b95760405162461bcd60e51b815260206004820181905260248201527f4f776e61626c653a2063616c6c6572206973206e6f7420746865206f776e65726044820152606401610245565b6001600160a01b0381166107355760405162461bcd60e51b815260206004820152602660248201527f4f776e61626c653a206e6577206f776e657220697320746865207a65726f206160448201527f64647265737300000000000000000000000000000000000000000000000000006064820152608401610245565b61073e81610760565b50565b600061074d8284610875565b9392505050565b600061074d8284610855565b600080546001600160a01b0383811673ffffffffffffffffffffffffffffffffffffffff19831681178455604051919092169283917f8be0079c531659141344cd1fd0a4f28419497f9722a3daafe3b4186f6b6457e09190a35050565b6000602082840312156107ce578081fd5b81356001600160a01b038116811461074d578182fd5b6000602082840312156107f5578081fd5b8151801515811461074d578182fd5b600060208284031215610815578081fd5b5035919050565b60006020828403121561082d578081fd5b5051919050565b60008060408385031215610846578081fd5b50508035926020909101359150565b60008261087057634e487b7160e01b81526012600452602481fd5b500490565b600081600019048311821515161561088f5761088f6108ab565b500290565b6000828210156108a6576108a66108ab565b500390565b634e487b7160e01b600052601160045260246000fdfea2646970667358221220ba7392e390955d2a4ad74805f24e46f63523f6a4c99c50ec33b527268c3fee5964736f6c63430008040033",
  "linkReferences": {},
  "deployedLinkReferences": {}
}