{
  "_format": "hh-sol-artifact-1",
  "contractName": "AkitaBounty",
  "sourceName": "contracts/AkitaBounty.sol",
  "abi": [
    {
      "anonymous": false,
      "inputs": [
        {
          "indexed": true,
          "internalType": "address",
          "name": "previousOwner",
          "type": "address"
        },
        {
          "indexed": true,
          "internalType": "address",
          "name": "newOwner",
          "type": "address"
        }
      ],
      "name": "OwnershipTransferred",
      "type": "event"
    },
    {
      "inputs": [
        {
          "internalType": "address",
          "name": "_sender",
          "type": "address"
        },
        {
          "internalType": "uint256",
          "name": "_bountyId",
          "type": "uint256"
        },
        {
          "internalType": "uint256",
          "name": "_fulfillmentId",
          "type": "uint256"
        },
        {
          "internalType": "uint256",
          "name": "_approverId",
          "type": "uint256"
        },
        {
          "internalType": "uint256[]",
          "name": "_tokenAmounts",
          "type": "uint256[]"
        }
      ],
      "name": "acceptFulfillment",
      "outputs": [],
      "stateMutability": "nonpayable",
      "type": "function"
    },
    {
      "inputs": [
        {
          "internalType": "address",
          "name": "_sender",
          "type": "address"
        },
        {
          "internalType": "uint256",
          "name": "_bountyId",
          "type": "uint256"
        },
        {
          "internalType": "uint256",
          "name": "_issuerId",
          "type": "uint256"
        },
        {
          "internalType": "address[]",
          "name": "_approvers",
          "type": "address[]"
        }
      ],
      "name": "addApprovers",
      "outputs": [],
      "stateMutability": "nonpayable",
      "type": "function"
    },
    {
      "inputs": [
        {
          "internalType": "address",
          "name": "_sender",
          "type": "address"
        },
        {
          "internalType": "uint256",
          "name": "_bountyId",
          "type": "uint256"
        },
        {
          "internalType": "uint256",
          "name": "_issuerId",
          "type": "uint256"
        },
        {
          "internalType": "address payable[]",
          "name": "_issuers",
          "type": "address[]"
        }
      ],
      "name": "addIssuers",
      "outputs": [],
      "stateMutability": "nonpayable",
      "type": "function"
    },
    {
      "inputs": [
        {
          "internalType": "uint256",
          "name": "",
          "type": "uint256"
        }
      ],
      "name": "bounties",
      "outputs": [
        {
          "internalType": "uint256",
          "name": "deadline",
          "type": "uint256"
        },
        {
          "internalType": "address",
          "name": "token",
          "type": "address"
        },
        {
          "internalType": "address",
          "name": "token1",
          "type": "address"
        },
        {
          "internalType": "uint256",
          "name": "tokenVersion",
          "type": "uint256"
        },
        {
          "internalType": "uint256",
          "name": "balance",
          "type": "uint256"
        },
        {
          "internalType": "uint256",
          "name": "balance1",
          "type": "uint256"
        },
        {
          "internalType": "bool",
          "name": "hasPaidOut",
          "type": "bool"
        }
      ],
      "stateMutability": "view",
      "type": "function"
    },
    {
      "inputs": [],
      "name": "callStarted",
      "outputs": [
        {
          "internalType": "bool",
          "name": "",
          "type": "bool"
        }
      ],
      "stateMutability": "view",
      "type": "function"
    },
    {
      "inputs": [
        {
          "internalType": "address",
          "name": "_sender",
          "type": "address"
        },
        {
          "internalType": "uint256",
          "name": "_bountyId",
          "type": "uint256"
        },
        {
          "internalType": "uint256",
          "name": "_issuerId",
          "type": "uint256"
        },
        {
          "internalType": "uint256",
          "name": "_approverId",
          "type": "uint256"
        },
        {
          "internalType": "address payable",
          "name": "_approver",
          "type": "address"
        }
      ],
      "name": "changeApprover",
      "outputs": [],
      "stateMutability": "nonpayable",
      "type": "function"
    },
    {
      "inputs": [
        {
          "internalType": "address",
          "name": "_sender",
          "type": "address"
        },
        {
          "internalType": "uint256",
          "name": "_bountyId",
          "type": "uint256"
        },
        {
          "internalType": "uint256",
          "name": "_issuerId",
          "type": "uint256"
        },
        {
          "internalType": "address payable[]",
          "name": "_issuers",
          "type": "address[]"
        },
        {
          "internalType": "address payable[]",
          "name": "_approvers",
          "type": "address[]"
        },
        {
          "internalType": "uint256",
          "name": "_deadline",
          "type": "uint256"
        }
      ],
      "name": "changeBounty",
      "outputs": [],
      "stateMutability": "nonpayable",
      "type": "function"
    },
    {
      "inputs": [
        {
          "internalType": "address",
          "name": "_sender",
          "type": "address"
        },
        {
          "internalType": "uint256",
          "name": "_bountyId",
          "type": "uint256"
        },
        {
          "internalType": "uint256",
          "name": "_issuerId",
          "type": "uint256"
        },
        {
          "internalType": "uint256",
          "name": "_deadline",
          "type": "uint256"
        }
      ],
      "name": "changeDeadline",
      "outputs": [],
      "stateMutability": "nonpayable",
      "type": "function"
    },
    {
      "inputs": [
        {
          "internalType": "address",
          "name": "_sender",
          "type": "address"
        },
        {
          "internalType": "uint256",
          "name": "_bountyId",
          "type": "uint256"
        },
        {
          "internalType": "uint256",
          "name": "_issuerId",
          "type": "uint256"
        },
        {
          "internalType": "uint256",
          "name": "_issuerIdToChange",
          "type": "uint256"
        },
        {
          "internalType": "address payable",
          "name": "_newIssuer",
          "type": "address"
        }
      ],
      "name": "changeIssuer",
      "outputs": [],
      "stateMutability": "nonpayable",
      "type": "function"
    },
    {
      "inputs": [
        {
          "internalType": "address",
          "name": "_sender",
          "type": "address"
        },
        {
          "internalType": "uint256",
          "name": "_bountyId",
          "type": "uint256"
        },
        {
          "internalType": "uint256",
          "name": "_issuerId",
          "type": "uint256"
        },
        {
          "internalType": "uint256",
          "name": "_issuerIdToChange",
          "type": "uint256"
        },
        {
          "internalType": "uint256",
          "name": "_approverIdToChange",
          "type": "uint256"
        },
        {
          "internalType": "address payable",
          "name": "_issuer",
          "type": "address"
        }
      ],
      "name": "changeIssuerAndApprover",
      "outputs": [],
      "stateMutability": "nonpayable",
      "type": "function"
    },
    {
      "inputs": [
        {
          "internalType": "address payable",
          "name": "_sender",
          "type": "address"
        },
        {
          "internalType": "uint256",
          "name": "_bountyId",
          "type": "uint256"
        },
        {
          "internalType": "uint256",
          "name": "_amount",
          "type": "uint256"
        }
      ],
      "name": "contribute",
      "outputs": [],
      "stateMutability": "payable",
      "type": "function"
    },
    {
      "inputs": [
        {
          "internalType": "address payable",
          "name": "_sender",
          "type": "address"
        },
        {
          "internalType": "uint256",
          "name": "_bountyId",
          "type": "uint256"
        },
        {
          "internalType": "uint256",
          "name": "_issuerId",
          "type": "uint256"
        },
        {
          "internalType": "uint256[]",
          "name": "_amounts",
          "type": "uint256[]"
        }
      ],
      "name": "drainBounty",
      "outputs": [],
      "stateMutability": "nonpayable",
      "type": "function"
    },
    {
      "inputs": [
        {
          "internalType": "address",
          "name": "_sender",
          "type": "address"
        },
        {
          "internalType": "uint256",
          "name": "_bountyId",
          "type": "uint256"
        },
        {
          "internalType": "address payable[]",
          "name": "_fulfillers",
          "type": "address[]"
        },
        {
          "internalType": "uint256",
          "name": "_approverId",
          "type": "uint256"
        },
        {
          "internalType": "uint256[]",
          "name": "_tokenAmounts",
          "type": "uint256[]"
        }
      ],
      "name": "fulfillAndAccept",
      "outputs": [],
      "stateMutability": "nonpayable",
      "type": "function"
    },
    {
      "inputs": [
        {
          "internalType": "address",
          "name": "_sender",
          "type": "address"
        },
        {
          "internalType": "uint256",
          "name": "_bountyId",
          "type": "uint256"
        },
        {
          "internalType": "address payable[]",
          "name": "_fulfillers",
          "type": "address[]"
        }
      ],
      "name": "fulfillBounty",
      "outputs": [],
      "stateMutability": "nonpayable",
      "type": "function"
    },
    {
      "inputs": [
        {
          "internalType": "uint256",
          "name": "_bountyId",
          "type": "uint256"
        }
      ],
      "name": "getBounty",
      "outputs": [
        {
          "components": [
            {
              "internalType": "address payable[]",
              "name": "issuers",
              "type": "address[]"
            },
            {
              "internalType": "address[]",
              "name": "approvers",
              "type": "address[]"
            },
            {
              "internalType": "uint256",
              "name": "deadline",
              "type": "uint256"
            },
            {
              "internalType": "address",
              "name": "token",
              "type": "address"
            },
            {
              "internalType": "address",
              "name": "token1",
              "type": "address"
            },
            {
              "internalType": "uint256",
              "name": "tokenVersion",
              "type": "uint256"
            },
            {
              "internalType": "uint256",
              "name": "balance",
              "type": "uint256"
            },
            {
              "internalType": "uint256",
              "name": "balance1",
              "type": "uint256"
            },
            {
              "internalType": "bool",
              "name": "hasPaidOut",
              "type": "bool"
            },
            {
              "components": [
                {
                  "internalType": "address payable[]",
                  "name": "fulfillers",
                  "type": "address[]"
                },
                {
                  "internalType": "address",
                  "name": "submitter",
                  "type": "address"
                }
              ],
              "internalType": "struct AkitaBounty.Fulfillment[]",
              "name": "fulfillments",
              "type": "tuple[]"
            },
            {
              "components": [
                {
                  "internalType": "address payable",
                  "name": "contributor",
                  "type": "address"
                },
                {
                  "internalType": "uint256",
                  "name": "amount",
                  "type": "uint256"
                },
                {
                  "internalType": "bool",
                  "name": "refunded",
                  "type": "bool"
                }
              ],
              "internalType": "struct AkitaBounty.Contribution[]",
              "name": "contributions",
              "type": "tuple[]"
            },
            {
              "components": [
                {
                  "internalType": "address payable",
                  "name": "contributor",
                  "type": "address"
                },
                {
                  "internalType": "uint256",
                  "name": "amount",
                  "type": "uint256"
                },
                {
                  "internalType": "bool",
                  "name": "refunded",
                  "type": "bool"
                }
              ],
              "internalType": "struct AkitaBounty.Contribution[]",
              "name": "contributions1",
              "type": "tuple[]"
            }
          ],
          "internalType": "struct AkitaBounty.Bounty",
          "name": "",
          "type": "tuple"
        }
      ],
      "stateMutability": "view",
      "type": "function"
    },
    {
      "inputs": [
        {
          "internalType": "uint256",
          "name": "_bountyId",
          "type": "uint256"
        }
      ],
      "name": "getIssuers",
      "outputs": [
        {
          "internalType": "address payable[]",
          "name": "",
          "type": "address[]"
        }
      ],
      "stateMutability": "view",
      "type": "function"
    },
    {
      "inputs": [
        {
          "internalType": "address payable",
          "name": "_sender",
          "type": "address"
        },
        {
          "internalType": "address payable[]",
          "name": "_issuers",
          "type": "address[]"
        },
        {
          "internalType": "address[]",
          "name": "_approvers",
          "type": "address[]"
        },
        {
          "internalType": "uint256",
          "name": "_deadline",
          "type": "uint256"
        },
        {
          "internalType": "address",
          "name": "_token",
          "type": "address"
        },
        {
          "internalType": "address",
          "name": "_token1",
          "type": "address"
        },
        {
          "internalType": "uint256",
          "name": "_tokenVersion",
          "type": "uint256"
        },
        {
          "internalType": "uint256",
          "name": "_depositAmount",
          "type": "uint256"
        }
      ],
      "name": "issueAndContribute",
      "outputs": [
        {
          "internalType": "uint256",
          "name": "",
          "type": "uint256"
        }
      ],
      "stateMutability": "payable",
      "type": "function"
    },
    {
      "inputs": [
        {
          "internalType": "address payable",
          "name": "_sender",
          "type": "address"
        },
        {
          "internalType": "address payable[]",
          "name": "_issuers",
          "type": "address[]"
        },
        {
          "internalType": "address[]",
          "name": "_approvers",
          "type": "address[]"
        },
        {
          "internalType": "uint256",
          "name": "_deadline",
          "type": "uint256"
        },
        {
          "internalType": "address",
          "name": "_token",
          "type": "address"
        },
        {
          "internalType": "address",
          "name": "_token1",
          "type": "address"
        },
        {
          "internalType": "uint256",
          "name": "_tokenVersion",
          "type": "uint256"
        }
      ],
      "name": "issueBounty",
      "outputs": [
        {
          "internalType": "uint256",
          "name": "",
          "type": "uint256"
        }
      ],
      "stateMutability": "nonpayable",
      "type": "function"
    },
    {
      "inputs": [],
      "name": "metaTxRelayer",
      "outputs": [
        {
          "internalType": "address",
          "name": "",
          "type": "address"
        }
      ],
      "stateMutability": "view",
      "type": "function"
    },
    {
      "inputs": [],
      "name": "numBounties",
      "outputs": [
        {
          "internalType": "uint256",
          "name": "",
          "type": "uint256"
        }
      ],
      "stateMutability": "view",
      "type": "function"
    },
    {
      "inputs": [],
      "name": "owner",
      "outputs": [
        {
          "internalType": "address",
          "name": "",
          "type": "address"
        }
      ],
      "stateMutability": "view",
      "type": "function"
    },
    {
      "inputs": [
        {
          "internalType": "address",
          "name": "_sender",
          "type": "address"
        },
        {
          "internalType": "uint256",
          "name": "_bountyId",
          "type": "uint256"
        },
        {
          "internalType": "uint256",
          "name": "_contributionId",
          "type": "uint256"
        }
      ],
      "name": "refundContribution",
      "outputs": [],
      "stateMutability": "nonpayable",
      "type": "function"
    },
    {
      "inputs": [
        {
          "internalType": "address",
          "name": "_sender",
          "type": "address"
        },
        {
          "internalType": "uint256",
          "name": "_bountyId",
          "type": "uint256"
        },
        {
          "internalType": "uint256",
          "name": "_issuerId",
          "type": "uint256"
        },
        {
          "internalType": "uint256[]",
          "name": "_contributionIds",
          "type": "uint256[]"
        }
      ],
      "name": "refundContributions",
      "outputs": [],
      "stateMutability": "nonpayable",
      "type": "function"
    },
    {
      "inputs": [
        {
          "internalType": "address",
          "name": "_sender",
          "type": "address"
        },
        {
          "internalType": "uint256",
          "name": "_bountyId",
          "type": "uint256"
        },
        {
          "internalType": "uint256[]",
          "name": "_contributionIds",
          "type": "uint256[]"
        }
      ],
      "name": "refundMyContributions",
      "outputs": [],
      "stateMutability": "nonpayable",
      "type": "function"
    },
    {
      "inputs": [],
      "name": "renounceOwnership",
      "outputs": [],
      "stateMutability": "nonpayable",
      "type": "function"
    },
    {
      "inputs": [
        {
          "internalType": "address",
          "name": "_relayer",
          "type": "address"
        }
      ],
      "name": "setMetaTxRelayer",
      "outputs": [],
      "stateMutability": "nonpayable",
      "type": "function"
    },
    {
      "inputs": [
        {
          "internalType": "uint256",
          "name": "",
          "type": "uint256"
        },
        {
          "internalType": "uint256",
          "name": "",
          "type": "uint256"
        }
      ],
      "name": "tokenBalances",
      "outputs": [
        {
          "internalType": "bool",
          "name": "",
          "type": "bool"
        }
      ],
      "stateMutability": "view",
      "type": "function"
    },
    {
      "inputs": [
        {
          "internalType": "address",
          "name": "newOwner",
          "type": "address"
        }
      ],
      "name": "transferOwnership",
      "outputs": [],
      "stateMutability": "nonpayable",
      "type": "function"
    },
    {
      "inputs": [
        {
          "internalType": "address",
          "name": "_sender",
          "type": "address"
        },
        {
          "internalType": "uint256",
          "name": "_bountyId",
          "type": "uint256"
        },
        {
          "internalType": "uint256",
          "name": "_fulfillmentId",
          "type": "uint256"
        },
        {
          "internalType": "address payable[]",
          "name": "_fulfillers",
          "type": "address[]"
        }
      ],
      "name": "updateFulfillment",
      "outputs": [],
      "stateMutability": "nonpayable",
      "type": "function"
    }
  ],
  "bytecode": "0x60806040523480156200001157600080fd5b506200001d3362000023565b62000073565b600080546001600160a01b038381166001600160a01b0319831681178455604051919092169283917f8be0079c531659141344cd1fd0a4f28419497f9722a3daafe3b4186f6b6457e09190a35050565b6138db80620000836000396000f3fe6080604052600436106101c15760003560e01c80639e64d9bf116100f7578063c6a8b42b11610095578063edba701311610064578063edba701314610597578063ee8c4bbf146105b7578063f2fde38b146105e4578063fdb4a8fe1461060457600080fd5b8063c6a8b42b1461046d578063d68454391461048d578063dc2f8744146104ad578063ec41e4cd1461055c57600080fd5b8063aa17aaef116100d1578063aa17aaef146103e8578063bae3755614610408578063c1107c1114610428578063c3888fa81461044d57600080fd5b80639e64d9bf14610395578063a071fbd5146103b5578063a08f793c146103d557600080fd5b8063715018a61161016457806388db0f521161013e57806388db0f521461030c57806389eb9276146103305780638da5cb5b1461034357806393c1ccc91461037557600080fd5b8063715018a6146102a8578063720dc00c146102bd5780637d427c86146102ec57600080fd5b80633a1e13a4116101a05780633a1e13a4146102285780633efb0762146102485780634daf1bb51461026857806361cf22131461028857600080fd5b8062f27e38146101c65780632092e259146101e85780633756f3c814610208575b600080fd5b3480156101d257600080fd5b506101e66101e1366004613461565b610631565b005b3480156101f457600080fd5b506101e661020336600461340c565b61084a565b34801561021457600080fd5b506101e6610223366004613139565b610972565b34801561023457600080fd5b506101e661024336600461319a565b610b8e565b34801561025457600080fd5b506101e66102633660046132d9565b610c7f565b34801561027457600080fd5b506101e66102833660046132d9565b610da8565b34801561029457600080fd5b506101e66102a3366004612f85565b610eec565b3480156102b457600080fd5b506101e6610fa5565b3480156102c957600080fd5b506004546102d79060ff1681565b60405190151581526020015b60405180910390f35b3480156102f857600080fd5b506101e66103073660046131f1565b61100b565b34801561031857600080fd5b5061032260015481565b6040519081526020016102e3565b61032261033e36600461304f565b61107b565b34801561034f57600080fd5b506000546001600160a01b03165b6040516001600160a01b0390911681526020016102e3565b34801561038157600080fd5b506101e66103903660046132c5565b6110a7565b3480156103a157600080fd5b506101e66103b036600461340c565b611283565b3480156103c157600080fd5b506101e66103d03660046133bd565b61138c565b6101e66103e3366004613105565b611557565b3480156103f457600080fd5b506101e66104033660046133d2565b611cc6565b34801561041457600080fd5b506101e66104233660046134bf565b611d9e565b34801561043457600080fd5b5060045461035d9061010090046001600160a01b031681565b34801561045957600080fd5b50610322610468366004612fa1565b611f3a565b34801561047957600080fd5b506101e66104883660046132d9565b612083565b34801561049957600080fd5b506101e66104a836600461332e565b6121c1565b3480156104b957600080fd5b506105196104c836600461353c565b6002602081905260009182526040909120908101546003820154600483015460058401546006850154600786015460089096015494956001600160a01b039485169594909316939192909160ff1687565b604080519788526001600160a01b03968716602089015294909516938601939093526060850191909152608084015260a0830152151560c082015260e0016102e3565b34801561056857600080fd5b506102d7610577366004613554565b600360209081526000928352604080842090915290825290205460ff1681565b3480156105a357600080fd5b506101e66105b2366004613278565b6122e9565b3480156105c357600080fd5b506105d76105d236600461353c565b612370565b6040516102e3919061368e565b3480156105f057600080fd5b506101e66105ff366004612f85565b612709565b34801561061057600080fd5b5061062461061f36600461353c565b6127eb565b6040516102e3919061367b565b84336001600160a01b0382161480610658575060045461010090046001600160a01b031633145b61066157600080fd5b84600154811061067057600080fd5b60008681526002602052604090206009015486908690811061069157600080fd5b8888876002600083815260200190815260200160002060010181815481106106c957634e487b7160e01b600052603260045260246000fd5b6000918252602090912001546001600160a01b038481169116146106ec57600080fd5b60045460ff16156106fc57600080fd5b60048054600160ff19918216811790925560008d8152600260205260408120600881018054909316909317909155600990910180548c90811061074f57634e487b7160e01b600052603260045260246000fd5b6000918252602090912060029091020180548a519192501461077057600080fd5b60005b81548110156108305760008a828151811061079e57634e487b7160e01b600052603260045260246000fd5b6020026020010151111561081e5761081e8d8360000183815481106107d357634e487b7160e01b600052603260045260246000fd5b9060005260206000200160009054906101000a90046001600160a01b03168c848151811061081157634e487b7160e01b600052603260045260246000fd5b6020026020010151612857565b8061082881613849565b915050610773565b50506004805460ff19169055505050505050505050505050565b84336001600160a01b0382161480610871575060045461010090046001600160a01b031633145b61087a57600080fd5b84600154811061088957600080fd5b6000868152600260205260409020805488918891889190829081106108be57634e487b7160e01b600052603260045260246000fd5b6000918252602090912001546001600160a01b038481169116146108e157600080fd5b60008981526002602052604090206001015489908890811061090257600080fd5b60008b815260026020526040902060010180548991908b90811061093657634e487b7160e01b600052603260045260246000fd5b9060005260206000200160006101000a8154816001600160a01b0302191690836001600160a01b03160217905550505050505050505050505050565b83336001600160a01b0382161480610999575060045461010090046001600160a01b031633145b6109a257600080fd5b8360015481106109b157600080fd5b6000858152600260205260409020805487918791879190829081106109e657634e487b7160e01b600052603260045260246000fd5b6000918252602090912001546001600160a01b03848116911614610a0957600080fd5b60045460ff1615610a1957600080fd5b6004805460ff191660011790556000888152600260205260409020600501541580610a5557506000888152600260205260409020600501546014145b15610ad8578551600114610a6857600080fd5b600088815260026020526040812060060154875190918891610a9a57634e487b7160e01b600052603260045260246000fd5b60200260200101511115610aad57600080fd5b610ad3888a8860008151811061081157634e487b7160e01b600052603260045260246000fd5b610b79565b60005b8651811015610b7757600360008a81526020019081526020016000206000888381518110610b1957634e487b7160e01b600052603260045260246000fd5b60209081029190910181015182528101919091526040016000205460ff16610b4057600080fd5b610b65898b89848151811061081157634e487b7160e01b600052603260045260246000fd5b80610b6f81613849565b915050610adb565b505b50506004805460ff1916905550505050505050565b82336001600160a01b0382161480610bb5575060045461010090046001600160a01b031633145b610bbe57600080fd5b826001548110610bcd57600080fd5b600084815260026020819052604090912001544210610beb57600080fd5b6000835111610bf957600080fd5b600084815260026020818152604080842081518083019092528782526001600160a01b038a16828401526009018054600181018255908552938290208151805192959094020192610c4e928492910190612e36565b5060209190910151600190910180546001600160a01b0319166001600160a01b039092169190911790555050505050565b83336001600160a01b0382161480610ca6575060045461010090046001600160a01b031633145b610caf57600080fd5b836001548110610cbe57600080fd5b600085815260026020526040902060090154859085908110610cdf57600080fd5b878787600260008381526020019081526020016000206009018181548110610d1757634e487b7160e01b600052603260045260246000fd5b60009182526020909120600160029092020101546001600160a01b03848116911614610d4257600080fd5b60008a815260026020526040902060090180548991908b908110610d7657634e487b7160e01b600052603260045260246000fd5b90600052602060002090600202016000019080519060200190610d9a929190612e36565b505050505050505050505050565b83336001600160a01b0382161480610dcf575060045461010090046001600160a01b031633145b610dd857600080fd5b836001548110610de757600080fd5b600085815260026020526040902054859085908110610e0557600080fd5b600087815260026020526040902080548991899189919082908110610e3a57634e487b7160e01b600052603260045260246000fd5b6000918252602090912001546001600160a01b03848116911614610e5d57600080fd5b60005b8851811015610d9a57600260008c8152602001908152602001600020600101898281518110610e9f57634e487b7160e01b600052603260045260246000fd5b60209081029190910181015182546001810184556000938452919092200180546001600160a01b0319166001600160a01b0390921691909117905580610ee481613849565b915050610e60565b6000546001600160a01b03163314610f4b5760405162461bcd60e51b815260206004820181905260248201527f4f776e61626c653a2063616c6c6572206973206e6f7420746865206f776e657260448201526064015b60405180910390fd5b60045461010090046001600160a01b031615610f6657600080fd5b600480546001600160a01b03909216610100027fffffffffffffffffffffff0000000000000000000000000000000000000000ff909216919091179055565b6000546001600160a01b03163314610fff5760405162461bcd60e51b815260206004820181905260248201527f4f776e61626c653a2063616c6c6572206973206e6f7420746865206f776e65726044820152606401610f42565b6110096000612dc7565b565b84336001600160a01b0382161480611032575060045461010090046001600160a01b031633145b61103b57600080fd5b611046868686610b8e565b600085815260026020526040902060090154611073908790879061106c90600190613832565b8686610631565b505050505050565b60008061108d8a8a8a8a8a8a8a611f3a565b905061109a8a8285611557565b9998505050505050505050565b82336001600160a01b03821614806110ce575060045461010090046001600160a01b031633145b6110d757600080fd5b8260015481106110e657600080fd5b6000848152600260205260409020600a015484908490811061110757600080fd5b86868660026000838152602001908152602001600020600a01818154811061113f57634e487b7160e01b600052603260045260246000fd5b60009182526020909120600390910201546001600160a01b0384811691161461116757600080fd5b6000898152600260205260409020600a0180548a918a918290811061119c57634e487b7160e01b600052603260045260246000fd5b600091825260209091206002600390920201015460ff16156111bd57600080fd5b60045460ff16156111cd57600080fd5b6004805460ff1916600117905560008b8152600260208190526040909120015442116111f857600080fd5b60008b8152600260205260408120600a0180548c90811061122957634e487b7160e01b600052603260045260246000fd5b600091825260209091206002600390920201908101805460ff1916600190811790915581549082015491925061126a918e916001600160a01b031690612857565b50506004805460ff191690555050505050505050505050565b84336001600160a01b03821614806112aa575060045461010090046001600160a01b031633145b6112b357600080fd5b8460015481106112c257600080fd5b6000868152600260205260409020548690859081106112e057600080fd5b600088815260026020526040902080548a918a918a91908290811061131557634e487b7160e01b600052603260045260246000fd5b6000918252602090912001546001600160a01b0384811691161461133857600080fd5b60008b8152600260205260409020548a1080611352575089155b61135b57600080fd5b60008b815260026020526040902080548991908b90811061093657634e487b7160e01b600052603260045260246000fd5b83336001600160a01b03821614806113b3575060045461010090046001600160a01b031633145b6113bc57600080fd5b8360015481106113cb57600080fd5b60008581526002602052604090208054879187918791908290811061140057634e487b7160e01b600052603260045260246000fd5b6000918252602090912001546001600160a01b0384811691161461142357600080fd5b60045460ff161561143357600080fd5b6004805460ff1916600117905560005b8651811015610b77576000898152600260205260409020600a0154875188908390811061148057634e487b7160e01b600052603260045260246000fd5b60200260200101511061149257600080fd5b6000600260008b8152602001908152602001600020600a018883815181106114ca57634e487b7160e01b600052603260045260246000fd5b6020026020010151815481106114f057634e487b7160e01b600052603260045260246000fd5b60009182526020909120600390910201600281015490915060ff161561151557600080fd5b60028101805460ff19166001908117909155815490820154611544918c916001600160a01b0390911690612857565b508061154f81613849565b915050611443565b82336001600160a01b038216148061157e575060045461010090046001600160a01b031633145b61158757600080fd5b82600154811061159657600080fd5b60045460ff16156115a657600080fd5b6004805460ff19166001179055826115bd57600080fd5b600084815260026020818152604080842081516060810183526001600160a01b038b811682528185018a8152938201878152600a808501805460018082018355918b52888b209551600390910290950180546001600160a01b031916959094169490941783559451928201929092559051908501805460ff191691151591909117905593889052919052600590910154148061166a5750600084815260026020526040902060050154600b145b156117a15760026000858152602001908152602001600020600a016040518060600160405280876001600160a01b031681526020016002866116ac9190613812565b815260006020918201819052835460018082018655948252828220845160039092020180546001600160a01b0319166001600160a01b0392831617815584840151958101959095556040938401516002958601805460ff1916911515919091179055888252848352908390208351606081019094529089168352600b0192908201906117389087613812565b81526000602091820181905283546001808201865594825290829020835160039092020180546001600160a01b0319166001600160a01b039092169190911781559082015192810192909255604001516002909101805460ff1916911515919091179055611825565b600084815260026020818152604080842081516060810183526001600160a01b038b811682528185018a8152938201878152600a909301805460018082018355918952959097209151600390950290910180546001600160a01b0319169490911693909317835590519382019390935591519101805460ff19169115159190911790555b60008481526002602052604090206005015461187a5782341461184757600080fd5b6000848152600260205260409020600601546118639084612e17565b600085815260026020526040902060060155611cb5565b600084815260026020526040902060050154600a14156119ee576118ba6118a2600285613812565b60008681526002602052604090206006015490612e17565b6000858152600260208190526040909120600601919091556118e0906118a29085613812565b6000858152600260208190526040909120600601919091556119029084613812565b341461190d57600080fd5b6000848152600260208190526040909120600401546001600160a01b0316906323b872dd90879030906119409088613812565b6040517fffffffff0000000000000000000000000000000000000000000000000000000060e086901b1681526001600160a01b03938416600482015292909116602483015260448201526064015b602060405180830381600087803b1580156119a857600080fd5b505af11580156119bc573d6000803e3d6000fd5b505050506040513d601f19601f820116820180604052508101906119e0919061351c565b6119e957600080fd5b611cb5565b600084815260026020526040902060050154600b1415611b4c57611a166118a2600285613812565b600085815260026020819052604090912060060191909155611a5490611a3c9085613812565b60008681526002602052604090206007015490612e17565b6000858152600260205260409020600701553415611a7157600080fd5b6000848152600260208190526040909120600301546001600160a01b0316906323b872dd9087903090611aa49088613812565b6040517fffffffff0000000000000000000000000000000000000000000000000000000060e086901b1681526001600160a01b0393841660048201529290911660248301526044820152606401602060405180830381600087803b158015611b0b57600080fd5b505af1158015611b1f573d6000803e3d6000fd5b505050506040513d601f19601f82011682018060405250810190611b43919061351c565b61190d57600080fd5b60008481526002602052604090206005015460141415611bee57600084815260026020526040902060060154611b829084612e17565b6000858152600260205260409020600601553415611b9f57600080fd5b600084815260026020526040908190206003015490516323b872dd60e01b81526001600160a01b03878116600483015230602483015260448201869052909116906323b872dd9060640161198e565b6000848152600260205260409020600501546102d114156101c15760008481526003602090815260408083208684529091529020805460ff191660011790553415611c3857600080fd5b600084815260026020526040908190206003015490516323b872dd60e01b81526001600160a01b03878116600483015230602483015260448201869052909116906323b872dd90606401600060405180830381600087803b158015611c9c57600080fd5b505af1158015611cb0573d6000803e3d6000fd5b505050505b50506004805460ff19169055505050565b83336001600160a01b0382161480611ced575060045461010090046001600160a01b031633145b611cf657600080fd5b836001548110611d0557600080fd5b600085815260026020526040902054859085908110611d2357600080fd5b600087815260026020526040902080548991899189919082908110611d5857634e487b7160e01b600052603260045260246000fd5b6000918252602090912001546001600160a01b03848116911614611d7b57600080fd5b505050600096875250506002602081905260409095209094019190915550505050565b85336001600160a01b0382161480611dc5575060045461010090046001600160a01b031633145b611dce57600080fd5b600086815260026020526040902080548891889188919082908110611e0357634e487b7160e01b600052603260045260246000fd5b6000918252602090912001546001600160a01b03848116911614611e2657600080fd5b6001548910611e3457600080fd5b6000898152600260205260409020600101548610611e5157600080fd5b6000898152600260205260409020548710611e6b57600080fd5b6000898152600260205260409020805486919089908110611e9c57634e487b7160e01b600052603260045260246000fd5b9060005260206000200160006101000a8154816001600160a01b0302191690836001600160a01b0316021790555084600260008b81526020019081526020016000206001018781548110611f0057634e487b7160e01b600052603260045260246000fd5b9060005260206000200160006101000a8154816001600160a01b0302191690836001600160a01b0316021790555050505050505050505050565b600087336001600160a01b0382161480611f63575060045461010090046001600160a01b031633145b611f6c57600080fd5b821580611f795750826014145b80611f855750826102d1145b80611f90575082600a145b80611f9b575082600b145b611fa457600080fd5b600088511180611fb5575060008751115b611fbe57600080fd5b60015460008181526002602090815260409091208a519091611fe49183918d0190612e36565b508851611ffa90600183019060208c0190612e36565b506002810188905560058101859055841561202d576003810180546001600160a01b0319166001600160a01b0389161790555b84600a148061203c575084600b145b1561205f576004810180546001600160a01b0319166001600160a01b0388161790555b6001805490600061206f83613849565b90915550919b9a5050505050505050505050565b83336001600160a01b03821614806120aa575060045461010090046001600160a01b031633145b6120b357600080fd5b8360015481106120c257600080fd5b6000858152600260205260409020548590859081106120e057600080fd5b60008781526002602052604090208054899189918991908290811061211557634e487b7160e01b600052603260045260246000fd5b6000918252602090912001546001600160a01b0384811691161461213857600080fd5b60005b8851811015610d9a5760008b815260026020526040902089518a908390811061217457634e487b7160e01b600052603260045260246000fd5b60209081029190910181015182546001810184556000938452919092200180546001600160a01b0319166001600160a01b03909216919091179055806121b981613849565b91505061213b565b85336001600160a01b03821614806121e8575060045461010090046001600160a01b031633145b6121f157600080fd5b60015486106121ff57600080fd5b600086815260026020526040902054851061221957600080fd5b600086815260026020526040902080548690811061224757634e487b7160e01b600052603260045260246000fd5b6000918252602090912001546001600160a01b0388811691161461226a57600080fd5b60008451118061227b575060008351115b61228457600080fd5b600086815260026020908152604090912085516122a392870190612e36565b50600086815260026020908152604090912084516122c992600190920191860190612e36565b505060009485526002602081905260409095209094019390935550505050565b82336001600160a01b0382161480612310575060045461010090046001600160a01b031633145b61231957600080fd5b60005b825181101561236957612357858585848151811061234a57634e487b7160e01b600052603260045260246000fd5b60200260200101516110a7565b8061236181613849565b91505061231c565b5050505050565b6123e860405180610180016040528060608152602001606081526020016000815260200160006001600160a01b0316815260200160006001600160a01b031681526020016000815260200160008152602001600081526020016000151581526020016060815260200160608152602001606081525090565b600082815260026020908152604091829020825181546101a0938102820184019094526101808101848152909391928492849184018282801561245457602002820191906000526020600020905b81546001600160a01b03168152600190910190602001808311612436575b50505050508152602001600182018054806020026020016040519081016040528092919081815260200182805480156124b657602002820191906000526020600020905b81546001600160a01b03168152600190910190602001808311612498575b5050509183525050600282015460208083019190915260038301546001600160a01b039081166040808501919091526004850154909116606084015260058401546080840152600684015460a0840152600784015460c0840152600884015460ff16151560e084015260098401805482518185028101850190935280835261010090940193919290919060009084015b828210156125ed5783829060005260206000209060020201604051806040016040529081600082018054806020026020016040519081016040528092919081815260200182805480156125c257602002820191906000526020600020905b81546001600160a01b031681526001909101906020018083116125a4575b50505091835250506001918201546001600160a01b0316602091820152918352929092019101612546565b505050508152602001600a8201805480602002602001604051908101604052809291908181526020016000905b82821015612674576000848152602090819020604080516060810182526003860290920180546001600160a01b031683526001808201548486015260029091015460ff16151591830191909152908352909201910161261a565b505050508152602001600b8201805480602002602001604051908101604052809291908181526020016000905b828210156126fb576000848152602090819020604080516060810182526003860290920180546001600160a01b031683526001808201548486015260029091015460ff1615159183019190915290835290920191016126a1565b505050915250909392505050565b6000546001600160a01b031633146127635760405162461bcd60e51b815260206004820181905260248201527f4f776e61626c653a2063616c6c6572206973206e6f7420746865206f776e65726044820152606401610f42565b6001600160a01b0381166127df5760405162461bcd60e51b815260206004820152602660248201527f4f776e61626c653a206e6577206f776e657220697320746865207a65726f206160448201527f64647265737300000000000000000000000000000000000000000000000000006064820152608401610f42565b6127e881612dc7565b50565b60008181526002602090815260409182902080548351818402810184019094528084526060939283018282801561284b57602002820191906000526020600020905b81546001600160a01b0316815260019091019060200180831161282d575b50505050509050919050565b600083815260026020526040902060050154612903576000811161287a57600080fd5b60008381526002602052604090206006015481111561289857600080fd5b6000838152600260205260409020600601546128b49082612e2a565b6000848152600260205260408082206006019290925590516001600160a01b0384169183156108fc02918491818181858888f193505050501580156128fd573d6000803e3d6000fd5b50505050565b600083815260026020526040902060050154600a1415612a98576000811161292a57600080fd5b60008381526002602052604090206006015481111561294857600080fd5b60008381526002602052604090206007015481111561296657600080fd5b6000838152600260205260409020600601546129829082612e2a565b60008481526002602052604090206006810191909155600701546129a69082612e2a565b6000848152600260205260408082206007019290925590516001600160a01b0384169183156108fc02918491818181858888f193505050501580156129ef573d6000803e3d6000fd5b5060008381526002602052604090819020600490810154915163a9059cbb60e01b81526001600160a01b03858116928201929092526024810184905291169063a9059cbb906044015b602060405180830381600087803b158015612a5257600080fd5b505af1158015612a66573d6000803e3d6000fd5b505050506040513d601f19601f82011682018060405250810190612a8a919061351c565b612a9357600080fd5b505050565b600083815260026020526040902060050154600b1415612c365760008111612abf57600080fd5b600083815260026020526040902060060154811115612add57600080fd5b612b03612aeb600283613812565b60008581526002602052604090206006015490612e2a565b600084815260026020819052604090912060060191909155612b4190612b299083613812565b60008581526002602052604090206007015490612e2a565b600084815260026020526040908190206007810192909255600390910154905163a9059cbb60e01b81526001600160a01b038481166004830152602482018490529091169063a9059cbb90604401602060405180830381600087803b158015612ba957600080fd5b505af1158015612bbd573d6000803e3d6000fd5b505050506040513d601f19601f82011682018060405250810190612be1919061351c565b612bea57600080fd5b60008381526002602052604090819020600490810154915163a9059cbb60e01b81526001600160a01b03858116928201929092526024810184905291169063a9059cbb90604401612a38565b60008381526002602052604090206005015460141415612cea5760008111612c5d57600080fd5b600083815260026020526040902060060154811115612c7b57600080fd5b600083815260026020526040902060060154612c979082612e2a565b600084815260026020526040908190206006810192909255600390910154905163a9059cbb60e01b81526001600160a01b038481166004830152602482018490529091169063a9059cbb90604401612a38565b6000838152600260205260409020600501546102d114156101c157600083815260036020908152604080832084845290915290205460ff16612d2b57600080fd5b60008381526003602081815260408084208585528252808420805460ff19169055868452600290915291829020015490516323b872dd60e01b81523060048201526001600160a01b03848116602483015260448201849052909116906323b872dd90606401600060405180830381600087803b158015612daa57600080fd5b505af1158015612dbe573d6000803e3d6000fd5b50505050505050565b600080546001600160a01b038381166001600160a01b0319831681178455604051919092169283917f8be0079c531659141344cd1fd0a4f28419497f9722a3daafe3b4186f6b6457e09190a35050565b6000612e2382846137fa565b9392505050565b6000612e238284613832565b828054828255906000526020600020908101928215612e8b579160200282015b82811115612e8b57825182546001600160a01b0319166001600160a01b03909116178255602090920191600190910190612e56565b50612e97929150612e9b565b5090565b5b80821115612e975760008155600101612e9c565b600082601f830112612ec0578081fd5b81356020612ed5612ed0836137d6565b6137a5565b80838252828201915082860187848660051b8901011115612ef4578586fd5b855b85811015612f1b578135612f0981613890565b84529284019290840190600101612ef6565b5090979650505050505050565b600082601f830112612f38578081fd5b81356020612f48612ed0836137d6565b80838252828201915082860187848660051b8901011115612f67578586fd5b855b85811015612f1b57813584529284019290840190600101612f69565b600060208284031215612f96578081fd5b8135612e2381613890565b600080600080600080600060e0888a031215612fbb578283fd5b8735612fc681613890565b9650602088013567ffffffffffffffff80821115612fe2578485fd5b612fee8b838c01612eb0565b975060408a0135915080821115613003578485fd5b506130108a828b01612eb0565b95505060608801359350608088013561302881613890565b925060a088013561303881613890565b8092505060c0880135905092959891949750929550565b600080600080600080600080610100898b03121561306b578081fd5b883561307681613890565b9750602089013567ffffffffffffffff80821115613092578283fd5b61309e8c838d01612eb0565b985060408b01359150808211156130b3578283fd5b506130c08b828c01612eb0565b9650506060890135945060808901356130d881613890565b935060a08901356130e881613890565b979a969950949793969295929450505060c08201359160e0013590565b600080600060608486031215613119578283fd5b833561312481613890565b95602085013595506040909401359392505050565b6000806000806080858703121561314e578384fd5b843561315981613890565b93506020850135925060408501359150606085013567ffffffffffffffff811115613182578182fd5b61318e87828801612f28565b91505092959194509250565b6000806000606084860312156131ae578283fd5b83356131b981613890565b925060208401359150604084013567ffffffffffffffff8111156131db578182fd5b6131e786828701612eb0565b9150509250925092565b600080600080600060a08688031215613208578081fd5b853561321381613890565b945060208601359350604086013567ffffffffffffffff80821115613236578283fd5b61324289838a01612eb0565b945060608801359350608088013591508082111561325e578283fd5b5061326b88828901612f28565b9150509295509295909350565b60008060006060848603121561328c578081fd5b833561329781613890565b925060208401359150604084013567ffffffffffffffff8111156132b9578182fd5b6131e786828701612f28565b600080600060608486031215613119578081fd5b600080600080608085870312156132ee578182fd5b84356132f981613890565b93506020850135925060408501359150606085013567ffffffffffffffff811115613322578182fd5b61318e87828801612eb0565b60008060008060008060c08789031215613346578384fd5b863561335181613890565b95506020870135945060408701359350606087013567ffffffffffffffff8082111561337b578384fd5b6133878a838b01612eb0565b9450608089013591508082111561339c578384fd5b506133a989828a01612eb0565b92505060a087013590509295509295509295565b6000806000806080858703121561314e578182fd5b600080600080608085870312156133e7578182fd5b84356133f281613890565b966020860135965060408601359560600135945092505050565b600080600080600060a08688031215613423578283fd5b853561342e81613890565b9450602086013593506040860135925060608601359150608086013561345381613890565b809150509295509295909350565b600080600080600060a08688031215613478578283fd5b853561348381613890565b9450602086013593506040860135925060608601359150608086013567ffffffffffffffff8111156134b3578182fd5b61326b88828901612f28565b60008060008060008060c087890312156134d7578384fd5b86356134e281613890565b95506020870135945060408701359350606087013592506080870135915060a087013561350e81613890565b809150509295509295509295565b60006020828403121561352d578081fd5b81518015158114612e23578182fd5b60006020828403121561354d578081fd5b5035919050565b60008060408385031215613566578182fd5b50508035926020909101359150565b6000815180845260208085019450808401835b838110156135ad5781516001600160a01b031687529582019590820190600101613588565b509495945050505050565b6000815180845260208085019450808401835b838110156135ad57815180516001600160a01b031688528381015184890152604090810151151590880152606090960195908201906001016135cb565b600081518084526020808501808196508360051b81019150828601855b8581101561366e57828403895281516040815181875261364782880182613575565b928801516001600160a01b0316968801969096525098850198935090840190600101613625565b5091979650505050505050565b602081526000612e236020830184613575565b60208152600082516101808060208501526136ad6101a0850183613575565b91506020850151601f19808685030160408701526136cb8483613575565b935060408701516060870152606087015191506136f360808701836001600160a01b03169052565b60808701516001600160a01b03811660a0880152915060a087015160c087015260c087015160e087015260e087015191506101008281880152808801519250506101206137438188018415159052565b808801519250506101408187860301818801526137608584613608565b94508088015192505061016081878603018188015261377f85846135b8565b90880151878203909201848801529350905061379b83826135b8565b9695505050505050565b604051601f8201601f1916810167ffffffffffffffff811182821017156137ce576137ce61387a565b604052919050565b600067ffffffffffffffff8211156137f0576137f061387a565b5060051b60200190565b6000821982111561380d5761380d613864565b500190565b60008261382d57634e487b7160e01b81526012600452602481fd5b500490565b60008282101561384457613844613864565b500390565b600060001982141561385d5761385d613864565b5060010190565b634e487b7160e01b600052601160045260246000fd5b634e487b7160e01b600052604160045260246000fd5b6001600160a01b03811681146127e857600080fdfea2646970667358221220be19a3ea4b43d1896889653fd5677d5356ec7385da6162cadf4999983b3d02ac64736f6c63430008040033",
  "linkReferences": {},
  "deployedLinkReferences": {}
}