{
  "_format": "hh-sol-artifact-1",
  "contractName": "AkitaBounty",
  "sourceName": "contracts/AkitaBounty.sol",
  "abi": [
    {
      "anonymous": false,
      "inputs": [
        {
          "indexed": true,
          "internalType": "address",
          "name": "previousOwner",
          "type": "address"
        },
        {
          "indexed": true,
          "internalType": "address",
          "name": "newOwner",
          "type": "address"
        }
      ],
      "name": "OwnershipTransferred",
      "type": "event"
    },
    {
      "inputs": [
        {
          "internalType": "address",
          "name": "_sender",
          "type": "address"
        },
        {
          "internalType": "uint256",
          "name": "_bountyId",
          "type": "uint256"
        },
        {
          "internalType": "uint256",
          "name": "_fulfillmentId",
          "type": "uint256"
        },
        {
          "internalType": "uint256",
          "name": "_approverId",
          "type": "uint256"
        },
        {
          "internalType": "uint256[]",
          "name": "_tokenAmounts",
          "type": "uint256[]"
        }
      ],
      "name": "acceptFulfillment",
      "outputs": [],
      "stateMutability": "nonpayable",
      "type": "function"
    },
    {
      "inputs": [
        {
          "internalType": "address",
          "name": "_sender",
          "type": "address"
        },
        {
          "internalType": "uint256",
          "name": "_bountyId",
          "type": "uint256"
        },
        {
          "internalType": "uint256",
          "name": "_issuerId",
          "type": "uint256"
        },
        {
          "internalType": "address[]",
          "name": "_approvers",
          "type": "address[]"
        }
      ],
      "name": "addApprovers",
      "outputs": [],
      "stateMutability": "nonpayable",
      "type": "function"
    },
    {
      "inputs": [
        {
          "internalType": "address",
          "name": "_sender",
          "type": "address"
        },
        {
          "internalType": "uint256",
          "name": "_bountyId",
          "type": "uint256"
        },
        {
          "internalType": "uint256",
          "name": "_issuerId",
          "type": "uint256"
        },
        {
          "internalType": "address payable[]",
          "name": "_issuers",
          "type": "address[]"
        }
      ],
      "name": "addIssuers",
      "outputs": [],
      "stateMutability": "nonpayable",
      "type": "function"
    },
    {
      "inputs": [
        {
          "internalType": "uint256",
          "name": "",
          "type": "uint256"
        }
      ],
      "name": "bounties",
      "outputs": [
        {
          "internalType": "uint256",
          "name": "deadline",
          "type": "uint256"
        },
        {
          "internalType": "address",
          "name": "token",
          "type": "address"
        },
        {
          "internalType": "address",
          "name": "token1",
          "type": "address"
        },
        {
          "internalType": "uint256",
          "name": "tokenVersion",
          "type": "uint256"
        },
        {
          "internalType": "uint256",
          "name": "balance",
          "type": "uint256"
        },
        {
          "internalType": "uint256",
          "name": "balance1",
          "type": "uint256"
        },
        {
          "internalType": "bool",
          "name": "hasPaidOut",
          "type": "bool"
        }
      ],
      "stateMutability": "view",
      "type": "function"
    },
    {
      "inputs": [],
      "name": "callStarted",
      "outputs": [
        {
          "internalType": "bool",
          "name": "",
          "type": "bool"
        }
      ],
      "stateMutability": "view",
      "type": "function"
    },
    {
      "inputs": [
        {
          "internalType": "address",
          "name": "_sender",
          "type": "address"
        },
        {
          "internalType": "uint256",
          "name": "_bountyId",
          "type": "uint256"
        },
        {
          "internalType": "uint256",
          "name": "_issuerId",
          "type": "uint256"
        },
        {
          "internalType": "uint256",
          "name": "_approverId",
          "type": "uint256"
        },
        {
          "internalType": "address payable",
          "name": "_approver",
          "type": "address"
        }
      ],
      "name": "changeApprover",
      "outputs": [],
      "stateMutability": "nonpayable",
      "type": "function"
    },
    {
      "inputs": [
        {
          "internalType": "address",
          "name": "_sender",
          "type": "address"
        },
        {
          "internalType": "uint256",
          "name": "_bountyId",
          "type": "uint256"
        },
        {
          "internalType": "uint256",
          "name": "_issuerId",
          "type": "uint256"
        },
        {
          "internalType": "address payable[]",
          "name": "_issuers",
          "type": "address[]"
        },
        {
          "internalType": "address payable[]",
          "name": "_approvers",
          "type": "address[]"
        },
        {
          "internalType": "uint256",
          "name": "_deadline",
          "type": "uint256"
        }
      ],
      "name": "changeBounty",
      "outputs": [],
      "stateMutability": "nonpayable",
      "type": "function"
    },
    {
      "inputs": [
        {
          "internalType": "address",
          "name": "_sender",
          "type": "address"
        },
        {
          "internalType": "uint256",
          "name": "_bountyId",
          "type": "uint256"
        },
        {
          "internalType": "uint256",
          "name": "_issuerId",
          "type": "uint256"
        },
        {
          "internalType": "uint256",
          "name": "_deadline",
          "type": "uint256"
        }
      ],
      "name": "changeDeadline",
      "outputs": [],
      "stateMutability": "nonpayable",
      "type": "function"
    },
    {
      "inputs": [
        {
          "internalType": "address",
          "name": "_sender",
          "type": "address"
        },
        {
          "internalType": "uint256",
          "name": "_bountyId",
          "type": "uint256"
        },
        {
          "internalType": "uint256",
          "name": "_issuerId",
          "type": "uint256"
        },
        {
          "internalType": "uint256",
          "name": "_issuerIdToChange",
          "type": "uint256"
        },
        {
          "internalType": "address payable",
          "name": "_newIssuer",
          "type": "address"
        }
      ],
      "name": "changeIssuer",
      "outputs": [],
      "stateMutability": "nonpayable",
      "type": "function"
    },
    {
      "inputs": [
        {
          "internalType": "address",
          "name": "_sender",
          "type": "address"
        },
        {
          "internalType": "uint256",
          "name": "_bountyId",
          "type": "uint256"
        },
        {
          "internalType": "uint256",
          "name": "_issuerId",
          "type": "uint256"
        },
        {
          "internalType": "uint256",
          "name": "_issuerIdToChange",
          "type": "uint256"
        },
        {
          "internalType": "uint256",
          "name": "_approverIdToChange",
          "type": "uint256"
        },
        {
          "internalType": "address payable",
          "name": "_issuer",
          "type": "address"
        }
      ],
      "name": "changeIssuerAndApprover",
      "outputs": [],
      "stateMutability": "nonpayable",
      "type": "function"
    },
    {
      "inputs": [
        {
          "internalType": "address payable",
          "name": "_sender",
          "type": "address"
        },
        {
          "internalType": "uint256",
          "name": "_bountyId",
          "type": "uint256"
        },
        {
          "internalType": "uint256",
          "name": "_amount",
          "type": "uint256"
        }
      ],
      "name": "contribute",
      "outputs": [],
      "stateMutability": "payable",
      "type": "function"
    },
    {
      "inputs": [
        {
          "internalType": "address payable",
          "name": "_sender",
          "type": "address"
        },
        {
          "internalType": "uint256",
          "name": "_bountyId",
          "type": "uint256"
        },
        {
          "internalType": "uint256",
          "name": "_issuerId",
          "type": "uint256"
        },
        {
          "internalType": "uint256[]",
          "name": "_amounts",
          "type": "uint256[]"
        }
      ],
      "name": "drainBounty",
      "outputs": [],
      "stateMutability": "nonpayable",
      "type": "function"
    },
    {
      "inputs": [
        {
          "internalType": "address",
          "name": "_sender",
          "type": "address"
        },
        {
          "internalType": "uint256",
          "name": "_bountyId",
          "type": "uint256"
        },
        {
          "internalType": "address payable[]",
          "name": "_fulfillers",
          "type": "address[]"
        },
        {
          "internalType": "uint256",
          "name": "_approverId",
          "type": "uint256"
        },
        {
          "internalType": "uint256[]",
          "name": "_tokenAmounts",
          "type": "uint256[]"
        }
      ],
      "name": "fulfillAndAccept",
      "outputs": [],
      "stateMutability": "nonpayable",
      "type": "function"
    },
    {
      "inputs": [
        {
          "internalType": "address",
          "name": "_sender",
          "type": "address"
        },
        {
          "internalType": "uint256",
          "name": "_bountyId",
          "type": "uint256"
        },
        {
          "internalType": "address payable[]",
          "name": "_fulfillers",
          "type": "address[]"
        }
      ],
      "name": "fulfillBounty",
      "outputs": [],
      "stateMutability": "nonpayable",
      "type": "function"
    },
    {
      "inputs": [
        {
          "internalType": "uint256",
          "name": "_bountyId",
          "type": "uint256"
        }
      ],
      "name": "getBounty",
      "outputs": [
        {
          "components": [
            {
              "internalType": "address payable[]",
              "name": "issuers",
              "type": "address[]"
            },
            {
              "internalType": "address[]",
              "name": "approvers",
              "type": "address[]"
            },
            {
              "internalType": "uint256",
              "name": "deadline",
              "type": "uint256"
            },
            {
              "internalType": "address",
              "name": "token",
              "type": "address"
            },
            {
              "internalType": "address",
              "name": "token1",
              "type": "address"
            },
            {
              "internalType": "uint256",
              "name": "tokenVersion",
              "type": "uint256"
            },
            {
              "internalType": "uint256",
              "name": "balance",
              "type": "uint256"
            },
            {
              "internalType": "uint256",
              "name": "balance1",
              "type": "uint256"
            },
            {
              "internalType": "bool",
              "name": "hasPaidOut",
              "type": "bool"
            },
            {
              "components": [
                {
                  "internalType": "address payable[]",
                  "name": "fulfillers",
                  "type": "address[]"
                },
                {
                  "internalType": "address",
                  "name": "submitter",
                  "type": "address"
                }
              ],
              "internalType": "struct AkitaBounty.Fulfillment[]",
              "name": "fulfillments",
              "type": "tuple[]"
            },
            {
              "components": [
                {
                  "internalType": "address payable",
                  "name": "contributor",
                  "type": "address"
                },
                {
                  "internalType": "uint256",
                  "name": "amount",
                  "type": "uint256"
                },
                {
                  "internalType": "bool",
                  "name": "refunded",
                  "type": "bool"
                }
              ],
              "internalType": "struct AkitaBounty.Contribution[]",
              "name": "contributions",
              "type": "tuple[]"
            },
            {
              "components": [
                {
                  "internalType": "address payable",
                  "name": "contributor",
                  "type": "address"
                },
                {
                  "internalType": "uint256",
                  "name": "amount",
                  "type": "uint256"
                },
                {
                  "internalType": "bool",
                  "name": "refunded",
                  "type": "bool"
                }
              ],
              "internalType": "struct AkitaBounty.Contribution[]",
              "name": "contributions1",
              "type": "tuple[]"
            }
          ],
          "internalType": "struct AkitaBounty.Bounty",
          "name": "",
          "type": "tuple"
        }
      ],
      "stateMutability": "view",
      "type": "function"
    },
    {
      "inputs": [
        {
          "internalType": "address payable",
          "name": "_sender",
          "type": "address"
        },
        {
          "internalType": "address payable[]",
          "name": "_issuers",
          "type": "address[]"
        },
        {
          "internalType": "address[]",
          "name": "_approvers",
          "type": "address[]"
        },
        {
          "internalType": "uint256",
          "name": "_deadline",
          "type": "uint256"
        },
        {
          "internalType": "address",
          "name": "_token",
          "type": "address"
        },
        {
          "internalType": "address",
          "name": "_token1",
          "type": "address"
        },
        {
          "internalType": "uint256",
          "name": "_tokenVersion",
          "type": "uint256"
        },
        {
          "internalType": "uint256",
          "name": "_depositAmount",
          "type": "uint256"
        }
      ],
      "name": "issueAndContribute",
      "outputs": [
        {
          "internalType": "uint256",
          "name": "",
          "type": "uint256"
        }
      ],
      "stateMutability": "payable",
      "type": "function"
    },
    {
      "inputs": [
        {
          "internalType": "address payable",
          "name": "_sender",
          "type": "address"
        },
        {
          "internalType": "address payable[]",
          "name": "_issuers",
          "type": "address[]"
        },
        {
          "internalType": "address[]",
          "name": "_approvers",
          "type": "address[]"
        },
        {
          "internalType": "uint256",
          "name": "_deadline",
          "type": "uint256"
        },
        {
          "internalType": "address",
          "name": "_token",
          "type": "address"
        },
        {
          "internalType": "address",
          "name": "_token1",
          "type": "address"
        },
        {
          "internalType": "uint256",
          "name": "_tokenVersion",
          "type": "uint256"
        }
      ],
      "name": "issueBounty",
      "outputs": [
        {
          "internalType": "uint256",
          "name": "",
          "type": "uint256"
        }
      ],
      "stateMutability": "nonpayable",
      "type": "function"
    },
    {
      "inputs": [],
      "name": "metaTxRelayer",
      "outputs": [
        {
          "internalType": "address",
          "name": "",
          "type": "address"
        }
      ],
      "stateMutability": "view",
      "type": "function"
    },
    {
      "inputs": [],
      "name": "numBounties",
      "outputs": [
        {
          "internalType": "uint256",
          "name": "",
          "type": "uint256"
        }
      ],
      "stateMutability": "view",
      "type": "function"
    },
    {
      "inputs": [],
      "name": "owner",
      "outputs": [
        {
          "internalType": "address",
          "name": "",
          "type": "address"
        }
      ],
      "stateMutability": "view",
      "type": "function"
    },
    {
      "inputs": [
        {
          "internalType": "address",
          "name": "_sender",
          "type": "address"
        },
        {
          "internalType": "uint256",
          "name": "_bountyId",
          "type": "uint256"
        },
        {
          "internalType": "uint256",
          "name": "_contributionId",
          "type": "uint256"
        }
      ],
      "name": "refundContribution",
      "outputs": [],
      "stateMutability": "nonpayable",
      "type": "function"
    },
    {
      "inputs": [
        {
          "internalType": "address",
          "name": "_sender",
          "type": "address"
        },
        {
          "internalType": "uint256",
          "name": "_bountyId",
          "type": "uint256"
        },
        {
          "internalType": "uint256",
          "name": "_issuerId",
          "type": "uint256"
        },
        {
          "internalType": "uint256[]",
          "name": "_contributionIds",
          "type": "uint256[]"
        }
      ],
      "name": "refundContributions",
      "outputs": [],
      "stateMutability": "nonpayable",
      "type": "function"
    },
    {
      "inputs": [
        {
          "internalType": "address",
          "name": "_sender",
          "type": "address"
        },
        {
          "internalType": "uint256",
          "name": "_bountyId",
          "type": "uint256"
        },
        {
          "internalType": "uint256[]",
          "name": "_contributionIds",
          "type": "uint256[]"
        }
      ],
      "name": "refundMyContributions",
      "outputs": [],
      "stateMutability": "nonpayable",
      "type": "function"
    },
    {
      "inputs": [],
      "name": "renounceOwnership",
      "outputs": [],
      "stateMutability": "nonpayable",
      "type": "function"
    },
    {
      "inputs": [
        {
          "internalType": "address",
          "name": "_relayer",
          "type": "address"
        }
      ],
      "name": "setMetaTxRelayer",
      "outputs": [],
      "stateMutability": "nonpayable",
      "type": "function"
    },
    {
      "inputs": [
        {
          "internalType": "uint256",
          "name": "",
          "type": "uint256"
        },
        {
          "internalType": "uint256",
          "name": "",
          "type": "uint256"
        }
      ],
      "name": "tokenBalances",
      "outputs": [
        {
          "internalType": "bool",
          "name": "",
          "type": "bool"
        }
      ],
      "stateMutability": "view",
      "type": "function"
    },
    {
      "inputs": [
        {
          "internalType": "address",
          "name": "newOwner",
          "type": "address"
        }
      ],
      "name": "transferOwnership",
      "outputs": [],
      "stateMutability": "nonpayable",
      "type": "function"
    },
    {
      "inputs": [
        {
          "internalType": "address",
          "name": "_sender",
          "type": "address"
        },
        {
          "internalType": "uint256",
          "name": "_bountyId",
          "type": "uint256"
        },
        {
          "internalType": "uint256",
          "name": "_fulfillmentId",
          "type": "uint256"
        },
        {
          "internalType": "address payable[]",
          "name": "_fulfillers",
          "type": "address[]"
        }
      ],
      "name": "updateFulfillment",
      "outputs": [],
      "stateMutability": "nonpayable",
      "type": "function"
    }
  ],
  "bytecode": "0x60806040523480156200001157600080fd5b5062000032620000266200003860201b60201c565b6200004060201b60201c565b62000104565b600033905090565b60008060009054906101000a900473ffffffffffffffffffffffffffffffffffffffff169050816000806101000a81548173ffffffffffffffffffffffffffffffffffffffff021916908373ffffffffffffffffffffffffffffffffffffffff1602179055508173ffffffffffffffffffffffffffffffffffffffff168173ffffffffffffffffffffffffffffffffffffffff167f8be0079c531659141344cd1fd0a4f28419497f9722a3daafe3b4186f6b6457e060405160405180910390a35050565b61620880620001146000396000f3fe6080604052600436106101b65760003560e01c80639e64d9bf116100ec578063c6a8b42b1161008a578063ec41e4cd11610064578063ec41e4cd146105b1578063edba7013146105ee578063ee8c4bbf14610617578063f2fde38b14610654576101b6565b8063c6a8b42b1461051c578063d684543914610545578063dc2f87441461056e576101b6565b8063aa17aaef116100c6578063aa17aaef14610462578063bae375561461048b578063c1107c11146104b4578063c3888fa8146104df576101b6565b80639e64d9bf146103f4578063a071fbd51461041d578063a08f793c14610446576101b6565b8063715018a61161015957806388db0f521161013357806388db0f521461034557806389eb9276146103705780638da5cb5b146103a057806393c1ccc9146103cb576101b6565b8063715018a6146102da578063720dc00c146102f15780637d427c861461031c576101b6565b80633a1e13a4116101955780633a1e13a4146102365780633efb07621461025f5780634daf1bb51461028857806361cf2213146102b1576101b6565b8062f27e38146101bb5780632092e259146101e45780633756f3c81461020d575b600080fd5b3480156101c757600080fd5b506101e260048036038101906101dd9190615556565b61067d565b005b3480156101f057600080fd5b5061020b600480360381019061020691906154df565b610a1a565b005b34801561021957600080fd5b50610234600480360381019061022f9190615013565b610c39565b005b34801561024257600080fd5b5061025d6004803603810190610258919061508e565b610fd1565b005b34801561026b57600080fd5b50610286600480360381019061028191906152cd565b611178565b005b34801561029457600080fd5b506102af60048036038101906102aa9190615252565b61137a565b005b3480156102bd57600080fd5b506102d860048036038101906102d39190614deb565b6115d8565b005b3480156102e657600080fd5b506102ef6116f3565b005b3480156102fd57600080fd5b5061030661177b565b6040516103139190615bf6565b60405180910390f35b34801561032857600080fd5b50610343600480360381019061033e91906150f5565b61178e565b005b34801561035157600080fd5b5061035a611864565b6040516103679190615c73565b60405180910390f35b61038a60048036038101906103859190614ee2565b61186a565b6040516103979190615c73565b60405180910390f35b3480156103ac57600080fd5b506103b5611899565b6040516103c29190615b44565b60405180910390f35b3480156103d757600080fd5b506103f260048036038101906103ed9190615203565b6118c2565b005b34801561040057600080fd5b5061041b600480360381019061041691906154df565b611bed565b005b34801561042957600080fd5b50610444600480360381019061043f9190615401565b611e3c565b005b610460600480360381019061045b9190614fc4565b61217c565b005b34801561046e57600080fd5b506104896004803603810190610484919061547c565b612d7f565b005b34801561049757600080fd5b506104b260048036038101906104ad91906155e5565b612f21565b005b3480156104c057600080fd5b506104c96131f7565b6040516104d69190615b44565b60405180910390f35b3480156104eb57600080fd5b5061050660048036038101906105019190614e14565b61321d565b6040516105139190615c73565b60405180910390f35b34801561052857600080fd5b50610543600480360381019061053e91906152cd565b61341a565b005b34801561055157600080fd5b5061056c60048036038101906105679190615348565b613678565b005b34801561057a57600080fd5b5061059560048036038101906105909190615697565b613880565b6040516105a89796959493929190615c8e565b60405180910390f35b3480156105bd57600080fd5b506105d860048036038101906105d391906156c0565b61390f565b6040516105e59190615bf6565b60405180910390f35b3480156105fa57600080fd5b506106156004803603810190610610919061519c565b61393e565b005b34801561062357600080fd5b5061063e60048036038101906106399190615697565b613a40565b60405161064b9190615c51565b60405180910390f35b34801561066057600080fd5b5061067b60048036038101906106769190614deb565b613f70565b005b848073ffffffffffffffffffffffffffffffffffffffff163373ffffffffffffffffffffffffffffffffffffffff1614806107055750600460019054906101000a900473ffffffffffffffffffffffffffffffffffffffff1673ffffffffffffffffffffffffffffffffffffffff163373ffffffffffffffffffffffffffffffffffffffff16145b61070e57600080fd5b84600154811061071d57600080fd5b85856002600083815260200190815260200160002060090180549050811061074457600080fd5b888887600260008381526020019081526020016000206001018181548110610795577f4e487b7100000000000000000000000000000000000000000000000000000000600052603260045260246000fd5b9060005260206000200160009054906101000a900473ffffffffffffffffffffffffffffffffffffffff1673ffffffffffffffffffffffffffffffffffffffff168373ffffffffffffffffffffffffffffffffffffffff16146107f757600080fd5b600460009054906101000a900460ff161561081157600080fd5b6001600460006101000a81548160ff0219169083151502179055506001600260008d815260200190815260200160002060080160006101000a81548160ff0219169083151502179055506000600260008d81526020019081526020016000206009018b815481106108ab577f4e487b7100000000000000000000000000000000000000000000000000000000600052603260045260246000fd5b9060005260206000209060020201905080600001805490508951146108cf57600080fd5b60005b81600001805490508110156109ef5760008a828151811061091c577f4e487b7100000000000000000000000000000000000000000000000000000000600052603260045260246000fd5b602002602001015111156109dc576109db8d83600001838154811061096a577f4e487b7100000000000000000000000000000000000000000000000000000000600052603260045260246000fd5b9060005260206000200160009054906101000a900473ffffffffffffffffffffffffffffffffffffffff168c84815181106109ce577f4e487b7100000000000000000000000000000000000000000000000000000000600052603260045260246000fd5b6020026020010151614068565b5b80806109e790616017565b9150506108d2565b50506000600460006101000a81548160ff021916908315150217905550505050505050505050505050565b848073ffffffffffffffffffffffffffffffffffffffff163373ffffffffffffffffffffffffffffffffffffffff161480610aa25750600460019054906101000a900473ffffffffffffffffffffffffffffffffffffffff1673ffffffffffffffffffffffffffffffffffffffff163373ffffffffffffffffffffffffffffffffffffffff16145b610aab57600080fd5b846001548110610aba57600080fd5b868686600260008381526020019081526020016000206000018181548110610b0b577f4e487b7100000000000000000000000000000000000000000000000000000000600052603260045260246000fd5b9060005260206000200160009054906101000a900473ffffffffffffffffffffffffffffffffffffffff1673ffffffffffffffffffffffffffffffffffffffff168373ffffffffffffffffffffffffffffffffffffffff1614610b6d57600080fd5b888760026000838152602001908152602001600020600101805490508110610b9457600080fd5b87600260008d81526020019081526020016000206001018a81548110610be3577f4e487b7100000000000000000000000000000000000000000000000000000000600052603260045260246000fd5b9060005260206000200160006101000a81548173ffffffffffffffffffffffffffffffffffffffff021916908373ffffffffffffffffffffffffffffffffffffffff160217905550505050505050505050505050565b838073ffffffffffffffffffffffffffffffffffffffff163373ffffffffffffffffffffffffffffffffffffffff161480610cc15750600460019054906101000a900473ffffffffffffffffffffffffffffffffffffffff1673ffffffffffffffffffffffffffffffffffffffff163373ffffffffffffffffffffffffffffffffffffffff16145b610cca57600080fd5b836001548110610cd957600080fd5b858585600260008381526020019081526020016000206000018181548110610d2a577f4e487b7100000000000000000000000000000000000000000000000000000000600052603260045260246000fd5b9060005260206000200160009054906101000a900473ffffffffffffffffffffffffffffffffffffffff1673ffffffffffffffffffffffffffffffffffffffff168373ffffffffffffffffffffffffffffffffffffffff1614610d8c57600080fd5b600460009054906101000a900460ff1615610da657600080fd5b6001600460006101000a81548160ff0219169083151502179055506000600260008a8152602001908152602001600020600501541480610dfc57506014600260008a815260200190815260200160002060050154145b15610ec4576001865114610e0f57600080fd5b600260008981526020019081526020016000206006015486600081518110610e60577f4e487b7100000000000000000000000000000000000000000000000000000000600052603260045260246000fd5b60200260200101511115610e7357600080fd5b610ebf888a88600081518110610eb2577f4e487b7100000000000000000000000000000000000000000000000000000000600052603260045260246000fd5b6020026020010151614068565b610fab565b60005b8651811015610fa957600360008a81526020019081526020016000206000888381518110610f1e577f4e487b7100000000000000000000000000000000000000000000000000000000600052603260045260246000fd5b6020026020010151815260200190815260200160002060009054906101000a900460ff16610f4b57600080fd5b610f96898b898481518110610f89577f4e487b7100000000000000000000000000000000000000000000000000000000600052603260045260246000fd5b6020026020010151614068565b8080610fa190616017565b915050610ec7565b505b6000600460006101000a81548160ff021916908315150217905550505050505050505050565b828073ffffffffffffffffffffffffffffffffffffffff163373ffffffffffffffffffffffffffffffffffffffff1614806110595750600460019054906101000a900473ffffffffffffffffffffffffffffffffffffffff1673ffffffffffffffffffffffffffffffffffffffff163373ffffffffffffffffffffffffffffffffffffffff16145b61106257600080fd5b82600154811061107157600080fd5b6002600085815260200190815260200160002060020154421061109357600080fd5b60008351116110a157600080fd5b6002600085815260200190815260200160002060090160405180604001604052808581526020018773ffffffffffffffffffffffffffffffffffffffff168152509080600181540180825580915050600190039060005260206000209060020201600090919091909150600082015181600001908051906020019061112792919061498b565b5060208201518160010160006101000a81548173ffffffffffffffffffffffffffffffffffffffff021916908373ffffffffffffffffffffffffffffffffffffffff16021790555050505050505050565b838073ffffffffffffffffffffffffffffffffffffffff163373ffffffffffffffffffffffffffffffffffffffff1614806112005750600460019054906101000a900473ffffffffffffffffffffffffffffffffffffffff1673ffffffffffffffffffffffffffffffffffffffff163373ffffffffffffffffffffffffffffffffffffffff16145b61120957600080fd5b83600154811061121857600080fd5b84846002600083815260200190815260200160002060090180549050811061123f57600080fd5b878787600260008381526020019081526020016000206009018181548110611290577f4e487b7100000000000000000000000000000000000000000000000000000000600052603260045260246000fd5b906000526020600020906002020160010160009054906101000a900473ffffffffffffffffffffffffffffffffffffffff1673ffffffffffffffffffffffffffffffffffffffff168373ffffffffffffffffffffffffffffffffffffffff16146112f957600080fd5b87600260008c81526020019081526020016000206009018a81548110611348577f4e487b7100000000000000000000000000000000000000000000000000000000600052603260045260246000fd5b9060005260206000209060020201600001908051906020019061136c92919061498b565b505050505050505050505050565b838073ffffffffffffffffffffffffffffffffffffffff163373ffffffffffffffffffffffffffffffffffffffff1614806114025750600460019054906101000a900473ffffffffffffffffffffffffffffffffffffffff1673ffffffffffffffffffffffffffffffffffffffff163373ffffffffffffffffffffffffffffffffffffffff16145b61140b57600080fd5b83600154811061141a57600080fd5b84846002600083815260200190815260200160002060000180549050811061144157600080fd5b878787600260008381526020019081526020016000206000018181548110611492577f4e487b7100000000000000000000000000000000000000000000000000000000600052603260045260246000fd5b9060005260206000200160009054906101000a900473ffffffffffffffffffffffffffffffffffffffff1673ffffffffffffffffffffffffffffffffffffffff168373ffffffffffffffffffffffffffffffffffffffff16146114f457600080fd5b60005b88518110156115ca57600260008c815260200190815260200160002060010189828151811061154f577f4e487b7100000000000000000000000000000000000000000000000000000000600052603260045260246000fd5b60200260200101519080600181540180825580915050600190039060005260206000200160009091909190916101000a81548173ffffffffffffffffffffffffffffffffffffffff021916908373ffffffffffffffffffffffffffffffffffffffff16021790555080806115c290616017565b9150506114f7565b505050505050505050505050565b6115e0614893565b73ffffffffffffffffffffffffffffffffffffffff166115fe611899565b73ffffffffffffffffffffffffffffffffffffffff1614611654576040517f08c379a000000000000000000000000000000000000000000000000000000000815260040161164b90615c31565b60405180910390fd5b600073ffffffffffffffffffffffffffffffffffffffff16600460019054906101000a900473ffffffffffffffffffffffffffffffffffffffff1673ffffffffffffffffffffffffffffffffffffffff16146116af57600080fd5b80600460016101000a81548173ffffffffffffffffffffffffffffffffffffffff021916908373ffffffffffffffffffffffffffffffffffffffff16021790555050565b6116fb614893565b73ffffffffffffffffffffffffffffffffffffffff16611719611899565b73ffffffffffffffffffffffffffffffffffffffff161461176f576040517f08c379a000000000000000000000000000000000000000000000000000000000815260040161176690615c31565b60405180910390fd5b611779600061489b565b565b600460009054906101000a900460ff1681565b848073ffffffffffffffffffffffffffffffffffffffff163373ffffffffffffffffffffffffffffffffffffffff1614806118165750600460019054906101000a900473ffffffffffffffffffffffffffffffffffffffff1673ffffffffffffffffffffffffffffffffffffffff163373ffffffffffffffffffffffffffffffffffffffff16145b61181f57600080fd5b61182a868686610fd1565b61185c86866001600260008a8152602001908152602001600020600901805490506118559190615f22565b868661067d565b505050505050565b60015481565b60008061187c8a8a8a8a8a8a8a61321d565b90506118898a828561217c565b8091505098975050505050505050565b60008060009054906101000a900473ffffffffffffffffffffffffffffffffffffffff16905090565b828073ffffffffffffffffffffffffffffffffffffffff163373ffffffffffffffffffffffffffffffffffffffff16148061194a5750600460019054906101000a900473ffffffffffffffffffffffffffffffffffffffff1673ffffffffffffffffffffffffffffffffffffffff163373ffffffffffffffffffffffffffffffffffffffff16145b61195357600080fd5b82600154811061196257600080fd5b838360026000838152602001908152602001600020600a0180549050811061198957600080fd5b86868660026000838152602001908152602001600020600a0181815481106119da577f4e487b7100000000000000000000000000000000000000000000000000000000600052603260045260246000fd5b906000526020600020906003020160000160009054906101000a900473ffffffffffffffffffffffffffffffffffffffff1673ffffffffffffffffffffffffffffffffffffffff168373ffffffffffffffffffffffffffffffffffffffff1614611a4357600080fd5b888860026000838152602001908152602001600020600a018181548110611a93577f4e487b7100000000000000000000000000000000000000000000000000000000600052603260045260246000fd5b906000526020600020906003020160020160009054906101000a900460ff1615611abc57600080fd5b600460009054906101000a900460ff1615611ad657600080fd5b6001600460006101000a81548160ff021916908315150217905550600260008c8152602001908152602001600020600201544211611b1357600080fd5b6000600260008d8152602001908152602001600020600a018b81548110611b63577f4e487b7100000000000000000000000000000000000000000000000000000000600052603260045260246000fd5b9060005260206000209060030201905060018160020160006101000a81548160ff021916908315150217905550611bc38c8260000160009054906101000a900473ffffffffffffffffffffffffffffffffffffffff168360010154614068565b506000600460006101000a81548160ff021916908315150217905550505050505050505050505050565b848073ffffffffffffffffffffffffffffffffffffffff163373ffffffffffffffffffffffffffffffffffffffff161480611c755750600460019054906101000a900473ffffffffffffffffffffffffffffffffffffffff1673ffffffffffffffffffffffffffffffffffffffff163373ffffffffffffffffffffffffffffffffffffffff16145b611c7e57600080fd5b846001548110611c8d57600080fd5b858460026000838152602001908152602001600020600001805490508110611cb457600080fd5b888888600260008381526020019081526020016000206000018181548110611d05577f4e487b7100000000000000000000000000000000000000000000000000000000600052603260045260246000fd5b9060005260206000200160009054906101000a900473ffffffffffffffffffffffffffffffffffffffff1673ffffffffffffffffffffffffffffffffffffffff168373ffffffffffffffffffffffffffffffffffffffff1614611d6757600080fd5b600260008c8152602001908152602001600020600001805490508a1080611d8e575060008a145b611d9757600080fd5b87600260008d81526020019081526020016000206000018a81548110611de6577f4e487b7100000000000000000000000000000000000000000000000000000000600052603260045260246000fd5b9060005260206000200160006101000a81548173ffffffffffffffffffffffffffffffffffffffff021916908373ffffffffffffffffffffffffffffffffffffffff160217905550505050505050505050505050565b838073ffffffffffffffffffffffffffffffffffffffff163373ffffffffffffffffffffffffffffffffffffffff161480611ec45750600460019054906101000a900473ffffffffffffffffffffffffffffffffffffffff1673ffffffffffffffffffffffffffffffffffffffff163373ffffffffffffffffffffffffffffffffffffffff16145b611ecd57600080fd5b836001548110611edc57600080fd5b858585600260008381526020019081526020016000206000018181548110611f2d577f4e487b7100000000000000000000000000000000000000000000000000000000600052603260045260246000fd5b9060005260206000200160009054906101000a900473ffffffffffffffffffffffffffffffffffffffff1673ffffffffffffffffffffffffffffffffffffffff168373ffffffffffffffffffffffffffffffffffffffff1614611f8f57600080fd5b600460009054906101000a900460ff1615611fa957600080fd5b6001600460006101000a81548160ff02191690831515021790555060005b865181101561215557600260008a8152602001908152602001600020600a0180549050878281518110612023577f4e487b7100000000000000000000000000000000000000000000000000000000600052603260045260246000fd5b60200260200101511061203557600080fd5b6000600260008b8152602001908152602001600020600a01888381518110612086577f4e487b7100000000000000000000000000000000000000000000000000000000600052603260045260246000fd5b6020026020010151815481106120c5577f4e487b7100000000000000000000000000000000000000000000000000000000600052603260045260246000fd5b906000526020600020906003020190508060020160009054906101000a900460ff16156120f157600080fd5b60018160020160006101000a81548160ff0219169083151502179055506121418a8260000160009054906101000a900473ffffffffffffffffffffffffffffffffffffffff168360010154614068565b50808061214d90616017565b915050611fc7565b506000600460006101000a81548160ff021916908315150217905550505050505050505050565b828073ffffffffffffffffffffffffffffffffffffffff163373ffffffffffffffffffffffffffffffffffffffff1614806122045750600460019054906101000a900473ffffffffffffffffffffffffffffffffffffffff1673ffffffffffffffffffffffffffffffffffffffff163373ffffffffffffffffffffffffffffffffffffffff16145b61220d57600080fd5b82600154811061221c57600080fd5b600460009054906101000a900460ff161561223657600080fd5b6001600460006101000a81548160ff0219169083151502179055506000831161225e57600080fd5b60026000858152602001908152602001600020600a0160405180606001604052808773ffffffffffffffffffffffffffffffffffffffff16815260200185815260200160001515815250908060018154018082558091505060019003906000526020600020906003020160009091909190915060008201518160000160006101000a81548173ffffffffffffffffffffffffffffffffffffffff021916908373ffffffffffffffffffffffffffffffffffffffff1602179055506020820151816001015560408201518160020160006101000a81548160ff0219169083151502179055505050600a6002600086815260200190815260200160002060050154148061237f5750600b6002600086815260200190815260200160002060050154145b1561256d5760026000858152602001908152602001600020600a0160405180606001604052808773ffffffffffffffffffffffffffffffffffffffff1681526020016002866123ce9190615ef1565b815260200160001515815250908060018154018082558091505060019003906000526020600020906003020160009091909190915060008201518160000160006101000a81548173ffffffffffffffffffffffffffffffffffffffff021916908373ffffffffffffffffffffffffffffffffffffffff1602179055506020820151816001015560408201518160020160006101000a81548160ff021916908315150217905550505060026000858152602001908152602001600020600b0160405180606001604052808773ffffffffffffffffffffffffffffffffffffffff1681526020016002866124c09190615ef1565b815260200160001515815250908060018154018082558091505060019003906000526020600020906003020160009091909190915060008201518160000160006101000a81548173ffffffffffffffffffffffffffffffffffffffff021916908373ffffffffffffffffffffffffffffffffffffffff1602179055506020820151816001015560408201518160020160006101000a81548160ff0219169083151502179055505050612654565b60026000858152602001908152602001600020600a0160405180606001604052808773ffffffffffffffffffffffffffffffffffffffff16815260200185815260200160001515815250908060018154018082558091505060019003906000526020600020906003020160009091909190915060008201518160000160006101000a81548173ffffffffffffffffffffffffffffffffffffffff021916908373ffffffffffffffffffffffffffffffffffffffff1602179055506020820151816001015560408201518160020160006101000a81548160ff02191690831515021790555050505b6000600260008681526020019081526020016000206005015414156126c75782341461267f57600080fd5b6126a883600260008781526020019081526020016000206006015461495f90919063ffffffff16565b6002600086815260200190815260200160002060060181905550612d5d565b600a6002600086815260200190815260200160002060050154141561287b5761271b6002846126f69190615ef1565b600260008781526020019081526020016000206006015461495f90919063ffffffff16565b600260008681526020019081526020016000206006018190555061276a6002846127459190615ef1565b600260008781526020019081526020016000206006015461495f90919063ffffffff16565b60026000868152602001908152602001600020600601819055506002836127919190615ef1565b341461279c57600080fd5b6002600085815260200190815260200160002060040160009054906101000a900473ffffffffffffffffffffffffffffffffffffffff1673ffffffffffffffffffffffffffffffffffffffff166323b872dd86306002876127fd9190615ef1565b6040518463ffffffff1660e01b815260040161281b93929190615b5f565b602060405180830381600087803b15801561283557600080fd5b505af1158015612849573d6000803e3d6000fd5b505050506040513d601f19601f8201168201806040525081019061286d919061566e565b61287657600080fd5b612d5c565b600b60026000868152602001908152602001600020600501541415612afe576128cf6002846128aa9190615ef1565b600260008781526020019081526020016000206006015461495f90919063ffffffff16565b600260008681526020019081526020016000206006018190555061291e6002846128f99190615ef1565b600260008781526020019081526020016000206007015461495f90919063ffffffff16565b60026000868152602001908152602001600020600701819055506000341461294557600080fd5b6002600085815260200190815260200160002060030160009054906101000a900473ffffffffffffffffffffffffffffffffffffffff1673ffffffffffffffffffffffffffffffffffffffff166323b872dd86306002876129a69190615ef1565b6040518463ffffffff1660e01b81526004016129c493929190615b5f565b602060405180830381600087803b1580156129de57600080fd5b505af11580156129f2573d6000803e3d6000fd5b505050506040513d601f19601f82011682018060405250810190612a16919061566e565b612a1f57600080fd5b6002600085815260200190815260200160002060040160009054906101000a900473ffffffffffffffffffffffffffffffffffffffff1673ffffffffffffffffffffffffffffffffffffffff166323b872dd8630600287612a809190615ef1565b6040518463ffffffff1660e01b8152600401612a9e93929190615b5f565b602060405180830381600087803b158015612ab857600080fd5b505af1158015612acc573d6000803e3d6000fd5b505050506040513d601f19601f82011682018060405250810190612af0919061566e565b612af957600080fd5b612d5b565b601460026000868152602001908152602001600020600501541415612c4057612b4683600260008781526020019081526020016000206006015461495f90919063ffffffff16565b600260008681526020019081526020016000206006018190555060003414612b6d57600080fd5b6002600085815260200190815260200160002060030160009054906101000a900473ffffffffffffffffffffffffffffffffffffffff1673ffffffffffffffffffffffffffffffffffffffff166323b872dd8630866040518463ffffffff1660e01b8152600401612be093929190615b5f565b602060405180830381600087803b158015612bfa57600080fd5b505af1158015612c0e573d6000803e3d6000fd5b505050506040513d601f19601f82011682018060405250810190612c32919061566e565b612c3b57600080fd5b612d5a565b6102d160026000868152602001908152602001600020600501541415612d5457600160036000868152602001908152602001600020600085815260200190815260200160002060006101000a81548160ff02191690831515021790555060003414612caa57600080fd5b6002600085815260200190815260200160002060030160009054906101000a900473ffffffffffffffffffffffffffffffffffffffff1673ffffffffffffffffffffffffffffffffffffffff166323b872dd8630866040518463ffffffff1660e01b8152600401612d1d93929190615b5f565b600060405180830381600087803b158015612d3757600080fd5b505af1158015612d4b573d6000803e3d6000fd5b50505050612d59565b600080fd5b5b5b5b5b6000600460006101000a81548160ff0219169083151502179055505050505050565b838073ffffffffffffffffffffffffffffffffffffffff163373ffffffffffffffffffffffffffffffffffffffff161480612e075750600460019054906101000a900473ffffffffffffffffffffffffffffffffffffffff1673ffffffffffffffffffffffffffffffffffffffff163373ffffffffffffffffffffffffffffffffffffffff16145b612e1057600080fd5b836001548110612e1f57600080fd5b848460026000838152602001908152602001600020600001805490508110612e4657600080fd5b878787600260008381526020019081526020016000206000018181548110612e97577f4e487b7100000000000000000000000000000000000000000000000000000000600052603260045260246000fd5b9060005260206000200160009054906101000a900473ffffffffffffffffffffffffffffffffffffffff1673ffffffffffffffffffffffffffffffffffffffff168373ffffffffffffffffffffffffffffffffffffffff1614612ef957600080fd5b87600260008c8152602001908152602001600020600201819055505050505050505050505050565b858073ffffffffffffffffffffffffffffffffffffffff163373ffffffffffffffffffffffffffffffffffffffff161480612fa95750600460019054906101000a900473ffffffffffffffffffffffffffffffffffffffff1673ffffffffffffffffffffffffffffffffffffffff163373ffffffffffffffffffffffffffffffffffffffff16145b612fb257600080fd5b868686600260008381526020019081526020016000206000018181548110613003577f4e487b7100000000000000000000000000000000000000000000000000000000600052603260045260246000fd5b9060005260206000200160009054906101000a900473ffffffffffffffffffffffffffffffffffffffff1673ffffffffffffffffffffffffffffffffffffffff168373ffffffffffffffffffffffffffffffffffffffff161461306557600080fd5b600154891061307357600080fd5b600260008a815260200190815260200160002060010180549050861061309857600080fd5b600260008a81526020019081526020016000206000018054905087106130bd57600080fd5b84600260008b8152602001908152602001600020600001888154811061310c577f4e487b7100000000000000000000000000000000000000000000000000000000600052603260045260246000fd5b9060005260206000200160006101000a81548173ffffffffffffffffffffffffffffffffffffffff021916908373ffffffffffffffffffffffffffffffffffffffff16021790555084600260008b815260200190815260200160002060010187815481106131a3577f4e487b7100000000000000000000000000000000000000000000000000000000600052603260045260246000fd5b9060005260206000200160006101000a81548173ffffffffffffffffffffffffffffffffffffffff021916908373ffffffffffffffffffffffffffffffffffffffff16021790555050505050505050505050565b600460019054906101000a900473ffffffffffffffffffffffffffffffffffffffff1681565b6000878073ffffffffffffffffffffffffffffffffffffffff163373ffffffffffffffffffffffffffffffffffffffff1614806132a75750600460019054906101000a900473ffffffffffffffffffffffffffffffffffffffff1673ffffffffffffffffffffffffffffffffffffffff163373ffffffffffffffffffffffffffffffffffffffff16145b6132b057600080fd5b60008314806132bf5750601483145b806132cb57506102d183145b806132d65750600a83145b806132e15750600b83145b6132ea57600080fd5b6000885111806132fb575060008751115b61330457600080fd5b6000600154905060006002600083815260200190815260200160002090508881600101908051906020019061333a929190614a15565b508781600201819055508481600501819055506000851461339957868160030160006101000a81548173ffffffffffffffffffffffffffffffffffffffff021916908373ffffffffffffffffffffffffffffffffffffffff1602179055505b600a8514806133a85750600b85145b156133f157858160040160006101000a81548173ffffffffffffffffffffffffffffffffffffffff021916908373ffffffffffffffffffffffffffffffffffffffff1602179055505b6001600081548092919061340490616017565b9190505550819350505050979650505050505050565b838073ffffffffffffffffffffffffffffffffffffffff163373ffffffffffffffffffffffffffffffffffffffff1614806134a25750600460019054906101000a900473ffffffffffffffffffffffffffffffffffffffff1673ffffffffffffffffffffffffffffffffffffffff163373ffffffffffffffffffffffffffffffffffffffff16145b6134ab57600080fd5b8360015481106134ba57600080fd5b8484600260008381526020019081526020016000206000018054905081106134e157600080fd5b878787600260008381526020019081526020016000206000018181548110613532577f4e487b7100000000000000000000000000000000000000000000000000000000600052603260045260246000fd5b9060005260206000200160009054906101000a900473ffffffffffffffffffffffffffffffffffffffff1673ffffffffffffffffffffffffffffffffffffffff168373ffffffffffffffffffffffffffffffffffffffff161461359457600080fd5b60005b885181101561366a57600260008c81526020019081526020016000206000018982815181106135ef577f4e487b7100000000000000000000000000000000000000000000000000000000600052603260045260246000fd5b60200260200101519080600181540180825580915050600190039060005260206000200160009091909190916101000a81548173ffffffffffffffffffffffffffffffffffffffff021916908373ffffffffffffffffffffffffffffffffffffffff160217905550808061366290616017565b915050613597565b505050505050505050505050565b858073ffffffffffffffffffffffffffffffffffffffff163373ffffffffffffffffffffffffffffffffffffffff1614806137005750600460019054906101000a900473ffffffffffffffffffffffffffffffffffffffff1673ffffffffffffffffffffffffffffffffffffffff163373ffffffffffffffffffffffffffffffffffffffff16145b61370957600080fd5b600154861061371757600080fd5b6002600087815260200190815260200160002060000180549050851061373c57600080fd5b60026000878152602001908152602001600020600001858154811061378a577f4e487b7100000000000000000000000000000000000000000000000000000000600052603260045260246000fd5b9060005260206000200160009054906101000a900473ffffffffffffffffffffffffffffffffffffffff1673ffffffffffffffffffffffffffffffffffffffff168773ffffffffffffffffffffffffffffffffffffffff16146137ec57600080fd5b6000845111806137fd575060008351115b61380657600080fd5b8360026000888152602001908152602001600020600001908051906020019061383092919061498b565b508260026000888152602001908152602001600020600101908051906020019061385b929190614a9f565b5081600260008881526020019081526020016000206002018190555050505050505050565b60026020528060005260406000206000915090508060020154908060030160009054906101000a900473ffffffffffffffffffffffffffffffffffffffff16908060040160009054906101000a900473ffffffffffffffffffffffffffffffffffffffff16908060050154908060060154908060070154908060080160009054906101000a900460ff16905087565b60036020528160005260406000206020528060005260406000206000915091509054906101000a900460ff1681565b828073ffffffffffffffffffffffffffffffffffffffff163373ffffffffffffffffffffffffffffffffffffffff1614806139c65750600460019054906101000a900473ffffffffffffffffffffffffffffffffffffffff1673ffffffffffffffffffffffffffffffffffffffff163373ffffffffffffffffffffffffffffffffffffffff16145b6139cf57600080fd5b60005b8251811015613a3957613a268585858481518110613a19577f4e487b7100000000000000000000000000000000000000000000000000000000600052603260045260246000fd5b60200260200101516118c2565b8080613a3190616017565b9150506139d2565b5050505050565b613a48614b29565b600260008381526020019081526020016000206040518061018001604052908160008201805480602002602001604051908101604052809291908181526020018280548015613aec57602002820191906000526020600020905b8160009054906101000a900473ffffffffffffffffffffffffffffffffffffffff1673ffffffffffffffffffffffffffffffffffffffff1681526020019060010190808311613aa2575b5050505050815260200160018201805480602002602001604051908101604052809291908181526020018280548015613b7a57602002820191906000526020600020905b8160009054906101000a900473ffffffffffffffffffffffffffffffffffffffff1673ffffffffffffffffffffffffffffffffffffffff1681526020019060010190808311613b30575b50505050508152602001600282015481526020016003820160009054906101000a900473ffffffffffffffffffffffffffffffffffffffff1673ffffffffffffffffffffffffffffffffffffffff1673ffffffffffffffffffffffffffffffffffffffff1681526020016004820160009054906101000a900473ffffffffffffffffffffffffffffffffffffffff1673ffffffffffffffffffffffffffffffffffffffff1673ffffffffffffffffffffffffffffffffffffffff1681526020016005820154815260200160068201548152602001600782015481526020016008820160009054906101000a900460ff1615151515815260200160098201805480602002602001604051908101604052809291908181526020016000905b82821015613dad578382906000526020600020906002020160405180604001604052908160008201805480602002602001604051908101604052809291908181526020018280548015613d3f57602002820191906000526020600020905b8160009054906101000a900473ffffffffffffffffffffffffffffffffffffffff1673ffffffffffffffffffffffffffffffffffffffff1681526020019060010190808311613cf5575b505050505081526020016001820160009054906101000a900473ffffffffffffffffffffffffffffffffffffffff1673ffffffffffffffffffffffffffffffffffffffff1673ffffffffffffffffffffffffffffffffffffffff168152505081526020019060010190613c97565b505050508152602001600a8201805480602002602001604051908101604052809291908181526020016000905b82821015613e8757838290600052602060002090600302016040518060600160405290816000820160009054906101000a900473ffffffffffffffffffffffffffffffffffffffff1673ffffffffffffffffffffffffffffffffffffffff1673ffffffffffffffffffffffffffffffffffffffff168152602001600182015481526020016002820160009054906101000a900460ff16151515158152505081526020019060010190613dda565b505050508152602001600b8201805480602002602001604051908101604052809291908181526020016000905b82821015613f6157838290600052602060002090600302016040518060600160405290816000820160009054906101000a900473ffffffffffffffffffffffffffffffffffffffff1673ffffffffffffffffffffffffffffffffffffffff1673ffffffffffffffffffffffffffffffffffffffff168152602001600182015481526020016002820160009054906101000a900460ff16151515158152505081526020019060010190613eb4565b50505050815250509050919050565b613f78614893565b73ffffffffffffffffffffffffffffffffffffffff16613f96611899565b73ffffffffffffffffffffffffffffffffffffffff1614613fec576040517f08c379a0000000000000000000000000000000000000000000000000000000008152600401613fe390615c31565b60405180910390fd5b600073ffffffffffffffffffffffffffffffffffffffff168173ffffffffffffffffffffffffffffffffffffffff16141561405c576040517f08c379a000000000000000000000000000000000000000000000000000000000815260040161405390615c11565b60405180910390fd5b6140658161489b565b50565b600060026000858152602001908152602001600020600501541415614146576000811161409457600080fd5b80600260008581526020019081526020016000206006015410156140b757600080fd5b6140e081600260008681526020019081526020016000206006015461497590919063ffffffff16565b60026000858152602001908152602001600020600601819055508173ffffffffffffffffffffffffffffffffffffffff166108fc829081150290604051600060405180830381858888f19350505050158015614140573d6000803e3d6000fd5b5061488e565b600a60026000858152602001908152602001600020600501541415614356576000811161417257600080fd5b806002600085815260200190815260200160002060060154101561419557600080fd5b80600260008581526020019081526020016000206007015410156141b857600080fd5b6141e181600260008681526020019081526020016000206006015461497590919063ffffffff16565b600260008581526020019081526020016000206006018190555061422481600260008681526020019081526020016000206007015461497590919063ffffffff16565b60026000858152602001908152602001600020600701819055508173ffffffffffffffffffffffffffffffffffffffff166108fc829081150290604051600060405180830381858888f19350505050158015614284573d6000803e3d6000fd5b506002600084815260200190815260200160002060040160009054906101000a900473ffffffffffffffffffffffffffffffffffffffff1673ffffffffffffffffffffffffffffffffffffffff1663a9059cbb83836040518363ffffffff1660e01b81526004016142f6929190615b96565b602060405180830381600087803b15801561431057600080fd5b505af1158015614324573d6000803e3d6000fd5b505050506040513d601f19601f82011682018060405250810190614348919061566e565b61435157600080fd5b61488d565b600b600260008581526020019081526020016000206005015414156145e0576000811161438257600080fd5b80600260008581526020019081526020016000206006015410156143a557600080fd5b6143da6002826143b59190615ef1565b600260008681526020019081526020016000206006015461497590919063ffffffff16565b60026000858152602001908152602001600020600601819055506144296002826144049190615ef1565b600260008681526020019081526020016000206007015461497590919063ffffffff16565b60026000858152602001908152602001600020600701819055506002600084815260200190815260200160002060030160009054906101000a900473ffffffffffffffffffffffffffffffffffffffff1673ffffffffffffffffffffffffffffffffffffffff1663a9059cbb83836040518363ffffffff1660e01b81526004016144b4929190615b96565b602060405180830381600087803b1580156144ce57600080fd5b505af11580156144e2573d6000803e3d6000fd5b505050506040513d601f19601f82011682018060405250810190614506919061566e565b61450f57600080fd5b6002600084815260200190815260200160002060040160009054906101000a900473ffffffffffffffffffffffffffffffffffffffff1673ffffffffffffffffffffffffffffffffffffffff1663a9059cbb83836040518363ffffffff1660e01b8152600401614580929190615b96565b602060405180830381600087803b15801561459a57600080fd5b505af11580156145ae573d6000803e3d6000fd5b505050506040513d601f19601f820116820180604052508101906145d2919061566e565b6145db57600080fd5b61488c565b601460026000858152602001908152602001600020600501541415614743576000811161460c57600080fd5b806002600085815260200190815260200160002060060154101561462f57600080fd5b61465881600260008681526020019081526020016000206006015461497590919063ffffffff16565b60026000858152602001908152602001600020600601819055506002600084815260200190815260200160002060030160009054906101000a900473ffffffffffffffffffffffffffffffffffffffff1673ffffffffffffffffffffffffffffffffffffffff1663a9059cbb83836040518363ffffffff1660e01b81526004016146e3929190615b96565b602060405180830381600087803b1580156146fd57600080fd5b505af1158015614711573d6000803e3d6000fd5b505050506040513d601f19601f82011682018060405250810190614735919061566e565b61473e57600080fd5b61488b565b6102d1600260008581526020019081526020016000206005015414156148855760036000848152602001908152602001600020600082815260200190815260200160002060009054906101000a900460ff1661479e57600080fd5b600060036000858152602001908152602001600020600083815260200190815260200160002060006101000a81548160ff0219169083151502179055506002600084815260200190815260200160002060030160009054906101000a900473ffffffffffffffffffffffffffffffffffffffff1673ffffffffffffffffffffffffffffffffffffffff166323b872dd3084846040518463ffffffff1660e01b815260040161484e93929190615bbf565b600060405180830381600087803b15801561486857600080fd5b505af115801561487c573d6000803e3d6000fd5b5050505061488a565b600080fd5b5b5b5b5b505050565b600033905090565b60008060009054906101000a900473ffffffffffffffffffffffffffffffffffffffff169050816000806101000a81548173ffffffffffffffffffffffffffffffffffffffff021916908373ffffffffffffffffffffffffffffffffffffffff1602179055508173ffffffffffffffffffffffffffffffffffffffff168173ffffffffffffffffffffffffffffffffffffffff167f8be0079c531659141344cd1fd0a4f28419497f9722a3daafe3b4186f6b6457e060405160405180910390a35050565b6000818361496d9190615e9b565b905092915050565b600081836149839190615f22565b905092915050565b828054828255906000526020600020908101928215614a04579160200282015b82811115614a035782518260006101000a81548173ffffffffffffffffffffffffffffffffffffffff021916908373ffffffffffffffffffffffffffffffffffffffff160217905550916020019190600101906149ab565b5b509050614a119190614bb8565b5090565b828054828255906000526020600020908101928215614a8e579160200282015b82811115614a8d5782518260006101000a81548173ffffffffffffffffffffffffffffffffffffffff021916908373ffffffffffffffffffffffffffffffffffffffff16021790555091602001919060010190614a35565b5b509050614a9b9190614bb8565b5090565b828054828255906000526020600020908101928215614b18579160200282015b82811115614b175782518260006101000a81548173ffffffffffffffffffffffffffffffffffffffff021916908373ffffffffffffffffffffffffffffffffffffffff16021790555091602001919060010190614abf565b5b509050614b259190614bb8565b5090565b604051806101800160405280606081526020016060815260200160008152602001600073ffffffffffffffffffffffffffffffffffffffff168152602001600073ffffffffffffffffffffffffffffffffffffffff1681526020016000815260200160008152602001600081526020016000151581526020016060815260200160608152602001606081525090565b5b80821115614bd1576000816000905550600101614bb9565b5090565b6000614be8614be384615d22565b615cfd565b90508083825260208201905082856020860282011115614c0757600080fd5b60005b85811015614c375781614c1d8882614d19565b845260208401935060208301925050600181019050614c0a565b5050509392505050565b6000614c54614c4f84615d4e565b615cfd565b90508083825260208201905082856020860282011115614c7357600080fd5b60005b85811015614ca35781614c898882614d2e565b845260208401935060208301925050600181019050614c76565b5050509392505050565b6000614cc0614cbb84615d7a565b615cfd565b90508083825260208201905082856020860282011115614cdf57600080fd5b60005b85811015614d0f5781614cf58882614dd6565b845260208401935060208301925050600181019050614ce2565b5050509392505050565b600081359050614d2881616176565b92915050565b600081359050614d3d8161618d565b92915050565b600082601f830112614d5457600080fd5b8135614d64848260208601614bd5565b91505092915050565b600082601f830112614d7e57600080fd5b8135614d8e848260208601614c41565b91505092915050565b600082601f830112614da857600080fd5b8135614db8848260208601614cad565b91505092915050565b600081519050614dd0816161a4565b92915050565b600081359050614de5816161bb565b92915050565b600060208284031215614dfd57600080fd5b6000614e0b84828501614d19565b91505092915050565b600080600080600080600060e0888a031215614e2f57600080fd5b6000614e3d8a828b01614d2e565b975050602088013567ffffffffffffffff811115614e5a57600080fd5b614e668a828b01614d6d565b965050604088013567ffffffffffffffff811115614e8357600080fd5b614e8f8a828b01614d43565b9550506060614ea08a828b01614dd6565b9450506080614eb18a828b01614d19565b93505060a0614ec28a828b01614d19565b92505060c0614ed38a828b01614dd6565b91505092959891949750929550565b600080600080600080600080610100898b031215614eff57600080fd5b6000614f0d8b828c01614d2e565b985050602089013567ffffffffffffffff811115614f2a57600080fd5b614f368b828c01614d6d565b975050604089013567ffffffffffffffff811115614f5357600080fd5b614f5f8b828c01614d43565b9650506060614f708b828c01614dd6565b9550506080614f818b828c01614d19565b94505060a0614f928b828c01614d19565b93505060c0614fa38b828c01614dd6565b92505060e0614fb48b828c01614dd6565b9150509295985092959890939650565b600080600060608486031215614fd957600080fd5b6000614fe786828701614d2e565b9350506020614ff886828701614dd6565b925050604061500986828701614dd6565b9150509250925092565b6000806000806080858703121561502957600080fd5b600061503787828801614d2e565b945050602061504887828801614dd6565b935050604061505987828801614dd6565b925050606085013567ffffffffffffffff81111561507657600080fd5b61508287828801614d97565b91505092959194509250565b6000806000606084860312156150a357600080fd5b60006150b186828701614d19565b93505060206150c286828701614dd6565b925050604084013567ffffffffffffffff8111156150df57600080fd5b6150eb86828701614d6d565b9150509250925092565b600080600080600060a0868803121561510d57600080fd5b600061511b88828901614d19565b955050602061512c88828901614dd6565b945050604086013567ffffffffffffffff81111561514957600080fd5b61515588828901614d6d565b935050606061516688828901614dd6565b925050608086013567ffffffffffffffff81111561518357600080fd5b61518f88828901614d97565b9150509295509295909350565b6000806000606084860312156151b157600080fd5b60006151bf86828701614d19565b93505060206151d086828701614dd6565b925050604084013567ffffffffffffffff8111156151ed57600080fd5b6151f986828701614d97565b9150509250925092565b60008060006060848603121561521857600080fd5b600061522686828701614d19565b935050602061523786828701614dd6565b925050604061524886828701614dd6565b9150509250925092565b6000806000806080858703121561526857600080fd5b600061527687828801614d19565b945050602061528787828801614dd6565b935050604061529887828801614dd6565b925050606085013567ffffffffffffffff8111156152b557600080fd5b6152c187828801614d43565b91505092959194509250565b600080600080608085870312156152e357600080fd5b60006152f187828801614d19565b945050602061530287828801614dd6565b935050604061531387828801614dd6565b925050606085013567ffffffffffffffff81111561533057600080fd5b61533c87828801614d6d565b91505092959194509250565b60008060008060008060c0878903121561536157600080fd5b600061536f89828a01614d19565b965050602061538089828a01614dd6565b955050604061539189828a01614dd6565b945050606087013567ffffffffffffffff8111156153ae57600080fd5b6153ba89828a01614d6d565b935050608087013567ffffffffffffffff8111156153d757600080fd5b6153e389828a01614d6d565b92505060a06153f489828a01614dd6565b9150509295509295509295565b6000806000806080858703121561541757600080fd5b600061542587828801614d19565b945050602061543687828801614dd6565b935050604061544787828801614dd6565b925050606085013567ffffffffffffffff81111561546457600080fd5b61547087828801614d97565b91505092959194509250565b6000806000806080858703121561549257600080fd5b60006154a087828801614d19565b94505060206154b187828801614dd6565b93505060406154c287828801614dd6565b92505060606154d387828801614dd6565b91505092959194509250565b600080600080600060a086880312156154f757600080fd5b600061550588828901614d19565b955050602061551688828901614dd6565b945050604061552788828901614dd6565b935050606061553888828901614dd6565b925050608061554988828901614d2e565b9150509295509295909350565b600080600080600060a0868803121561556e57600080fd5b600061557c88828901614d19565b955050602061558d88828901614dd6565b945050604061559e88828901614dd6565b93505060606155af88828901614dd6565b925050608086013567ffffffffffffffff8111156155cc57600080fd5b6155d888828901614d97565b9150509295509295909350565b60008060008060008060c087890312156155fe57600080fd5b600061560c89828a01614d19565b965050602061561d89828a01614dd6565b955050604061562e89828a01614dd6565b945050606061563f89828a01614dd6565b935050608061565089828a01614dd6565b92505060a061566189828a01614d2e565b9150509295509295509295565b60006020828403121561568057600080fd5b600061568e84828501614dc1565b91505092915050565b6000602082840312156156a957600080fd5b60006156b784828501614dd6565b91505092915050565b600080604083850312156156d357600080fd5b60006156e185828601614dd6565b92505060206156f285828601614dd6565b9150509250929050565b60006157088383615767565b60208301905092915050565b60006157208383615776565b60208301905092915050565b60006157388383615aa7565b60608301905092915050565b60006157508383615ae9565b905092915050565b61576181615fb0565b82525050565b61577081615f68565b82525050565b61577f81615f56565b82525050565b61578e81615f56565b82525050565b600061579f82615de6565b6157a98185615e46565b93506157b483615da6565b8060005b838110156157e55781516157cc8882615714565b97506157d783615e12565b9250506001810190506157b8565b5085935050505092915050565b60006157fd82615df1565b6158078185615e57565b935061581283615db6565b8060005b8381101561584357815161582a88826156fc565b975061583583615e1f565b925050600181019050615816565b5085935050505092915050565b600061585b82615dfc565b6158658185615e68565b935061587083615dc6565b8060005b838110156158a1578151615888888261572c565b975061589383615e2c565b925050600181019050615874565b5085935050505092915050565b60006158b982615e07565b6158c38185615e79565b9350836020820285016158d585615dd6565b8060005b8581101561591157848403895281516158f28582615744565b94506158fd83615e39565b925060208a019950506001810190506158d9565b50829750879550505050505092915050565b61592c81615f7a565b82525050565b61593b81615f7a565b82525050565b600061594e602683615e8a565b9150615959826160fe565b604082019050919050565b6000615971602083615e8a565b915061597c8261614d565b602082019050919050565b60006101808301600083015184820360008601526159a582826157f2565b915050602083015184820360208601526159bf8282615794565b91505060408301516159d46040860182615b26565b5060608301516159e76060860182615776565b5060808301516159fa6080860182615776565b5060a0830151615a0d60a0860182615b26565b5060c0830151615a2060c0860182615b26565b5060e0830151615a3360e0860182615b26565b50610100830151615a48610100860182615923565b50610120830151848203610120860152615a6282826158ae565b915050610140830151848203610140860152615a7e8282615850565b915050610160830151848203610160860152615a9a8282615850565b9150508091505092915050565b606082016000820151615abd6000850182615767565b506020820151615ad06020850182615b26565b506040820151615ae36040850182615923565b50505050565b60006040830160008301518482036000860152615b0682826157f2565b9150506020830151615b1b6020860182615776565b508091505092915050565b615b2f81615fa6565b82525050565b615b3e81615fa6565b82525050565b6000602082019050615b596000830184615785565b92915050565b6000606082019050615b746000830186615758565b615b816020830185615785565b615b8e6040830184615b35565b949350505050565b6000604082019050615bab6000830185615758565b615bb86020830184615b35565b9392505050565b6000606082019050615bd46000830186615785565b615be16020830185615758565b615bee6040830184615b35565b949350505050565b6000602082019050615c0b6000830184615932565b92915050565b60006020820190508181036000830152615c2a81615941565b9050919050565b60006020820190508181036000830152615c4a81615964565b9050919050565b60006020820190508181036000830152615c6b8184615987565b905092915050565b6000602082019050615c886000830184615b35565b92915050565b600060e082019050615ca3600083018a615b35565b615cb06020830189615785565b615cbd6040830188615785565b615cca6060830187615b35565b615cd76080830186615b35565b615ce460a0830185615b35565b615cf160c0830184615932565b98975050505050505050565b6000615d07615d18565b9050615d138282615fe6565b919050565b6000604051905090565b600067ffffffffffffffff821115615d3d57615d3c6160be565b5b602082029050602081019050919050565b600067ffffffffffffffff821115615d6957615d686160be565b5b602082029050602081019050919050565b600067ffffffffffffffff821115615d9557615d946160be565b5b602082029050602081019050919050565b6000819050602082019050919050565b6000819050602082019050919050565b6000819050602082019050919050565b6000819050602082019050919050565b600081519050919050565b600081519050919050565b600081519050919050565b600081519050919050565b6000602082019050919050565b6000602082019050919050565b6000602082019050919050565b6000602082019050919050565b600082825260208201905092915050565b600082825260208201905092915050565b600082825260208201905092915050565b600082825260208201905092915050565b600082825260208201905092915050565b6000615ea682615fa6565b9150615eb183615fa6565b9250827fffffffffffffffffffffffffffffffffffffffffffffffffffffffffffffffff03821115615ee657615ee5616060565b5b828201905092915050565b6000615efc82615fa6565b9150615f0783615fa6565b925082615f1757615f1661608f565b5b828204905092915050565b6000615f2d82615fa6565b9150615f3883615fa6565b925082821015615f4b57615f4a616060565b5b828203905092915050565b6000615f6182615f86565b9050919050565b6000615f7382615f86565b9050919050565b60008115159050919050565b600073ffffffffffffffffffffffffffffffffffffffff82169050919050565b6000819050919050565b6000615fbb82615fc2565b9050919050565b6000615fcd82615fd4565b9050919050565b6000615fdf82615f86565b9050919050565b615fef826160ed565b810181811067ffffffffffffffff8211171561600e5761600d6160be565b5b80604052505050565b600061602282615fa6565b91507fffffffffffffffffffffffffffffffffffffffffffffffffffffffffffffffff82141561605557616054616060565b5b600182019050919050565b7f4e487b7100000000000000000000000000000000000000000000000000000000600052601160045260246000fd5b7f4e487b7100000000000000000000000000000000000000000000000000000000600052601260045260246000fd5b7f4e487b7100000000000000000000000000000000000000000000000000000000600052604160045260246000fd5b6000601f19601f8301169050919050565b7f4f776e61626c653a206e6577206f776e657220697320746865207a65726f206160008201527f6464726573730000000000000000000000000000000000000000000000000000602082015250565b7f4f776e61626c653a2063616c6c6572206973206e6f7420746865206f776e6572600082015250565b61617f81615f56565b811461618a57600080fd5b50565b61619681615f68565b81146161a157600080fd5b50565b6161ad81615f7a565b81146161b857600080fd5b50565b6161c481615fa6565b81146161cf57600080fd5b5056fea2646970667358221220c90fd91536b18996abb9eff2e3f003ca843405666b6cf5a61a6989b5c7663c6c64736f6c63430008040033",
  "linkReferences": {},
  "deployedLinkReferences": {}
}