{
  "_format": "hh-sol-artifact-1",
  "contractName": "GAkita",
  "sourceName": "contracts/GAkita.sol",
  "abi": [
    {
      "inputs": [],
      "stateMutability": "nonpayable",
      "type": "constructor"
    },
    {
      "anonymous": false,
      "inputs": [
        {
          "indexed": true,
          "internalType": "address",
          "name": "owner",
          "type": "address"
        },
        {
          "indexed": true,
          "internalType": "address",
          "name": "spender",
          "type": "address"
        },
        {
          "indexed": false,
          "internalType": "uint256",
          "name": "value",
          "type": "uint256"
        }
      ],
      "name": "Approval",
      "type": "event"
    },
    {
      "anonymous": false,
      "inputs": [
        {
          "indexed": true,
          "internalType": "address",
          "name": "delegator",
          "type": "address"
        },
        {
          "indexed": true,
          "internalType": "address",
          "name": "fromDelegate",
          "type": "address"
        },
        {
          "indexed": true,
          "internalType": "address",
          "name": "toDelegate",
          "type": "address"
        }
      ],
      "name": "DelegateChanged",
      "type": "event"
    },
    {
      "anonymous": false,
      "inputs": [
        {
          "indexed": true,
          "internalType": "address",
          "name": "delegate",
          "type": "address"
        },
        {
          "indexed": false,
          "internalType": "uint256",
          "name": "previousBalance",
          "type": "uint256"
        },
        {
          "indexed": false,
          "internalType": "uint256",
          "name": "newBalance",
          "type": "uint256"
        }
      ],
      "name": "DelegateVotesChanged",
      "type": "event"
    },
    {
      "anonymous": false,
      "inputs": [
        {
          "indexed": true,
          "internalType": "address",
          "name": "previousOwner",
          "type": "address"
        },
        {
          "indexed": true,
          "internalType": "address",
          "name": "newOwner",
          "type": "address"
        }
      ],
      "name": "OwnershipTransferred",
      "type": "event"
    },
    {
      "anonymous": false,
      "inputs": [
        {
          "indexed": true,
          "internalType": "address",
          "name": "from",
          "type": "address"
        },
        {
          "indexed": true,
          "internalType": "address",
          "name": "to",
          "type": "address"
        },
        {
          "indexed": false,
          "internalType": "uint256",
          "name": "value",
          "type": "uint256"
        }
      ],
      "name": "Transfer",
      "type": "event"
    },
    {
      "inputs": [],
      "name": "DOMAIN_SEPARATOR",
      "outputs": [
        {
          "internalType": "bytes32",
          "name": "",
          "type": "bytes32"
        }
      ],
      "stateMutability": "view",
      "type": "function"
    },
    {
      "inputs": [],
      "name": "MAX_SUPPLY",
      "outputs": [
        {
          "internalType": "uint256",
          "name": "",
          "type": "uint256"
        }
      ],
      "stateMutability": "view",
      "type": "function"
    },
    {
      "inputs": [
        {
          "internalType": "address",
          "name": "addr",
          "type": "address"
        }
      ],
      "name": "addAddressToWhitelist",
      "outputs": [
        {
          "internalType": "bool",
          "name": "success",
          "type": "bool"
        }
      ],
      "stateMutability": "nonpayable",
      "type": "function"
    },
    {
      "inputs": [],
      "name": "airdrop",
      "outputs": [
        {
          "internalType": "address",
          "name": "",
          "type": "address"
        }
      ],
      "stateMutability": "view",
      "type": "function"
    },
    {
      "inputs": [
        {
          "internalType": "address",
          "name": "owner",
          "type": "address"
        },
        {
          "internalType": "address",
          "name": "spender",
          "type": "address"
        }
      ],
      "name": "allowance",
      "outputs": [
        {
          "internalType": "uint256",
          "name": "",
          "type": "uint256"
        }
      ],
      "stateMutability": "view",
      "type": "function"
    },
    {
      "inputs": [
        {
          "internalType": "address",
          "name": "spender",
          "type": "address"
        },
        {
          "internalType": "uint256",
          "name": "amount",
          "type": "uint256"
        }
      ],
      "name": "approve",
      "outputs": [
        {
          "internalType": "bool",
          "name": "",
          "type": "bool"
        }
      ],
      "stateMutability": "nonpayable",
      "type": "function"
    },
    {
      "inputs": [
        {
          "internalType": "address",
          "name": "account",
          "type": "address"
        }
      ],
      "name": "balanceOf",
      "outputs": [
        {
          "internalType": "uint256",
          "name": "",
          "type": "uint256"
        }
      ],
      "stateMutability": "view",
      "type": "function"
    },
    {
      "inputs": [
        {
          "internalType": "address",
          "name": "_from",
          "type": "address"
        },
        {
          "internalType": "uint256",
          "name": "_value",
          "type": "uint256"
        }
      ],
      "name": "calculateTransferTaxes",
      "outputs": [
        {
          "internalType": "uint256",
          "name": "adjustedValue",
          "type": "uint256"
        },
        {
          "internalType": "uint256",
          "name": "taxAmount",
          "type": "uint256"
        }
      ],
      "stateMutability": "view",
      "type": "function"
    },
    {
      "inputs": [
        {
          "internalType": "address",
          "name": "account",
          "type": "address"
        },
        {
          "internalType": "uint32",
          "name": "pos",
          "type": "uint32"
        }
      ],
      "name": "checkpoints",
      "outputs": [
        {
          "components": [
            {
              "internalType": "uint32",
              "name": "fromBlock",
              "type": "uint32"
            },
            {
              "internalType": "uint224",
              "name": "votes",
              "type": "uint224"
            }
          ],
          "internalType": "struct ERC20Votes.Checkpoint",
          "name": "",
          "type": "tuple"
        }
      ],
      "stateMutability": "view",
      "type": "function"
    },
    {
      "inputs": [],
      "name": "decimals",
      "outputs": [
        {
          "internalType": "uint8",
          "name": "",
          "type": "uint8"
        }
      ],
      "stateMutability": "view",
      "type": "function"
    },
    {
      "inputs": [
        {
          "internalType": "address",
          "name": "spender",
          "type": "address"
        },
        {
          "internalType": "uint256",
          "name": "subtractedValue",
          "type": "uint256"
        }
      ],
      "name": "decreaseAllowance",
      "outputs": [
        {
          "internalType": "bool",
          "name": "",
          "type": "bool"
        }
      ],
      "stateMutability": "nonpayable",
      "type": "function"
    },
    {
      "inputs": [
        {
          "internalType": "address",
          "name": "delegatee",
          "type": "address"
        }
      ],
      "name": "delegate",
      "outputs": [],
      "stateMutability": "nonpayable",
      "type": "function"
    },
    {
      "inputs": [
        {
          "internalType": "address",
          "name": "delegatee",
          "type": "address"
        },
        {
          "internalType": "uint256",
          "name": "nonce",
          "type": "uint256"
        },
        {
          "internalType": "uint256",
          "name": "expiry",
          "type": "uint256"
        },
        {
          "internalType": "uint8",
          "name": "v",
          "type": "uint8"
        },
        {
          "internalType": "bytes32",
          "name": "r",
          "type": "bytes32"
        },
        {
          "internalType": "bytes32",
          "name": "s",
          "type": "bytes32"
        }
      ],
      "name": "delegateBySig",
      "outputs": [],
      "stateMutability": "nonpayable",
      "type": "function"
    },
    {
      "inputs": [
        {
          "internalType": "address",
          "name": "account",
          "type": "address"
        }
      ],
      "name": "delegates",
      "outputs": [
        {
          "internalType": "address",
          "name": "",
          "type": "address"
        }
      ],
      "stateMutability": "view",
      "type": "function"
    },
    {
      "inputs": [
        {
          "internalType": "uint256",
          "name": "blockNumber",
          "type": "uint256"
        }
      ],
      "name": "getPastTotalSupply",
      "outputs": [
        {
          "internalType": "uint256",
          "name": "",
          "type": "uint256"
        }
      ],
      "stateMutability": "view",
      "type": "function"
    },
    {
      "inputs": [
        {
          "internalType": "address",
          "name": "account",
          "type": "address"
        },
        {
          "internalType": "uint256",
          "name": "blockNumber",
          "type": "uint256"
        }
      ],
      "name": "getPastVotes",
      "outputs": [
        {
          "internalType": "uint256",
          "name": "",
          "type": "uint256"
        }
      ],
      "stateMutability": "view",
      "type": "function"
    },
    {
      "inputs": [
        {
          "internalType": "address",
          "name": "account",
          "type": "address"
        }
      ],
      "name": "getVotes",
      "outputs": [
        {
          "internalType": "uint256",
          "name": "",
          "type": "uint256"
        }
      ],
      "stateMutability": "view",
      "type": "function"
    },
    {
      "inputs": [
        {
          "internalType": "address",
          "name": "spender",
          "type": "address"
        },
        {
          "internalType": "uint256",
          "name": "addedValue",
          "type": "uint256"
        }
      ],
      "name": "increaseAllowance",
      "outputs": [
        {
          "internalType": "bool",
          "name": "",
          "type": "bool"
        }
      ],
      "stateMutability": "nonpayable",
      "type": "function"
    },
    {
      "inputs": [
        {
          "internalType": "address",
          "name": "_to",
          "type": "address"
        },
        {
          "internalType": "uint256",
          "name": "_amount",
          "type": "uint256"
        }
      ],
      "name": "mint",
      "outputs": [
        {
          "internalType": "bool",
          "name": "",
          "type": "bool"
        }
      ],
      "stateMutability": "nonpayable",
      "type": "function"
    },
    {
      "inputs": [],
      "name": "name",
      "outputs": [
        {
          "internalType": "string",
          "name": "",
          "type": "string"
        }
      ],
      "stateMutability": "view",
      "type": "function"
    },
    {
      "inputs": [
        {
          "internalType": "address",
          "name": "owner",
          "type": "address"
        }
      ],
      "name": "nonces",
      "outputs": [
        {
          "internalType": "uint256",
          "name": "",
          "type": "uint256"
        }
      ],
      "stateMutability": "view",
      "type": "function"
    },
    {
      "inputs": [
        {
          "internalType": "address",
          "name": "account",
          "type": "address"
        }
      ],
      "name": "numCheckpoints",
      "outputs": [
        {
          "internalType": "uint32",
          "name": "",
          "type": "uint32"
        }
      ],
      "stateMutability": "view",
      "type": "function"
    },
    {
      "inputs": [],
      "name": "owner",
      "outputs": [
        {
          "internalType": "address",
          "name": "",
          "type": "address"
        }
      ],
      "stateMutability": "view",
      "type": "function"
    },
    {
      "inputs": [
        {
          "internalType": "address",
          "name": "owner",
          "type": "address"
        },
        {
          "internalType": "address",
          "name": "spender",
          "type": "address"
        },
        {
          "internalType": "uint256",
          "name": "value",
          "type": "uint256"
        },
        {
          "internalType": "uint256",
          "name": "deadline",
          "type": "uint256"
        },
        {
          "internalType": "uint8",
          "name": "v",
          "type": "uint8"
        },
        {
          "internalType": "bytes32",
          "name": "r",
          "type": "bytes32"
        },
        {
          "internalType": "bytes32",
          "name": "s",
          "type": "bytes32"
        }
      ],
      "name": "permit",
      "outputs": [],
      "stateMutability": "nonpayable",
      "type": "function"
    },
    {
      "inputs": [],
      "name": "renounceOwnership",
      "outputs": [],
      "stateMutability": "nonpayable",
      "type": "function"
    },
    {
      "inputs": [
        {
          "internalType": "address",
          "name": "_newAirdrop",
          "type": "address"
        }
      ],
      "name": "setAirdropAddress",
      "outputs": [],
      "stateMutability": "nonpayable",
      "type": "function"
    },
    {
      "inputs": [],
      "name": "symbol",
      "outputs": [
        {
          "internalType": "string",
          "name": "",
          "type": "string"
        }
      ],
      "stateMutability": "view",
      "type": "function"
    },
    {
      "inputs": [],
      "name": "tax",
      "outputs": [
        {
          "internalType": "uint8",
          "name": "",
          "type": "uint8"
        }
      ],
      "stateMutability": "view",
      "type": "function"
    },
    {
      "inputs": [],
      "name": "totalSupply",
      "outputs": [
        {
          "internalType": "uint256",
          "name": "",
          "type": "uint256"
        }
      ],
      "stateMutability": "view",
      "type": "function"
    },
    {
      "inputs": [
        {
          "internalType": "address",
          "name": "_to",
          "type": "address"
        },
        {
          "internalType": "uint256",
          "name": "_value",
          "type": "uint256"
        }
      ],
      "name": "transfer",
      "outputs": [
        {
          "internalType": "bool",
          "name": "",
          "type": "bool"
        }
      ],
      "stateMutability": "nonpayable",
      "type": "function"
    },
    {
      "inputs": [
        {
          "internalType": "address",
          "name": "from",
          "type": "address"
        },
        {
          "internalType": "address",
          "name": "to",
          "type": "address"
        },
        {
          "internalType": "uint256",
          "name": "amount",
          "type": "uint256"
        }
      ],
      "name": "transferFrom",
      "outputs": [
        {
          "internalType": "bool",
          "name": "",
          "type": "bool"
        }
      ],
      "stateMutability": "nonpayable",
      "type": "function"
    },
    {
      "inputs": [
        {
          "internalType": "address",
          "name": "newOwner",
          "type": "address"
        }
      ],
      "name": "transferOwnership",
      "outputs": [],
      "stateMutability": "nonpayable",
      "type": "function"
    },
    {
      "inputs": [
        {
          "internalType": "address",
          "name": "",
          "type": "address"
        }
      ],
      "name": "whitelist",
      "outputs": [
        {
          "internalType": "bool",
          "name": "",
          "type": "bool"
        }
      ],
      "stateMutability": "view",
      "type": "function"
    }
  ],
  "bytecode": "0x61014060405269d3c21bcecceda1000000600b553480156200002057600080fd5b506040518060400160405280600681526020017f67416b6974610000000000000000000000000000000000000000000000000000815250806040518060400160405280600181526020017f31000000000000000000000000000000000000000000000000000000000000008152506040518060400160405280600681526020017f67416b69746100000000000000000000000000000000000000000000000000008152506040518060400160405280600381526020017f475443000000000000000000000000000000000000000000000000000000000081525081600390805190602001906200011292919062000314565b5080600490805190602001906200012b92919062000314565b5050506200014e620001426200020a60201b60201c565b6200021260201b60201c565b60008280519060200120905060008280519060200120905060007f8b73c3c69bb8fe3d512ecc4cf759cc79239f7b179b0ffacaa9a75d522b39400f90508260e081815250508161010081815250504660a08181525050620001b7818484620002d860201b60201c565b608081815250503073ffffffffffffffffffffffffffffffffffffffff1660c08173ffffffffffffffffffffffffffffffffffffffff1660601b8152505080610120818152505050505050505062000501565b600033905090565b6000600560009054906101000a900473ffffffffffffffffffffffffffffffffffffffff16905081600560006101000a81548173ffffffffffffffffffffffffffffffffffffffff021916908373ffffffffffffffffffffffffffffffffffffffff1602179055508173ffffffffffffffffffffffffffffffffffffffff168173ffffffffffffffffffffffffffffffffffffffff167f8be0079c531659141344cd1fd0a4f28419497f9722a3daafe3b4186f6b6457e060405160405180910390a35050565b60008383834630604051602001620002f5959493929190620003f7565b6040516020818303038152906040528051906020012090509392505050565b82805462000322906200049c565b90600052602060002090601f01602090048101928262000346576000855562000392565b82601f106200036157805160ff191683800117855562000392565b8280016001018555821562000392579182015b828111156200039157825182559160200191906001019062000374565b5b509050620003a19190620003a5565b5090565b5b80821115620003c0576000816000905550600101620003a6565b5090565b620003cf8162000454565b82525050565b620003e08162000468565b82525050565b620003f18162000492565b82525050565b600060a0820190506200040e6000830188620003d5565b6200041d6020830187620003d5565b6200042c6040830186620003d5565b6200043b6060830185620003e6565b6200044a6080830184620003c4565b9695505050505050565b6000620004618262000472565b9050919050565b6000819050919050565b600073ffffffffffffffffffffffffffffffffffffffff82169050919050565b6000819050919050565b60006002820490506001821680620004b557607f821691505b60208210811415620004cc57620004cb620004d2565b5b50919050565b7f4e487b7100000000000000000000000000000000000000000000000000000000600052602260045260246000fd5b60805160a05160c05160601c60e05161010051610120516144b7620005546000396000611c5d01526000611c9f01526000611c7e01526000611bb301526000611c0901526000611c3201526144b76000f3fe608060405234801561001057600080fd5b50600436106101fb5760003560e01c806379a5b2271161011a5780639b19251a116100ad578063c3cda5201161007c578063c3cda52014610651578063d505accf1461066d578063dd62ed3e14610689578063f1127ed8146106b9578063f2fde38b146106e9576101fb565b80639b19251a146105a5578063a457c2d7146105d5578063a9059cbb14610605578063ab0eda9e14610635576101fb565b80638e539e8c116100e95780638e539e8c1461050957806395d89b411461053957806399c8d556146105575780639ab24eb014610575576101fb565b806379a5b2271461045a5780637b9417c81461048b5780637ecebe00146104bb5780638da5cb5b146104eb576101fb565b806339509351116101925780635c19a95c116101615780635c19a95c146103d45780636fcfff45146103f057806370a0823114610420578063715018a614610450576101fb565b806339509351146103145780633a46b1a81461034457806340c10f1914610374578063587cde1e146103a4576101fb565b8063313ce567116101ce578063313ce5671461029c57806332cb6b0c146102ba5780633644e515146102d85780633884d635146102f6576101fb565b806306fdde0314610200578063095ea7b31461021e57806318160ddd1461024e57806323b872dd1461026c575b600080fd5b610208610705565b60405161021591906137f7565b60405180910390f35b610238600480360381019061023391906130c8565b610797565b6040516102459190613683565b60405180910390f35b6102566107ba565b6040516102639190613b14565b60405180910390f35b61028660048036038101906102819190612fdb565b6107c4565b6040516102939190613683565b60405180910390f35b6102a46107f3565b6040516102b19190613b73565b60405180910390f35b6102c26107fc565b6040516102cf9190613b14565b60405180910390f35b6102e0610802565b6040516102ed919061369e565b60405180910390f35b6102fe610811565b60405161030b9190613668565b60405180910390f35b61032e600480360381019061032991906130c8565b610837565b60405161033b9190613683565b60405180910390f35b61035e600480360381019061035991906130c8565b61086e565b60405161036b9190613b14565b60405180910390f35b61038e600480360381019061038991906130c8565b610902565b60405161039b9190613683565b60405180910390f35b6103be60048036038101906103b99190612f76565b6109c4565b6040516103cb9190613668565b60405180910390f35b6103ee60048036038101906103e99190612f76565b610a2d565b005b61040a60048036038101906104059190612f76565b610a41565b6040516104179190613b58565b60405180910390f35b61043a60048036038101906104359190612f76565b610a95565b6040516104479190613b14565b60405180910390f35b610458610add565b005b610474600480360381019061046f91906130c8565b610b65565b604051610482929190613b2f565b60405180910390f35b6104a560048036038101906104a09190612f76565b610bef565b6040516104b29190613683565b60405180910390f35b6104d560048036038101906104d09190612f76565b610d20565b6040516104e29190613b14565b60405180910390f35b6104f3610d70565b6040516105009190613668565b60405180910390f35b610523600480360381019061051e91906131c9565b610d9a565b6040516105309190613b14565b60405180910390f35b610541610df0565b60405161054e91906137f7565b60405180910390f35b61055f610e82565b60405161056c9190613b73565b60405180910390f35b61058f600480360381019061058a9190612f76565b610e95565b60405161059c9190613b14565b60405180910390f35b6105bf60048036038101906105ba9190612f76565b610fcc565b6040516105cc9190613683565b60405180910390f35b6105ef60048036038101906105ea91906130c8565b610fec565b6040516105fc9190613683565b60405180910390f35b61061f600480360381019061061a91906130c8565b611063565b60405161062c9190613683565b60405180910390f35b61064f600480360381019061064a9190612f76565b61110a565b005b61066b60048036038101906106669190613104565b6111d4565b005b6106876004803603810190610682919061302a565b6112d8565b005b6106a3600480360381019061069e9190612f9f565b61141a565b6040516106b09190613b14565b60405180910390f35b6106d360048036038101906106ce919061318d565b6114a1565b6040516106e09190613af9565b60405180910390f35b61070360048036038101906106fe9190612f76565b6115d7565b005b60606003805461071490613d94565b80601f016020809104026020016040519081016040528092919081815260200182805461074090613d94565b801561078d5780601f106107625761010080835404028352916020019161078d565b820191906000526020600020905b81548152906001019060200180831161077057829003601f168201915b5050505050905090565b6000806107a26116cf565b90506107af8185856116d7565b600191505092915050565b6000600254905090565b6000806107cf6116cf565b90506107dc8582856118a2565b6107e785858561192e565b60019150509392505050565b60006012905090565b600b5481565b600061080c611baf565b905090565b600d60009054906101000a900473ffffffffffffffffffffffffffffffffffffffff1681565b6000806108426116cf565b9050610863818585610854858961141a565b61085e9190613bb5565b6116d7565b600191505092915050565b60004382106108b2576040517f08c379a00000000000000000000000000000000000000000000000000000000081526004016108a990613859565b60405180910390fd5b6108fa600960008573ffffffffffffffffffffffffffffffffffffffff1673ffffffffffffffffffffffffffffffffffffffff16815260200190815260200160002083611cc9565b905092915050565b6000600d60009054906101000a900473ffffffffffffffffffffffffffffffffffffffff1673ffffffffffffffffffffffffffffffffffffffff163373ffffffffffffffffffffffffffffffffffffffff161461096257600090506109be565b60008214806109865750600b5461098483600c54611e2190919063ffffffff16565b115b1561099457600090506109be565b61099e8383611e37565b6109b382600c54611e2190919063ffffffff16565b600c81905550600190505b92915050565b6000600860008373ffffffffffffffffffffffffffffffffffffffff1673ffffffffffffffffffffffffffffffffffffffff16815260200190815260200160002060009054906101000a900473ffffffffffffffffffffffffffffffffffffffff169050919050565b610a3e610a386116cf565b82611e45565b50565b6000610a8e600960008473ffffffffffffffffffffffffffffffffffffffff1673ffffffffffffffffffffffffffffffffffffffff16815260200190815260200160002080549050611f5f565b9050919050565b60008060008373ffffffffffffffffffffffffffffffffffffffff1673ffffffffffffffffffffffffffffffffffffffff168152602001908152602001600020549050919050565b610ae56116cf565b73ffffffffffffffffffffffffffffffffffffffff16610b03610d70565b73ffffffffffffffffffffffffffffffffffffffff1614610b59576040517f08c379a0000000000000000000000000000000000000000000000000000000008152600401610b50906139f9565b60405180910390fd5b610b636000611fb2565b565b60008082915060009050600e60008573ffffffffffffffffffffffffffffffffffffffff1673ffffffffffffffffffffffffffffffffffffffff16815260200190815260200160002060009054906101000a900460ff16610be8576000600d60149054906101000a900460ff169050610bde8482612078565b8093508194505050505b9250929050565b6000610bf96116cf565b73ffffffffffffffffffffffffffffffffffffffff16610c17610d70565b73ffffffffffffffffffffffffffffffffffffffff1614610c6d576040517f08c379a0000000000000000000000000000000000000000000000000000000008152600401610c64906139f9565b60405180910390fd5b600e60008373ffffffffffffffffffffffffffffffffffffffff1673ffffffffffffffffffffffffffffffffffffffff16815260200190815260200160002060009054906101000a900460ff16610d1b576001600e60008473ffffffffffffffffffffffffffffffffffffffff1673ffffffffffffffffffffffffffffffffffffffff16815260200190815260200160002060006101000a81548160ff021916908315150217905550600190505b919050565b6000610d69600660008473ffffffffffffffffffffffffffffffffffffffff1673ffffffffffffffffffffffffffffffffffffffff1681526020019081526020016000206120e2565b9050919050565b6000600560009054906101000a900473ffffffffffffffffffffffffffffffffffffffff16905090565b6000438210610dde576040517f08c379a0000000000000000000000000000000000000000000000000000000008152600401610dd590613859565b60405180910390fd5b610de9600a83611cc9565b9050919050565b606060048054610dff90613d94565b80601f0160208091040260200160405190810160405280929190818152602001828054610e2b90613d94565b8015610e785780601f10610e4d57610100808354040283529160200191610e78565b820191906000526020600020905b815481529060010190602001808311610e5b57829003601f168201915b5050505050905090565b600d60149054906101000a900460ff1681565b600080600960008473ffffffffffffffffffffffffffffffffffffffff1673ffffffffffffffffffffffffffffffffffffffff16815260200190815260200160002080549050905060008114610fa357600960008473ffffffffffffffffffffffffffffffffffffffff1673ffffffffffffffffffffffffffffffffffffffff168152602001908152602001600020600182610f319190613c96565b81548110610f68577f4e487b7100000000000000000000000000000000000000000000000000000000600052603260045260246000fd5b9060005260206000200160000160049054906101000a90047bffffffffffffffffffffffffffffffffffffffffffffffffffffffff16610fa6565b60005b7bffffffffffffffffffffffffffffffffffffffffffffffffffffffff16915050919050565b600e6020528060005260406000206000915054906101000a900460ff1681565b600080610ff76116cf565b90506000611005828661141a565b90508381101561104a576040517f08c379a000000000000000000000000000000000000000000000000000000000815260040161104190613ab9565b60405180910390fd5b61105782868684036116d7565b60019250505092915050565b60008060006110723385610b65565b9150915060008111156110b5576110ab600d60009054906101000a900473ffffffffffffffffffffffffffffffffffffffff16826120f0565b6110b457600080fd5b5b6110bf85836120f0565b6110fe576040517f08c379a00000000000000000000000000000000000000000000000000000000081526004016110f590613a39565b60405180910390fd5b60019250505092915050565b6111126116cf565b73ffffffffffffffffffffffffffffffffffffffff16611130610d70565b73ffffffffffffffffffffffffffffffffffffffff1614611186576040517f08c379a000000000000000000000000000000000000000000000000000000000815260040161117d906139f9565b60405180910390fd5b80600d60006101000a81548173ffffffffffffffffffffffffffffffffffffffff021916908373ffffffffffffffffffffffffffffffffffffffff1602179055506111d081610bef565b5050565b83421115611217576040517f08c379a000000000000000000000000000000000000000000000000000000000815260040161120e90613879565b60405180910390fd5b60006112796112717fe48329057bfd03d55e49b547132e39cffd9c1820ad7b9d4c5307691425d15adf898989604051602001611256949392919061371a565b60405160208183030381529060405280519060200120612113565b85858561212d565b905061128481612158565b86146112c5576040517f08c379a00000000000000000000000000000000000000000000000000000000081526004016112bc906138b9565b60405180910390fd5b6112cf8188611e45565b50505050505050565b8342111561131b576040517f08c379a000000000000000000000000000000000000000000000000000000000815260040161131290613939565b60405180910390fd5b60007f6e71edae12b1b97f4d1f60370fef10105fa2faae0126114a169c64845d6126c988888861134a8c612158565b89604051602001611360969594939291906136b9565b604051602081830303815290604052805190602001209050600061138382612113565b905060006113938287878761212d565b90508973ffffffffffffffffffffffffffffffffffffffff168173ffffffffffffffffffffffffffffffffffffffff1614611403576040517f08c379a00000000000000000000000000000000000000000000000000000000081526004016113fa906139b9565b60405180910390fd5b61140e8a8a8a6116d7565b50505050505050505050565b6000600160008473ffffffffffffffffffffffffffffffffffffffff1673ffffffffffffffffffffffffffffffffffffffff16815260200190815260200160002060008373ffffffffffffffffffffffffffffffffffffffff1673ffffffffffffffffffffffffffffffffffffffff16815260200190815260200160002054905092915050565b6114a9612ecf565b600960008473ffffffffffffffffffffffffffffffffffffffff1673ffffffffffffffffffffffffffffffffffffffff1681526020019081526020016000208263ffffffff1681548110611526577f4e487b7100000000000000000000000000000000000000000000000000000000600052603260045260246000fd5b906000526020600020016040518060400160405290816000820160009054906101000a900463ffffffff1663ffffffff1663ffffffff1681526020016000820160049054906101000a90047bffffffffffffffffffffffffffffffffffffffffffffffffffffffff167bffffffffffffffffffffffffffffffffffffffffffffffffffffffff167bffffffffffffffffffffffffffffffffffffffffffffffffffffffff1681525050905092915050565b6115df6116cf565b73ffffffffffffffffffffffffffffffffffffffff166115fd610d70565b73ffffffffffffffffffffffffffffffffffffffff1614611653576040517f08c379a000000000000000000000000000000000000000000000000000000000815260040161164a906139f9565b60405180910390fd5b600073ffffffffffffffffffffffffffffffffffffffff168173ffffffffffffffffffffffffffffffffffffffff1614156116c3576040517f08c379a00000000000000000000000000000000000000000000000000000000081526004016116ba906138d9565b60405180910390fd5b6116cc81611fb2565b50565b600033905090565b600073ffffffffffffffffffffffffffffffffffffffff168373ffffffffffffffffffffffffffffffffffffffff161415611747576040517f08c379a000000000000000000000000000000000000000000000000000000000815260040161173e90613a99565b60405180910390fd5b600073ffffffffffffffffffffffffffffffffffffffff168273ffffffffffffffffffffffffffffffffffffffff1614156117b7576040517f08c379a00000000000000000000000000000000000000000000000000000000081526004016117ae906138f9565b60405180910390fd5b80600160008573ffffffffffffffffffffffffffffffffffffffff1673ffffffffffffffffffffffffffffffffffffffff16815260200190815260200160002060008473ffffffffffffffffffffffffffffffffffffffff1673ffffffffffffffffffffffffffffffffffffffff168152602001908152602001600020819055508173ffffffffffffffffffffffffffffffffffffffff168373ffffffffffffffffffffffffffffffffffffffff167f8c5be1e5ebec7d5bd14f71427d1e84f3dd0314c0f7b2291e5b200ac8c7c3b925836040516118959190613b14565b60405180910390a3505050565b60006118ae848461141a565b90507fffffffffffffffffffffffffffffffffffffffffffffffffffffffffffffffff8114611928578181101561191a576040517f08c379a000000000000000000000000000000000000000000000000000000000815260040161191190613919565b60405180910390fd5b61192784848484036116d7565b5b50505050565b600073ffffffffffffffffffffffffffffffffffffffff168373ffffffffffffffffffffffffffffffffffffffff16141561199e576040517f08c379a000000000000000000000000000000000000000000000000000000000815260040161199590613a59565b60405180910390fd5b600073ffffffffffffffffffffffffffffffffffffffff168273ffffffffffffffffffffffffffffffffffffffff161415611a0e576040517f08c379a0000000000000000000000000000000000000000000000000000000008152600401611a0590613839565b60405180910390fd5b611a198383836121b6565b60008060008573ffffffffffffffffffffffffffffffffffffffff1673ffffffffffffffffffffffffffffffffffffffff16815260200190815260200160002054905081811015611a9f576040517f08c379a0000000000000000000000000000000000000000000000000000000008152600401611a9690613959565b60405180910390fd5b8181036000808673ffffffffffffffffffffffffffffffffffffffff1673ffffffffffffffffffffffffffffffffffffffff16815260200190815260200160002081905550816000808573ffffffffffffffffffffffffffffffffffffffff1673ffffffffffffffffffffffffffffffffffffffff1681526020019081526020016000206000828254611b329190613bb5565b925050819055508273ffffffffffffffffffffffffffffffffffffffff168473ffffffffffffffffffffffffffffffffffffffff167fddf252ad1be2c89b69c2b068fc378daa952ba7f163c4a11628f55a4df523b3ef84604051611b969190613b14565b60405180910390a3611ba98484846121bb565b50505050565b60007f000000000000000000000000000000000000000000000000000000000000000073ffffffffffffffffffffffffffffffffffffffff163073ffffffffffffffffffffffffffffffffffffffff16148015611c2b57507f000000000000000000000000000000000000000000000000000000000000000046145b15611c58577f00000000000000000000000000000000000000000000000000000000000000009050611cc6565b611cc37f00000000000000000000000000000000000000000000000000000000000000007f00000000000000000000000000000000000000000000000000000000000000007f00000000000000000000000000000000000000000000000000000000000000006121cb565b90505b90565b6000808380549050905060005b81811015611d6e576000611cea8284612205565b905084868281548110611d26577f4e487b7100000000000000000000000000000000000000000000000000000000600052603260045260246000fd5b9060005260206000200160000160009054906101000a900463ffffffff1663ffffffff161115611d5857809250611d68565b600181611d659190613bb5565b91505b50611cd6565b60008214611df65784600183611d849190613c96565b81548110611dbb577f4e487b7100000000000000000000000000000000000000000000000000000000600052603260045260246000fd5b9060005260206000200160000160049054906101000a90047bffffffffffffffffffffffffffffffffffffffffffffffffffffffff16611df9565b60005b7bffffffffffffffffffffffffffffffffffffffffffffffffffffffff169250505092915050565b60008183611e2f9190613bb5565b905092915050565b611e41828261222b565b5050565b6000611e50836109c4565b90506000611e5d84610a95565b905082600860008673ffffffffffffffffffffffffffffffffffffffff1673ffffffffffffffffffffffffffffffffffffffff16815260200190815260200160002060006101000a81548173ffffffffffffffffffffffffffffffffffffffff021916908373ffffffffffffffffffffffffffffffffffffffff1602179055508273ffffffffffffffffffffffffffffffffffffffff168273ffffffffffffffffffffffffffffffffffffffff168573ffffffffffffffffffffffffffffffffffffffff167f3134e8a2e6d97e929a7e54011ea5485d7d196dd5f0ba4d4ef95803e8e3fc257f60405160405180910390a4611f598284836122b8565b50505050565b600063ffffffff8016821115611faa576040517f08c379a0000000000000000000000000000000000000000000000000000000008152600401611fa190613a79565b60405180910390fd5b819050919050565b6000600560009054906101000a900473ffffffffffffffffffffffffffffffffffffffff16905081600560006101000a81548173ffffffffffffffffffffffffffffffffffffffff021916908373ffffffffffffffffffffffffffffffffffffffff1602179055508173ffffffffffffffffffffffffffffffffffffffff168173ffffffffffffffffffffffffffffffffffffffff167f8be0079c531659141344cd1fd0a4f28419497f9722a3daafe3b4186f6b6457e060405160405180910390a35050565b6000806120a460646120968560ff16876124b190919063ffffffff16565b6124c790919063ffffffff16565b90506120d960646120cb6120bc60648760ff166124dd565b876124b190919063ffffffff16565b6124c790919063ffffffff16565b91509250929050565b600081600001549050919050565b6000806120fb6116cf565b905061210881858561192e565b600191505092915050565b6000612126612120611baf565b836124f3565b9050919050565b600080600061213e87878787612526565b9150915061214b81612633565b8192505050949350505050565b600080600660008473ffffffffffffffffffffffffffffffffffffffff1673ffffffffffffffffffffffffffffffffffffffff16815260200190815260200160002090506121a5816120e2565b91506121b081612984565b50919050565b505050565b6121c683838361299a565b505050565b600083838346306040516020016121e695949392919061375f565b6040516020818303038152906040528051906020012090509392505050565b600060028284186122169190613c0b565b8284166122239190613bb5565b905092915050565b61223582826129c5565b61223d612b25565b7bffffffffffffffffffffffffffffffffffffffffffffffffffffffff166122636107ba565b11156122a4576040517f08c379a000000000000000000000000000000000000000000000000000000000815260040161229b906139d9565b60405180910390fd5b6122b2600a612b4983612b5f565b50505050565b8173ffffffffffffffffffffffffffffffffffffffff168373ffffffffffffffffffffffffffffffffffffffff16141580156122f45750600081115b156124ac57600073ffffffffffffffffffffffffffffffffffffffff168373ffffffffffffffffffffffffffffffffffffffff16146123d25760008061237b600960008773ffffffffffffffffffffffffffffffffffffffff1673ffffffffffffffffffffffffffffffffffffffff168152602001908152602001600020612e4985612b5f565b915091508473ffffffffffffffffffffffffffffffffffffffff167fdec2bacdd2f05b59de34da9b523dff8be42e5e38e818c82fdb0bae774387a72483836040516123c7929190613b2f565b60405180910390a250505b600073ffffffffffffffffffffffffffffffffffffffff168273ffffffffffffffffffffffffffffffffffffffff16146124ab57600080612454600960008673ffffffffffffffffffffffffffffffffffffffff1673ffffffffffffffffffffffffffffffffffffffff168152602001908152602001600020612b4985612b5f565b915091508373ffffffffffffffffffffffffffffffffffffffff167fdec2bacdd2f05b59de34da9b523dff8be42e5e38e818c82fdb0bae774387a72483836040516124a0929190613b2f565b60405180910390a250505b5b505050565b600081836124bf9190613c3c565b905092915050565b600081836124d59190613c0b565b905092915050565b600081836124eb9190613c96565b905092915050565b60008282604051602001612508929190613631565b60405160208183030381529060405280519060200120905092915050565b6000807f7fffffffffffffffffffffffffffffff5d576e7357a4501ddfe92f46681b20a08360001c111561256157600060039150915061262a565b601b8560ff16141580156125795750601c8560ff1614155b1561258b57600060049150915061262a565b6000600187878787604051600081526020016040526040516125b094939291906137b2565b6020604051602081039080840390855afa1580156125d2573d6000803e3d6000fd5b505050602060405103519050600073ffffffffffffffffffffffffffffffffffffffff168173ffffffffffffffffffffffffffffffffffffffff1614156126215760006001925092505061262a565b80600092509250505b94509492505050565b6000600481111561266d577f4e487b7100000000000000000000000000000000000000000000000000000000600052602160045260246000fd5b8160048111156126a6577f4e487b7100000000000000000000000000000000000000000000000000000000600052602160045260246000fd5b14156126b157612981565b600160048111156126eb577f4e487b7100000000000000000000000000000000000000000000000000000000600052602160045260246000fd5b816004811115612724577f4e487b7100000000000000000000000000000000000000000000000000000000600052602160045260246000fd5b1415612765576040517f08c379a000000000000000000000000000000000000000000000000000000000815260040161275c90613819565b60405180910390fd5b6002600481111561279f577f4e487b7100000000000000000000000000000000000000000000000000000000600052602160045260246000fd5b8160048111156127d8577f4e487b7100000000000000000000000000000000000000000000000000000000600052602160045260246000fd5b1415612819576040517f08c379a000000000000000000000000000000000000000000000000000000000815260040161281090613899565b60405180910390fd5b60036004811115612853577f4e487b7100000000000000000000000000000000000000000000000000000000600052602160045260246000fd5b81600481111561288c577f4e487b7100000000000000000000000000000000000000000000000000000000600052602160045260246000fd5b14156128cd576040517f08c379a00000000000000000000000000000000000000000000000000000000081526004016128c490613979565b60405180910390fd5b600480811115612906577f4e487b7100000000000000000000000000000000000000000000000000000000600052602160045260246000fd5b81600481111561293f577f4e487b7100000000000000000000000000000000000000000000000000000000600052602160045260246000fd5b1415612980576040517f08c379a000000000000000000000000000000000000000000000000000000000815260040161297790613999565b60405180910390fd5b5b50565b6001816000016000828254019250508190555050565b6129a5838383612e5f565b6129c06129b1846109c4565b6129ba846109c4565b836122b8565b505050565b600073ffffffffffffffffffffffffffffffffffffffff168273ffffffffffffffffffffffffffffffffffffffff161415612a35576040517f08c379a0000000000000000000000000000000000000000000000000000000008152600401612a2c90613ad9565b60405180910390fd5b612a41600083836121b6565b8060026000828254612a539190613bb5565b92505081905550806000808473ffffffffffffffffffffffffffffffffffffffff1673ffffffffffffffffffffffffffffffffffffffff1681526020019081526020016000206000828254612aa89190613bb5565b925050819055508173ffffffffffffffffffffffffffffffffffffffff16600073ffffffffffffffffffffffffffffffffffffffff167fddf252ad1be2c89b69c2b068fc378daa952ba7f163c4a11628f55a4df523b3ef83604051612b0d9190613b14565b60405180910390a3612b21600083836121bb565b5050565b60007bffffffffffffffffffffffffffffffffffffffffffffffffffffffff905090565b60008183612b579190613bb5565b905092915050565b60008060008580549050905060008114612bf35785600182612b819190613c96565b81548110612bb8577f4e487b7100000000000000000000000000000000000000000000000000000000600052603260045260246000fd5b9060005260206000200160000160049054906101000a90047bffffffffffffffffffffffffffffffffffffffffffffffffffffffff16612bf6565b60005b7bffffffffffffffffffffffffffffffffffffffffffffffffffffffff169250612c2483858763ffffffff16565b9150600081118015612c9d57504386600183612c409190613c96565b81548110612c77577f4e487b7100000000000000000000000000000000000000000000000000000000600052603260045260246000fd5b9060005260206000200160000160009054906101000a900463ffffffff1663ffffffff16145b15612d5057612cab82612e64565b86600183612cb99190613c96565b81548110612cf0577f4e487b7100000000000000000000000000000000000000000000000000000000600052603260045260246000fd5b9060005260206000200160000160046101000a8154817bffffffffffffffffffffffffffffffffffffffffffffffffffffffff02191690837bffffffffffffffffffffffffffffffffffffffffffffffffffffffff160217905550612e40565b856040518060400160405280612d6543611f5f565b63ffffffff168152602001612d7985612e64565b7bffffffffffffffffffffffffffffffffffffffffffffffffffffffff168152509080600181540180825580915050600190039060005260206000200160009091909190915060008201518160000160006101000a81548163ffffffff021916908363ffffffff16021790555060208201518160000160046101000a8154817bffffffffffffffffffffffffffffffffffffffffffffffffffffffff02191690837bffffffffffffffffffffffffffffffffffffffffffffffffffffffff16021790555050505b50935093915050565b60008183612e579190613c96565b905092915050565b505050565b60007bffffffffffffffffffffffffffffffffffffffffffffffffffffffff8016821115612ec7576040517f08c379a0000000000000000000000000000000000000000000000000000000008152600401612ebe90613a19565b60405180910390fd5b819050919050565b6040518060400160405280600063ffffffff16815260200160007bffffffffffffffffffffffffffffffffffffffffffffffffffffffff1681525090565b600081359050612f1c8161440e565b92915050565b600081359050612f3181614425565b92915050565b600081359050612f468161443c565b92915050565b600081359050612f5b81614453565b92915050565b600081359050612f708161446a565b92915050565b600060208284031215612f8857600080fd5b6000612f9684828501612f0d565b91505092915050565b60008060408385031215612fb257600080fd5b6000612fc085828601612f0d565b9250506020612fd185828601612f0d565b9150509250929050565b600080600060608486031215612ff057600080fd5b6000612ffe86828701612f0d565b935050602061300f86828701612f0d565b925050604061302086828701612f37565b9150509250925092565b600080600080600080600060e0888a03121561304557600080fd5b60006130538a828b01612f0d565b97505060206130648a828b01612f0d565b96505060406130758a828b01612f37565b95505060606130868a828b01612f37565b94505060806130978a828b01612f61565b93505060a06130a88a828b01612f22565b92505060c06130b98a828b01612f22565b91505092959891949750929550565b600080604083850312156130db57600080fd5b60006130e985828601612f0d565b92505060206130fa85828601612f37565b9150509250929050565b60008060008060008060c0878903121561311d57600080fd5b600061312b89828a01612f0d565b965050602061313c89828a01612f37565b955050604061314d89828a01612f37565b945050606061315e89828a01612f61565b935050608061316f89828a01612f22565b92505060a061318089828a01612f22565b9150509295509295509295565b600080604083850312156131a057600080fd5b60006131ae85828601612f0d565b92505060206131bf85828601612f4c565b9150509250929050565b6000602082840312156131db57600080fd5b60006131e984828501612f37565b91505092915050565b6131fb81613cca565b82525050565b61320a81613cdc565b82525050565b61321981613ce8565b82525050565b61323061322b82613ce8565b613dc6565b82525050565b600061324182613b8e565b61324b8185613b99565b935061325b818560208601613d61565b61326481613e5d565b840191505092915050565b600061327c601883613b99565b915061328782613e6e565b602082019050919050565b600061329f602383613b99565b91506132aa82613e97565b604082019050919050565b60006132c2601f83613b99565b91506132cd82613ee6565b602082019050919050565b60006132e5601d83613b99565b91506132f082613f0f565b602082019050919050565b6000613308601f83613b99565b915061331382613f38565b602082019050919050565b600061332b601983613b99565b915061333682613f61565b602082019050919050565b600061334e602683613b99565b915061335982613f8a565b604082019050919050565b6000613371602283613b99565b915061337c82613fd9565b604082019050919050565b6000613394600283613baa565b915061339f82614028565b600282019050919050565b60006133b7601d83613b99565b91506133c282614051565b602082019050919050565b60006133da601d83613b99565b91506133e58261407a565b602082019050919050565b60006133fd602683613b99565b9150613408826140a3565b604082019050919050565b6000613420602283613b99565b915061342b826140f2565b604082019050919050565b6000613443602283613b99565b915061344e82614141565b604082019050919050565b6000613466601e83613b99565b915061347182614190565b602082019050919050565b6000613489603083613b99565b9150613494826141b9565b604082019050919050565b60006134ac602083613b99565b91506134b782614208565b602082019050919050565b60006134cf602783613b99565b91506134da82614231565b604082019050919050565b60006134f2601083613b99565b91506134fd82614280565b602082019050919050565b6000613515602583613b99565b9150613520826142a9565b604082019050919050565b6000613538602683613b99565b9150613543826142f8565b604082019050919050565b600061355b602483613b99565b915061356682614347565b604082019050919050565b600061357e602583613b99565b915061358982614396565b604082019050919050565b60006135a1601f83613b99565b91506135ac826143e5565b602082019050919050565b6040820160008201516135cd6000850182613604565b5060208201516135e060208501826135e6565b50505050565b6135ef81613d12565b82525050565b6135fe81613d3a565b82525050565b61360d81613d44565b82525050565b61361c81613d44565b82525050565b61362b81613d54565b82525050565b600061363c82613387565b9150613648828561321f565b602082019150613658828461321f565b6020820191508190509392505050565b600060208201905061367d60008301846131f2565b92915050565b60006020820190506136986000830184613201565b92915050565b60006020820190506136b36000830184613210565b92915050565b600060c0820190506136ce6000830189613210565b6136db60208301886131f2565b6136e860408301876131f2565b6136f560608301866135f5565b61370260808301856135f5565b61370f60a08301846135f5565b979650505050505050565b600060808201905061372f6000830187613210565b61373c60208301866131f2565b61374960408301856135f5565b61375660608301846135f5565b95945050505050565b600060a0820190506137746000830188613210565b6137816020830187613210565b61378e6040830186613210565b61379b60608301856135f5565b6137a860808301846131f2565b9695505050505050565b60006080820190506137c76000830187613210565b6137d46020830186613622565b6137e16040830185613210565b6137ee6060830184613210565b95945050505050565b600060208201905081810360008301526138118184613236565b905092915050565b600060208201905081810360008301526138328161326f565b9050919050565b6000602082019050818103600083015261385281613292565b9050919050565b60006020820190508181036000830152613872816132b5565b9050919050565b60006020820190508181036000830152613892816132d8565b9050919050565b600060208201905081810360008301526138b2816132fb565b9050919050565b600060208201905081810360008301526138d28161331e565b9050919050565b600060208201905081810360008301526138f281613341565b9050919050565b6000602082019050818103600083015261391281613364565b9050919050565b60006020820190508181036000830152613932816133aa565b9050919050565b60006020820190508181036000830152613952816133cd565b9050919050565b60006020820190508181036000830152613972816133f0565b9050919050565b6000602082019050818103600083015261399281613413565b9050919050565b600060208201905081810360008301526139b281613436565b9050919050565b600060208201905081810360008301526139d281613459565b9050919050565b600060208201905081810360008301526139f28161347c565b9050919050565b60006020820190508181036000830152613a128161349f565b9050919050565b60006020820190508181036000830152613a32816134c2565b9050919050565b60006020820190508181036000830152613a52816134e5565b9050919050565b60006020820190508181036000830152613a7281613508565b9050919050565b60006020820190508181036000830152613a928161352b565b9050919050565b60006020820190508181036000830152613ab28161354e565b9050919050565b60006020820190508181036000830152613ad281613571565b9050919050565b60006020820190508181036000830152613af281613594565b9050919050565b6000604082019050613b0e60008301846135b7565b92915050565b6000602082019050613b2960008301846135f5565b92915050565b6000604082019050613b4460008301856135f5565b613b5160208301846135f5565b9392505050565b6000602082019050613b6d6000830184613613565b92915050565b6000602082019050613b886000830184613622565b92915050565b600081519050919050565b600082825260208201905092915050565b600081905092915050565b6000613bc082613d3a565b9150613bcb83613d3a565b9250827fffffffffffffffffffffffffffffffffffffffffffffffffffffffffffffffff03821115613c0057613bff613dd0565b5b828201905092915050565b6000613c1682613d3a565b9150613c2183613d3a565b925082613c3157613c30613dff565b5b828204905092915050565b6000613c4782613d3a565b9150613c5283613d3a565b9250817fffffffffffffffffffffffffffffffffffffffffffffffffffffffffffffffff0483118215151615613c8b57613c8a613dd0565b5b828202905092915050565b6000613ca182613d3a565b9150613cac83613d3a565b925082821015613cbf57613cbe613dd0565b5b828203905092915050565b6000613cd582613cf2565b9050919050565b60008115159050919050565b6000819050919050565b600073ffffffffffffffffffffffffffffffffffffffff82169050919050565b60007bffffffffffffffffffffffffffffffffffffffffffffffffffffffff82169050919050565b6000819050919050565b600063ffffffff82169050919050565b600060ff82169050919050565b60005b83811015613d7f578082015181840152602081019050613d64565b83811115613d8e576000848401525b50505050565b60006002820490506001821680613dac57607f821691505b60208210811415613dc057613dbf613e2e565b5b50919050565b6000819050919050565b7f4e487b7100000000000000000000000000000000000000000000000000000000600052601160045260246000fd5b7f4e487b7100000000000000000000000000000000000000000000000000000000600052601260045260246000fd5b7f4e487b7100000000000000000000000000000000000000000000000000000000600052602260045260246000fd5b6000601f19601f8301169050919050565b7f45434453413a20696e76616c6964207369676e61747572650000000000000000600082015250565b7f45524332303a207472616e7366657220746f20746865207a65726f206164647260008201527f6573730000000000000000000000000000000000000000000000000000000000602082015250565b7f4552433230566f7465733a20626c6f636b206e6f7420796574206d696e656400600082015250565b7f4552433230566f7465733a207369676e61747572652065787069726564000000600082015250565b7f45434453413a20696e76616c6964207369676e6174757265206c656e67746800600082015250565b7f4552433230566f7465733a20696e76616c6964206e6f6e636500000000000000600082015250565b7f4f776e61626c653a206e6577206f776e657220697320746865207a65726f206160008201527f6464726573730000000000000000000000000000000000000000000000000000602082015250565b7f45524332303a20617070726f766520746f20746865207a65726f20616464726560008201527f7373000000000000000000000000000000000000000000000000000000000000602082015250565b7f1901000000000000000000000000000000000000000000000000000000000000600082015250565b7f45524332303a20696e73756666696369656e7420616c6c6f77616e6365000000600082015250565b7f45524332305065726d69743a206578706972656420646561646c696e65000000600082015250565b7f45524332303a207472616e7366657220616d6f756e742065786365656473206260008201527f616c616e63650000000000000000000000000000000000000000000000000000602082015250565b7f45434453413a20696e76616c6964207369676e6174757265202773272076616c60008201527f7565000000000000000000000000000000000000000000000000000000000000602082015250565b7f45434453413a20696e76616c6964207369676e6174757265202776272076616c60008201527f7565000000000000000000000000000000000000000000000000000000000000602082015250565b7f45524332305065726d69743a20696e76616c6964207369676e61747572650000600082015250565b7f4552433230566f7465733a20746f74616c20737570706c79207269736b73206f60008201527f766572666c6f77696e6720766f74657300000000000000000000000000000000602082015250565b7f4f776e61626c653a2063616c6c6572206973206e6f7420746865206f776e6572600082015250565b7f53616665436173743a2076616c756520646f65736e27742066697420696e203260008201527f3234206269747300000000000000000000000000000000000000000000000000602082015250565b7f5472616e73666572204661696c65642100000000000000000000000000000000600082015250565b7f45524332303a207472616e736665722066726f6d20746865207a65726f20616460008201527f6472657373000000000000000000000000000000000000000000000000000000602082015250565b7f53616665436173743a2076616c756520646f65736e27742066697420696e203360008201527f3220626974730000000000000000000000000000000000000000000000000000602082015250565b7f45524332303a20617070726f76652066726f6d20746865207a65726f2061646460008201527f7265737300000000000000000000000000000000000000000000000000000000602082015250565b7f45524332303a2064656372656173656420616c6c6f77616e63652062656c6f7760008201527f207a65726f000000000000000000000000000000000000000000000000000000602082015250565b7f45524332303a206d696e7420746f20746865207a65726f206164647265737300600082015250565b61441781613cca565b811461442257600080fd5b50565b61442e81613ce8565b811461443957600080fd5b50565b61444581613d3a565b811461445057600080fd5b50565b61445c81613d44565b811461446757600080fd5b50565b61447381613d54565b811461447e57600080fd5b5056fea2646970667358221220668271813a9593f2c71b67ef1016d36caf796279a82f20e229c89b67fdb3787264736f6c63430008040033",
  "linkReferences": {},
  "deployedLinkReferences": {}
}