{
  "_format": "hh-sol-artifact-1",
  "contractName": "GAkita",
  "sourceName": "contracts/GAkita.sol",
  "abi": [
    {
      "inputs": [],
      "stateMutability": "nonpayable",
      "type": "constructor"
    },
    {
      "anonymous": false,
      "inputs": [
        {
          "indexed": true,
          "internalType": "address",
          "name": "owner",
          "type": "address"
        },
        {
          "indexed": true,
          "internalType": "address",
          "name": "spender",
          "type": "address"
        },
        {
          "indexed": false,
          "internalType": "uint256",
          "name": "value",
          "type": "uint256"
        }
      ],
      "name": "Approval",
      "type": "event"
    },
    {
      "anonymous": false,
      "inputs": [
        {
          "indexed": true,
          "internalType": "address",
          "name": "delegator",
          "type": "address"
        },
        {
          "indexed": true,
          "internalType": "address",
          "name": "fromDelegate",
          "type": "address"
        },
        {
          "indexed": true,
          "internalType": "address",
          "name": "toDelegate",
          "type": "address"
        }
      ],
      "name": "DelegateChanged",
      "type": "event"
    },
    {
      "anonymous": false,
      "inputs": [
        {
          "indexed": true,
          "internalType": "address",
          "name": "delegate",
          "type": "address"
        },
        {
          "indexed": false,
          "internalType": "uint256",
          "name": "previousBalance",
          "type": "uint256"
        },
        {
          "indexed": false,
          "internalType": "uint256",
          "name": "newBalance",
          "type": "uint256"
        }
      ],
      "name": "DelegateVotesChanged",
      "type": "event"
    },
    {
      "anonymous": false,
      "inputs": [
        {
          "indexed": true,
          "internalType": "address",
          "name": "previousOwner",
          "type": "address"
        },
        {
          "indexed": true,
          "internalType": "address",
          "name": "newOwner",
          "type": "address"
        }
      ],
      "name": "OwnershipTransferred",
      "type": "event"
    },
    {
      "anonymous": false,
      "inputs": [
        {
          "indexed": true,
          "internalType": "address",
          "name": "from",
          "type": "address"
        },
        {
          "indexed": true,
          "internalType": "address",
          "name": "to",
          "type": "address"
        },
        {
          "indexed": false,
          "internalType": "uint256",
          "name": "value",
          "type": "uint256"
        }
      ],
      "name": "Transfer",
      "type": "event"
    },
    {
      "inputs": [],
      "name": "DOMAIN_SEPARATOR",
      "outputs": [
        {
          "internalType": "bytes32",
          "name": "",
          "type": "bytes32"
        }
      ],
      "stateMutability": "view",
      "type": "function"
    },
    {
      "inputs": [],
      "name": "MAX_SUPPLY",
      "outputs": [
        {
          "internalType": "uint256",
          "name": "",
          "type": "uint256"
        }
      ],
      "stateMutability": "view",
      "type": "function"
    },
    {
      "inputs": [
        {
          "internalType": "address",
          "name": "addr",
          "type": "address"
        }
      ],
      "name": "addAddressToWhitelist",
      "outputs": [
        {
          "internalType": "bool",
          "name": "success",
          "type": "bool"
        }
      ],
      "stateMutability": "nonpayable",
      "type": "function"
    },
    {
      "inputs": [],
      "name": "airdrop",
      "outputs": [
        {
          "internalType": "address",
          "name": "",
          "type": "address"
        }
      ],
      "stateMutability": "view",
      "type": "function"
    },
    {
      "inputs": [
        {
          "internalType": "address",
          "name": "owner",
          "type": "address"
        },
        {
          "internalType": "address",
          "name": "spender",
          "type": "address"
        }
      ],
      "name": "allowance",
      "outputs": [
        {
          "internalType": "uint256",
          "name": "",
          "type": "uint256"
        }
      ],
      "stateMutability": "view",
      "type": "function"
    },
    {
      "inputs": [
        {
          "internalType": "address",
          "name": "spender",
          "type": "address"
        },
        {
          "internalType": "uint256",
          "name": "amount",
          "type": "uint256"
        }
      ],
      "name": "approve",
      "outputs": [
        {
          "internalType": "bool",
          "name": "",
          "type": "bool"
        }
      ],
      "stateMutability": "nonpayable",
      "type": "function"
    },
    {
      "inputs": [
        {
          "internalType": "address",
          "name": "account",
          "type": "address"
        }
      ],
      "name": "balanceOf",
      "outputs": [
        {
          "internalType": "uint256",
          "name": "",
          "type": "uint256"
        }
      ],
      "stateMutability": "view",
      "type": "function"
    },
    {
      "inputs": [
        {
          "internalType": "address",
          "name": "_from",
          "type": "address"
        },
        {
          "internalType": "uint256",
          "name": "_value",
          "type": "uint256"
        }
      ],
      "name": "calculateTransferTaxes",
      "outputs": [
        {
          "internalType": "uint256",
          "name": "adjustedValue",
          "type": "uint256"
        },
        {
          "internalType": "uint256",
          "name": "taxAmount",
          "type": "uint256"
        }
      ],
      "stateMutability": "view",
      "type": "function"
    },
    {
      "inputs": [
        {
          "internalType": "address",
          "name": "account",
          "type": "address"
        },
        {
          "internalType": "uint32",
          "name": "pos",
          "type": "uint32"
        }
      ],
      "name": "checkpoints",
      "outputs": [
        {
          "components": [
            {
              "internalType": "uint32",
              "name": "fromBlock",
              "type": "uint32"
            },
            {
              "internalType": "uint224",
              "name": "votes",
              "type": "uint224"
            }
          ],
          "internalType": "struct ERC20Votes.Checkpoint",
          "name": "",
          "type": "tuple"
        }
      ],
      "stateMutability": "view",
      "type": "function"
    },
    {
      "inputs": [],
      "name": "decimals",
      "outputs": [
        {
          "internalType": "uint8",
          "name": "",
          "type": "uint8"
        }
      ],
      "stateMutability": "view",
      "type": "function"
    },
    {
      "inputs": [
        {
          "internalType": "address",
          "name": "spender",
          "type": "address"
        },
        {
          "internalType": "uint256",
          "name": "subtractedValue",
          "type": "uint256"
        }
      ],
      "name": "decreaseAllowance",
      "outputs": [
        {
          "internalType": "bool",
          "name": "",
          "type": "bool"
        }
      ],
      "stateMutability": "nonpayable",
      "type": "function"
    },
    {
      "inputs": [
        {
          "internalType": "address",
          "name": "delegatee",
          "type": "address"
        }
      ],
      "name": "delegate",
      "outputs": [],
      "stateMutability": "nonpayable",
      "type": "function"
    },
    {
      "inputs": [
        {
          "internalType": "address",
          "name": "delegatee",
          "type": "address"
        },
        {
          "internalType": "uint256",
          "name": "nonce",
          "type": "uint256"
        },
        {
          "internalType": "uint256",
          "name": "expiry",
          "type": "uint256"
        },
        {
          "internalType": "uint8",
          "name": "v",
          "type": "uint8"
        },
        {
          "internalType": "bytes32",
          "name": "r",
          "type": "bytes32"
        },
        {
          "internalType": "bytes32",
          "name": "s",
          "type": "bytes32"
        }
      ],
      "name": "delegateBySig",
      "outputs": [],
      "stateMutability": "nonpayable",
      "type": "function"
    },
    {
      "inputs": [
        {
          "internalType": "address",
          "name": "account",
          "type": "address"
        }
      ],
      "name": "delegates",
      "outputs": [
        {
          "internalType": "address",
          "name": "",
          "type": "address"
        }
      ],
      "stateMutability": "view",
      "type": "function"
    },
    {
      "inputs": [
        {
          "internalType": "uint256",
          "name": "blockNumber",
          "type": "uint256"
        }
      ],
      "name": "getPastTotalSupply",
      "outputs": [
        {
          "internalType": "uint256",
          "name": "",
          "type": "uint256"
        }
      ],
      "stateMutability": "view",
      "type": "function"
    },
    {
      "inputs": [
        {
          "internalType": "address",
          "name": "account",
          "type": "address"
        },
        {
          "internalType": "uint256",
          "name": "blockNumber",
          "type": "uint256"
        }
      ],
      "name": "getPastVotes",
      "outputs": [
        {
          "internalType": "uint256",
          "name": "",
          "type": "uint256"
        }
      ],
      "stateMutability": "view",
      "type": "function"
    },
    {
      "inputs": [
        {
          "internalType": "address",
          "name": "account",
          "type": "address"
        }
      ],
      "name": "getVotes",
      "outputs": [
        {
          "internalType": "uint256",
          "name": "",
          "type": "uint256"
        }
      ],
      "stateMutability": "view",
      "type": "function"
    },
    {
      "inputs": [
        {
          "internalType": "address",
          "name": "spender",
          "type": "address"
        },
        {
          "internalType": "uint256",
          "name": "addedValue",
          "type": "uint256"
        }
      ],
      "name": "increaseAllowance",
      "outputs": [
        {
          "internalType": "bool",
          "name": "",
          "type": "bool"
        }
      ],
      "stateMutability": "nonpayable",
      "type": "function"
    },
    {
      "inputs": [
        {
          "internalType": "address",
          "name": "_to",
          "type": "address"
        },
        {
          "internalType": "uint256",
          "name": "_amount",
          "type": "uint256"
        }
      ],
      "name": "mint",
      "outputs": [
        {
          "internalType": "bool",
          "name": "",
          "type": "bool"
        }
      ],
      "stateMutability": "nonpayable",
      "type": "function"
    },
    {
      "inputs": [],
      "name": "name",
      "outputs": [
        {
          "internalType": "string",
          "name": "",
          "type": "string"
        }
      ],
      "stateMutability": "view",
      "type": "function"
    },
    {
      "inputs": [
        {
          "internalType": "address",
          "name": "owner",
          "type": "address"
        }
      ],
      "name": "nonces",
      "outputs": [
        {
          "internalType": "uint256",
          "name": "",
          "type": "uint256"
        }
      ],
      "stateMutability": "view",
      "type": "function"
    },
    {
      "inputs": [
        {
          "internalType": "address",
          "name": "account",
          "type": "address"
        }
      ],
      "name": "numCheckpoints",
      "outputs": [
        {
          "internalType": "uint32",
          "name": "",
          "type": "uint32"
        }
      ],
      "stateMutability": "view",
      "type": "function"
    },
    {
      "inputs": [],
      "name": "owner",
      "outputs": [
        {
          "internalType": "address",
          "name": "",
          "type": "address"
        }
      ],
      "stateMutability": "view",
      "type": "function"
    },
    {
      "inputs": [
        {
          "internalType": "address",
          "name": "owner",
          "type": "address"
        },
        {
          "internalType": "address",
          "name": "spender",
          "type": "address"
        },
        {
          "internalType": "uint256",
          "name": "value",
          "type": "uint256"
        },
        {
          "internalType": "uint256",
          "name": "deadline",
          "type": "uint256"
        },
        {
          "internalType": "uint8",
          "name": "v",
          "type": "uint8"
        },
        {
          "internalType": "bytes32",
          "name": "r",
          "type": "bytes32"
        },
        {
          "internalType": "bytes32",
          "name": "s",
          "type": "bytes32"
        }
      ],
      "name": "permit",
      "outputs": [],
      "stateMutability": "nonpayable",
      "type": "function"
    },
    {
      "inputs": [],
      "name": "renounceOwnership",
      "outputs": [],
      "stateMutability": "nonpayable",
      "type": "function"
    },
    {
      "inputs": [
        {
          "internalType": "address",
          "name": "_newAirdrop",
          "type": "address"
        }
      ],
      "name": "setAirdropAddress",
      "outputs": [],
      "stateMutability": "nonpayable",
      "type": "function"
    },
    {
      "inputs": [],
      "name": "symbol",
      "outputs": [
        {
          "internalType": "string",
          "name": "",
          "type": "string"
        }
      ],
      "stateMutability": "view",
      "type": "function"
    },
    {
      "inputs": [],
      "name": "tax",
      "outputs": [
        {
          "internalType": "uint8",
          "name": "",
          "type": "uint8"
        }
      ],
      "stateMutability": "view",
      "type": "function"
    },
    {
      "inputs": [],
      "name": "totalSupply",
      "outputs": [
        {
          "internalType": "uint256",
          "name": "",
          "type": "uint256"
        }
      ],
      "stateMutability": "view",
      "type": "function"
    },
    {
      "inputs": [
        {
          "internalType": "address",
          "name": "_to",
          "type": "address"
        },
        {
          "internalType": "uint256",
          "name": "_value",
          "type": "uint256"
        }
      ],
      "name": "transfer",
      "outputs": [
        {
          "internalType": "bool",
          "name": "",
          "type": "bool"
        }
      ],
      "stateMutability": "nonpayable",
      "type": "function"
    },
    {
      "inputs": [
        {
          "internalType": "address",
          "name": "from",
          "type": "address"
        },
        {
          "internalType": "address",
          "name": "to",
          "type": "address"
        },
        {
          "internalType": "uint256",
          "name": "amount",
          "type": "uint256"
        }
      ],
      "name": "transferFrom",
      "outputs": [
        {
          "internalType": "bool",
          "name": "",
          "type": "bool"
        }
      ],
      "stateMutability": "nonpayable",
      "type": "function"
    },
    {
      "inputs": [
        {
          "internalType": "address",
          "name": "newOwner",
          "type": "address"
        }
      ],
      "name": "transferOwnership",
      "outputs": [],
      "stateMutability": "nonpayable",
      "type": "function"
    },
    {
      "inputs": [
        {
          "internalType": "address",
          "name": "",
          "type": "address"
        }
      ],
      "name": "whitelist",
      "outputs": [
        {
          "internalType": "bool",
          "name": "",
          "type": "bool"
        }
      ],
      "stateMutability": "view",
      "type": "function"
    }
  ],
  "bytecode": "0x61014060405269d3c21bcecceda1000000600b553480156200002057600080fd5b506040518060400160405280600681526020016567416b69746160d01b81525080604051806040016040528060018152602001603160f81b8152506040518060400160405280600681526020016567416b69746160d01b8152506040518060400160405280600381526020016247544360e81b8152508160039080519060200190620000ae929190620001d3565b508051620000c4906004906020840190620001d3565b505050620000e1620000db6200017d60201b60201c565b62000181565b815160208084019190912082518383012060e08290526101008190524660a0818152604080517f8b73c3c69bb8fe3d512ecc4cf759cc79239f7b179b0ffacaa9a75d522b39400f81880181905281830187905260608201869052608082019490945230818401528151808203909301835260c00190528051940193909320919290916080523060601b60c0526101205250620002b69350505050565b3390565b600580546001600160a01b038381166001600160a01b0319831681179093556040519116919082907f8be0079c531659141344cd1fd0a4f28419497f9722a3daafe3b4186f6b6457e090600090a35050565b828054620001e19062000279565b90600052602060002090601f01602090048101928262000205576000855562000250565b82601f106200022057805160ff191683800117855562000250565b8280016001018555821562000250579182015b828111156200025057825182559160200191906001019062000233565b506200025e92915062000262565b5090565b5b808211156200025e576000815560010162000263565b600181811c908216806200028e57607f821691505b60208210811415620002b057634e487b7160e01b600052602260045260246000fd5b50919050565b60805160a05160c05160601c60e05161010051610120516123ca620003096000396000611453015260006114a20152600061147d015260006113d6015260006114000152600061142a01526123ca6000f3fe608060405234801561001057600080fd5b506004361061020b5760003560e01c806379a5b2271161012a5780639b19251a116100bd578063c3cda5201161008c578063dd62ed3e11610071578063dd62ed3e146104bd578063f1127ed8146104f6578063f2fde38b1461053357600080fd5b8063c3cda52014610497578063d505accf146104aa57600080fd5b80639b19251a1461043b578063a457c2d71461045e578063a9059cbb14610471578063ab0eda9e1461048457600080fd5b80638e539e8c116100f95780638e539e8c146103f957806395d89b411461040c57806399c8d556146104145780639ab24eb01461042857600080fd5b806379a5b2271461039a5780637b9417c8146103c25780637ecebe00146103d55780638da5cb5b146103e857600080fd5b806339509351116101a25780635c19a95c116101715780635c19a95c1461032c5780636fcfff451461034157806370a0823114610369578063715018a61461039257600080fd5b806339509351146102c75780633a46b1a8146102da57806340c10f19146102ed578063587cde1e1461030057600080fd5b8063313ce567116101de578063313ce5671461027657806332cb6b0c1461028b5780633644e515146102945780633884d6351461029c57600080fd5b806306fdde0314610210578063095ea7b31461022e57806318160ddd1461025157806323b872dd14610263575b600080fd5b610218610546565b6040516102259190612288565b60405180910390f35b61024161023c3660046121b2565b6105d8565b6040519015158152602001610225565b6002545b604051908152602001610225565b61024161027136600461210e565b6105f2565b60125b60405160ff9091168152602001610225565b610255600b5481565b610255610616565b600d546102af906001600160a01b031681565b6040516001600160a01b039091168152602001610225565b6102416102d53660046121b2565b610625565b6102556102e83660046121b2565b610664565b6102416102fb3660046121b2565b6106e3565b6102af61030e3660046120c2565b6001600160a01b039081166000908152600860205260409020541690565b61033f61033a3660046120c2565b61074a565b005b61035461034f3660046120c2565b610757565b60405163ffffffff9091168152602001610225565b6102556103773660046120c2565b6001600160a01b031660009081526020819052604090205490565b61033f610779565b6103ad6103a83660046121b2565b6107df565b60408051928352602083019190915201610225565b6102416103d03660046120c2565b610827565b6102556103e33660046120c2565b6108d1565b6005546001600160a01b03166102af565b610255610407366004612270565b6108ef565b61021861094b565b600d5461027990600160a01b900460ff1681565b6102556104363660046120c2565b61095a565b6102416104493660046120c2565b600e6020526000908152604090205460ff1681565b61024161046c3660046121b2565b6109ef565b61024161047f3660046121b2565b610a99565b61033f6104923660046120c2565b610b28565b61033f6104a53660046121db565b610bb7565b61033f6104b8366004612149565b610ced565b6102556104cb3660046120dc565b6001600160a01b03918216600090815260016020908152604080832093909416825291909152205490565b610509610504366004612232565b610e51565b60408051825163ffffffff1681526020928301516001600160e01b03169281019290925201610225565b61033f6105413660046120c2565b610ee3565b60606003805461055590612349565b80601f016020809104026020016040519081016040528092919081815260200182805461058190612349565b80156105ce5780601f106105a3576101008083540402835291602001916105ce565b820191906000526020600020905b8154815290600101906020018083116105b157829003601f168201915b5050505050905090565b6000336105e6818585610fc2565b60019150505b92915050565b60003361060085828561111a565b61060b8585856111ac565b506001949350505050565b60006106206113c9565b905090565b3360008181526001602090815260408083206001600160a01b03871684529091528120549091906105e6908290869061065f9087906122db565b610fc2565b60004382106106ba5760405162461bcd60e51b815260206004820152601f60248201527f4552433230566f7465733a20626c6f636b206e6f7420796574206d696e65640060448201526064015b60405180910390fd5b6001600160a01b03831660009081526009602052604090206106dc90836114f0565b9392505050565b600d546000906001600160a01b03163314610700575060006105ec565b81158061071a5750600b54600c5461071890846115c9565b115b15610727575060006105ec565b61073183836115d5565b600c5461073e90836115c9565b600c5550600192915050565b61075433826115df565b50565b6001600160a01b0381166000908152600960205260408120546105ec90611665565b6005546001600160a01b031633146107d35760405162461bcd60e51b815260206004820181905260248201527f4f776e61626c653a2063616c6c6572206973206e6f7420746865206f776e657260448201526064016106b1565b6107dd60006116e5565b565b6001600160a01b0382166000908152600e602052604081205482919060ff1661082057600d54600160a01b900460ff166108198482611744565b9093509150505b9250929050565b6005546000906001600160a01b031633146108845760405162461bcd60e51b815260206004820181905260248201527f4f776e61626c653a2063616c6c6572206973206e6f7420746865206f776e657260448201526064016106b1565b6001600160a01b0382166000908152600e602052604090205460ff166108cc57506001600160a01b0381166000908152600e60205260409020805460ff191660019081179091555b919050565b6001600160a01b0381166000908152600660205260408120546105ec565b60004382106109405760405162461bcd60e51b815260206004820152601f60248201527f4552433230566f7465733a20626c6f636b206e6f7420796574206d696e65640060448201526064016106b1565b6105ec600a836114f0565b60606004805461055590612349565b6001600160a01b03811660009081526009602052604081205480156109dc576001600160a01b038316600090815260096020526040902061099c600183612332565b815481106109ba57634e487b7160e01b600052603260045260246000fd5b60009182526020909120015464010000000090046001600160e01b03166109df565b60005b6001600160e01b03169392505050565b3360008181526001602090815260408083206001600160a01b038716845290915281205490919083811015610a8c5760405162461bcd60e51b815260206004820152602560248201527f45524332303a2064656372656173656420616c6c6f77616e63652062656c6f7760448201527f207a65726f00000000000000000000000000000000000000000000000000000060648201526084016106b1565b61060b8286868403610fc2565b6000806000610aa833856107df565b90925090508015610ad257600d54610ac9906001600160a01b031682611787565b610ad257600080fd5b610adc8583611787565b61060b5760405162461bcd60e51b815260206004820152601060248201527f5472616e73666572204661696c6564210000000000000000000000000000000060448201526064016106b1565b6005546001600160a01b03163314610b825760405162461bcd60e51b815260206004820181905260248201527f4f776e61626c653a2063616c6c6572206973206e6f7420746865206f776e657260448201526064016106b1565b600d805473ffffffffffffffffffffffffffffffffffffffff19166001600160a01b038316179055610bb381610827565b5050565b83421115610c075760405162461bcd60e51b815260206004820152601d60248201527f4552433230566f7465733a207369676e6174757265206578706972656400000060448201526064016106b1565b604080517fe48329057bfd03d55e49b547132e39cffd9c1820ad7b9d4c5307691425d15adf60208201526001600160a01b038816918101919091526060810186905260808101859052600090610c8190610c799060a00160405160208183030381529060405280519060200120611795565b8585856117fe565b9050610c8c81611826565b8614610cda5760405162461bcd60e51b815260206004820152601960248201527f4552433230566f7465733a20696e76616c6964206e6f6e63650000000000000060448201526064016106b1565b610ce481886115df565b50505050505050565b83421115610d3d5760405162461bcd60e51b815260206004820152601d60248201527f45524332305065726d69743a206578706972656420646561646c696e6500000060448201526064016106b1565b60007f6e71edae12b1b97f4d1f60370fef10105fa2faae0126114a169c64845d6126c9888888610d6c8c611826565b6040805160208101969096526001600160a01b0394851690860152929091166060840152608083015260a082015260c0810186905260e0016040516020818303038152906040528051906020012090506000610dc782611795565b90506000610dd7828787876117fe565b9050896001600160a01b0316816001600160a01b031614610e3a5760405162461bcd60e51b815260206004820152601e60248201527f45524332305065726d69743a20696e76616c6964207369676e6174757265000060448201526064016106b1565b610e458a8a8a610fc2565b50505050505050505050565b60408051808201909152600080825260208201526001600160a01b0383166000908152600960205260409020805463ffffffff8416908110610ea357634e487b7160e01b600052603260045260246000fd5b60009182526020918290206040805180820190915291015463ffffffff8116825264010000000090046001600160e01b0316918101919091529392505050565b6005546001600160a01b03163314610f3d5760405162461bcd60e51b815260206004820181905260248201527f4f776e61626c653a2063616c6c6572206973206e6f7420746865206f776e657260448201526064016106b1565b6001600160a01b038116610fb95760405162461bcd60e51b815260206004820152602660248201527f4f776e61626c653a206e6577206f776e657220697320746865207a65726f206160448201527f646472657373000000000000000000000000000000000000000000000000000060648201526084016106b1565b610754816116e5565b6001600160a01b03831661103d5760405162461bcd60e51b8152602060048201526024808201527f45524332303a20617070726f76652066726f6d20746865207a65726f2061646460448201527f726573730000000000000000000000000000000000000000000000000000000060648201526084016106b1565b6001600160a01b0382166110b95760405162461bcd60e51b815260206004820152602260248201527f45524332303a20617070726f766520746f20746865207a65726f20616464726560448201527f737300000000000000000000000000000000000000000000000000000000000060648201526084016106b1565b6001600160a01b0383811660008181526001602090815260408083209487168084529482529182902085905590518481527f8c5be1e5ebec7d5bd14f71427d1e84f3dd0314c0f7b2291e5b200ac8c7c3b925910160405180910390a3505050565b6001600160a01b0383811660009081526001602090815260408083209386168352929052205460001981146111a657818110156111995760405162461bcd60e51b815260206004820152601d60248201527f45524332303a20696e73756666696369656e7420616c6c6f77616e636500000060448201526064016106b1565b6111a68484848403610fc2565b50505050565b6001600160a01b0383166112285760405162461bcd60e51b815260206004820152602560248201527f45524332303a207472616e736665722066726f6d20746865207a65726f20616460448201527f647265737300000000000000000000000000000000000000000000000000000060648201526084016106b1565b6001600160a01b0382166112a45760405162461bcd60e51b815260206004820152602360248201527f45524332303a207472616e7366657220746f20746865207a65726f206164647260448201527f657373000000000000000000000000000000000000000000000000000000000060648201526084016106b1565b6001600160a01b038316600090815260208190526040902054818110156113335760405162461bcd60e51b815260206004820152602660248201527f45524332303a207472616e7366657220616d6f756e742065786365656473206260448201527f616c616e6365000000000000000000000000000000000000000000000000000060648201526084016106b1565b6001600160a01b0380851660009081526020819052604080822085850390559185168152908120805484929061136a9084906122db565b92505081905550826001600160a01b0316846001600160a01b03167fddf252ad1be2c89b69c2b068fc378daa952ba7f163c4a11628f55a4df523b3ef846040516113b691815260200190565b60405180910390a36111a6848484611853565b6000306001600160a01b037f00000000000000000000000000000000000000000000000000000000000000001614801561142257507f000000000000000000000000000000000000000000000000000000000000000046145b1561144c57507f000000000000000000000000000000000000000000000000000000000000000090565b50604080517f00000000000000000000000000000000000000000000000000000000000000006020808301919091527f0000000000000000000000000000000000000000000000000000000000000000828401527f000000000000000000000000000000000000000000000000000000000000000060608301524660808301523060a0808401919091528351808403909101815260c0909201909252805191012090565b8154600090815b8181101561156257600061150b828461185e565b90508486828154811061152e57634e487b7160e01b600052603260045260246000fd5b60009182526020909120015463ffffffff16111561154e5780925061155c565b6115598160016122db565b91505b506114f7565b81156115b45784611574600184612332565b8154811061159257634e487b7160e01b600052603260045260246000fd5b60009182526020909120015464010000000090046001600160e01b03166115b7565b60005b6001600160e01b031695945050505050565b60006106dc82846122db565b610bb38282611879565b6001600160a01b0382811660008181526008602081815260408084208054858452828620549490935287871673ffffffffffffffffffffffffffffffffffffffff198416811790915590519190951694919391928592917f3134e8a2e6d97e929a7e54011ea5485d7d196dd5f0ba4d4ef95803e8e3fc257f9190a46111a6828483611910565b600063ffffffff8211156116e15760405162461bcd60e51b815260206004820152602660248201527f53616665436173743a2076616c756520646f65736e27742066697420696e203360448201527f322062697473000000000000000000000000000000000000000000000000000060648201526084016106b1565b5090565b600580546001600160a01b0383811673ffffffffffffffffffffffffffffffffffffffff19831681179093556040519116919082907f8be0079c531659141344cd1fd0a4f28419497f9722a3daafe3b4186f6b6457e090600090a35050565b60008061175f60646117598660ff8716611a4d565b90611a59565b905061177e606461175961177760648760ff16611a65565b8790611a4d565b91509250929050565b6000336105e68185856111ac565b60006105ec6117a26113c9565b836040517f19010000000000000000000000000000000000000000000000000000000000006020820152602281018390526042810182905260009060620160405160208183030381529060405280519060200120905092915050565b600080600061180f87878787611a71565b9150915061181c81611b5e565b5095945050505050565b6001600160a01b03811660009081526006602052604090208054600181018255905b50919050565b505050565b61184e838383611d5f565b600061186d60028484186122f3565b6106dc908484166122db565b6118838282611d91565b6002546001600160e01b0310156119025760405162461bcd60e51b815260206004820152603060248201527f4552433230566f7465733a20746f74616c20737570706c79207269736b73206f60448201527f766572666c6f77696e6720766f7465730000000000000000000000000000000060648201526084016106b1565b6111a6600a6115c983611e78565b816001600160a01b0316836001600160a01b0316141580156119325750600081115b1561184e576001600160a01b038316156119c0576001600160a01b0383166000908152600960205260408120819061196d90611a6585611e78565b91509150846001600160a01b03167fdec2bacdd2f05b59de34da9b523dff8be42e5e38e818c82fdb0bae774387a72483836040516119b5929190918252602082015260400190565b60405180910390a250505b6001600160a01b0382161561184e576001600160a01b038216600090815260096020526040812081906119f6906115c985611e78565b91509150836001600160a01b03167fdec2bacdd2f05b59de34da9b523dff8be42e5e38e818c82fdb0bae774387a7248383604051611a3e929190918252602082015260400190565b60405180910390a25050505050565b60006106dc8284612313565b60006106dc82846122f3565b60006106dc8284612332565b6000807f7fffffffffffffffffffffffffffffff5d576e7357a4501ddfe92f46681b20a0831115611aa85750600090506003611b55565b8460ff16601b14158015611ac057508460ff16601c14155b15611ad15750600090506004611b55565b6040805160008082526020820180845289905260ff881692820192909252606081018690526080810185905260019060a0016020604051602081039080840390855afa158015611b25573d6000803e3d6000fd5b5050604051601f1901519150506001600160a01b038116611b4e57600060019250925050611b55565b9150600090505b94509492505050565b6000816004811115611b8057634e487b7160e01b600052602160045260246000fd5b1415611b895750565b6001816004811115611bab57634e487b7160e01b600052602160045260246000fd5b1415611bf95760405162461bcd60e51b815260206004820152601860248201527f45434453413a20696e76616c6964207369676e6174757265000000000000000060448201526064016106b1565b6002816004811115611c1b57634e487b7160e01b600052602160045260246000fd5b1415611c695760405162461bcd60e51b815260206004820152601f60248201527f45434453413a20696e76616c6964207369676e6174757265206c656e6774680060448201526064016106b1565b6003816004811115611c8b57634e487b7160e01b600052602160045260246000fd5b1415611ce45760405162461bcd60e51b815260206004820152602260248201527f45434453413a20696e76616c6964207369676e6174757265202773272076616c604482015261756560f01b60648201526084016106b1565b6004816004811115611d0657634e487b7160e01b600052602160045260246000fd5b14156107545760405162461bcd60e51b815260206004820152602260248201527f45434453413a20696e76616c6964207369676e6174757265202776272076616c604482015261756560f01b60648201526084016106b1565b6001600160a01b0383811660009081526008602052604080822054858416835291205461184e92918216911683611910565b6001600160a01b038216611de75760405162461bcd60e51b815260206004820152601f60248201527f45524332303a206d696e7420746f20746865207a65726f20616464726573730060448201526064016106b1565b8060026000828254611df991906122db565b90915550506001600160a01b03821660009081526020819052604081208054839290611e269084906122db565b90915550506040518181526001600160a01b038316906000907fddf252ad1be2c89b69c2b068fc378daa952ba7f163c4a11628f55a4df523b3ef9060200160405180910390a3610bb360008383611853565b825460009081908015611ed15785611e91600183612332565b81548110611eaf57634e487b7160e01b600052603260045260246000fd5b60009182526020909120015464010000000090046001600160e01b0316611ed4565b60005b6001600160e01b03169250611eed83858763ffffffff16565b9150600081118015611f3957504386611f07600184612332565b81548110611f2557634e487b7160e01b600052603260045260246000fd5b60009182526020909120015463ffffffff16145b15611fa757611f478261201b565b86611f53600184612332565b81548110611f7157634e487b7160e01b600052603260045260246000fd5b9060005260206000200160000160046101000a8154816001600160e01b0302191690836001600160e01b03160217905550612012565b856040518060400160405280611fbc43611665565b63ffffffff168152602001611fd08561201b565b6001600160e01b0390811690915282546001810184556000938452602093849020835194909301519091166401000000000263ffffffff909316929092179101555b50935093915050565b60006001600160e01b038211156116e15760405162461bcd60e51b815260206004820152602760248201527f53616665436173743a2076616c756520646f65736e27742066697420696e203260448201527f323420626974730000000000000000000000000000000000000000000000000060648201526084016106b1565b80356001600160a01b03811681146108cc57600080fd5b803560ff811681146108cc57600080fd5b6000602082840312156120d3578081fd5b6106dc8261209a565b600080604083850312156120ee578081fd5b6120f78361209a565b91506121056020840161209a565b90509250929050565b600080600060608486031215612122578081fd5b61212b8461209a565b92506121396020850161209a565b9150604084013590509250925092565b600080600080600080600060e0888a031215612163578283fd5b61216c8861209a565b965061217a6020890161209a565b95506040880135945060608801359350612196608089016120b1565b925060a0880135915060c0880135905092959891949750929550565b600080604083850312156121c4578182fd5b6121cd8361209a565b946020939093013593505050565b60008060008060008060c087890312156121f3578182fd5b6121fc8761209a565b95506020870135945060408701359350612218606088016120b1565b92506080870135915060a087013590509295509295509295565b60008060408385031215612244578182fd5b61224d8361209a565b9150602083013563ffffffff81168114612265578182fd5b809150509250929050565b600060208284031215612281578081fd5b5035919050565b6000602080835283518082850152825b818110156122b457858101830151858201604001528201612298565b818111156122c55783604083870101525b50601f01601f1916929092016040019392505050565b600082198211156122ee576122ee61237e565b500190565b60008261230e57634e487b7160e01b81526012600452602481fd5b500490565b600081600019048311821515161561232d5761232d61237e565b500290565b6000828210156123445761234461237e565b500390565b600181811c9082168061235d57607f821691505b6020821081141561184857634e487b7160e01b600052602260045260246000fd5b634e487b7160e01b600052601160045260246000fdfea26469706673582212203cfc336081ef18ab02bfac6911f3d9e8dae8640013cc2c998aecebf26fd28fce64736f6c63430008040033",
  "linkReferences": {},
  "deployedLinkReferences": {}
}