{
  "_format": "hh-sol-artifact-1",
  "contractName": "AkitaGovernor",
  "sourceName": "contracts/AkitaGovernor.sol",
  "abi": [
    {
      "inputs": [
        {
          "internalType": "contract IVotes",
          "name": "_token",
          "type": "address"
        }
      ],
      "stateMutability": "nonpayable",
      "type": "constructor"
    },
    {
      "inputs": [],
      "name": "Empty",
      "type": "error"
    },
    {
      "anonymous": false,
      "inputs": [
        {
          "indexed": false,
          "internalType": "uint256",
          "name": "proposalId",
          "type": "uint256"
        }
      ],
      "name": "ProposalCanceled",
      "type": "event"
    },
    {
      "anonymous": false,
      "inputs": [
        {
          "indexed": false,
          "internalType": "uint256",
          "name": "proposalId",
          "type": "uint256"
        },
        {
          "indexed": false,
          "internalType": "address",
          "name": "proposer",
          "type": "address"
        },
        {
          "indexed": false,
          "internalType": "address[]",
          "name": "targets",
          "type": "address[]"
        },
        {
          "indexed": false,
          "internalType": "uint256[]",
          "name": "values",
          "type": "uint256[]"
        },
        {
          "indexed": false,
          "internalType": "string[]",
          "name": "signatures",
          "type": "string[]"
        },
        {
          "indexed": false,
          "internalType": "bytes[]",
          "name": "calldatas",
          "type": "bytes[]"
        },
        {
          "indexed": false,
          "internalType": "uint256",
          "name": "startBlock",
          "type": "uint256"
        },
        {
          "indexed": false,
          "internalType": "uint256",
          "name": "endBlock",
          "type": "uint256"
        },
        {
          "indexed": false,
          "internalType": "string",
          "name": "description",
          "type": "string"
        }
      ],
      "name": "ProposalCreated",
      "type": "event"
    },
    {
      "anonymous": false,
      "inputs": [
        {
          "indexed": false,
          "internalType": "uint256",
          "name": "proposalId",
          "type": "uint256"
        }
      ],
      "name": "ProposalExecuted",
      "type": "event"
    },
    {
      "anonymous": false,
      "inputs": [
        {
          "indexed": false,
          "internalType": "uint256",
          "name": "oldProposalThreshold",
          "type": "uint256"
        },
        {
          "indexed": false,
          "internalType": "uint256",
          "name": "newProposalThreshold",
          "type": "uint256"
        }
      ],
      "name": "ProposalThresholdSet",
      "type": "event"
    },
    {
      "anonymous": false,
      "inputs": [
        {
          "indexed": false,
          "internalType": "uint256",
          "name": "oldQuorumNumerator",
          "type": "uint256"
        },
        {
          "indexed": false,
          "internalType": "uint256",
          "name": "newQuorumNumerator",
          "type": "uint256"
        }
      ],
      "name": "QuorumNumeratorUpdated",
      "type": "event"
    },
    {
      "anonymous": false,
      "inputs": [
        {
          "indexed": true,
          "internalType": "address",
          "name": "voter",
          "type": "address"
        },
        {
          "indexed": false,
          "internalType": "uint256",
          "name": "proposalId",
          "type": "uint256"
        },
        {
          "indexed": false,
          "internalType": "uint8",
          "name": "support",
          "type": "uint8"
        },
        {
          "indexed": false,
          "internalType": "uint256",
          "name": "weight",
          "type": "uint256"
        },
        {
          "indexed": false,
          "internalType": "string",
          "name": "reason",
          "type": "string"
        }
      ],
      "name": "VoteCast",
      "type": "event"
    },
    {
      "anonymous": false,
      "inputs": [
        {
          "indexed": true,
          "internalType": "address",
          "name": "voter",
          "type": "address"
        },
        {
          "indexed": false,
          "internalType": "uint256",
          "name": "proposalId",
          "type": "uint256"
        },
        {
          "indexed": false,
          "internalType": "uint8",
          "name": "support",
          "type": "uint8"
        },
        {
          "indexed": false,
          "internalType": "uint256",
          "name": "weight",
          "type": "uint256"
        },
        {
          "indexed": false,
          "internalType": "string",
          "name": "reason",
          "type": "string"
        },
        {
          "indexed": false,
          "internalType": "bytes",
          "name": "params",
          "type": "bytes"
        }
      ],
      "name": "VoteCastWithParams",
      "type": "event"
    },
    {
      "anonymous": false,
      "inputs": [
        {
          "indexed": false,
          "internalType": "uint256",
          "name": "oldVotingDelay",
          "type": "uint256"
        },
        {
          "indexed": false,
          "internalType": "uint256",
          "name": "newVotingDelay",
          "type": "uint256"
        }
      ],
      "name": "VotingDelaySet",
      "type": "event"
    },
    {
      "anonymous": false,
      "inputs": [
        {
          "indexed": false,
          "internalType": "uint256",
          "name": "oldVotingPeriod",
          "type": "uint256"
        },
        {
          "indexed": false,
          "internalType": "uint256",
          "name": "newVotingPeriod",
          "type": "uint256"
        }
      ],
      "name": "VotingPeriodSet",
      "type": "event"
    },
    {
      "inputs": [],
      "name": "BALLOT_TYPEHASH",
      "outputs": [
        {
          "internalType": "bytes32",
          "name": "",
          "type": "bytes32"
        }
      ],
      "stateMutability": "view",
      "type": "function"
    },
    {
      "inputs": [],
      "name": "COUNTING_MODE",
      "outputs": [
        {
          "internalType": "string",
          "name": "",
          "type": "string"
        }
      ],
      "stateMutability": "pure",
      "type": "function"
    },
    {
      "inputs": [],
      "name": "EXTENDED_BALLOT_TYPEHASH",
      "outputs": [
        {
          "internalType": "bytes32",
          "name": "",
          "type": "bytes32"
        }
      ],
      "stateMutability": "view",
      "type": "function"
    },
    {
      "inputs": [
        {
          "internalType": "uint256",
          "name": "proposalId",
          "type": "uint256"
        },
        {
          "internalType": "uint8",
          "name": "support",
          "type": "uint8"
        }
      ],
      "name": "castVote",
      "outputs": [
        {
          "internalType": "uint256",
          "name": "",
          "type": "uint256"
        }
      ],
      "stateMutability": "nonpayable",
      "type": "function"
    },
    {
      "inputs": [
        {
          "internalType": "uint256",
          "name": "proposalId",
          "type": "uint256"
        },
        {
          "internalType": "uint8",
          "name": "support",
          "type": "uint8"
        },
        {
          "internalType": "uint8",
          "name": "v",
          "type": "uint8"
        },
        {
          "internalType": "bytes32",
          "name": "r",
          "type": "bytes32"
        },
        {
          "internalType": "bytes32",
          "name": "s",
          "type": "bytes32"
        }
      ],
      "name": "castVoteBySig",
      "outputs": [
        {
          "internalType": "uint256",
          "name": "",
          "type": "uint256"
        }
      ],
      "stateMutability": "nonpayable",
      "type": "function"
    },
    {
      "inputs": [
        {
          "internalType": "uint256",
          "name": "proposalId",
          "type": "uint256"
        },
        {
          "internalType": "uint8",
          "name": "support",
          "type": "uint8"
        },
        {
          "internalType": "string",
          "name": "reason",
          "type": "string"
        }
      ],
      "name": "castVoteWithReason",
      "outputs": [
        {
          "internalType": "uint256",
          "name": "",
          "type": "uint256"
        }
      ],
      "stateMutability": "nonpayable",
      "type": "function"
    },
    {
      "inputs": [
        {
          "internalType": "uint256",
          "name": "proposalId",
          "type": "uint256"
        },
        {
          "internalType": "uint8",
          "name": "support",
          "type": "uint8"
        },
        {
          "internalType": "string",
          "name": "reason",
          "type": "string"
        },
        {
          "internalType": "bytes",
          "name": "params",
          "type": "bytes"
        }
      ],
      "name": "castVoteWithReasonAndParams",
      "outputs": [
        {
          "internalType": "uint256",
          "name": "",
          "type": "uint256"
        }
      ],
      "stateMutability": "nonpayable",
      "type": "function"
    },
    {
      "inputs": [
        {
          "internalType": "uint256",
          "name": "proposalId",
          "type": "uint256"
        },
        {
          "internalType": "uint8",
          "name": "support",
          "type": "uint8"
        },
        {
          "internalType": "string",
          "name": "reason",
          "type": "string"
        },
        {
          "internalType": "bytes",
          "name": "params",
          "type": "bytes"
        },
        {
          "internalType": "uint8",
          "name": "v",
          "type": "uint8"
        },
        {
          "internalType": "bytes32",
          "name": "r",
          "type": "bytes32"
        },
        {
          "internalType": "bytes32",
          "name": "s",
          "type": "bytes32"
        }
      ],
      "name": "castVoteWithReasonAndParamsBySig",
      "outputs": [
        {
          "internalType": "uint256",
          "name": "",
          "type": "uint256"
        }
      ],
      "stateMutability": "nonpayable",
      "type": "function"
    },
    {
      "inputs": [
        {
          "internalType": "address[]",
          "name": "targets",
          "type": "address[]"
        },
        {
          "internalType": "uint256[]",
          "name": "values",
          "type": "uint256[]"
        },
        {
          "internalType": "bytes[]",
          "name": "calldatas",
          "type": "bytes[]"
        },
        {
          "internalType": "bytes32",
          "name": "descriptionHash",
          "type": "bytes32"
        }
      ],
      "name": "execute",
      "outputs": [
        {
          "internalType": "uint256",
          "name": "",
          "type": "uint256"
        }
      ],
      "stateMutability": "payable",
      "type": "function"
    },
    {
      "inputs": [
        {
          "internalType": "address",
          "name": "account",
          "type": "address"
        },
        {
          "internalType": "uint256",
          "name": "blockNumber",
          "type": "uint256"
        }
      ],
      "name": "getVotes",
      "outputs": [
        {
          "internalType": "uint256",
          "name": "",
          "type": "uint256"
        }
      ],
      "stateMutability": "view",
      "type": "function"
    },
    {
      "inputs": [
        {
          "internalType": "address",
          "name": "account",
          "type": "address"
        },
        {
          "internalType": "uint256",
          "name": "blockNumber",
          "type": "uint256"
        },
        {
          "internalType": "bytes",
          "name": "params",
          "type": "bytes"
        }
      ],
      "name": "getVotesWithParams",
      "outputs": [
        {
          "internalType": "uint256",
          "name": "",
          "type": "uint256"
        }
      ],
      "stateMutability": "view",
      "type": "function"
    },
    {
      "inputs": [
        {
          "internalType": "uint256",
          "name": "proposalId",
          "type": "uint256"
        },
        {
          "internalType": "address",
          "name": "account",
          "type": "address"
        }
      ],
      "name": "hasVoted",
      "outputs": [
        {
          "internalType": "bool",
          "name": "",
          "type": "bool"
        }
      ],
      "stateMutability": "view",
      "type": "function"
    },
    {
      "inputs": [
        {
          "internalType": "address[]",
          "name": "targets",
          "type": "address[]"
        },
        {
          "internalType": "uint256[]",
          "name": "values",
          "type": "uint256[]"
        },
        {
          "internalType": "bytes[]",
          "name": "calldatas",
          "type": "bytes[]"
        },
        {
          "internalType": "bytes32",
          "name": "descriptionHash",
          "type": "bytes32"
        }
      ],
      "name": "hashProposal",
      "outputs": [
        {
          "internalType": "uint256",
          "name": "",
          "type": "uint256"
        }
      ],
      "stateMutability": "pure",
      "type": "function"
    },
    {
      "inputs": [],
      "name": "name",
      "outputs": [
        {
          "internalType": "string",
          "name": "",
          "type": "string"
        }
      ],
      "stateMutability": "view",
      "type": "function"
    },
    {
      "inputs": [
        {
          "internalType": "address",
          "name": "",
          "type": "address"
        },
        {
          "internalType": "address",
          "name": "",
          "type": "address"
        },
        {
          "internalType": "uint256[]",
          "name": "",
          "type": "uint256[]"
        },
        {
          "internalType": "uint256[]",
          "name": "",
          "type": "uint256[]"
        },
        {
          "internalType": "bytes",
          "name": "",
          "type": "bytes"
        }
      ],
      "name": "onERC1155BatchReceived",
      "outputs": [
        {
          "internalType": "bytes4",
          "name": "",
          "type": "bytes4"
        }
      ],
      "stateMutability": "nonpayable",
      "type": "function"
    },
    {
      "inputs": [
        {
          "internalType": "address",
          "name": "",
          "type": "address"
        },
        {
          "internalType": "address",
          "name": "",
          "type": "address"
        },
        {
          "internalType": "uint256",
          "name": "",
          "type": "uint256"
        },
        {
          "internalType": "uint256",
          "name": "",
          "type": "uint256"
        },
        {
          "internalType": "bytes",
          "name": "",
          "type": "bytes"
        }
      ],
      "name": "onERC1155Received",
      "outputs": [
        {
          "internalType": "bytes4",
          "name": "",
          "type": "bytes4"
        }
      ],
      "stateMutability": "nonpayable",
      "type": "function"
    },
    {
      "inputs": [
        {
          "internalType": "address",
          "name": "",
          "type": "address"
        },
        {
          "internalType": "address",
          "name": "",
          "type": "address"
        },
        {
          "internalType": "uint256",
          "name": "",
          "type": "uint256"
        },
        {
          "internalType": "bytes",
          "name": "",
          "type": "bytes"
        }
      ],
      "name": "onERC721Received",
      "outputs": [
        {
          "internalType": "bytes4",
          "name": "",
          "type": "bytes4"
        }
      ],
      "stateMutability": "nonpayable",
      "type": "function"
    },
    {
      "inputs": [
        {
          "internalType": "uint256",
          "name": "proposalId",
          "type": "uint256"
        }
      ],
      "name": "proposalDeadline",
      "outputs": [
        {
          "internalType": "uint256",
          "name": "",
          "type": "uint256"
        }
      ],
      "stateMutability": "view",
      "type": "function"
    },
    {
      "inputs": [
        {
          "internalType": "uint256",
          "name": "proposalId",
          "type": "uint256"
        }
      ],
      "name": "proposalSnapshot",
      "outputs": [
        {
          "internalType": "uint256",
          "name": "",
          "type": "uint256"
        }
      ],
      "stateMutability": "view",
      "type": "function"
    },
    {
      "inputs": [],
      "name": "proposalThreshold",
      "outputs": [
        {
          "internalType": "uint256",
          "name": "",
          "type": "uint256"
        }
      ],
      "stateMutability": "view",
      "type": "function"
    },
    {
      "inputs": [
        {
          "internalType": "uint256",
          "name": "proposalId",
          "type": "uint256"
        }
      ],
      "name": "proposalVotes",
      "outputs": [
        {
          "internalType": "uint256",
          "name": "againstVotes",
          "type": "uint256"
        },
        {
          "internalType": "uint256",
          "name": "forVotes",
          "type": "uint256"
        },
        {
          "internalType": "uint256",
          "name": "abstainVotes",
          "type": "uint256"
        }
      ],
      "stateMutability": "view",
      "type": "function"
    },
    {
      "inputs": [
        {
          "internalType": "address[]",
          "name": "targets",
          "type": "address[]"
        },
        {
          "internalType": "uint256[]",
          "name": "values",
          "type": "uint256[]"
        },
        {
          "internalType": "bytes[]",
          "name": "calldatas",
          "type": "bytes[]"
        },
        {
          "internalType": "string",
          "name": "description",
          "type": "string"
        }
      ],
      "name": "propose",
      "outputs": [
        {
          "internalType": "uint256",
          "name": "",
          "type": "uint256"
        }
      ],
      "stateMutability": "nonpayable",
      "type": "function"
    },
    {
      "inputs": [
        {
          "internalType": "uint256",
          "name": "blockNumber",
          "type": "uint256"
        }
      ],
      "name": "quorum",
      "outputs": [
        {
          "internalType": "uint256",
          "name": "",
          "type": "uint256"
        }
      ],
      "stateMutability": "view",
      "type": "function"
    },
    {
      "inputs": [],
      "name": "quorumDenominator",
      "outputs": [
        {
          "internalType": "uint256",
          "name": "",
          "type": "uint256"
        }
      ],
      "stateMutability": "view",
      "type": "function"
    },
    {
      "inputs": [],
      "name": "quorumNumerator",
      "outputs": [
        {
          "internalType": "uint256",
          "name": "",
          "type": "uint256"
        }
      ],
      "stateMutability": "view",
      "type": "function"
    },
    {
      "inputs": [
        {
          "internalType": "address",
          "name": "target",
          "type": "address"
        },
        {
          "internalType": "uint256",
          "name": "value",
          "type": "uint256"
        },
        {
          "internalType": "bytes",
          "name": "data",
          "type": "bytes"
        }
      ],
      "name": "relay",
      "outputs": [],
      "stateMutability": "nonpayable",
      "type": "function"
    },
    {
      "inputs": [
        {
          "internalType": "uint256",
          "name": "newProposalThreshold",
          "type": "uint256"
        }
      ],
      "name": "setProposalThreshold",
      "outputs": [],
      "stateMutability": "nonpayable",
      "type": "function"
    },
    {
      "inputs": [
        {
          "internalType": "uint256",
          "name": "newVotingDelay",
          "type": "uint256"
        }
      ],
      "name": "setVotingDelay",
      "outputs": [],
      "stateMutability": "nonpayable",
      "type": "function"
    },
    {
      "inputs": [
        {
          "internalType": "uint256",
          "name": "newVotingPeriod",
          "type": "uint256"
        }
      ],
      "name": "setVotingPeriod",
      "outputs": [],
      "stateMutability": "nonpayable",
      "type": "function"
    },
    {
      "inputs": [
        {
          "internalType": "uint256",
          "name": "proposalId",
          "type": "uint256"
        }
      ],
      "name": "state",
      "outputs": [
        {
          "internalType": "enum IGovernor.ProposalState",
          "name": "",
          "type": "uint8"
        }
      ],
      "stateMutability": "view",
      "type": "function"
    },
    {
      "inputs": [
        {
          "internalType": "bytes4",
          "name": "interfaceId",
          "type": "bytes4"
        }
      ],
      "name": "supportsInterface",
      "outputs": [
        {
          "internalType": "bool",
          "name": "",
          "type": "bool"
        }
      ],
      "stateMutability": "view",
      "type": "function"
    },
    {
      "inputs": [],
      "name": "token",
      "outputs": [
        {
          "internalType": "contract IVotes",
          "name": "",
          "type": "address"
        }
      ],
      "stateMutability": "view",
      "type": "function"
    },
    {
      "inputs": [
        {
          "internalType": "uint256",
          "name": "newQuorumNumerator",
          "type": "uint256"
        }
      ],
      "name": "updateQuorumNumerator",
      "outputs": [],
      "stateMutability": "nonpayable",
      "type": "function"
    },
    {
      "inputs": [],
      "name": "version",
      "outputs": [
        {
          "internalType": "string",
          "name": "",
          "type": "string"
        }
      ],
      "stateMutability": "view",
      "type": "function"
    },
    {
      "inputs": [],
      "name": "votingDelay",
      "outputs": [
        {
          "internalType": "uint256",
          "name": "",
          "type": "uint256"
        }
      ],
      "stateMutability": "view",
      "type": "function"
    },
    {
      "inputs": [],
      "name": "votingPeriod",
      "outputs": [
        {
          "internalType": "uint256",
          "name": "",
          "type": "uint256"
        }
      ],
      "stateMutability": "view",
      "type": "function"
    },
    {
      "stateMutability": "payable",
      "type": "receive"
    }
  ],
  "bytecode": "0x6101606040523480156200001257600080fd5b50604051620038613803806200386183398101604081905262000035916200041e565b600481600161199160006040518060400160405280600d81526020016c20b5b4ba30a3b7bb32b93737b960991b81525080620000766200016a60201b60201c565b815160208084019190912082518383012060e08290526101008190524660a0818152604080517f8b73c3c69bb8fe3d512ecc4cf759cc79239f7b179b0ffacaa9a75d522b39400f81880181905281830187905260608201869052608082019490945230818401528151808203909301835260c00190528051940193909320919290916080523060601b60c05261012052505082516200011f925060009150602084019062000378565b506200012d90508362000185565b6200013882620001c6565b62000143816200026d565b50505060601b6001600160601b031916610140526200016281620002ae565b50506200048b565b6040805180820190915260018152603160f81b602082015290565b60045460408051918252602082018390527fc565b045403dc03c2eea82b81a0465edad9e2e7fc4d97e11421c209da93d7a93910160405180910390a1600455565b600081116200022c5760405162461bcd60e51b815260206004820152602760248201527f476f7665726e6f7253657474696e67733a20766f74696e6720706572696f6420604482015266746f6f206c6f7760c81b60648201526084015b60405180910390fd5b60055460408051918252602082018390527f7e3f7f0708a84de9203036abaa450dccc85ad5ff52f78c170f3edb55cf5e8828910160405180910390a1600555565b60065460408051918252602082018390527fccb45da8d5717e6c4544694297c4ba5cf151d455c9bb0ed4fc7a38411bc05461910160405180910390a1600655565b6064811115620003335760405162461bcd60e51b815260206004820152604360248201527f476f7665726e6f72566f74657351756f72756d4672616374696f6e3a2071756f60448201527f72756d4e756d657261746f72206f7665722071756f72756d44656e6f6d696e616064820152623a37b960e91b608482015260a40162000223565b600880549082905560408051828152602081018490527f0553476bf02ef2726e8ce5ced78d63e26e602e4a2257b1f559418e24b4633997910160405180910390a15050565b82805462000386906200044e565b90600052602060002090601f016020900481019282620003aa5760008555620003f5565b82601f10620003c557805160ff1916838001178555620003f5565b82800160010185558215620003f5579182015b82811115620003f5578251825591602001919060010190620003d8565b506200040392915062000407565b5090565b5b8082111562000403576000815560010162000408565b60006020828403121562000430578081fd5b81516001600160a01b038116811462000447578182fd5b9392505050565b600181811c908216806200046357607f821691505b602082108114156200048557634e487b7160e01b600052602260045260246000fd5b50919050565b60805160a05160c05160601c60e05161010051610120516101405160601c613367620004fa6000396000818161081a01528181611c580152611e2801526000611f4801526000611f9701526000611f7201526000611ecb01526000611ef501526000611f1f01526133676000f3fe6080604052600436106102535760003560e01c80637b3c71d311610138578063c59057e4116100b0578063eb9019d41161007f578063f23a6e6111610064578063f23a6e61146107a3578063f8ce560a146107e8578063fc0c546a1461080857600080fd5b8063eb9019d414610763578063ece40cc11461078357600080fd5b8063c59057e4146106a9578063dd4e2ba5146106c9578063deaaa7cc1461070f578063ea0217cf1461074357600080fd5b8063a7713a7011610107578063bc197c81116100ec578063bc197c8114610624578063c01f9e3714610669578063c28bc2fa1461068957600080fd5b8063a7713a70146105fa578063b58131b01461060f57600080fd5b80637b3c71d3146105865780637d5e81e2146105a657806397c3d334146105c65780639a802a6d146105da57600080fd5b80633932abb1116101cb578063544ffc9c1161019a578063567813881161017f57806356781388146105265780635f398a141461054657806370b0f6601461056657600080fd5b8063544ffc9c1461048b57806354fd4d50146104e057600080fd5b80633932abb1146103df5780633bccf4fd146103f45780633e4f49e614610414578063438596321461044157600080fd5b806306fdde03116102225780632656227d116102075780632656227d146103785780632d63f6931461038b5780632fe3e261146103ab57600080fd5b806306fdde03146102f9578063150b7a021461031b57600080fd5b806301ffc9a71461026157806302a251a31461029657806303420181146102b957806306f3f9e6146102d957600080fd5b3661025c57005b005b600080fd5b34801561026d57600080fd5b5061028161027c366004612c00565b610854565b60405190151581526020015b60405180910390f35b3480156102a257600080fd5b506102ab610925565b60405190815260200161028d565b3480156102c557600080fd5b506102ab6102d4366004612d4c565b610935565b3480156102e557600080fd5b5061025a6102f4366004612c28565b610a2d565b34801561030557600080fd5b5061030e610aa9565b60405161028d9190612fce565b34801561032757600080fd5b5061035f610336366004612926565b7f150b7a0200000000000000000000000000000000000000000000000000000000949350505050565b6040516001600160e01b0319909116815260200161028d565b6102ab610386366004612ac5565b610b3b565b34801561039757600080fd5b506102ab6103a6366004612c28565b610c9a565b3480156103b757600080fd5b506102ab7fb3b3f3b703cd84ce352197dcff232b1b5d3cfb2025ce47cf04742d0651f1af8881565b3480156103eb57600080fd5b506102ab610cd3565b34801561040057600080fd5b506102ab61040f366004612df0565b610cde565b34801561042057600080fd5b5061043461042f366004612c28565b610d54565b60405161028d9190612fa6565b34801561044d57600080fd5b5061028161045c366004612c58565b60008281526007602090815260408083206001600160a01b038516845260030190915290205460ff1692915050565b34801561049757600080fd5b506104c56104a6366004612c28565b6000908152600760205260409020805460018201546002909201549092565b6040805193845260208401929092529082015260600161028d565b3480156104ec57600080fd5b5060408051808201909152600181527f3100000000000000000000000000000000000000000000000000000000000000602082015261030e565b34801561053257600080fd5b506102ab610541366004612c83565b610e60565b34801561055257600080fd5b506102ab610561366004612ce5565b610e89565b34801561057257600080fd5b5061025a610581366004612c28565b610ed3565b34801561059257600080fd5b506102ab6105a1366004612ca5565b610f47565b3480156105b257600080fd5b506102ab6105c1366004612b51565b610f99565b3480156105d257600080fd5b5060646102ab565b3480156105e657600080fd5b506102ab6105f5366004612a70565b61130a565b34801561060657600080fd5b506008546102ab565b34801561061b57600080fd5b506102ab611321565b34801561063057600080fd5b5061035f61063f366004612880565b7fbc197c810000000000000000000000000000000000000000000000000000000095945050505050565b34801561067557600080fd5b506102ab610684366004612c28565b61132c565b34801561069557600080fd5b5061025a6106a4366004612a18565b61135c565b3480156106b557600080fd5b506102ab6106c4366004612ac5565b611410565b3480156106d557600080fd5b506040805180820190915260208082527f737570706f72743d627261766f2671756f72756d3d666f722c6162737461696e9082015261030e565b34801561071b57600080fd5b506102ab7f150214d74d59b7d1e90c73fc22ef3d991dd0a76b046543d4d80ab92d2a50328f81565b34801561074f57600080fd5b5061025a61075e366004612c28565b61144a565b34801561076f57600080fd5b506102ab61077e3660046129ef565b6114be565b34801561078f57600080fd5b5061025a61079e366004612c28565b6114df565b3480156107af57600080fd5b5061035f6107be36600461298c565b7ff23a6e610000000000000000000000000000000000000000000000000000000095945050505050565b3480156107f457600080fd5b506102ab610803366004612c28565b611553565b34801561081457600080fd5b5061083c7f000000000000000000000000000000000000000000000000000000000000000081565b6040516001600160a01b03909116815260200161028d565b60006001600160e01b031982167fbf26d8970000000000000000000000000000000000000000000000000000000014806108b757506001600160e01b031982167f79dd796f00000000000000000000000000000000000000000000000000000000145b806108eb57506001600160e01b031982167f4e2312e000000000000000000000000000000000000000000000000000000000145b8061091f57507f01ffc9a7000000000000000000000000000000000000000000000000000000006001600160e01b03198316145b92915050565b600061093060055490565b905090565b6000806109d96109d17fb3b3f3b703cd84ce352197dcff232b1b5d3cfb2025ce47cf04742d0651f1af888c8c8c8c604051610971929190612f2f565b60405180910390208b805190602001206040516020016109b6959493929190948552602085019390935260ff9190911660408401526060830152608082015260a00190565b6040516020818303038152906040528051906020012061155e565b8686866115c7565b9050610a1f8a828b8b8b8080601f0160208091040260200160405190810160405280939291908181526020018383808284376000920191909152508d92506115e5915050565b9a9950505050505050505050565b333014610a815760405162461bcd60e51b815260206004820152601860248201527f476f7665726e6f723a206f6e6c79476f7665726e616e6365000000000000000060448201526064015b60405180910390fd5b610a9d565b80610a916002611770565b14610a9b57610a86565b505b610aa68161183a565b50565b606060008054610ab89061325f565b80601f0160208091040260200160405190810160405280929190818152602001828054610ae49061325f565b8015610b315780601f10610b0657610100808354040283529160200191610b31565b820191906000526020600020905b815481529060010190602001808311610b1457829003601f168201915b5050505050905090565b600080610b4a86868686611410565b90506000610b5782610d54565b90506004816007811115610b7b57634e487b7160e01b600052602160045260246000fd5b1480610ba657506005816007811115610ba457634e487b7160e01b600052602160045260246000fd5b145b610c185760405162461bcd60e51b815260206004820152602160248201527f476f7665726e6f723a2070726f706f73616c206e6f742073756363657373667560448201527f6c000000000000000000000000000000000000000000000000000000000000006064820152608401610a78565b600082815260016020818152604092839020600201805460ff191690921790915590518381527f712ae1383f79ac853f8d882153778e0260ef8f03b504e2866e0593e04d2b291f910160405180910390a1610c76828888888861191c565b610c8382888888886119c5565b610c90828888888861191c565b5095945050505050565b600081815260016020908152604080832081519283019091525467ffffffffffffffff16908190525b67ffffffffffffffff1692915050565b600061093060045490565b604080517f150214d74d59b7d1e90c73fc22ef3d991dd0a76b046543d4d80ab92d2a50328f602082015290810186905260ff851660608201526000908190610d2c906109d1906080016109b6565b9050610d4987828860405180602001604052806000815250611aee565b979650505050505050565b6000818152600160205260408120600281015460ff1615610d785750600792915050565b6002810154610100900460ff1615610d935750600292915050565b6000610d9e84610c9a565b905080610ded5760405162461bcd60e51b815260206004820152601d60248201527f476f7665726e6f723a20756e6b6e6f776e2070726f706f73616c2069640000006044820152606401610a78565b438110610dfe575060009392505050565b6000610e098561132c565b9050438110610e1d57506001949350505050565b610e2685611b1a565b8015610e45575060008581526007602052604090208054600190910154115b15610e5557506004949350505050565b506003949350505050565b600080339050610e8184828560405180602001604052806000815250611aee565b949350505050565b600080339050610d4987828888888080601f0160208091040260200160405190810160405280939291908181526020018383808284376000920191909152508a92506115e5915050565b333014610f225760405162461bcd60e51b815260206004820152601860248201527f476f7665726e6f723a206f6e6c79476f7665726e616e636500000000000000006044820152606401610a78565b610f3e565b80610f326002611770565b14610f3c57610f27565b505b610aa681611b51565b600080339050610f8f86828787878080601f016020809104026020016040519081016040528093929190818152602001838380828437600092019190915250611aee92505050565b9695505050505050565b6000610fa3611321565b610fb23361077e600143613218565b10156110265760405162461bcd60e51b815260206004820152603160248201527f476f7665726e6f723a2070726f706f73657220766f7465732062656c6f77207060448201527f726f706f73616c207468726573686f6c640000000000000000000000000000006064820152608401610a78565b600061103b8686868680519060200120611410565b905084518651146110985760405162461bcd60e51b815260206004820152602160248201527f476f7665726e6f723a20696e76616c69642070726f706f73616c206c656e67746044820152600d60fb1b6064820152608401610a78565b83518651146110f35760405162461bcd60e51b815260206004820152602160248201527f476f7665726e6f723a20696e76616c69642070726f706f73616c206c656e67746044820152600d60fb1b6064820152608401610a78565b60008651116111445760405162461bcd60e51b815260206004820152601860248201527f476f7665726e6f723a20656d7074792070726f706f73616c00000000000000006044820152606401610a78565b6000818152600160209081526040918290208251918201909252815467ffffffffffffffff1690819052156111e15760405162461bcd60e51b815260206004820152602160248201527f476f7665726e6f723a2070726f706f73616c20616c726561647920657869737460448201527f73000000000000000000000000000000000000000000000000000000000000006064820152608401610a78565b60006111f36111ee610cd3565b611b92565b6111fc43611b92565b61120691906131ad565b905060006112156111ee610925565b61121f90836131ad565b835467ffffffffffffffff191667ffffffffffffffff8416178455905060018301805467ffffffffffffffff191667ffffffffffffffff83161790557f7d84a6263ae0d98d3329bd7b46bb4e8d6f98cd35a7adb45c274c8b7fd5ebd5e084338b8b8d5167ffffffffffffffff8111156112a857634e487b7160e01b600052604160045260246000fd5b6040519080825280602002602001820160405280156112db57816020015b60608152602001906001900390816112c65790505b508c88888e6040516112f599989796959493929190612fe1565b60405180910390a15091979650505050505050565b6000611317848484611c16565b90505b9392505050565b600061093060065490565b600081815260016020818152604080842081519283019091529091015467ffffffffffffffff1690819052610cc3565b3330146113ab5760405162461bcd60e51b815260206004820152601860248201527f476f7665726e6f723a206f6e6c79476f7665726e616e636500000000000000006044820152606401610a78565b6113c7565b806113bb6002611770565b146113c5576113b0565b505b6114098483838080601f016020809104026020016040519081016040528093929190818152602001838380828437600092019190915250889250611cd4915050565b5050505050565b6000848484846040516020016114299493929190612f5b565b60408051601f19818403018152919052805160209091012095945050505050565b3330146114995760405162461bcd60e51b815260206004820152601860248201527f476f7665726e6f723a206f6e6c79476f7665726e616e636500000000000000006044820152606401610a78565b6114b5565b806114a96002611770565b146114b35761149e565b505b610aa681611cfa565b600061131a83836114da60408051602081019091526000815290565b611c16565b33301461152e5760405162461bcd60e51b815260206004820152601860248201527f476f7665726e6f723a206f6e6c79476f7665726e616e636500000000000000006044820152606401610a78565b61154a565b8061153e6002611770565b1461154857611533565b505b610aa681611db1565b600061091f82611df2565b600061091f61156b611ebe565b836040517f19010000000000000000000000000000000000000000000000000000000000006020820152602281018390526042810182905260009060620160405160208183030381529060405280519060200120905092915050565b60008060006115d887878787611fe5565b91509150610c90816120d2565b60008581526001602081905260408220906115ff88610d54565b600781111561161e57634e487b7160e01b600052602160045260246000fd5b146116915760405162461bcd60e51b815260206004820152602360248201527f476f7665726e6f723a20766f7465206e6f742063757272656e746c792061637460448201527f69766500000000000000000000000000000000000000000000000000000000006064820152608401610a78565b6040805160208101909152815467ffffffffffffffff16908190526000906116bb90889086611c16565b90506116ca88888884886122d3565b835161171c57866001600160a01b03167fb8e138887d0aa13bab447e82de9d5c1777041ecd21ca36ba824ff1e6c07ddda48988848960405161170f94939291906130d2565b60405180910390a2610d49565b866001600160a01b03167fe2babfbac5889a709b63bb7f598b324e08bc5a4fb9ec647fb3cbc9ec07eb8712898884898960405161175d9594939291906130fa565b60405180910390a2979650505050505050565b600061179c8254600f81810b810b700100000000000000000000000000000000909204810b900b131590565b156117d3576040517f3db2a12a00000000000000000000000000000000000000000000000000000000815260040160405180910390fd5b508054600f90810b80820b820b600090815260018085016020526040822080549290558454920190920b6fffffffffffffffffffffffffffffffff167fffffffffffffffffffffffffffffffff000000000000000000000000000000009091161790915590565b60648111156118d75760405162461bcd60e51b815260206004820152604360248201527f476f7665726e6f72566f74657351756f72756d4672616374696f6e3a2071756f60448201527f72756d4e756d657261746f72206f7665722071756f72756d44656e6f6d696e6160648201527f746f720000000000000000000000000000000000000000000000000000000000608482015260a401610a78565b600880549082905560408051828152602081018490527f0553476bf02ef2726e8ce5ced78d63e26e602e4a2257b1f559418e24b4633997910160405180910390a15050565b611409565b84518110156119bd57306001600160a01b031685828151811061195457634e487b7160e01b600052603260045260246000fd5b60200260200101516001600160a01b031614156119ad576119ad83828151811061198e57634e487b7160e01b600052603260045260246000fd5b602002602001015180519060200120600261247090919063ffffffff16565b6119b68161329a565b9050611921565b505050505050565b60006040518060600160405280602781526020016132e260279139905060005b8551811015611ae557600080878381518110611a1157634e487b7160e01b600052603260045260246000fd5b60200260200101516001600160a01b0316878481518110611a4257634e487b7160e01b600052603260045260246000fd5b6020026020010151878581518110611a6a57634e487b7160e01b600052603260045260246000fd5b6020026020010151604051611a7f9190612f3f565b60006040518083038185875af1925050503d8060008114611abc576040519150601f19603f3d011682016040523d82523d6000602084013e611ac1565b606091505b5091509150611ad18282866124cc565b50505080611ade9061329a565b90506119e5565b50505050505050565b6000611b1185858585611b0c60408051602081019091526000815290565b6115e5565b95945050505050565b600081815260076020526040812060028101546001820154611b3c9190613195565b611b4861080385610c9a565b11159392505050565b60045460408051918252602082018390527fc565b045403dc03c2eea82b81a0465edad9e2e7fc4d97e11421c209da93d7a93910160405180910390a1600455565b600067ffffffffffffffff821115611c125760405162461bcd60e51b815260206004820152602660248201527f53616665436173743a2076616c756520646f65736e27742066697420696e203660448201527f34206269747300000000000000000000000000000000000000000000000000006064820152608401610a78565b5090565b6040517f3a46b1a80000000000000000000000000000000000000000000000000000000081526001600160a01b038481166004830152602482018490526000917f000000000000000000000000000000000000000000000000000000000000000090911690633a46b1a89060440160206040518083038186803b158015611c9c57600080fd5b505afa158015611cb0573d6000803e3d6000fd5b505050506040513d601f19601f820116820180604052508101906113179190612c40565b606061131784848460405180606001604052806029815260200161330960299139612505565b60008111611d705760405162461bcd60e51b815260206004820152602760248201527f476f7665726e6f7253657474696e67733a20766f74696e6720706572696f642060448201527f746f6f206c6f77000000000000000000000000000000000000000000000000006064820152608401610a78565b60055460408051918252602082018390527f7e3f7f0708a84de9203036abaa450dccc85ad5ff52f78c170f3edb55cf5e8828910160405180910390a1600555565b60065460408051918252602082018390527fccb45da8d5717e6c4544694297c4ba5cf151d455c9bb0ed4fc7a38411bc05461910160405180910390a1600655565b600060646008546040517f8e539e8c000000000000000000000000000000000000000000000000000000008152600481018590527f00000000000000000000000000000000000000000000000000000000000000006001600160a01b031690638e539e8c9060240160206040518083038186803b158015611e7257600080fd5b505afa158015611e86573d6000803e3d6000fd5b505050506040513d601f19601f82011682018060405250810190611eaa9190612c40565b611eb491906131f9565b61091f91906131d9565b6000306001600160a01b037f000000000000000000000000000000000000000000000000000000000000000016148015611f1757507f000000000000000000000000000000000000000000000000000000000000000046145b15611f4157507f000000000000000000000000000000000000000000000000000000000000000090565b50604080517f00000000000000000000000000000000000000000000000000000000000000006020808301919091527f0000000000000000000000000000000000000000000000000000000000000000828401527f000000000000000000000000000000000000000000000000000000000000000060608301524660808301523060a0808401919091528351808403909101815260c0909201909252805191012090565b6000807f7fffffffffffffffffffffffffffffff5d576e7357a4501ddfe92f46681b20a083111561201c57506000905060036120c9565b8460ff16601b1415801561203457508460ff16601c14155b1561204557506000905060046120c9565b6040805160008082526020820180845289905260ff881692820192909252606081018690526080810185905260019060a0016020604051602081039080840390855afa158015612099573d6000803e3d6000fd5b5050604051601f1901519150506001600160a01b0381166120c2576000600192509250506120c9565b9150600090505b94509492505050565b60008160048111156120f457634e487b7160e01b600052602160045260246000fd5b14156120fd5750565b600181600481111561211f57634e487b7160e01b600052602160045260246000fd5b141561216d5760405162461bcd60e51b815260206004820152601860248201527f45434453413a20696e76616c6964207369676e617475726500000000000000006044820152606401610a78565b600281600481111561218f57634e487b7160e01b600052602160045260246000fd5b14156121dd5760405162461bcd60e51b815260206004820152601f60248201527f45434453413a20696e76616c6964207369676e6174757265206c656e677468006044820152606401610a78565b60038160048111156121ff57634e487b7160e01b600052602160045260246000fd5b14156122585760405162461bcd60e51b815260206004820152602260248201527f45434453413a20696e76616c6964207369676e6174757265202773272076616c604482015261756560f01b6064820152608401610a78565b600481600481111561227a57634e487b7160e01b600052602160045260246000fd5b1415610aa65760405162461bcd60e51b815260206004820152602260248201527f45434453413a20696e76616c6964207369676e6174757265202776272076616c604482015261756560f01b6064820152608401610a78565b60008581526007602090815260408083206001600160a01b0388168452600381019092529091205460ff16156123715760405162461bcd60e51b815260206004820152602760248201527f476f7665726e6f72566f74696e6753696d706c653a20766f746520616c72656160448201527f64792063617374000000000000000000000000000000000000000000000000006064820152608401610a78565b6001600160a01b03851660009081526003820160205260408120805460ff1916600117905560ff168460ff1614156123c257828160000160008282546123b79190613195565b909155506119bd9050565b60ff8416600114156123e257828160010160008282546123b79190613195565b60ff84166002141561240257828160020160008282546123b79190613195565b60405162461bcd60e51b815260206004820152603560248201527f476f7665726e6f72566f74696e6753696d706c653a20696e76616c696420766160448201527f6c756520666f7220656e756d20566f74655479706500000000000000000000006064820152608401610a78565b815470010000000000000000000000000000000090819004600f90810b80820b820b6000908152600180870160205260409091209490945584549301900b6fffffffffffffffffffffffffffffffff9081169091029116179055565b606083156124db57508161131a565b8251156124eb5782518084602001fd5b8160405162461bcd60e51b8152600401610a789190612fce565b60608247101561257d5760405162461bcd60e51b815260206004820152602660248201527f416464726573733a20696e73756666696369656e742062616c616e636520666f60448201527f722063616c6c00000000000000000000000000000000000000000000000000006064820152608401610a78565b6001600160a01b0385163b6125d45760405162461bcd60e51b815260206004820152601d60248201527f416464726573733a2063616c6c20746f206e6f6e2d636f6e74726163740000006044820152606401610a78565b600080866001600160a01b031685876040516125f09190612f3f565b60006040518083038185875af1925050503d806000811461262d576040519150601f19603f3d011682016040523d82523d6000602084013e612632565b606091505b5091509150610d498282866124cc565b600067ffffffffffffffff83111561265c5761265c6132cb565b61266f601f8401601f1916602001613140565b905082815283838301111561268357600080fd5b828260208301376000602084830101529392505050565b80356001600160a01b03811681146126b157600080fd5b919050565b600082601f8301126126c6578081fd5b813560206126db6126d683613171565b613140565b80838252828201915082860187848660051b89010111156126fa578586fd5b855b8581101561271f5761270d8261269a565b845292840192908401906001016126fc565b5090979650505050505050565b600082601f83011261273c578081fd5b8135602061274c6126d683613171565b80838252828201915082860187848660051b890101111561276b578586fd5b855b8581101561271f57813567ffffffffffffffff81111561278b578788fd5b6127998a87838c0101612850565b855250928401929084019060010161276d565b600082601f8301126127bc578081fd5b813560206127cc6126d683613171565b80838252828201915082860187848660051b89010111156127eb578586fd5b855b8581101561271f578135845292840192908401906001016127ed565b60008083601f84011261281a578182fd5b50813567ffffffffffffffff811115612831578182fd5b60208301915083602082850101111561284957600080fd5b9250929050565b600082601f830112612860578081fd5b61131a83833560208501612642565b803560ff811681146126b157600080fd5b600080600080600060a08688031215612897578081fd5b6128a08661269a565b94506128ae6020870161269a565b9350604086013567ffffffffffffffff808211156128ca578283fd5b6128d689838a016127ac565b945060608801359150808211156128eb578283fd5b6128f789838a016127ac565b9350608088013591508082111561290c578283fd5b5061291988828901612850565b9150509295509295909350565b6000806000806080858703121561293b578384fd5b6129448561269a565b93506129526020860161269a565b925060408501359150606085013567ffffffffffffffff811115612974578182fd5b61298087828801612850565b91505092959194509250565b600080600080600060a086880312156129a3578081fd5b6129ac8661269a565b94506129ba6020870161269a565b93506040860135925060608601359150608086013567ffffffffffffffff8111156129e3578182fd5b61291988828901612850565b60008060408385031215612a01578182fd5b612a0a8361269a565b946020939093013593505050565b60008060008060608587031215612a2d578182fd5b612a368561269a565b935060208501359250604085013567ffffffffffffffff811115612a58578283fd5b612a6487828801612809565b95989497509550505050565b600080600060608486031215612a84578081fd5b612a8d8461269a565b925060208401359150604084013567ffffffffffffffff811115612aaf578182fd5b612abb86828701612850565b9150509250925092565b60008060008060808587031215612ada578182fd5b843567ffffffffffffffff80821115612af1578384fd5b612afd888389016126b6565b95506020870135915080821115612b12578384fd5b612b1e888389016127ac565b94506040870135915080821115612b33578384fd5b50612b408782880161272c565b949793965093946060013593505050565b60008060008060808587031215612b66578182fd5b843567ffffffffffffffff80821115612b7d578384fd5b612b89888389016126b6565b95506020870135915080821115612b9e578384fd5b612baa888389016127ac565b94506040870135915080821115612bbf578384fd5b612bcb8883890161272c565b93506060870135915080821115612be0578283fd5b508501601f81018713612bf1578182fd5b61298087823560208401612642565b600060208284031215612c11578081fd5b81356001600160e01b03198116811461131a578182fd5b600060208284031215612c39578081fd5b5035919050565b600060208284031215612c51578081fd5b5051919050565b60008060408385031215612c6a578182fd5b82359150612c7a6020840161269a565b90509250929050565b60008060408385031215612c95578182fd5b82359150612c7a6020840161286f565b60008060008060608587031215612cba578182fd5b84359350612cca6020860161286f565b9250604085013567ffffffffffffffff811115612a58578283fd5b600080600080600060808688031215612cfc578283fd5b85359450612d0c6020870161286f565b9350604086013567ffffffffffffffff80821115612d28578485fd5b612d3489838a01612809565b9095509350606088013591508082111561290c578283fd5b60008060008060008060008060e0898b031215612d67578586fd5b88359750612d7760208a0161286f565b9650604089013567ffffffffffffffff80821115612d93578788fd5b612d9f8c838d01612809565b909850965060608b0135915080821115612db7578485fd5b50612dc48b828c01612850565b945050612dd360808a0161286f565b925060a0890135915060c089013590509295985092959890939650565b600080600080600060a08688031215612e07578283fd5b85359450612e176020870161286f565b9350612e256040870161286f565b94979396509394606081013594506080013592915050565b6000815180845260208085019450808401835b83811015612e755781516001600160a01b031687529582019590820190600101612e50565b509495945050505050565b600081518084526020808501808196508360051b81019150828601855b85811015612ec7578284038952612eb5848351612f03565b98850198935090840190600101612e9d565b5091979650505050505050565b6000815180845260208085019450808401835b83811015612e7557815187529582019590820190600101612ee7565b60008151808452612f1b81602086016020860161322f565b601f01601f19169290920160200192915050565b8183823760009101908152919050565b60008251612f5181846020870161322f565b9190910192915050565b608081526000612f6e6080830187612e3d565b8281036020840152612f808187612ed4565b90508281036040840152612f948186612e80565b91505082606083015295945050505050565b6020810160088310612fc857634e487b7160e01b600052602160045260246000fd5b91905290565b60208152600061131a6020830184612f03565b60006101208b835260206001600160a01b038c168185015281604085015261300b8285018c612e3d565b9150838203606085015261301f828b612ed4565b915083820360808501528189518084528284019150828160051b850101838c01865b8381101561306f57601f1987840301855261305d838351612f03565b94860194925090850190600101613041565b505086810360a0880152613083818c612e80565b94505050505061309f60c084018767ffffffffffffffff169052565b67ffffffffffffffff851660e08401528281036101008401526130c28185612f03565b9c9b505050505050505050505050565b84815260ff84166020820152826040820152608060608201526000610f8f6080830184612f03565b85815260ff8516602082015283604082015260a06060820152600061312260a0830185612f03565b82810360808401526131348185612f03565b98975050505050505050565b604051601f8201601f1916810167ffffffffffffffff81118282101715613169576131696132cb565b604052919050565b600067ffffffffffffffff82111561318b5761318b6132cb565b5060051b60200190565b600082198211156131a8576131a86132b5565b500190565b600067ffffffffffffffff8083168185168083038211156131d0576131d06132b5565b01949350505050565b6000826131f457634e487b7160e01b81526012600452602481fd5b500490565b6000816000190483118215151615613213576132136132b5565b500290565b60008282101561322a5761322a6132b5565b500390565b60005b8381101561324a578181015183820152602001613232565b83811115613259576000848401525b50505050565b600181811c9082168061327357607f821691505b6020821081141561329457634e487b7160e01b600052602260045260246000fd5b50919050565b60006000198214156132ae576132ae6132b5565b5060010190565b634e487b7160e01b600052601160045260246000fd5b634e487b7160e01b600052604160045260246000fdfe476f7665726e6f723a2063616c6c20726576657274656420776974686f7574206d657373616765416464726573733a206c6f772d6c6576656c2063616c6c20776974682076616c7565206661696c6564a2646970667358221220e4584694879f44065420828e85c74a1880c3973d7103f26af826aa2366220c7c64736f6c63430008040033",
  "linkReferences": {},
  "deployedLinkReferences": {}
}