{
  "_format": "hh-sol-artifact-1",
  "contractName": "AkitaAirdrop",
  "sourceName": "contracts/AkitaAirdrop.sol",
  "abi": [
    {
      "inputs": [
        {
          "internalType": "address",
          "name": "_token",
          "type": "address"
        }
      ],
      "stateMutability": "nonpayable",
      "type": "constructor"
    },
    {
      "anonymous": false,
      "inputs": [
        {
          "indexed": true,
          "internalType": "address",
          "name": "previousOwner",
          "type": "address"
        },
        {
          "indexed": true,
          "internalType": "address",
          "name": "newOwner",
          "type": "address"
        }
      ],
      "name": "OwnershipTransferred",
      "type": "event"
    },
    {
      "inputs": [
        {
          "internalType": "address",
          "name": "_account",
          "type": "address"
        }
      ],
      "name": "addWhitelist",
      "outputs": [],
      "stateMutability": "nonpayable",
      "type": "function"
    },
    {
      "inputs": [
        {
          "internalType": "address",
          "name": "_signer",
          "type": "address"
        },
        {
          "internalType": "uint256",
          "name": "_nonce",
          "type": "uint256"
        },
        {
          "internalType": "address[]",
          "name": "_recipients",
          "type": "address[]"
        },
        {
          "internalType": "uint256[]",
          "name": "_amount",
          "type": "uint256[]"
        },
        {
          "internalType": "uint256[]",
          "name": "_no_of_vestings",
          "type": "uint256[]"
        },
        {
          "internalType": "bytes",
          "name": "signature",
          "type": "bytes"
        }
      ],
      "name": "bulkDropTokens",
      "outputs": [
        {
          "internalType": "bool",
          "name": "",
          "type": "bool"
        }
      ],
      "stateMutability": "nonpayable",
      "type": "function"
    },
    {
      "inputs": [
        {
          "internalType": "address[]",
          "name": "_recipients",
          "type": "address[]"
        },
        {
          "internalType": "uint256[]",
          "name": "_amount",
          "type": "uint256[]"
        },
        {
          "internalType": "uint256[]",
          "name": "_no_of_vestings",
          "type": "uint256[]"
        }
      ],
      "name": "dropTokens",
      "outputs": [
        {
          "internalType": "bool",
          "name": "",
          "type": "bool"
        }
      ],
      "stateMutability": "nonpayable",
      "type": "function"
    },
    {
      "inputs": [
        {
          "internalType": "bytes32",
          "name": "_messageHash",
          "type": "bytes32"
        }
      ],
      "name": "getEthSignedMessageHash",
      "outputs": [
        {
          "internalType": "bytes32",
          "name": "",
          "type": "bytes32"
        }
      ],
      "stateMutability": "pure",
      "type": "function"
    },
    {
      "inputs": [
        {
          "internalType": "uint256",
          "name": "_index",
          "type": "uint256"
        }
      ],
      "name": "getLock",
      "outputs": [
        {
          "components": [
            {
              "internalType": "uint256",
              "name": "lockDate",
              "type": "uint256"
            },
            {
              "internalType": "uint256",
              "name": "amount",
              "type": "uint256"
            },
            {
              "internalType": "uint256",
              "name": "intialAmount",
              "type": "uint256"
            },
            {
              "internalType": "uint256",
              "name": "unlockDate",
              "type": "uint256"
            },
            {
              "internalType": "uint256",
              "name": "lockID",
              "type": "uint256"
            },
            {
              "internalType": "address",
              "name": "owner",
              "type": "address"
            }
          ],
          "internalType": "struct AkitaAirdrop.TokenLock",
          "name": "",
          "type": "tuple"
        }
      ],
      "stateMutability": "view",
      "type": "function"
    },
    {
      "inputs": [
        {
          "internalType": "address",
          "name": "_signer",
          "type": "address"
        },
        {
          "internalType": "uint256",
          "name": "_nonce",
          "type": "uint256"
        }
      ],
      "name": "getMessageHash",
      "outputs": [
        {
          "internalType": "bytes32",
          "name": "",
          "type": "bytes32"
        }
      ],
      "stateMutability": "pure",
      "type": "function"
    },
    {
      "inputs": [
        {
          "internalType": "address",
          "name": "_account",
          "type": "address"
        }
      ],
      "name": "getUserLocks",
      "outputs": [
        {
          "internalType": "uint256[]",
          "name": "",
          "type": "uint256[]"
        }
      ],
      "stateMutability": "view",
      "type": "function"
    },
    {
      "inputs": [
        {
          "internalType": "address",
          "name": "",
          "type": "address"
        },
        {
          "internalType": "uint256",
          "name": "",
          "type": "uint256"
        }
      ],
      "name": "locksForUsers",
      "outputs": [
        {
          "internalType": "uint256",
          "name": "",
          "type": "uint256"
        }
      ],
      "stateMutability": "view",
      "type": "function"
    },
    {
      "inputs": [],
      "name": "owner",
      "outputs": [
        {
          "internalType": "address",
          "name": "",
          "type": "address"
        }
      ],
      "stateMutability": "view",
      "type": "function"
    },
    {
      "inputs": [],
      "name": "price",
      "outputs": [
        {
          "internalType": "uint256",
          "name": "",
          "type": "uint256"
        }
      ],
      "stateMutability": "view",
      "type": "function"
    },
    {
      "inputs": [
        {
          "internalType": "uint256",
          "name": "_amount",
          "type": "uint256"
        }
      ],
      "name": "purchaseTokens",
      "outputs": [],
      "stateMutability": "payable",
      "type": "function"
    },
    {
      "inputs": [
        {
          "internalType": "bytes32",
          "name": "_ethSignedMessageHash",
          "type": "bytes32"
        },
        {
          "internalType": "bytes",
          "name": "_signature",
          "type": "bytes"
        }
      ],
      "name": "recoverSigner",
      "outputs": [
        {
          "internalType": "address",
          "name": "",
          "type": "address"
        }
      ],
      "stateMutability": "pure",
      "type": "function"
    },
    {
      "inputs": [
        {
          "internalType": "address",
          "name": "_account",
          "type": "address"
        }
      ],
      "name": "removeWhitelist",
      "outputs": [],
      "stateMutability": "nonpayable",
      "type": "function"
    },
    {
      "inputs": [],
      "name": "renounceOwnership",
      "outputs": [],
      "stateMutability": "nonpayable",
      "type": "function"
    },
    {
      "inputs": [
        {
          "internalType": "uint256",
          "name": "_price",
          "type": "uint256"
        }
      ],
      "name": "setPrice",
      "outputs": [],
      "stateMutability": "nonpayable",
      "type": "function"
    },
    {
      "inputs": [],
      "name": "signer",
      "outputs": [
        {
          "internalType": "address",
          "name": "",
          "type": "address"
        }
      ],
      "stateMutability": "view",
      "type": "function"
    },
    {
      "inputs": [
        {
          "internalType": "bytes",
          "name": "sig",
          "type": "bytes"
        }
      ],
      "name": "splitSignature",
      "outputs": [
        {
          "internalType": "bytes32",
          "name": "r",
          "type": "bytes32"
        },
        {
          "internalType": "bytes32",
          "name": "s",
          "type": "bytes32"
        },
        {
          "internalType": "uint8",
          "name": "v",
          "type": "uint8"
        }
      ],
      "stateMutability": "pure",
      "type": "function"
    },
    {
      "inputs": [],
      "name": "token",
      "outputs": [
        {
          "internalType": "address",
          "name": "",
          "type": "address"
        }
      ],
      "stateMutability": "view",
      "type": "function"
    },
    {
      "inputs": [
        {
          "internalType": "uint256",
          "name": "",
          "type": "uint256"
        }
      ],
      "name": "tokenLocks",
      "outputs": [
        {
          "internalType": "uint256",
          "name": "lockDate",
          "type": "uint256"
        },
        {
          "internalType": "uint256",
          "name": "amount",
          "type": "uint256"
        },
        {
          "internalType": "uint256",
          "name": "intialAmount",
          "type": "uint256"
        },
        {
          "internalType": "uint256",
          "name": "unlockDate",
          "type": "uint256"
        },
        {
          "internalType": "uint256",
          "name": "lockID",
          "type": "uint256"
        },
        {
          "internalType": "address",
          "name": "owner",
          "type": "address"
        }
      ],
      "stateMutability": "view",
      "type": "function"
    },
    {
      "inputs": [
        {
          "internalType": "address",
          "name": "newOwner",
          "type": "address"
        }
      ],
      "name": "transferOwnership",
      "outputs": [],
      "stateMutability": "nonpayable",
      "type": "function"
    },
    {
      "inputs": [
        {
          "internalType": "uint256",
          "name": "_index",
          "type": "uint256"
        },
        {
          "internalType": "uint256",
          "name": "_lockID",
          "type": "uint256"
        },
        {
          "internalType": "uint256",
          "name": "_amount",
          "type": "uint256"
        }
      ],
      "name": "unlockToken",
      "outputs": [],
      "stateMutability": "nonpayable",
      "type": "function"
    }
  ],
  "bytecode": "0x60806040523480156200001157600080fd5b5060405162002161380380620021618339810160408190526200003491620000b9565b6200003f3362000069565b60018055600380546001600160a01b0319166001600160a01b0392909216919091179055620000e9565b600080546001600160a01b038381166001600160a01b0319831681178455604051919092169283917f8be0079c531659141344cd1fd0a4f28419497f9722a3daafe3b4186f6b6457e09190a35050565b600060208284031215620000cb578081fd5b81516001600160a01b0381168114620000e2578182fd5b9392505050565b61206880620000f96000396000f3fe60806040526004361061016a5760003560e01c80638da5cb5b116100cb578063a7bb58031161007f578063f80f5dd511610059578063f80f5dd51461047e578063fa5408011461049e578063fc0c546a1461050c57600080fd5b8063a7bb5803146103ab578063d68f4dd1146103e9578063f2fde38b1461045e57600080fd5b8063946ca949116100b0578063946ca9491461031f57806397aba7f914610375578063a035b1fe1461039557600080fd5b80638da5cb5b146102e157806391b7f5ed146102ff57600080fd5b8063512c91df1161012257806371d18a061161010757806371d18a061461028e57806378c8cda7146102ae5780637b97008d146102ce57600080fd5b8063512c91df14610257578063715018a61461027757600080fd5b806323a35de91161015357806323a35de9146101dc5780632f9be363146102095780633969ca591461022957600080fd5b8063088225b91461016f578063238ac933146101a4575b600080fd5b34801561017b57600080fd5b5061018f61018a366004611d65565b61052c565b60405190151581526020015b60405180910390f35b3480156101b057600080fd5b506002546101c4906001600160a01b031681565b6040516001600160a01b03909116815260200161019b565b3480156101e857600080fd5b506101fc6101f7366004611c61565b610797565b60405161019b9190611ee4565b34801561021557600080fd5b5061018f610224366004611ca4565b610803565b34801561023557600080fd5b50610249610244366004611c7b565b610b45565b60405190815260200161019b565b34801561026357600080fd5b50610249610272366004611c7b565b610b76565b34801561028357600080fd5b5061028c610bbe565b005b34801561029a57600080fd5b5061028c6102a9366004611eb9565b610c24565b3480156102ba57600080fd5b5061028c6102c9366004611c61565b61102b565b61028c6102dc366004611e09565b611094565b3480156102ed57600080fd5b506000546001600160a01b03166101c4565b34801561030b57600080fd5b5061028c61031a366004611e09565b6112cc565b34801561032b57600080fd5b5061033f61033a366004611e09565b61132b565b60408051968752602087019590955293850192909252606084015260808301526001600160a01b031660a082015260c00161019b565b34801561038157600080fd5b506101c4610390366004611e21565b61137a565b3480156103a157600080fd5b5061024960045481565b3480156103b757600080fd5b506103cb6103c6366004611e66565b6113f9565b60408051938452602084019290925260ff169082015260600161019b565b3480156103f557600080fd5b50610409610404366004611e09565b61146d565b60405161019b9190600060c08201905082518252602083015160208301526040830151604083015260608301516060830152608083015160808301526001600160a01b0360a08401511660a083015292915050565b34801561046a57600080fd5b5061028c610479366004611c61565b611534565b34801561048a57600080fd5b5061028c610499366004611c61565b611616565b3480156104aa57600080fd5b506102496104b9366004611e09565b6040517f19457468657265756d205369676e6564204d6573736167653a0a3332000000006020820152603c8101829052600090605c01604051602081830303815290604052805190602001209050919050565b34801561051857600080fd5b506003546101c4906001600160a01b031681565b600080546001600160a01b0316331461058c5760405162461bcd60e51b815260206004820181905260248201527f4f776e61626c653a2063616c6c6572206973206e6f7420746865206f776e657260448201526064015b60405180910390fd5b60005b84518110156105f15760006001600160a01b03168582815181106105c357634e487b7160e01b600052603260045260246000fd5b60200260200101516001600160a01b031614156105df57600080fd5b806105e981611feb565b91505061058f565b5060005b845181101561078c5760035484516001600160a01b03909116906340c10f1990309087908590811061063757634e487b7160e01b600052603260045260246000fd5b60200260200101516040518363ffffffff1660e01b81526004016106709291906001600160a01b03929092168252602082015260400190565b602060405180830381600087803b15801561068a57600080fd5b505af115801561069e573d6000803e3d6000fd5b505050506040513d601f19601f820116820180604052508101906106c29190611de9565b6106fa5760405162461bcd60e51b81526020600482015260096024820152681b5a5b9d0819985a5b60ba1b6044820152606401610583565b61077a84828151811061071d57634e487b7160e01b600052603260045260246000fd5b602002602001015186838151811061074557634e487b7160e01b600052603260045260246000fd5b602002602001015185848151811061076d57634e487b7160e01b600052603260045260246000fd5b602002602001015161167b565b8061078481611feb565b9150506105f5565b506001949350505050565b6001600160a01b0381166000908152600760209081526040918290208054835181840281018401909452808452606093928301828280156107f757602002820191906000526020600020905b8154815260200190600101908083116107e3575b50505050509050919050565b600080546001600160a01b0316331461085e5760405162461bcd60e51b815260206004820181905260248201527f4f776e61626c653a2063616c6c6572206973206e6f7420746865206f776e65726044820152606401610583565b600061086a8888610b76565b905060006108c5826040517f19457468657265756d205369676e6564204d6573736167653a0a3332000000006020820152603c8101829052600090605c01604051602081830303815290604052805190602001209050919050565b90506108d96000546001600160a01b031690565b6001600160a01b03166108ec828661137a565b6001600160a01b0316146109425760405162461bcd60e51b815260206004820152601b60248201527f54686973206973206e6f7420736967656e64206279206f776e657200000000006044820152606401610583565b60005b87518110156109a75760006001600160a01b031688828151811061097957634e487b7160e01b600052603260045260246000fd5b60200260200101516001600160a01b0316141561099557600080fd5b8061099f81611feb565b915050610945565b5060005b8751811015610b355760035487516001600160a01b03909116906340c10f199030908a90859081106109ed57634e487b7160e01b600052603260045260246000fd5b60200260200101516040518363ffffffff1660e01b8152600401610a269291906001600160a01b03929092168252602082015260400190565b602060405180830381600087803b158015610a4057600080fd5b505af1158015610a54573d6000803e3d6000fd5b505050506040513d601f19601f82011682018060405250810190610a789190611de9565b610ab05760405162461bcd60e51b81526020600482015260096024820152681b5a5b9d0819985a5b60ba1b6044820152606401610583565b610b23878281518110610ad357634e487b7160e01b600052603260045260246000fd5b6020026020010151898381518110610afb57634e487b7160e01b600052603260045260246000fd5b602002602001015188848151811061076d57634e487b7160e01b600052603260045260246000fd5b80610b2d81611feb565b9150506109ab565b5060019998505050505050505050565b60076020528160005260406000208181548110610b6157600080fd5b90600052602060002001600091509150505481565b6040516bffffffffffffffffffffffff19606084901b166020820152603481018290526000906054016040516020818303038152906040528051906020012090505b92915050565b6000546001600160a01b03163314610c185760405162461bcd60e51b815260206004820181905260248201527f4f776e61626c653a2063616c6c6572206973206e6f7420746865206f776e65726044820152606401610583565b610c2260006118dd565b565b60026001541415610c775760405162461bcd60e51b815260206004820152601f60248201527f5265656e7472616e637947756172643a207265656e7472616e742063616c6c006044820152606401610583565b6002600181905550600060088381548110610ca257634e487b7160e01b600052603260045260246000fd5b600091825260209091206005600690920201908101549091506001600160a01b03163314610d125760405162461bcd60e51b815260206004820152600e60248201527f4c6f636b204d69736d61746368210000000000000000000000000000000000006044820152606401610583565b42816003015410610d655760405162461bcd60e51b815260206004820152601560248201527f43616e6e6e6f74207769746864726177207965742100000000000000000000006044820152606401610583565b6001810154610d74908361193a565b60018201819055610e2b5733600090815260076020526040902080548190610d9e90600190611fd4565b81548110610dbc57634e487b7160e01b600052603260045260246000fd5b9060005260206000200154818681548110610de757634e487b7160e01b600052603260045260246000fd5b906000526020600020018190555080805480610e1357634e487b7160e01b600052603160045260246000fd5b60019003818190600052602060002001600090559055505b6003546040516370a0823160e01b81523060048201526000916001600160a01b0316906370a082319060240160206040518083038186803b158015610e6f57600080fd5b505afa158015610e83573d6000803e3d6000fd5b505050506040513d601f19601f82011682018060405250810190610ea79190611ea1565b905082811015610f9b576003546001600160a01b03166340c10f1930610ecd868561193a565b6040517fffffffff0000000000000000000000000000000000000000000000000000000060e085901b1681526001600160a01b0390921660048301526024820152604401602060405180830381600087803b158015610f2b57600080fd5b505af1158015610f3f573d6000803e3d6000fd5b505050506040513d601f19601f82011682018060405250810190610f639190611de9565b610f9b5760405162461bcd60e51b81526020600482015260096024820152681b5a5b9d0819985a5b60ba1b6044820152606401610583565b60035460405163a9059cbb60e01b8152336004820152602481018590526001600160a01b039091169063a9059cbb90604401602060405180830381600087803b158015610fe757600080fd5b505af1158015610ffb573d6000803e3d6000fd5b505050506040513d601f19601f8201168201806040525081019061101f9190611de9565b50506001805550505050565b6000546001600160a01b031633146110855760405162461bcd60e51b815260206004820181905260248201527f4f776e61626c653a2063616c6c6572206973206e6f7420746865206f776e65726044820152606401610583565b61109060058261194d565b5050565b6110bb670de0b6b3a76400006110b58360045461196290919063ffffffff16565b9061196e565b34146111095760405162461bcd60e51b815260206004820152601060248201527f4e6f7420656e6f7567682076616c7565000000000000000000000000000000006044820152606401610583565b6003546040516370a0823160e01b81523060048201526000916001600160a01b0316906370a082319060240160206040518083038186803b15801561114d57600080fd5b505afa158015611161573d6000803e3d6000fd5b505050506040513d601f19601f820116820180604052508101906111859190611ea1565b905081811015611243576003546001600160a01b03166340c10f19306111ab858561193a565b6040517fffffffff0000000000000000000000000000000000000000000000000000000060e085901b1681526001600160a01b0390921660048301526024820152604401602060405180830381600087803b15801561120957600080fd5b505af115801561121d573d6000803e3d6000fd5b505050506040513d601f19601f820116820180604052508101906112419190611de9565b505b60035460405163a9059cbb60e01b8152336004820152602481018490526001600160a01b039091169063a9059cbb90604401602060405180830381600087803b15801561128f57600080fd5b505af11580156112a3573d6000803e3d6000fd5b505050506040513d601f19601f820116820180604052508101906112c79190611de9565b505050565b6000546001600160a01b031633146113265760405162461bcd60e51b815260206004820181905260248201527f4f776e61626c653a2063616c6c6572206973206e6f7420746865206f776e65726044820152606401610583565b600455565b6008818154811061133b57600080fd5b6000918252602090912060069091020180546001820154600283015460038401546004850154600590950154939550919390926001600160a01b031686565b600080600080611389856113f9565b6040805160008152602081018083528b905260ff8316918101919091526060810184905260808101839052929550909350915060019060a0016020604051602081039080840390855afa1580156113e4573d6000803e3d6000fd5b5050604051601f190151979650505050505050565b6000806000835160411461144f5760405162461bcd60e51b815260206004820152601860248201527f696e76616c6964207369676e6174757265206c656e67746800000000000000006044820152606401610583565b50505060208101516040820151606090920151909260009190911a90565b6114af6040518060c00160405280600081526020016000815260200160008152602001600081526020016000815260200160006001600160a01b031681525090565b600882815481106114d057634e487b7160e01b600052603260045260246000fd5b60009182526020918290206040805160c08101825260069093029091018054835260018101549383019390935260028301549082015260038201546060820152600482015460808201526005909101546001600160a01b031660a082015292915050565b6000546001600160a01b0316331461158e5760405162461bcd60e51b815260206004820181905260248201527f4f776e61626c653a2063616c6c6572206973206e6f7420746865206f776e65726044820152606401610583565b6001600160a01b03811661160a5760405162461bcd60e51b815260206004820152602660248201527f4f776e61626c653a206e6577206f776e657220697320746865207a65726f206160448201527f64647265737300000000000000000000000000000000000000000000000000006064820152608401610583565b611613816118dd565b50565b6000546001600160a01b031633146116705760405162461bcd60e51b815260206004820181905260248201527f4f776e61626c653a2063616c6c6572206973206e6f7420746865206f776e65726044820152606401610583565b61109060058261197a565b60038111156116cc5760405162461bcd60e51b815260206004820152601a60248201527f4d6178206e756d626572206f662076657374696e6720697320330000000000006044820152606401610583565b8260006116d9828461196e565b905042620151808160005b868110156118d25761172e6040518060c00160405280600081526020016000815260200160008152602001600081526020016000815260200160006001600160a01b031681525090565b848152602081018690526117576117508561174a856001611f7d565b90611962565b849061198f565b606082018181526001600160a01b038b811660a08501818152600880546080880181815260018083018455600093845289517ff3f7a9fe364faab93b216da50a3214154f22a0a2b415b23a84c8169e8b636ee36006909402938401556020808b01517ff3f7a9fe364faab93b216da50a3214154f22a0a2b415b23a84c8169e8b636ee485015560409a8b01517ff3f7a9fe364faab93b216da50a3214154f22a0a2b415b23a84c8169e8b636ee585015597517ff3f7a9fe364faab93b216da50a3214154f22a0a2b415b23a84c8169e8b636ee684015581517ff3f7a9fe364faab93b216da50a3214154f22a0a2b415b23a84c8169e8b636ee784015593517ff3f7a9fe364faab93b216da50a3214154f22a0a2b415b23a84c8169e8b636ee8909201805473ffffffffffffffffffffffffffffffffffffffff191692909616919091179094559182526007845294812091518254958601835591815291909120909201919091559150806118ca81611feb565b9150506116e4565b505050505050505050565b600080546001600160a01b0383811673ffffffffffffffffffffffffffffffffffffffff19831681178455604051919092169283917f8be0079c531659141344cd1fd0a4f28419497f9722a3daafe3b4186f6b6457e09190a35050565b60006119468284611fd4565b9392505050565b6000611946836001600160a01b03841661199b565b60006119468284611fb5565b60006119468284611f95565b6000611946836001600160a01b038416611ab8565b60006119468284611f7d565b60008181526001830160205260408120548015611aae5760006119bf600183611fd4565b85549091506000906119d390600190611fd4565b9050818114611a54576000866000018281548110611a0157634e487b7160e01b600052603260045260246000fd5b9060005260206000200154905080876000018481548110611a3257634e487b7160e01b600052603260045260246000fd5b6000918252602080832090910192909255918252600188019052604090208390555b8554869080611a7357634e487b7160e01b600052603160045260246000fd5b600190038181906000526020600020016000905590558560010160008681526020019081526020016000206000905560019350505050610bb8565b6000915050610bb8565b6000818152600183016020526040812054611aff57508154600181810184556000848152602080822090930184905584548482528286019093526040902091909155610bb8565b506000610bb8565b80356001600160a01b0381168114611b1e57600080fd5b919050565b600082601f830112611b33578081fd5b81356020611b48611b4383611f59565b611f28565b80838252828201915082860187848660051b8901011115611b67578586fd5b855b85811015611b8c57611b7a82611b07565b84529284019290840190600101611b69565b5090979650505050505050565b600082601f830112611ba9578081fd5b81356020611bb9611b4383611f59565b80838252828201915082860187848660051b8901011115611bd8578586fd5b855b85811015611b8c57813584529284019290840190600101611bda565b600082601f830112611c06578081fd5b813567ffffffffffffffff811115611c2057611c2061201c565b611c33601f8201601f1916602001611f28565b818152846020838601011115611c47578283fd5b816020850160208301379081016020019190915292915050565b600060208284031215611c72578081fd5b61194682611b07565b60008060408385031215611c8d578081fd5b611c9683611b07565b946020939093013593505050565b60008060008060008060c08789031215611cbc578182fd5b611cc587611b07565b955060208701359450604087013567ffffffffffffffff80821115611ce8578384fd5b611cf48a838b01611b23565b95506060890135915080821115611d09578384fd5b611d158a838b01611b99565b94506080890135915080821115611d2a578384fd5b611d368a838b01611b99565b935060a0890135915080821115611d4b578283fd5b50611d5889828a01611bf6565b9150509295509295509295565b600080600060608486031215611d79578283fd5b833567ffffffffffffffff80821115611d90578485fd5b611d9c87838801611b23565b94506020860135915080821115611db1578384fd5b611dbd87838801611b99565b93506040860135915080821115611dd2578283fd5b50611ddf86828701611b99565b9150509250925092565b600060208284031215611dfa578081fd5b81518015158114611946578182fd5b600060208284031215611e1a578081fd5b5035919050565b60008060408385031215611e33578182fd5b82359150602083013567ffffffffffffffff811115611e50578182fd5b611e5c85828601611bf6565b9150509250929050565b600060208284031215611e77578081fd5b813567ffffffffffffffff811115611e8d578182fd5b611e9984828501611bf6565b949350505050565b600060208284031215611eb2578081fd5b5051919050565b600080600060608486031215611ecd578283fd5b505081359360208301359350604090920135919050565b6020808252825182820181905260009190848201906040850190845b81811015611f1c57835183529284019291840191600101611f00565b50909695505050505050565b604051601f8201601f1916810167ffffffffffffffff81118282101715611f5157611f5161201c565b604052919050565b600067ffffffffffffffff821115611f7357611f7361201c565b5060051b60200190565b60008219821115611f9057611f90612006565b500190565b600082611fb057634e487b7160e01b81526012600452602481fd5b500490565b6000816000190483118215151615611fcf57611fcf612006565b500290565b600082821015611fe657611fe6612006565b500390565b6000600019821415611fff57611fff612006565b5060010190565b634e487b7160e01b600052601160045260246000fd5b634e487b7160e01b600052604160045260246000fdfea264697066735822122048aa1a22da203e603892f7b64afb2a3ea03db4b02a8062c2b3b261abfc9cc16064736f6c63430008040033",
  "linkReferences": {},
  "deployedLinkReferences": {}
}