{
  "_format": "hh-sol-artifact-1",
  "contractName": "AkitaAirdrop",
  "sourceName": "contracts/AkitaAirdrop.sol",
  "abi": [
    {
      "inputs": [
        {
          "internalType": "address",
          "name": "_token",
          "type": "address"
        }
      ],
      "stateMutability": "nonpayable",
      "type": "constructor"
    },
    {
      "anonymous": false,
      "inputs": [
        {
          "indexed": true,
          "internalType": "address",
          "name": "previousOwner",
          "type": "address"
        },
        {
          "indexed": true,
          "internalType": "address",
          "name": "newOwner",
          "type": "address"
        }
      ],
      "name": "OwnershipTransferred",
      "type": "event"
    },
    {
      "inputs": [
        {
          "internalType": "address",
          "name": "_account",
          "type": "address"
        }
      ],
      "name": "addWhitelist",
      "outputs": [],
      "stateMutability": "nonpayable",
      "type": "function"
    },
    {
      "inputs": [
        {
          "internalType": "address[]",
          "name": "_recipients",
          "type": "address[]"
        },
        {
          "internalType": "uint256[]",
          "name": "_amount",
          "type": "uint256[]"
        }
      ],
      "name": "dropTokens",
      "outputs": [
        {
          "internalType": "bool",
          "name": "",
          "type": "bool"
        }
      ],
      "stateMutability": "nonpayable",
      "type": "function"
    },
    {
      "inputs": [],
      "name": "owner",
      "outputs": [
        {
          "internalType": "address",
          "name": "",
          "type": "address"
        }
      ],
      "stateMutability": "view",
      "type": "function"
    },
    {
      "inputs": [],
      "name": "price",
      "outputs": [
        {
          "internalType": "uint256",
          "name": "",
          "type": "uint256"
        }
      ],
      "stateMutability": "view",
      "type": "function"
    },
    {
      "inputs": [
        {
          "internalType": "uint256",
          "name": "_amount",
          "type": "uint256"
        }
      ],
      "name": "purchaseTokens",
      "outputs": [],
      "stateMutability": "payable",
      "type": "function"
    },
    {
      "inputs": [
        {
          "internalType": "address",
          "name": "_account",
          "type": "address"
        }
      ],
      "name": "removeWhitelist",
      "outputs": [],
      "stateMutability": "nonpayable",
      "type": "function"
    },
    {
      "inputs": [],
      "name": "renounceOwnership",
      "outputs": [],
      "stateMutability": "nonpayable",
      "type": "function"
    },
    {
      "inputs": [
        {
          "internalType": "uint256",
          "name": "_price",
          "type": "uint256"
        }
      ],
      "name": "setPrice",
      "outputs": [],
      "stateMutability": "nonpayable",
      "type": "function"
    },
    {
      "inputs": [],
      "name": "signer",
      "outputs": [
        {
          "internalType": "address",
          "name": "",
          "type": "address"
        }
      ],
      "stateMutability": "view",
      "type": "function"
    },
    {
      "inputs": [],
      "name": "token",
      "outputs": [
        {
          "internalType": "address",
          "name": "",
          "type": "address"
        }
      ],
      "stateMutability": "view",
      "type": "function"
    },
    {
      "inputs": [
        {
          "internalType": "address",
          "name": "newOwner",
          "type": "address"
        }
      ],
      "name": "transferOwnership",
      "outputs": [],
      "stateMutability": "nonpayable",
      "type": "function"
    }
  ],
  "bytecode": "0x60806040523480156200001157600080fd5b5060405162001ec538038062001ec5833981810160405281019062000037919062000182565b620000576200004b6200009f60201b60201c565b620000a760201b60201c565b80600260006101000a81548173ffffffffffffffffffffffffffffffffffffffff021916908373ffffffffffffffffffffffffffffffffffffffff16021790555050620001fc565b600033905090565b60008060009054906101000a900473ffffffffffffffffffffffffffffffffffffffff169050816000806101000a81548173ffffffffffffffffffffffffffffffffffffffff021916908373ffffffffffffffffffffffffffffffffffffffff1602179055508173ffffffffffffffffffffffffffffffffffffffff168173ffffffffffffffffffffffffffffffffffffffff167f8be0079c531659141344cd1fd0a4f28419497f9722a3daafe3b4186f6b6457e060405160405180910390a35050565b6000815190506200017c81620001e2565b92915050565b6000602082840312156200019557600080fd5b6000620001a5848285016200016b565b91505092915050565b6000620001bb82620001c2565b9050919050565b600073ffffffffffffffffffffffffffffffffffffffff82169050919050565b620001ed81620001ae565b8114620001f957600080fd5b50565b611cb9806200020c6000396000f3fe60806040526004361061009c5760003560e01c80638da5cb5b116100645780638da5cb5b1461016557806391b7f5ed14610190578063a035b1fe146101b9578063f2fde38b146101e4578063f80f5dd51461020d578063fc0c546a146102365761009c565b8063238ac933146100a15780635422bdb5146100cc578063715018a61461010957806378c8cda7146101205780637b97008d14610149575b600080fd5b3480156100ad57600080fd5b506100b6610261565b6040516100c391906116f2565b60405180910390f35b3480156100d857600080fd5b506100f360048036038101906100ee91906114e9565b610287565b6040516101009190611736565b60405180910390f35b34801561011557600080fd5b5061011e610968565b005b34801561012c57600080fd5b50610147600480360381019061014291906114c0565b6109f0565b005b610163600480360381019061015e919061157e565b610a84565b005b34801561017157600080fd5b5061017a610d22565b60405161018791906116f2565b60405180910390f35b34801561019c57600080fd5b506101b760048036038101906101b2919061157e565b610d4b565b005b3480156101c557600080fd5b506101ce610dd1565b6040516101db9190611831565b60405180910390f35b3480156101f057600080fd5b5061020b600480360381019061020691906114c0565b610dd7565b005b34801561021957600080fd5b50610234600480360381019061022f91906114c0565b610ecf565b005b34801561024257600080fd5b5061024b610f63565b60405161025891906116f2565b60405180910390f35b600160009054906101000a900473ffffffffffffffffffffffffffffffffffffffff1681565b6000610291610f89565b73ffffffffffffffffffffffffffffffffffffffff166102af610d22565b73ffffffffffffffffffffffffffffffffffffffff1614610305576040517f08c379a00000000000000000000000000000000000000000000000000000000081526004016102fc906117b1565b60405180910390fd5b60005b83518110156104fe57600073ffffffffffffffffffffffffffffffffffffffff16848281518110610362577f4e487b7100000000000000000000000000000000000000000000000000000000600052603260045260246000fd5b602002602001015173ffffffffffffffffffffffffffffffffffffffff16141561038b57600080fd5b6103df8482815181106103c7577f4e487b7100000000000000000000000000000000000000000000000000000000600052603260045260246000fd5b60200260200101516004610f9190919063ffffffff16565b61041e576040517f08c379a0000000000000000000000000000000000000000000000000000000008152600401610415906117f1565b60405180910390fd5b6006600085838151811061045b577f4e487b7100000000000000000000000000000000000000000000000000000000600052603260045260246000fd5b602002602001015173ffffffffffffffffffffffffffffffffffffffff1673ffffffffffffffffffffffffffffffffffffffff16815260200190815260200160002060009054906101000a900460ff16156104eb576040517f08c379a00000000000000000000000000000000000000000000000000000000081526004016104e290611791565b60405180910390fd5b80806104f690611a12565b915050610308565b5060005b835181101561095d576000600260009054906101000a900473ffffffffffffffffffffffffffffffffffffffff1673ffffffffffffffffffffffffffffffffffffffff166370a08231306040518263ffffffff1660e01b815260040161056891906116f2565b60206040518083038186803b15801561058057600080fd5b505afa158015610594573d6000803e3d6000fd5b505050506040513d601f19601f820116820180604052508101906105b891906115a7565b90508382815181106105f3577f4e487b7100000000000000000000000000000000000000000000000000000000600052603260045260246000fd5b602002602001015181101561074357600260009054906101000a900473ffffffffffffffffffffffffffffffffffffffff1673ffffffffffffffffffffffffffffffffffffffff166340c10f19306106948488878151811061067e577f4e487b7100000000000000000000000000000000000000000000000000000000600052603260045260246000fd5b6020026020010151610fc190919063ffffffff16565b6040518363ffffffff1660e01b81526004016106b192919061170d565b602060405180830381600087803b1580156106cb57600080fd5b505af11580156106df573d6000803e3d6000fd5b505050506040513d601f19601f820116820180604052508101906107039190611555565b610742576040517f08c379a000000000000000000000000000000000000000000000000000000000815260040161073990611811565b60405180910390fd5b5b600260009054906101000a900473ffffffffffffffffffffffffffffffffffffffff1673ffffffffffffffffffffffffffffffffffffffff1663a9059cbb8684815181106107ba577f4e487b7100000000000000000000000000000000000000000000000000000000600052603260045260246000fd5b60200260200101518685815181106107fb577f4e487b7100000000000000000000000000000000000000000000000000000000600052603260045260246000fd5b60200260200101516040518363ffffffff1660e01b815260040161082092919061170d565b602060405180830381600087803b15801561083a57600080fd5b505af115801561084e573d6000803e3d6000fd5b505050506040513d601f19601f820116820180604052508101906108729190611555565b6108b1576040517f08c379a00000000000000000000000000000000000000000000000000000000081526004016108a8906117d1565b60405180910390fd5b6001600660008785815181106108f0577f4e487b7100000000000000000000000000000000000000000000000000000000600052603260045260246000fd5b602002602001015173ffffffffffffffffffffffffffffffffffffffff1673ffffffffffffffffffffffffffffffffffffffff16815260200190815260200160002060006101000a81548160ff02191690831515021790555050808061095590611a12565b915050610502565b506001905092915050565b610970610f89565b73ffffffffffffffffffffffffffffffffffffffff1661098e610d22565b73ffffffffffffffffffffffffffffffffffffffff16146109e4576040517f08c379a00000000000000000000000000000000000000000000000000000000081526004016109db906117b1565b60405180910390fd5b6109ee6000610fd7565b565b6109f8610f89565b73ffffffffffffffffffffffffffffffffffffffff16610a16610d22565b73ffffffffffffffffffffffffffffffffffffffff1614610a6c576040517f08c379a0000000000000000000000000000000000000000000000000000000008152600401610a63906117b1565b60405180910390fd5b610a8081600461109b90919063ffffffff16565b5050565b610ab3670de0b6b3a7640000610aa5836003546110cb90919063ffffffff16565b6110e190919063ffffffff16565b3414610af4576040517f08c379a0000000000000000000000000000000000000000000000000000000008152600401610aeb90611771565b60405180910390fd5b6000600260009054906101000a900473ffffffffffffffffffffffffffffffffffffffff1673ffffffffffffffffffffffffffffffffffffffff166370a08231306040518263ffffffff1660e01b8152600401610b5191906116f2565b60206040518083038186803b158015610b6957600080fd5b505afa158015610b7d573d6000803e3d6000fd5b505050506040513d601f19601f82011682018060405250810190610ba191906115a7565b905081811015610c6e57600260009054906101000a900473ffffffffffffffffffffffffffffffffffffffff1673ffffffffffffffffffffffffffffffffffffffff166340c10f1930610bfd8486610fc190919063ffffffff16565b6040518363ffffffff1660e01b8152600401610c1a92919061170d565b602060405180830381600087803b158015610c3457600080fd5b505af1158015610c48573d6000803e3d6000fd5b505050506040513d601f19601f82011682018060405250810190610c6c9190611555565b505b600260009054906101000a900473ffffffffffffffffffffffffffffffffffffffff1673ffffffffffffffffffffffffffffffffffffffff1663a9059cbb33846040518363ffffffff1660e01b8152600401610ccb92919061170d565b602060405180830381600087803b158015610ce557600080fd5b505af1158015610cf9573d6000803e3d6000fd5b505050506040513d601f19601f82011682018060405250810190610d1d9190611555565b505050565b60008060009054906101000a900473ffffffffffffffffffffffffffffffffffffffff16905090565b610d53610f89565b73ffffffffffffffffffffffffffffffffffffffff16610d71610d22565b73ffffffffffffffffffffffffffffffffffffffff1614610dc7576040517f08c379a0000000000000000000000000000000000000000000000000000000008152600401610dbe906117b1565b60405180910390fd5b8060038190555050565b60035481565b610ddf610f89565b73ffffffffffffffffffffffffffffffffffffffff16610dfd610d22565b73ffffffffffffffffffffffffffffffffffffffff1614610e53576040517f08c379a0000000000000000000000000000000000000000000000000000000008152600401610e4a906117b1565b60405180910390fd5b600073ffffffffffffffffffffffffffffffffffffffff168173ffffffffffffffffffffffffffffffffffffffff161415610ec3576040517f08c379a0000000000000000000000000000000000000000000000000000000008152600401610eba90611751565b60405180910390fd5b610ecc81610fd7565b50565b610ed7610f89565b73ffffffffffffffffffffffffffffffffffffffff16610ef5610d22565b73ffffffffffffffffffffffffffffffffffffffff1614610f4b576040517f08c379a0000000000000000000000000000000000000000000000000000000008152600401610f42906117b1565b60405180910390fd5b610f5f8160046110f790919063ffffffff16565b5050565b600260009054906101000a900473ffffffffffffffffffffffffffffffffffffffff1681565b600033905090565b6000610fb9836000018373ffffffffffffffffffffffffffffffffffffffff1660001b611127565b905092915050565b60008183610fcf9190611965565b905092915050565b60008060009054906101000a900473ffffffffffffffffffffffffffffffffffffffff169050816000806101000a81548173ffffffffffffffffffffffffffffffffffffffff021916908373ffffffffffffffffffffffffffffffffffffffff1602179055508173ffffffffffffffffffffffffffffffffffffffff168173ffffffffffffffffffffffffffffffffffffffff167f8be0079c531659141344cd1fd0a4f28419497f9722a3daafe3b4186f6b6457e060405160405180910390a35050565b60006110c3836000018373ffffffffffffffffffffffffffffffffffffffff1660001b61114a565b905092915050565b600081836110d9919061190b565b905092915050565b600081836110ef91906118da565b905092915050565b600061111f836000018373ffffffffffffffffffffffffffffffffffffffff1660001b6112d0565b905092915050565b600080836001016000848152602001908152602001600020541415905092915050565b600080836001016000848152602001908152602001600020549050600081146112c457600060018261117c9190611965565b90506000600186600001805490506111949190611965565b905081811461124f5760008660000182815481106111db577f4e487b7100000000000000000000000000000000000000000000000000000000600052603260045260246000fd5b9060005260206000200154905080876000018481548110611225577f4e487b7100000000000000000000000000000000000000000000000000000000600052603260045260246000fd5b90600052602060002001819055508387600101600083815260200190815260200160002081905550505b85600001805480611289577f4e487b7100000000000000000000000000000000000000000000000000000000600052603160045260246000fd5b6001900381819060005260206000200160009055905585600101600086815260200190815260200160002060009055600193505050506112ca565b60009150505b92915050565b60006112dc8383611127565b61133557826000018290806001815401808255809150506001900390600052602060002001600090919091909150558260000180549050836001016000848152602001908152602001600020819055506001905061133a565b600090505b92915050565b600061135361134e84611871565b61184c565b9050808382526020820190508285602086028201111561137257600080fd5b60005b858110156113a257816113888882611418565b845260208401935060208301925050600181019050611375565b5050509392505050565b60006113bf6113ba8461189d565b61184c565b905080838252602082019050828560208602820111156113de57600080fd5b60005b8581101561140e57816113f48882611496565b8452602084019350602083019250506001810190506113e1565b5050509392505050565b60008135905061142781611c3e565b92915050565b600082601f83011261143e57600080fd5b813561144e848260208601611340565b91505092915050565b600082601f83011261146857600080fd5b81356114788482602086016113ac565b91505092915050565b60008151905061149081611c55565b92915050565b6000813590506114a581611c6c565b92915050565b6000815190506114ba81611c6c565b92915050565b6000602082840312156114d257600080fd5b60006114e084828501611418565b91505092915050565b600080604083850312156114fc57600080fd5b600083013567ffffffffffffffff81111561151657600080fd5b6115228582860161142d565b925050602083013567ffffffffffffffff81111561153f57600080fd5b61154b85828601611457565b9150509250929050565b60006020828403121561156757600080fd5b600061157584828501611481565b91505092915050565b60006020828403121561159057600080fd5b600061159e84828501611496565b91505092915050565b6000602082840312156115b957600080fd5b60006115c7848285016114ab565b91505092915050565b6115d981611999565b82525050565b6115e8816119ab565b82525050565b60006115fb6026836118c9565b915061160682611af9565b604082019050919050565b600061161e6010836118c9565b915061162982611b48565b602082019050919050565b60006116416014836118c9565b915061164c82611b71565b602082019050919050565b60006116646020836118c9565b915061166f82611b9a565b602082019050919050565b6000611687600d836118c9565b915061169282611bc3565b602082019050919050565b60006116aa600d836118c9565b91506116b582611bec565b602082019050919050565b60006116cd6009836118c9565b91506116d882611c15565b602082019050919050565b6116ec816119d7565b82525050565b600060208201905061170760008301846115d0565b92915050565b600060408201905061172260008301856115d0565b61172f60208301846116e3565b9392505050565b600060208201905061174b60008301846115df565b92915050565b6000602082019050818103600083015261176a816115ee565b9050919050565b6000602082019050818103600083015261178a81611611565b9050919050565b600060208201905081810360008301526117aa81611634565b9050919050565b600060208201905081810360008301526117ca81611657565b9050919050565b600060208201905081810360008301526117ea8161167a565b9050919050565b6000602082019050818103600083015261180a8161169d565b9050919050565b6000602082019050818103600083015261182a816116c0565b9050919050565b600060208201905061184660008301846116e3565b92915050565b6000611856611867565b905061186282826119e1565b919050565b6000604051905090565b600067ffffffffffffffff82111561188c5761188b611ab9565b5b602082029050602081019050919050565b600067ffffffffffffffff8211156118b8576118b7611ab9565b5b602082029050602081019050919050565b600082825260208201905092915050565b60006118e5826119d7565b91506118f0836119d7565b925082611900576118ff611a8a565b5b828204905092915050565b6000611916826119d7565b9150611921836119d7565b9250817fffffffffffffffffffffffffffffffffffffffffffffffffffffffffffffffff048311821515161561195a57611959611a5b565b5b828202905092915050565b6000611970826119d7565b915061197b836119d7565b92508282101561198e5761198d611a5b565b5b828203905092915050565b60006119a4826119b7565b9050919050565b60008115159050919050565b600073ffffffffffffffffffffffffffffffffffffffff82169050919050565b6000819050919050565b6119ea82611ae8565b810181811067ffffffffffffffff82111715611a0957611a08611ab9565b5b80604052505050565b6000611a1d826119d7565b91507fffffffffffffffffffffffffffffffffffffffffffffffffffffffffffffffff821415611a5057611a4f611a5b565b5b600182019050919050565b7f4e487b7100000000000000000000000000000000000000000000000000000000600052601160045260246000fd5b7f4e487b7100000000000000000000000000000000000000000000000000000000600052601260045260246000fd5b7f4e487b7100000000000000000000000000000000000000000000000000000000600052604160045260246000fd5b6000601f19601f8301169050919050565b7f4f776e61626c653a206e6577206f776e657220697320746865207a65726f206160008201527f6464726573730000000000000000000000000000000000000000000000000000602082015250565b7f4e6f7420656e6f7567682076616c756500000000000000000000000000000000600082015250565b7f596f7520616c726561647920636c61696d656421000000000000000000000000600082015250565b7f4f776e61626c653a2063616c6c6572206973206e6f7420746865206f776e6572600082015250565b7f7472616e73666572206661696c00000000000000000000000000000000000000600082015250565b7f4e6f742077686974656c69737400000000000000000000000000000000000000600082015250565b7f6d696e74206661696c0000000000000000000000000000000000000000000000600082015250565b611c4781611999565b8114611c5257600080fd5b50565b611c5e816119ab565b8114611c6957600080fd5b50565b611c75816119d7565b8114611c8057600080fd5b5056fea264697066735822122087763a712fce278138fc46afbb8028d12935f52a54d077193fe8c1fc7b097a0464736f6c63430008040033",
  "linkReferences": {},
  "deployedLinkReferences": {}
}