{
  "_format": "hh-sol-artifact-1",
  "contractName": "AkitaAirdrop",
  "sourceName": "contracts/AkitaAirdrop.sol",
  "abi": [
    {
      "inputs": [
        {
          "internalType": "address",
          "name": "_token",
          "type": "address"
        }
      ],
      "stateMutability": "nonpayable",
      "type": "constructor"
    },
    {
      "anonymous": false,
      "inputs": [
        {
          "indexed": true,
          "internalType": "address",
          "name": "previousOwner",
          "type": "address"
        },
        {
          "indexed": true,
          "internalType": "address",
          "name": "newOwner",
          "type": "address"
        }
      ],
      "name": "OwnershipTransferred",
      "type": "event"
    },
    {
      "inputs": [
        {
          "internalType": "address",
          "name": "_account",
          "type": "address"
        }
      ],
      "name": "addWhitelist",
      "outputs": [],
      "stateMutability": "nonpayable",
      "type": "function"
    },
    {
      "inputs": [
        {
          "internalType": "address[]",
          "name": "_recipients",
          "type": "address[]"
        },
        {
          "internalType": "uint256[]",
          "name": "_amount",
          "type": "uint256[]"
        }
      ],
      "name": "dropTokens",
      "outputs": [
        {
          "internalType": "bool",
          "name": "",
          "type": "bool"
        }
      ],
      "stateMutability": "nonpayable",
      "type": "function"
    },
    {
      "inputs": [],
      "name": "owner",
      "outputs": [
        {
          "internalType": "address",
          "name": "",
          "type": "address"
        }
      ],
      "stateMutability": "view",
      "type": "function"
    },
    {
      "inputs": [],
      "name": "price",
      "outputs": [
        {
          "internalType": "uint256",
          "name": "",
          "type": "uint256"
        }
      ],
      "stateMutability": "view",
      "type": "function"
    },
    {
      "inputs": [
        {
          "internalType": "uint256",
          "name": "_amount",
          "type": "uint256"
        }
      ],
      "name": "purchaseTokens",
      "outputs": [],
      "stateMutability": "payable",
      "type": "function"
    },
    {
      "inputs": [
        {
          "internalType": "address",
          "name": "_account",
          "type": "address"
        }
      ],
      "name": "removeWhitelist",
      "outputs": [],
      "stateMutability": "nonpayable",
      "type": "function"
    },
    {
      "inputs": [],
      "name": "renounceOwnership",
      "outputs": [],
      "stateMutability": "nonpayable",
      "type": "function"
    },
    {
      "inputs": [
        {
          "internalType": "uint256",
          "name": "_price",
          "type": "uint256"
        }
      ],
      "name": "setPrice",
      "outputs": [],
      "stateMutability": "nonpayable",
      "type": "function"
    },
    {
      "inputs": [],
      "name": "signer",
      "outputs": [
        {
          "internalType": "address",
          "name": "",
          "type": "address"
        }
      ],
      "stateMutability": "view",
      "type": "function"
    },
    {
      "inputs": [],
      "name": "token",
      "outputs": [
        {
          "internalType": "address",
          "name": "",
          "type": "address"
        }
      ],
      "stateMutability": "view",
      "type": "function"
    },
    {
      "inputs": [
        {
          "internalType": "address",
          "name": "newOwner",
          "type": "address"
        }
      ],
      "name": "transferOwnership",
      "outputs": [],
      "stateMutability": "nonpayable",
      "type": "function"
    }
  ],
  "bytecode": "0x608060405234801561001057600080fd5b5060405161129b38038061129b83398101604081905261002f916100ad565b6100383361005d565b600280546001600160a01b0319166001600160a01b03929092169190911790556100db565b600080546001600160a01b038381166001600160a01b0319831681178455604051919092169283917f8be0079c531659141344cd1fd0a4f28419497f9722a3daafe3b4186f6b6457e09190a35050565b6000602082840312156100be578081fd5b81516001600160a01b03811681146100d4578182fd5b9392505050565b6111b1806100ea6000396000f3fe6080604052600436106100bc5760003560e01c80638da5cb5b11610074578063f2fde38b1161004e578063f2fde38b146101da578063f80f5dd5146101fa578063fc0c546a1461021a57600080fd5b80638da5cb5b1461017857806391b7f5ed14610196578063a035b1fe146101b657600080fd5b8063715018a6116100a5578063715018a61461012e57806378c8cda7146101455780637b97008d1461016557600080fd5b8063238ac933146100c15780635422bdb5146100fe575b600080fd5b3480156100cd57600080fd5b506001546100e1906001600160a01b031681565b6040516001600160a01b0390911681526020015b60405180910390f35b34801561010a57600080fd5b5061011e610119366004610f78565b61023a565b60405190151581526020016100f5565b34801561013a57600080fd5b506101436107c6565b005b34801561015157600080fd5b50610143610160366004610f5e565b61082c565b610143610173366004611059565b610895565b34801561018457600080fd5b506000546001600160a01b03166100e1565b3480156101a257600080fd5b506101436101b1366004611059565b610ae6565b3480156101c257600080fd5b506101cc60035481565b6040519081526020016100f5565b3480156101e657600080fd5b506101436101f5366004610f5e565b610b45565b34801561020657600080fd5b50610143610215366004610f5e565b610c27565b34801561022657600080fd5b506002546100e1906001600160a01b031681565b600080546001600160a01b0316331461029a5760405162461bcd60e51b815260206004820181905260248201527f4f776e61626c653a2063616c6c6572206973206e6f7420746865206f776e657260448201526064015b60405180910390fd5b60005b835181101561041e5760006001600160a01b03168482815181106102d157634e487b7160e01b600052603260045260246000fd5b60200260200101516001600160a01b031614156102ed57600080fd5b61032884828151811061031057634e487b7160e01b600052603260045260246000fd5b60200260200101516004610c8c90919063ffffffff16565b6103745760405162461bcd60e51b815260206004820152600d60248201527f4e6f742077686974656c697374000000000000000000000000000000000000006044820152606401610291565b6006600085838151811061039857634e487b7160e01b600052603260045260246000fd5b6020908102919091018101516001600160a01b031682528101919091526040016000205460ff161561040c5760405162461bcd60e51b815260206004820152601460248201527f596f7520616c726561647920636c61696d6564210000000000000000000000006044820152606401610291565b8061041681611134565b91505061029d565b5060005b83518110156107ba576002546040516370a0823160e01b81523060048201526000916001600160a01b0316906370a082319060240160206040518083038186803b15801561046f57600080fd5b505afa158015610483573d6000803e3d6000fd5b505050506040513d601f19601f820116820180604052508101906104a79190611071565b90508382815181106104c957634e487b7160e01b600052603260045260246000fd5b602002602001015181101561061957600260009054906101000a90046001600160a01b03166001600160a01b03166340c10f19306105378488878151811061052157634e487b7160e01b600052603260045260246000fd5b6020026020010151610cb190919063ffffffff16565b6040517fffffffff0000000000000000000000000000000000000000000000000000000060e085901b1681526001600160a01b0390921660048301526024820152604401602060405180830381600087803b15801561059557600080fd5b505af11580156105a9573d6000803e3d6000fd5b505050506040513d601f19601f820116820180604052508101906105cd9190611039565b6106195760405162461bcd60e51b815260206004820152600960248201527f6d696e74206661696c00000000000000000000000000000000000000000000006044820152606401610291565b60025485516001600160a01b039091169063a9059cbb9087908590811061065057634e487b7160e01b600052603260045260246000fd5b602002602001015186858151811061067857634e487b7160e01b600052603260045260246000fd5b60200260200101516040518363ffffffff1660e01b81526004016106b19291906001600160a01b03929092168252602082015260400190565b602060405180830381600087803b1580156106cb57600080fd5b505af11580156106df573d6000803e3d6000fd5b505050506040513d601f19601f820116820180604052508101906107039190611039565b61074f5760405162461bcd60e51b815260206004820152600d60248201527f7472616e73666572206661696c000000000000000000000000000000000000006044820152606401610291565b60016006600087858151811061077557634e487b7160e01b600052603260045260246000fd5b6020908102919091018101516001600160a01b03168252810191909152604001600020805460ff191691151591909117905550806107b281611134565b915050610422565b50600190505b92915050565b6000546001600160a01b031633146108205760405162461bcd60e51b815260206004820181905260248201527f4f776e61626c653a2063616c6c6572206973206e6f7420746865206f776e65726044820152606401610291565b61082a6000610cbd565b565b6000546001600160a01b031633146108865760405162461bcd60e51b815260206004820181905260248201527f4f776e61626c653a2063616c6c6572206973206e6f7420746865206f776e65726044820152606401610291565b610891600482610d25565b5050565b6108bc670de0b6b3a76400006108b683600354610d3a90919063ffffffff16565b90610d46565b341461090a5760405162461bcd60e51b815260206004820152601060248201527f4e6f7420656e6f7567682076616c7565000000000000000000000000000000006044820152606401610291565b6002546040516370a0823160e01b81523060048201526000916001600160a01b0316906370a082319060240160206040518083038186803b15801561094e57600080fd5b505afa158015610962573d6000803e3d6000fd5b505050506040513d601f19601f820116820180604052508101906109869190611071565b905081811015610a44576002546001600160a01b03166340c10f19306109ac8585610cb1565b6040517fffffffff0000000000000000000000000000000000000000000000000000000060e085901b1681526001600160a01b0390921660048301526024820152604401602060405180830381600087803b158015610a0a57600080fd5b505af1158015610a1e573d6000803e3d6000fd5b505050506040513d601f19601f82011682018060405250810190610a429190611039565b505b6002546040517fa9059cbb000000000000000000000000000000000000000000000000000000008152336004820152602481018490526001600160a01b039091169063a9059cbb90604401602060405180830381600087803b158015610aa957600080fd5b505af1158015610abd573d6000803e3d6000fd5b505050506040513d601f19601f82011682018060405250810190610ae19190611039565b505050565b6000546001600160a01b03163314610b405760405162461bcd60e51b815260206004820181905260248201527f4f776e61626c653a2063616c6c6572206973206e6f7420746865206f776e65726044820152606401610291565b600355565b6000546001600160a01b03163314610b9f5760405162461bcd60e51b815260206004820181905260248201527f4f776e61626c653a2063616c6c6572206973206e6f7420746865206f776e65726044820152606401610291565b6001600160a01b038116610c1b5760405162461bcd60e51b815260206004820152602660248201527f4f776e61626c653a206e6577206f776e657220697320746865207a65726f206160448201527f64647265737300000000000000000000000000000000000000000000000000006064820152608401610291565b610c2481610cbd565b50565b6000546001600160a01b03163314610c815760405162461bcd60e51b815260206004820181905260248201527f4f776e61626c653a2063616c6c6572206973206e6f7420746865206f776e65726044820152606401610291565b610891600482610d52565b6001600160a01b038116600090815260018301602052604081205415155b9392505050565b6000610caa828461111d565b600080546001600160a01b038381167fffffffffffffffffffffffff0000000000000000000000000000000000000000831681178455604051919092169283917f8be0079c531659141344cd1fd0a4f28419497f9722a3daafe3b4186f6b6457e09190a35050565b6000610caa836001600160a01b038416610d67565b6000610caa82846110fe565b6000610caa82846110de565b6000610caa836001600160a01b038416610e84565b60008181526001830160205260408120548015610e7a576000610d8b60018361111d565b8554909150600090610d9f9060019061111d565b9050818114610e20576000866000018281548110610dcd57634e487b7160e01b600052603260045260246000fd5b9060005260206000200154905080876000018481548110610dfe57634e487b7160e01b600052603260045260246000fd5b6000918252602080832090910192909255918252600188019052604090208390555b8554869080610e3f57634e487b7160e01b600052603160045260246000fd5b6001900381819060005260206000200160009055905585600101600086815260200190815260200160002060009055600193505050506107c0565b60009150506107c0565b6000818152600183016020526040812054610ecb575081546001818101845560008481526020808220909301849055845484825282860190935260409020919091556107c0565b5060006107c0565b80356001600160a01b0381168114610eea57600080fd5b919050565b600082601f830112610eff578081fd5b81356020610f14610f0f836110ba565b611089565b80838252828201915082860187848660051b8901011115610f33578586fd5b855b85811015610f5157813584529284019290840190600101610f35565b5090979650505050505050565b600060208284031215610f6f578081fd5b610caa82610ed3565b60008060408385031215610f8a578081fd5b823567ffffffffffffffff80821115610fa1578283fd5b818501915085601f830112610fb4578283fd5b81356020610fc4610f0f836110ba565b8083825282820191508286018a848660051b8901011115610fe3578788fd5b8796505b8487101561100c57610ff881610ed3565b835260019690960195918301918301610fe7565b5096505086013592505080821115611022578283fd5b5061102f85828601610eef565b9150509250929050565b60006020828403121561104a578081fd5b81518015158114610caa578182fd5b60006020828403121561106a578081fd5b5035919050565b600060208284031215611082578081fd5b5051919050565b604051601f8201601f1916810167ffffffffffffffff811182821017156110b2576110b2611165565b604052919050565b600067ffffffffffffffff8211156110d4576110d4611165565b5060051b60200190565b6000826110f957634e487b7160e01b81526012600452602481fd5b500490565b60008160001904831182151516156111185761111861114f565b500290565b60008282101561112f5761112f61114f565b500390565b60006000198214156111485761114861114f565b5060010190565b634e487b7160e01b600052601160045260246000fd5b634e487b7160e01b600052604160045260246000fdfea26469706673582212207d23e5325d3b6e80cf51bc8617ee142311df5960c5dbc0fe22c2dee6683a605d64736f6c63430008040033",
  "linkReferences": {},
  "deployedLinkReferences": {}
}