{
  "_format": "hh-sol-artifact-1",
  "contractName": "AkitaAirdrop",
  "sourceName": "contracts/AkitaAirdrop.sol",
  "abi": [
    {
      "inputs": [
        {
          "internalType": "address",
          "name": "_token",
          "type": "address"
        }
      ],
      "stateMutability": "nonpayable",
      "type": "constructor"
    },
    {
      "anonymous": false,
      "inputs": [
        {
          "indexed": true,
          "internalType": "bytes32",
          "name": "role",
          "type": "bytes32"
        },
        {
          "indexed": true,
          "internalType": "bytes32",
          "name": "previousAdminRole",
          "type": "bytes32"
        },
        {
          "indexed": true,
          "internalType": "bytes32",
          "name": "newAdminRole",
          "type": "bytes32"
        }
      ],
      "name": "RoleAdminChanged",
      "type": "event"
    },
    {
      "anonymous": false,
      "inputs": [
        {
          "indexed": true,
          "internalType": "bytes32",
          "name": "role",
          "type": "bytes32"
        },
        {
          "indexed": true,
          "internalType": "address",
          "name": "account",
          "type": "address"
        },
        {
          "indexed": true,
          "internalType": "address",
          "name": "sender",
          "type": "address"
        }
      ],
      "name": "RoleGranted",
      "type": "event"
    },
    {
      "anonymous": false,
      "inputs": [
        {
          "indexed": true,
          "internalType": "bytes32",
          "name": "role",
          "type": "bytes32"
        },
        {
          "indexed": true,
          "internalType": "address",
          "name": "account",
          "type": "address"
        },
        {
          "indexed": true,
          "internalType": "address",
          "name": "sender",
          "type": "address"
        }
      ],
      "name": "RoleRevoked",
      "type": "event"
    },
    {
      "inputs": [],
      "name": "AIRDROP_ROLE",
      "outputs": [
        {
          "internalType": "bytes32",
          "name": "",
          "type": "bytes32"
        }
      ],
      "stateMutability": "view",
      "type": "function"
    },
    {
      "inputs": [],
      "name": "DEFAULT_ADMIN_ROLE",
      "outputs": [
        {
          "internalType": "bytes32",
          "name": "",
          "type": "bytes32"
        }
      ],
      "stateMutability": "view",
      "type": "function"
    },
    {
      "inputs": [
        {
          "internalType": "address",
          "name": "_signer",
          "type": "address"
        },
        {
          "internalType": "uint256",
          "name": "_nonce",
          "type": "uint256"
        },
        {
          "internalType": "address[]",
          "name": "_recipients",
          "type": "address[]"
        },
        {
          "internalType": "uint256[]",
          "name": "_amount",
          "type": "uint256[]"
        },
        {
          "internalType": "uint256[]",
          "name": "_no_of_vestings",
          "type": "uint256[]"
        },
        {
          "internalType": "bytes",
          "name": "signature",
          "type": "bytes"
        }
      ],
      "name": "bulkDropTokens",
      "outputs": [
        {
          "internalType": "bool",
          "name": "",
          "type": "bool"
        }
      ],
      "stateMutability": "nonpayable",
      "type": "function"
    },
    {
      "inputs": [
        {
          "internalType": "address[]",
          "name": "_recipients",
          "type": "address[]"
        },
        {
          "internalType": "uint256[]",
          "name": "_amount",
          "type": "uint256[]"
        },
        {
          "internalType": "uint256[]",
          "name": "_no_of_vestings",
          "type": "uint256[]"
        }
      ],
      "name": "dropTokens",
      "outputs": [
        {
          "internalType": "bool",
          "name": "",
          "type": "bool"
        }
      ],
      "stateMutability": "nonpayable",
      "type": "function"
    },
    {
      "inputs": [
        {
          "internalType": "bytes32",
          "name": "_messageHash",
          "type": "bytes32"
        }
      ],
      "name": "getEthSignedMessageHash",
      "outputs": [
        {
          "internalType": "bytes32",
          "name": "",
          "type": "bytes32"
        }
      ],
      "stateMutability": "pure",
      "type": "function"
    },
    {
      "inputs": [
        {
          "internalType": "uint256",
          "name": "_index",
          "type": "uint256"
        }
      ],
      "name": "getLock",
      "outputs": [
        {
          "components": [
            {
              "internalType": "uint256",
              "name": "lockDate",
              "type": "uint256"
            },
            {
              "internalType": "uint256",
              "name": "amount",
              "type": "uint256"
            },
            {
              "internalType": "uint256",
              "name": "intialAmount",
              "type": "uint256"
            },
            {
              "internalType": "uint256",
              "name": "unlockDate",
              "type": "uint256"
            },
            {
              "internalType": "uint256",
              "name": "lockID",
              "type": "uint256"
            },
            {
              "internalType": "address",
              "name": "owner",
              "type": "address"
            }
          ],
          "internalType": "struct AkitaAirdrop.TokenLock",
          "name": "",
          "type": "tuple"
        }
      ],
      "stateMutability": "view",
      "type": "function"
    },
    {
      "inputs": [
        {
          "internalType": "address",
          "name": "_signer",
          "type": "address"
        },
        {
          "internalType": "uint256",
          "name": "_nonce",
          "type": "uint256"
        }
      ],
      "name": "getMessageHash",
      "outputs": [
        {
          "internalType": "bytes32",
          "name": "",
          "type": "bytes32"
        }
      ],
      "stateMutability": "pure",
      "type": "function"
    },
    {
      "inputs": [
        {
          "internalType": "bytes32",
          "name": "role",
          "type": "bytes32"
        }
      ],
      "name": "getRoleAdmin",
      "outputs": [
        {
          "internalType": "bytes32",
          "name": "",
          "type": "bytes32"
        }
      ],
      "stateMutability": "view",
      "type": "function"
    },
    {
      "inputs": [
        {
          "internalType": "address",
          "name": "_account",
          "type": "address"
        }
      ],
      "name": "getUserLocks",
      "outputs": [
        {
          "internalType": "uint256[]",
          "name": "",
          "type": "uint256[]"
        }
      ],
      "stateMutability": "view",
      "type": "function"
    },
    {
      "inputs": [
        {
          "internalType": "address",
          "name": "account",
          "type": "address"
        }
      ],
      "name": "grantAirdropRole",
      "outputs": [],
      "stateMutability": "nonpayable",
      "type": "function"
    },
    {
      "inputs": [
        {
          "internalType": "bytes32",
          "name": "role",
          "type": "bytes32"
        },
        {
          "internalType": "address",
          "name": "account",
          "type": "address"
        }
      ],
      "name": "grantRole",
      "outputs": [],
      "stateMutability": "nonpayable",
      "type": "function"
    },
    {
      "inputs": [
        {
          "internalType": "bytes32",
          "name": "role",
          "type": "bytes32"
        },
        {
          "internalType": "address",
          "name": "account",
          "type": "address"
        }
      ],
      "name": "hasRole",
      "outputs": [
        {
          "internalType": "bool",
          "name": "",
          "type": "bool"
        }
      ],
      "stateMutability": "view",
      "type": "function"
    },
    {
      "inputs": [
        {
          "internalType": "address",
          "name": "",
          "type": "address"
        },
        {
          "internalType": "uint256",
          "name": "",
          "type": "uint256"
        }
      ],
      "name": "locksForUsers",
      "outputs": [
        {
          "internalType": "uint256",
          "name": "",
          "type": "uint256"
        }
      ],
      "stateMutability": "view",
      "type": "function"
    },
    {
      "inputs": [],
      "name": "price",
      "outputs": [
        {
          "internalType": "uint256",
          "name": "",
          "type": "uint256"
        }
      ],
      "stateMutability": "view",
      "type": "function"
    },
    {
      "inputs": [
        {
          "internalType": "uint256",
          "name": "_amount",
          "type": "uint256"
        }
      ],
      "name": "purchaseTokens",
      "outputs": [],
      "stateMutability": "payable",
      "type": "function"
    },
    {
      "inputs": [
        {
          "internalType": "bytes32",
          "name": "_ethSignedMessageHash",
          "type": "bytes32"
        },
        {
          "internalType": "bytes",
          "name": "_signature",
          "type": "bytes"
        }
      ],
      "name": "recoverSigner",
      "outputs": [
        {
          "internalType": "address",
          "name": "",
          "type": "address"
        }
      ],
      "stateMutability": "pure",
      "type": "function"
    },
    {
      "inputs": [
        {
          "internalType": "bytes32",
          "name": "role",
          "type": "bytes32"
        },
        {
          "internalType": "address",
          "name": "account",
          "type": "address"
        }
      ],
      "name": "renounceRole",
      "outputs": [],
      "stateMutability": "nonpayable",
      "type": "function"
    },
    {
      "inputs": [
        {
          "internalType": "bytes32",
          "name": "role",
          "type": "bytes32"
        },
        {
          "internalType": "address",
          "name": "account",
          "type": "address"
        }
      ],
      "name": "revokeRole",
      "outputs": [],
      "stateMutability": "nonpayable",
      "type": "function"
    },
    {
      "inputs": [
        {
          "internalType": "uint256",
          "name": "_price",
          "type": "uint256"
        }
      ],
      "name": "setPrice",
      "outputs": [],
      "stateMutability": "nonpayable",
      "type": "function"
    },
    {
      "inputs": [],
      "name": "signer",
      "outputs": [
        {
          "internalType": "address",
          "name": "",
          "type": "address"
        }
      ],
      "stateMutability": "view",
      "type": "function"
    },
    {
      "inputs": [
        {
          "internalType": "bytes",
          "name": "sig",
          "type": "bytes"
        }
      ],
      "name": "splitSignature",
      "outputs": [
        {
          "internalType": "bytes32",
          "name": "r",
          "type": "bytes32"
        },
        {
          "internalType": "bytes32",
          "name": "s",
          "type": "bytes32"
        },
        {
          "internalType": "uint8",
          "name": "v",
          "type": "uint8"
        }
      ],
      "stateMutability": "pure",
      "type": "function"
    },
    {
      "inputs": [
        {
          "internalType": "bytes4",
          "name": "interfaceId",
          "type": "bytes4"
        }
      ],
      "name": "supportsInterface",
      "outputs": [
        {
          "internalType": "bool",
          "name": "",
          "type": "bool"
        }
      ],
      "stateMutability": "view",
      "type": "function"
    },
    {
      "inputs": [],
      "name": "token",
      "outputs": [
        {
          "internalType": "address",
          "name": "",
          "type": "address"
        }
      ],
      "stateMutability": "view",
      "type": "function"
    },
    {
      "inputs": [
        {
          "internalType": "uint256",
          "name": "",
          "type": "uint256"
        }
      ],
      "name": "tokenLocks",
      "outputs": [
        {
          "internalType": "uint256",
          "name": "lockDate",
          "type": "uint256"
        },
        {
          "internalType": "uint256",
          "name": "amount",
          "type": "uint256"
        },
        {
          "internalType": "uint256",
          "name": "intialAmount",
          "type": "uint256"
        },
        {
          "internalType": "uint256",
          "name": "unlockDate",
          "type": "uint256"
        },
        {
          "internalType": "uint256",
          "name": "lockID",
          "type": "uint256"
        },
        {
          "internalType": "address",
          "name": "owner",
          "type": "address"
        }
      ],
      "stateMutability": "view",
      "type": "function"
    },
    {
      "inputs": [
        {
          "internalType": "uint256",
          "name": "_index",
          "type": "uint256"
        },
        {
          "internalType": "uint256",
          "name": "_lockID",
          "type": "uint256"
        },
        {
          "internalType": "uint256",
          "name": "_amount",
          "type": "uint256"
        }
      ],
      "name": "unlockToken",
      "outputs": [],
      "stateMutability": "nonpayable",
      "type": "function"
    }
  ],
  "bytecode": "0x60806040523480156200001157600080fd5b506040516200254b3803806200254b833981016040819052620000349162000134565b60018055600380546001600160a01b0319166001600160a01b0383161790556200006060003362000093565b6200008c7f3a2f235c9daaf33349d300aadff2f15078a89df81bcfdd45ba11c8f816bddc6f3362000093565b5062000164565b6000828152602081815260408083206001600160a01b038516845290915290205460ff1662000130576000828152602081815260408083206001600160a01b03851684529091529020805460ff19166001179055620000ef3390565b6001600160a01b0316816001600160a01b0316837f2f8788117e7eff1d82e926ec794901d17c78024a50270940304540a733656f0d60405160405180910390a45b5050565b60006020828403121562000146578081fd5b81516001600160a01b03811681146200015d578182fd5b9392505050565b6123d780620001746000396000f3fe6080604052600436106101955760003560e01c806371d18a06116100e1578063a035b1fe1161008a578063d547741f11610064578063d547741f14610540578063d68f4dd114610560578063fa540801146105d5578063fc0c546a1461064357600080fd5b8063a035b1fe146104d7578063a217fddf146104ed578063a7bb58031461050257600080fd5b806391d14854116100bb57806391d148541461041d578063946ca9491461046157806397aba7f9146104b757600080fd5b806371d18a06146103ca5780637b97008d146103ea57806391b7f5ed146103fd57600080fd5b8063248a9ca31161014357806336568abe1161011d57806336568abe146103285780633969ca5914610348578063512c91df1461036857600080fd5b8063248a9ca3146102b85780632f2ff15d146102e85780632f9be3631461030857600080fd5b80631e0fbfa2116101745780631e0fbfa214610211578063238ac9331461025357806323a35de91461028b57600080fd5b8062e59e411461019a57806301ffc9a7146101bc578063088225b9146101f1575b600080fd5b3480156101a657600080fd5b506101ba6101b5366004611e82565b610663565b005b3480156101c857600080fd5b506101dc6101d73660046120b2565b61069c565b60405190151581526020015b60405180910390f35b3480156101fd57600080fd5b506101dc61020c366004611f86565b610705565b34801561021d57600080fd5b506102457f3a2f235c9daaf33349d300aadff2f15078a89df81bcfdd45ba11c8f816bddc6f81565b6040519081526020016101e8565b34801561025f57600080fd5b50600254610273906001600160a01b031681565b6040516001600160a01b0390911681526020016101e8565b34801561029757600080fd5b506102ab6102a6366004611e82565b610a61565b6040516101e891906121d9565b3480156102c457600080fd5b506102456102d336600461202a565b60009081526020819052604090206001015490565b3480156102f457600080fd5b506101ba610303366004612042565b610acd565b34801561031457600080fd5b506101dc610323366004611ec5565b610af7565b34801561033457600080fd5b506101ba610343366004612042565b610eed565b34801561035457600080fd5b50610245610363366004611e9c565b610f75565b34801561037457600080fd5b50610245610383366004611e9c565b6040516bffffffffffffffffffffffff19606084901b1660208201526034810182905260009060540160405160208183030381529060405280519060200120905092915050565b3480156103d657600080fd5b506101ba6103e536600461212d565b610fa6565b6101ba6103f836600461202a565b61123c565b34801561040957600080fd5b506101ba61041836600461202a565b611457565b34801561042957600080fd5b506101dc610438366004612042565b6000918252602082815260408084206001600160a01b0393909316845291905290205460ff1690565b34801561046d57600080fd5b5061048161047c36600461202a565b611487565b60408051968752602087019590955293850192909252606084015260808301526001600160a01b031660a082015260c0016101e8565b3480156104c357600080fd5b506102736104d236600461206d565b6114d6565b3480156104e357600080fd5b5061024560045481565b3480156104f957600080fd5b50610245600081565b34801561050e57600080fd5b5061052261051d3660046120da565b611555565b60408051938452602084019290925260ff16908201526060016101e8565b34801561054c57600080fd5b506101ba61055b366004612042565b6115c9565b34801561056c57600080fd5b5061058061057b36600461202a565b6115ee565b6040516101e89190600060c08201905082518252602083015160208301526040830151604083015260608301516060830152608083015160808301526001600160a01b0360a08401511660a083015292915050565b3480156105e157600080fd5b506102456105f036600461202a565b6040517f19457468657265756d205369676e6564204d6573736167653a0a3332000000006020820152603c8101829052600090605c01604051602081830303815290604052805190602001209050919050565b34801561064f57600080fd5b50600354610273906001600160a01b031681565b600061066e816116b5565b6106987f3a2f235c9daaf33349d300aadff2f15078a89df81bcfdd45ba11c8f816bddc6f836116c2565b5050565b60006001600160e01b031982167f7965db0b0000000000000000000000000000000000000000000000000000000014806106ff57507f01ffc9a7000000000000000000000000000000000000000000000000000000006001600160e01b03198316145b92915050565b60007f3a2f235c9daaf33349d300aadff2f15078a89df81bcfdd45ba11c8f816bddc6f610731816116b5565b60005b85518110156107965760006001600160a01b031686828151811061076857634e487b7160e01b600052603260045260246000fd5b60200260200101516001600160a01b0316141561078457600080fd5b8061078e8161235a565b915050610734565b5060005b8551811015610a55576003546040516370a0823160e01b81523060048201526000916001600160a01b0316906370a082319060240160206040518083038186803b1580156107e757600080fd5b505afa1580156107fb573d6000803e3d6000fd5b505050506040513d601f19601f8201168201806040525081019061081f9190612115565b905085828151811061084157634e487b7160e01b600052603260045260246000fd5b602002602001015181101561096a57600360009054906101000a90046001600160a01b03166001600160a01b03166340c10f19306108af848a878151811061089957634e487b7160e01b600052603260045260246000fd5b602002602001015161176090919063ffffffff16565b6040516001600160e01b031960e085901b1681526001600160a01b0390921660048301526024820152604401602060405180830381600087803b1580156108f557600080fd5b505af1158015610909573d6000803e3d6000fd5b505050506040513d601f19601f8201168201806040525081019061092d919061200a565b61096a5760405162461bcd60e51b81526020600482015260096024820152681b5a5b9d0819985a5b60ba1b60448201526064015b60405180910390fd5b6109ea86838151811061098d57634e487b7160e01b600052603260045260246000fd5b60200260200101518884815181106109b557634e487b7160e01b600052603260045260246000fd5b60200260200101518785815181106109dd57634e487b7160e01b600052603260045260246000fd5b6020026020010151611773565b600160096000898581518110610a1057634e487b7160e01b600052603260045260246000fd5b6020908102919091018101516001600160a01b03168252810191909152604001600020805460ff19169115159190911790555080610a4d8161235a565b91505061079a565b50600195945050505050565b6001600160a01b038116600090815260076020908152604091829020805483518184028101840190945280845260609392830182828015610ac157602002820191906000526020600020905b815481526020019060010190808311610aad575b50505050509050919050565b600082815260208190526040902060010154610ae8816116b5565b610af283836116c2565b505050565b60007f3a2f235c9daaf33349d300aadff2f15078a89df81bcfdd45ba11c8f816bddc6f610b23816116b5565b604080516bffffffffffffffffffffffff1960608b901b1660208083019190915260348083018b9052835180840390910181526054830184528051908201207f19457468657265756d205369676e6564204d6573736167653a0a333200000000607484015260908084018290528451808503909101815260b090930190935281519101206000610bb382876114d6565b9050610bdf7f3a2f235c9daaf33349d300aadff2f15078a89df81bcfdd45ba11c8f816bddc6f826119e0565b60005b8951811015610c445760006001600160a01b03168a8281518110610c1657634e487b7160e01b600052603260045260246000fd5b60200260200101516001600160a01b03161415610c3257600080fd5b80610c3c8161235a565b915050610be2565b5060005b8951811015610edb576003546040516370a0823160e01b81523060048201526000916001600160a01b0316906370a082319060240160206040518083038186803b158015610c9557600080fd5b505afa158015610ca9573d6000803e3d6000fd5b505050506040513d601f19601f82011682018060405250810190610ccd9190612115565b9050898281518110610cef57634e487b7160e01b600052603260045260246000fd5b6020026020010151811015610dfd57600360009054906101000a90046001600160a01b03166001600160a01b03166340c10f1930610d47848e878151811061089957634e487b7160e01b600052603260045260246000fd5b6040516001600160e01b031960e085901b1681526001600160a01b0390921660048301526024820152604401602060405180830381600087803b158015610d8d57600080fd5b505af1158015610da1573d6000803e3d6000fd5b505050506040513d601f19601f82011682018060405250810190610dc5919061200a565b610dfd5760405162461bcd60e51b81526020600482015260096024820152681b5a5b9d0819985a5b60ba1b6044820152606401610961565b610e708a8381518110610e2057634e487b7160e01b600052603260045260246000fd5b60200260200101518c8481518110610e4857634e487b7160e01b600052603260045260246000fd5b60200260200101518b85815181106109dd57634e487b7160e01b600052603260045260246000fd5b6001600960008d8581518110610e9657634e487b7160e01b600052603260045260246000fd5b6020908102919091018101516001600160a01b03168252810191909152604001600020805460ff19169115159190911790555080610ed38161235a565b915050610c48565b5060019b9a5050505050505050505050565b6001600160a01b0381163314610f6b5760405162461bcd60e51b815260206004820152602f60248201527f416363657373436f6e74726f6c3a2063616e206f6e6c792072656e6f756e636560448201527f20726f6c657320666f722073656c6600000000000000000000000000000000006064820152608401610961565b6106988282611a5e565b60076020528160005260406000208181548110610f9157600080fd5b90600052602060002001600091509150505481565b60026001541415610ff95760405162461bcd60e51b815260206004820152601f60248201527f5265656e7472616e637947756172643a207265656e7472616e742063616c6c006044820152606401610961565b600260018190555060006008838154811061102457634e487b7160e01b600052603260045260246000fd5b600091825260209091206005600690920201908101549091506001600160a01b031633146110945760405162461bcd60e51b815260206004820152600e60248201527f4c6f636b204d69736d61746368210000000000000000000000000000000000006044820152606401610961565b428160030154106110e75760405162461bcd60e51b815260206004820152601560248201527f43616e6e6e6f74207769746864726177207965742100000000000000000000006044820152606401610961565b60018101546110f69083611760565b600182018190556111ad5733600090815260076020526040902080548190611120906001906122fc565b8154811061113e57634e487b7160e01b600052603260045260246000fd5b906000526020600020015481868154811061116957634e487b7160e01b600052603260045260246000fd5b90600052602060002001819055508080548061119557634e487b7160e01b600052603160045260246000fd5b60019003818190600052602060002001600090559055505b60035460405163a9059cbb60e01b8152336004820152602481018490526001600160a01b039091169063a9059cbb90604401602060405180830381600087803b1580156111f957600080fd5b505af115801561120d573d6000803e3d6000fd5b505050506040513d601f19601f82011682018060405250810190611231919061200a565b505060018055505050565b611263670de0b6b3a764000061125d83600454611add90919063ffffffff16565b90611ae9565b34146112b15760405162461bcd60e51b815260206004820152601060248201527f4e6f7420656e6f7567682076616c7565000000000000000000000000000000006044820152606401610961565b6003546040516370a0823160e01b81523060048201526000916001600160a01b0316906370a082319060240160206040518083038186803b1580156112f557600080fd5b505afa158015611309573d6000803e3d6000fd5b505050506040513d601f19601f8201168201806040525081019061132d9190612115565b9050818110156113d3576003546001600160a01b03166340c10f19306113538585611760565b6040516001600160e01b031960e085901b1681526001600160a01b0390921660048301526024820152604401602060405180830381600087803b15801561139957600080fd5b505af11580156113ad573d6000803e3d6000fd5b505050506040513d601f19601f820116820180604052508101906113d1919061200a565b505b60035460405163a9059cbb60e01b8152336004820152602481018490526001600160a01b039091169063a9059cbb90604401602060405180830381600087803b15801561141f57600080fd5b505af1158015611433573d6000803e3d6000fd5b505050506040513d601f19601f82011682018060405250810190610af2919061200a565b7f3a2f235c9daaf33349d300aadff2f15078a89df81bcfdd45ba11c8f816bddc6f611481816116b5565b50600455565b6008818154811061149757600080fd5b6000918252602090912060069091020180546001820154600283015460038401546004850154600590950154939550919390926001600160a01b031686565b6000806000806114e585611555565b6040805160008152602081018083528b905260ff8316918101919091526060810184905260808101839052929550909350915060019060a0016020604051602081039080840390855afa158015611540573d6000803e3d6000fd5b5050604051601f190151979650505050505050565b600080600083516041146115ab5760405162461bcd60e51b815260206004820152601860248201527f696e76616c6964207369676e6174757265206c656e67746800000000000000006044820152606401610961565b50505060208101516040820151606090920151909260009190911a90565b6000828152602081905260409020600101546115e4816116b5565b610af28383611a5e565b6116306040518060c00160405280600081526020016000815260200160008152602001600081526020016000815260200160006001600160a01b031681525090565b6008828154811061165157634e487b7160e01b600052603260045260246000fd5b60009182526020918290206040805160c08101825260069093029091018054835260018101549383019390935260028301549082015260038201546060820152600482015460808201526005909101546001600160a01b031660a082015292915050565b6116bf81336119e0565b50565b6000828152602081815260408083206001600160a01b038516845290915290205460ff16610698576000828152602081815260408083206001600160a01b03851684529091529020805460ff1916600117905561171c3390565b6001600160a01b0316816001600160a01b0316837f2f8788117e7eff1d82e926ec794901d17c78024a50270940304540a733656f0d60405160405180910390a45050565b600061176c82846122fc565b9392505050565b60038111156117c45760405162461bcd60e51b815260206004820152601a60248201527f4d6178206e756d626572206f662076657374696e6720697320330000000000006044820152606401610961565b8260006117d18284611ae9565b905042620151808160005b868110156119d5576118266040518060c00160405280600081526020016000815260200160008152602001600081526020016000815260200160006001600160a01b031681525090565b8481526020810186905261184f611848856118428560016122a5565b90611add565b8490611af5565b606082018181526001600160a01b038b811660a08501818152600880546080880181815260018083018455600093845289517ff3f7a9fe364faab93b216da50a3214154f22a0a2b415b23a84c8169e8b636ee36006909402938401556020808b01517ff3f7a9fe364faab93b216da50a3214154f22a0a2b415b23a84c8169e8b636ee485015560409a8b01517ff3f7a9fe364faab93b216da50a3214154f22a0a2b415b23a84c8169e8b636ee585015597517ff3f7a9fe364faab93b216da50a3214154f22a0a2b415b23a84c8169e8b636ee684015581517ff3f7a9fe364faab93b216da50a3214154f22a0a2b415b23a84c8169e8b636ee784015593517ff3f7a9fe364faab93b216da50a3214154f22a0a2b415b23a84c8169e8b636ee890920180547fffffffffffffffffffffffff00000000000000000000000000000000000000001692909616919091179094559182526007845294812091518254958601835591815291909120909201919091559150806119cd8161235a565b9150506117dc565b505050505050505050565b6000828152602081815260408083206001600160a01b038516845290915290205460ff1661069857611a1c816001600160a01b03166014611b01565b611a27836020611b01565b604051602001611a38929190612158565b60408051601f198184030181529082905262461bcd60e51b82526109619160040161221d565b6000828152602081815260408083206001600160a01b038516845290915290205460ff1615610698576000828152602081815260408083206001600160a01b0385168085529252808320805460ff1916905551339285917ff6391f5c32d9c69d2a47ea670b442974b53935d1edc7fd64eb21e047a839171b9190a45050565b600061176c82846122dd565b600061176c82846122bd565b600061176c82846122a5565b60606000611b108360026122dd565b611b1b9060026122a5565b67ffffffffffffffff811115611b4157634e487b7160e01b600052604160045260246000fd5b6040519080825280601f01601f191660200182016040528015611b6b576020820181803683370190505b5090507f300000000000000000000000000000000000000000000000000000000000000081600081518110611bb057634e487b7160e01b600052603260045260246000fd5b60200101906001600160f81b031916908160001a9053507f780000000000000000000000000000000000000000000000000000000000000081600181518110611c0957634e487b7160e01b600052603260045260246000fd5b60200101906001600160f81b031916908160001a9053506000611c2d8460026122dd565b611c389060016122a5565b90505b6001811115611cd9577f303132333435363738396162636465660000000000000000000000000000000085600f1660108110611c8757634e487b7160e01b600052603260045260246000fd5b1a60f81b828281518110611cab57634e487b7160e01b600052603260045260246000fd5b60200101906001600160f81b031916908160001a90535060049490941c93611cd281612343565b9050611c3b565b50831561176c5760405162461bcd60e51b815260206004820181905260248201527f537472696e67733a20686578206c656e67746820696e73756666696369656e746044820152606401610961565b80356001600160a01b0381168114611d3f57600080fd5b919050565b600082601f830112611d54578081fd5b81356020611d69611d6483612281565b612250565b80838252828201915082860187848660051b8901011115611d88578586fd5b855b85811015611dad57611d9b82611d28565b84529284019290840190600101611d8a565b5090979650505050505050565b600082601f830112611dca578081fd5b81356020611dda611d6483612281565b80838252828201915082860187848660051b8901011115611df9578586fd5b855b85811015611dad57813584529284019290840190600101611dfb565b600082601f830112611e27578081fd5b813567ffffffffffffffff811115611e4157611e4161238b565b611e54601f8201601f1916602001612250565b818152846020838601011115611e68578283fd5b816020850160208301379081016020019190915292915050565b600060208284031215611e93578081fd5b61176c82611d28565b60008060408385031215611eae578081fd5b611eb783611d28565b946020939093013593505050565b60008060008060008060c08789031215611edd578182fd5b611ee687611d28565b955060208701359450604087013567ffffffffffffffff80821115611f09578384fd5b611f158a838b01611d44565b95506060890135915080821115611f2a578384fd5b611f368a838b01611dba565b94506080890135915080821115611f4b578384fd5b611f578a838b01611dba565b935060a0890135915080821115611f6c578283fd5b50611f7989828a01611e17565b9150509295509295509295565b600080600060608486031215611f9a578283fd5b833567ffffffffffffffff80821115611fb1578485fd5b611fbd87838801611d44565b94506020860135915080821115611fd2578384fd5b611fde87838801611dba565b93506040860135915080821115611ff3578283fd5b5061200086828701611dba565b9150509250925092565b60006020828403121561201b578081fd5b8151801515811461176c578182fd5b60006020828403121561203b578081fd5b5035919050565b60008060408385031215612054578182fd5b8235915061206460208401611d28565b90509250929050565b6000806040838503121561207f578182fd5b82359150602083013567ffffffffffffffff81111561209c578182fd5b6120a885828601611e17565b9150509250929050565b6000602082840312156120c3578081fd5b81356001600160e01b03198116811461176c578182fd5b6000602082840312156120eb578081fd5b813567ffffffffffffffff811115612101578182fd5b61210d84828501611e17565b949350505050565b600060208284031215612126578081fd5b5051919050565b600080600060608486031215612141578081fd5b505081359360208301359350604090920135919050565b7f416363657373436f6e74726f6c3a206163636f756e7420000000000000000000815260008351612190816017850160208801612313565b7f206973206d697373696e6720726f6c652000000000000000000000000000000060179184019182015283516121cd816028840160208801612313565b01602801949350505050565b6020808252825182820181905260009190848201906040850190845b81811015612211578351835292840192918401916001016121f5565b50909695505050505050565b602081526000825180602084015261223c816040850160208701612313565b601f01601f19169190910160400192915050565b604051601f8201601f1916810167ffffffffffffffff811182821017156122795761227961238b565b604052919050565b600067ffffffffffffffff82111561229b5761229b61238b565b5060051b60200190565b600082198211156122b8576122b8612375565b500190565b6000826122d857634e487b7160e01b81526012600452602481fd5b500490565b60008160001904831182151516156122f7576122f7612375565b500290565b60008282101561230e5761230e612375565b500390565b60005b8381101561232e578181015183820152602001612316565b8381111561233d576000848401525b50505050565b60008161235257612352612375565b506000190190565b600060001982141561236e5761236e612375565b5060010190565b634e487b7160e01b600052601160045260246000fd5b634e487b7160e01b600052604160045260246000fdfea2646970667358221220f3478c311189e049be9d8570c970d171e4452d7000860487b6d2a62022130a6b64736f6c63430008040033",
  "linkReferences": {},
  "deployedLinkReferences": {}
}