{
  "_format": "hh-sol-artifact-1",
  "contractName": "AkitaAirdrop",
  "sourceName": "contracts/AkitaAirdrop.sol",
  "abi": [
    {
      "inputs": [
        {
          "internalType": "address",
          "name": "_token",
          "type": "address"
        }
      ],
      "stateMutability": "nonpayable",
      "type": "constructor"
    },
    {
      "anonymous": false,
      "inputs": [
        {
          "indexed": true,
          "internalType": "address",
          "name": "previousOwner",
          "type": "address"
        },
        {
          "indexed": true,
          "internalType": "address",
          "name": "newOwner",
          "type": "address"
        }
      ],
      "name": "OwnershipTransferred",
      "type": "event"
    },
    {
      "inputs": [
        {
          "internalType": "address",
          "name": "_account",
          "type": "address"
        }
      ],
      "name": "addWhitelist",
      "outputs": [],
      "stateMutability": "nonpayable",
      "type": "function"
    },
    {
      "inputs": [
        {
          "internalType": "address[]",
          "name": "_recipients",
          "type": "address[]"
        },
        {
          "internalType": "uint256[]",
          "name": "_amount",
          "type": "uint256[]"
        },
        {
          "internalType": "uint256[]",
          "name": "_no_of_vestings",
          "type": "uint256[]"
        }
      ],
      "name": "dropTokens",
      "outputs": [
        {
          "internalType": "bool",
          "name": "",
          "type": "bool"
        }
      ],
      "stateMutability": "nonpayable",
      "type": "function"
    },
    {
      "inputs": [
        {
          "internalType": "uint256",
          "name": "_index",
          "type": "uint256"
        }
      ],
      "name": "getLock",
      "outputs": [
        {
          "components": [
            {
              "internalType": "uint256",
              "name": "lockDate",
              "type": "uint256"
            },
            {
              "internalType": "uint256",
              "name": "amount",
              "type": "uint256"
            },
            {
              "internalType": "uint256",
              "name": "intialAmount",
              "type": "uint256"
            },
            {
              "internalType": "uint256",
              "name": "unlockDate",
              "type": "uint256"
            },
            {
              "internalType": "uint256",
              "name": "lockID",
              "type": "uint256"
            },
            {
              "internalType": "address",
              "name": "owner",
              "type": "address"
            }
          ],
          "internalType": "struct AkitaAirdrop.TokenLock",
          "name": "",
          "type": "tuple"
        }
      ],
      "stateMutability": "view",
      "type": "function"
    },
    {
      "inputs": [
        {
          "internalType": "address",
          "name": "_account",
          "type": "address"
        }
      ],
      "name": "getUserLocks",
      "outputs": [
        {
          "internalType": "uint256[]",
          "name": "",
          "type": "uint256[]"
        }
      ],
      "stateMutability": "view",
      "type": "function"
    },
    {
      "inputs": [
        {
          "internalType": "address",
          "name": "",
          "type": "address"
        },
        {
          "internalType": "uint256",
          "name": "",
          "type": "uint256"
        }
      ],
      "name": "locksForUsers",
      "outputs": [
        {
          "internalType": "uint256",
          "name": "",
          "type": "uint256"
        }
      ],
      "stateMutability": "view",
      "type": "function"
    },
    {
      "inputs": [],
      "name": "owner",
      "outputs": [
        {
          "internalType": "address",
          "name": "",
          "type": "address"
        }
      ],
      "stateMutability": "view",
      "type": "function"
    },
    {
      "inputs": [],
      "name": "price",
      "outputs": [
        {
          "internalType": "uint256",
          "name": "",
          "type": "uint256"
        }
      ],
      "stateMutability": "view",
      "type": "function"
    },
    {
      "inputs": [
        {
          "internalType": "uint256",
          "name": "_amount",
          "type": "uint256"
        }
      ],
      "name": "purchaseTokens",
      "outputs": [],
      "stateMutability": "payable",
      "type": "function"
    },
    {
      "inputs": [
        {
          "internalType": "address",
          "name": "_account",
          "type": "address"
        }
      ],
      "name": "removeWhitelist",
      "outputs": [],
      "stateMutability": "nonpayable",
      "type": "function"
    },
    {
      "inputs": [],
      "name": "renounceOwnership",
      "outputs": [],
      "stateMutability": "nonpayable",
      "type": "function"
    },
    {
      "inputs": [
        {
          "internalType": "uint256",
          "name": "_price",
          "type": "uint256"
        }
      ],
      "name": "setPrice",
      "outputs": [],
      "stateMutability": "nonpayable",
      "type": "function"
    },
    {
      "inputs": [],
      "name": "signer",
      "outputs": [
        {
          "internalType": "address",
          "name": "",
          "type": "address"
        }
      ],
      "stateMutability": "view",
      "type": "function"
    },
    {
      "inputs": [],
      "name": "token",
      "outputs": [
        {
          "internalType": "address",
          "name": "",
          "type": "address"
        }
      ],
      "stateMutability": "view",
      "type": "function"
    },
    {
      "inputs": [
        {
          "internalType": "uint256",
          "name": "",
          "type": "uint256"
        }
      ],
      "name": "tokenLocks",
      "outputs": [
        {
          "internalType": "uint256",
          "name": "lockDate",
          "type": "uint256"
        },
        {
          "internalType": "uint256",
          "name": "amount",
          "type": "uint256"
        },
        {
          "internalType": "uint256",
          "name": "intialAmount",
          "type": "uint256"
        },
        {
          "internalType": "uint256",
          "name": "unlockDate",
          "type": "uint256"
        },
        {
          "internalType": "uint256",
          "name": "lockID",
          "type": "uint256"
        },
        {
          "internalType": "address",
          "name": "owner",
          "type": "address"
        }
      ],
      "stateMutability": "view",
      "type": "function"
    },
    {
      "inputs": [
        {
          "internalType": "address",
          "name": "newOwner",
          "type": "address"
        }
      ],
      "name": "transferOwnership",
      "outputs": [],
      "stateMutability": "nonpayable",
      "type": "function"
    },
    {
      "inputs": [
        {
          "internalType": "uint256",
          "name": "_index",
          "type": "uint256"
        },
        {
          "internalType": "uint256",
          "name": "_lockID",
          "type": "uint256"
        },
        {
          "internalType": "uint256",
          "name": "_amount",
          "type": "uint256"
        }
      ],
      "name": "unlockToken",
      "outputs": [],
      "stateMutability": "nonpayable",
      "type": "function"
    }
  ],
  "bytecode": "0x608060405234801561001057600080fd5b50604051611a2e380380611a2e83398101604081905261002f916100b1565b61003833610061565b60018055600380546001600160a01b0319166001600160a01b03929092169190911790556100df565b600080546001600160a01b038381166001600160a01b0319831681178455604051919092169283917f8be0079c531659141344cd1fd0a4f28419497f9722a3daafe3b4186f6b6457e09190a35050565b6000602082840312156100c2578081fd5b81516001600160a01b03811681146100d8578182fd5b9392505050565b611940806100ee6000396000f3fe6080604052600436106100f35760003560e01c80638da5cb5b1161008a578063d68f4dd111610059578063d68f4dd1146102d4578063f2fde38b14610349578063f80f5dd514610369578063fc0c546a1461038957600080fd5b80638da5cb5b1461022a57806391b7f5ed14610248578063946ca94914610268578063a035b1fe146102be57600080fd5b8063715018a6116100c6578063715018a6146101c057806371d18a06146101d757806378c8cda7146101f75780637b97008d1461021757600080fd5b8063088225b9146100f8578063238ac9331461012d57806323a35de9146101655780633969ca5914610192575b600080fd5b34801561010457600080fd5b50610118610113366004611656565b6103a9565b60405190151581526020015b60405180910390f35b34801561013957600080fd5b5060025461014d906001600160a01b031681565b6040516001600160a01b039091168152602001610124565b34801561017157600080fd5b50610185610180366004611613565b6107e6565b60405161012491906117bc565b34801561019e57600080fd5b506101b26101ad36600461162d565b610852565b604051908152602001610124565b3480156101cc57600080fd5b506101d5610883565b005b3480156101e357600080fd5b506101d56101f2366004611791565b6108e9565b34801561020357600080fd5b506101d5610212366004611613565b610b7f565b6101d5610225366004611761565b610be8565b34801561023657600080fd5b506000546001600160a01b031661014d565b34801561025457600080fd5b506101d5610263366004611761565b610e20565b34801561027457600080fd5b50610288610283366004611761565b610e7f565b60408051968752602087019590955293850192909252606084015260808301526001600160a01b031660a082015260c001610124565b3480156102ca57600080fd5b506101b260045481565b3480156102e057600080fd5b506102f46102ef366004611761565b610ece565b6040516101249190600060c08201905082518252602083015160208301526040830151604083015260608301516060830152608083015160808301526001600160a01b0360a08401511660a083015292915050565b34801561035557600080fd5b506101d5610364366004611613565b610f95565b34801561037557600080fd5b506101d5610384366004611613565b611077565b34801561039557600080fd5b5060035461014d906001600160a01b031681565b600080546001600160a01b031633146104095760405162461bcd60e51b815260206004820181905260248201527f4f776e61626c653a2063616c6c6572206973206e6f7420746865206f776e657260448201526064015b60405180910390fd5b60005b84518110156104f55760006001600160a01b031685828151811061044057634e487b7160e01b600052603260045260246000fd5b60200260200101516001600160a01b0316141561045c57600080fd5b61049785828151811061047f57634e487b7160e01b600052603260045260246000fd5b602002602001015160056110dc90919063ffffffff16565b6104e35760405162461bcd60e51b815260206004820152600d60248201527f4e6f742077686974656c697374000000000000000000000000000000000000006044820152606401610400565b806104ed816118c3565b91505061040c565b5060005b84518110156107db576003546040516370a0823160e01b81523060048201526000916001600160a01b0316906370a082319060240160206040518083038186803b15801561054657600080fd5b505afa15801561055a573d6000803e3d6000fd5b505050506040513d601f19601f8201168201806040525081019061057e9190611779565b90508482815181106105a057634e487b7160e01b600052603260045260246000fd5b60200260200101518110156106f057600360009054906101000a90046001600160a01b03166001600160a01b03166340c10f193061060e848987815181106105f857634e487b7160e01b600052603260045260246000fd5b602002602001015161110390919063ffffffff16565b6040517fffffffff0000000000000000000000000000000000000000000000000000000060e085901b1681526001600160a01b0390921660048301526024820152604401602060405180830381600087803b15801561066c57600080fd5b505af1158015610680573d6000803e3d6000fd5b505050506040513d601f19601f820116820180604052508101906106a4919061173a565b6106f05760405162461bcd60e51b815260206004820152600960248201527f6d696e74206661696c00000000000000000000000000000000000000000000006044820152606401610400565b61077085838151811061071357634e487b7160e01b600052603260045260246000fd5b602002602001015187848151811061073b57634e487b7160e01b600052603260045260246000fd5b602002602001015186858151811061076357634e487b7160e01b600052603260045260246000fd5b602002602001015161110f565b60016009600088858151811061079657634e487b7160e01b600052603260045260246000fd5b6020908102919091018101516001600160a01b03168252810191909152604001600020805460ff191691151591909117905550806107d3816118c3565b9150506104f9565b506001949350505050565b6001600160a01b03811660009081526007602090815260409182902080548351818402810184019094528084526060939283018282801561084657602002820191906000526020600020905b815481526020019060010190808311610832575b50505050509050919050565b6007602052816000526040600020818154811061086e57600080fd5b90600052602060002001600091509150505481565b6000546001600160a01b031633146108dd5760405162461bcd60e51b815260206004820181905260248201527f4f776e61626c653a2063616c6c6572206973206e6f7420746865206f776e65726044820152606401610400565b6108e76000611371565b565b6002600154141561093c5760405162461bcd60e51b815260206004820152601f60248201527f5265656e7472616e637947756172643a207265656e7472616e742063616c6c006044820152606401610400565b600260018190555060006008838154811061096757634e487b7160e01b600052603260045260246000fd5b600091825260209091206005600690920201908101549091506001600160a01b031633146109d75760405162461bcd60e51b815260206004820152600e60248201527f4c6f636b204d69736d61746368210000000000000000000000000000000000006044820152606401610400565b42816003015410610a2a5760405162461bcd60e51b815260206004820152601560248201527f43616e6e6e6f74207769746864726177207965742100000000000000000000006044820152606401610400565b6001810154610a399083611103565b60018201819055610af05733600090815260076020526040902080548190610a63906001906118ac565b81548110610a8157634e487b7160e01b600052603260045260246000fd5b9060005260206000200154818681548110610aac57634e487b7160e01b600052603260045260246000fd5b906000526020600020018190555080805480610ad857634e487b7160e01b600052603160045260246000fd5b60019003818190600052602060002001600090559055505b60035460405163a9059cbb60e01b8152336004820152602481018490526001600160a01b039091169063a9059cbb90604401602060405180830381600087803b158015610b3c57600080fd5b505af1158015610b50573d6000803e3d6000fd5b505050506040513d601f19601f82011682018060405250810190610b74919061173a565b505060018055505050565b6000546001600160a01b03163314610bd95760405162461bcd60e51b815260206004820181905260248201527f4f776e61626c653a2063616c6c6572206973206e6f7420746865206f776e65726044820152606401610400565b610be46005826113ce565b5050565b610c0f670de0b6b3a7640000610c09836004546113e390919063ffffffff16565b906113ef565b3414610c5d5760405162461bcd60e51b815260206004820152601060248201527f4e6f7420656e6f7567682076616c7565000000000000000000000000000000006044820152606401610400565b6003546040516370a0823160e01b81523060048201526000916001600160a01b0316906370a082319060240160206040518083038186803b158015610ca157600080fd5b505afa158015610cb5573d6000803e3d6000fd5b505050506040513d601f19601f82011682018060405250810190610cd99190611779565b905081811015610d97576003546001600160a01b03166340c10f1930610cff8585611103565b6040517fffffffff0000000000000000000000000000000000000000000000000000000060e085901b1681526001600160a01b0390921660048301526024820152604401602060405180830381600087803b158015610d5d57600080fd5b505af1158015610d71573d6000803e3d6000fd5b505050506040513d601f19601f82011682018060405250810190610d95919061173a565b505b60035460405163a9059cbb60e01b8152336004820152602481018490526001600160a01b039091169063a9059cbb90604401602060405180830381600087803b158015610de357600080fd5b505af1158015610df7573d6000803e3d6000fd5b505050506040513d601f19601f82011682018060405250810190610e1b919061173a565b505050565b6000546001600160a01b03163314610e7a5760405162461bcd60e51b815260206004820181905260248201527f4f776e61626c653a2063616c6c6572206973206e6f7420746865206f776e65726044820152606401610400565b600455565b60088181548110610e8f57600080fd5b6000918252602090912060069091020180546001820154600283015460038401546004850154600590950154939550919390926001600160a01b031686565b610f106040518060c00160405280600081526020016000815260200160008152602001600081526020016000815260200160006001600160a01b031681525090565b60088281548110610f3157634e487b7160e01b600052603260045260246000fd5b60009182526020918290206040805160c08101825260069093029091018054835260018101549383019390935260028301549082015260038201546060820152600482015460808201526005909101546001600160a01b031660a082015292915050565b6000546001600160a01b03163314610fef5760405162461bcd60e51b815260206004820181905260248201527f4f776e61626c653a2063616c6c6572206973206e6f7420746865206f776e65726044820152606401610400565b6001600160a01b03811661106b5760405162461bcd60e51b815260206004820152602660248201527f4f776e61626c653a206e6577206f776e657220697320746865207a65726f206160448201527f64647265737300000000000000000000000000000000000000000000000000006064820152608401610400565b61107481611371565b50565b6000546001600160a01b031633146110d15760405162461bcd60e51b815260206004820181905260248201527f4f776e61626c653a2063616c6c6572206973206e6f7420746865206f776e65726044820152606401610400565b610be46005826113fb565b6001600160a01b038116600090815260018301602052604081205415155b90505b92915050565b60006110fa82846118ac565b60038111156111605760405162461bcd60e51b815260206004820152601b60248201527f4d6178206e756d626572206f662076657374696e6720697320313200000000006044820152606401610400565b82600061116d82846113ef565b90504262278d008160005b86811015611366576111c26040518060c00160405280600081526020016000815260200160008152602001600081526020016000815260200160006001600160a01b031681525090565b848152602081018690526111eb6111e4856111de856001611855565b906113e3565b8490611410565b606082018181526001600160a01b038b811660a08501818152600880546080880181815260018083018455600093845289517ff3f7a9fe364faab93b216da50a3214154f22a0a2b415b23a84c8169e8b636ee36006909402938401556020808b01517ff3f7a9fe364faab93b216da50a3214154f22a0a2b415b23a84c8169e8b636ee485015560409a8b01517ff3f7a9fe364faab93b216da50a3214154f22a0a2b415b23a84c8169e8b636ee585015597517ff3f7a9fe364faab93b216da50a3214154f22a0a2b415b23a84c8169e8b636ee684015581517ff3f7a9fe364faab93b216da50a3214154f22a0a2b415b23a84c8169e8b636ee784015593517ff3f7a9fe364faab93b216da50a3214154f22a0a2b415b23a84c8169e8b636ee8909201805473ffffffffffffffffffffffffffffffffffffffff1916929096169190911790945591825260078452948120915182549586018355918152919091209092019190915591508061135e816118c3565b915050611178565b505050505050505050565b600080546001600160a01b0383811673ffffffffffffffffffffffffffffffffffffffff19831681178455604051919092169283917f8be0079c531659141344cd1fd0a4f28419497f9722a3daafe3b4186f6b6457e09190a35050565b60006110fa836001600160a01b03841661141c565b60006110fa828461188d565b60006110fa828461186d565b60006110fa836001600160a01b038416611539565b60006110fa8284611855565b6000818152600183016020526040812054801561152f5760006114406001836118ac565b8554909150600090611454906001906118ac565b90508181146114d557600086600001828154811061148257634e487b7160e01b600052603260045260246000fd5b90600052602060002001549050808760000184815481106114b357634e487b7160e01b600052603260045260246000fd5b6000918252602080832090910192909255918252600188019052604090208390555b85548690806114f457634e487b7160e01b600052603160045260246000fd5b6001900381819060005260206000200160009055905585600101600086815260200190815260200160002060009055600193505050506110fd565b60009150506110fd565b6000818152600183016020526040812054611580575081546001818101845560008481526020808220909301849055845484825282860190935260409020919091556110fd565b5060006110fd565b80356001600160a01b038116811461159f57600080fd5b919050565b600082601f8301126115b4578081fd5b813560206115c96115c483611831565b611800565b80838252828201915082860187848660051b89010111156115e8578586fd5b855b85811015611606578135845292840192908401906001016115ea565b5090979650505050505050565b600060208284031215611624578081fd5b6110fa82611588565b6000806040838503121561163f578081fd5b61164883611588565b946020939093013593505050565b60008060006060848603121561166a578081fd5b833567ffffffffffffffff80821115611681578283fd5b818601915086601f830112611694578283fd5b813560206116a46115c483611831565b8083825282820191508286018b848660051b89010111156116c3578788fd5b8796505b848710156116ec576116d881611588565b8352600196909601959183019183016116c7565b5097505087013592505080821115611702578283fd5b61170e878388016115a4565b93506040860135915080821115611723578283fd5b50611730868287016115a4565b9150509250925092565b60006020828403121561174b578081fd5b8151801515811461175a578182fd5b9392505050565b600060208284031215611772578081fd5b5035919050565b60006020828403121561178a578081fd5b5051919050565b6000806000606084860312156117a5578283fd5b505081359360208301359350604090920135919050565b6020808252825182820181905260009190848201906040850190845b818110156117f4578351835292840192918401916001016117d8565b50909695505050505050565b604051601f8201601f1916810167ffffffffffffffff81118282101715611829576118296118f4565b604052919050565b600067ffffffffffffffff82111561184b5761184b6118f4565b5060051b60200190565b60008219821115611868576118686118de565b500190565b60008261188857634e487b7160e01b81526012600452602481fd5b500490565b60008160001904831182151516156118a7576118a76118de565b500290565b6000828210156118be576118be6118de565b500390565b60006000198214156118d7576118d76118de565b5060010190565b634e487b7160e01b600052601160045260246000fd5b634e487b7160e01b600052604160045260246000fdfea26469706673582212209362c6d9bd0fe3560b94af1eca56193cdfb59ce2201aa4de059431eeb3fb096264736f6c63430008040033",
  "linkReferences": {},
  "deployedLinkReferences": {}
}