{
  "_format": "hh-sol-artifact-1",
  "contractName": "AkitaAirdrop",
  "sourceName": "contracts/AkitaAirdrop.sol",
  "abi": [
    {
      "inputs": [
        {
          "internalType": "address",
          "name": "_token",
          "type": "address"
        }
      ],
      "stateMutability": "nonpayable",
      "type": "constructor"
    },
    {
      "anonymous": false,
      "inputs": [
        {
          "indexed": true,
          "internalType": "address",
          "name": "previousOwner",
          "type": "address"
        },
        {
          "indexed": true,
          "internalType": "address",
          "name": "newOwner",
          "type": "address"
        }
      ],
      "name": "OwnershipTransferred",
      "type": "event"
    },
    {
      "inputs": [
        {
          "internalType": "address",
          "name": "_account",
          "type": "address"
        }
      ],
      "name": "addWhitelist",
      "outputs": [],
      "stateMutability": "nonpayable",
      "type": "function"
    },
    {
      "inputs": [
        {
          "internalType": "address[]",
          "name": "_recipients",
          "type": "address[]"
        },
        {
          "internalType": "uint256[]",
          "name": "_amount",
          "type": "uint256[]"
        },
        {
          "internalType": "uint256[]",
          "name": "_no_of_vestings",
          "type": "uint256[]"
        }
      ],
      "name": "dropTokens",
      "outputs": [
        {
          "internalType": "bool",
          "name": "",
          "type": "bool"
        }
      ],
      "stateMutability": "nonpayable",
      "type": "function"
    },
    {
      "inputs": [
        {
          "internalType": "uint256",
          "name": "_index",
          "type": "uint256"
        }
      ],
      "name": "getLock",
      "outputs": [
        {
          "components": [
            {
              "internalType": "uint256",
              "name": "lockDate",
              "type": "uint256"
            },
            {
              "internalType": "uint256",
              "name": "amount",
              "type": "uint256"
            },
            {
              "internalType": "uint256",
              "name": "intialAmount",
              "type": "uint256"
            },
            {
              "internalType": "uint256",
              "name": "unlockDate",
              "type": "uint256"
            },
            {
              "internalType": "uint256",
              "name": "lockID",
              "type": "uint256"
            },
            {
              "internalType": "address",
              "name": "owner",
              "type": "address"
            }
          ],
          "internalType": "struct AkitaAirdrop.TokenLock",
          "name": "",
          "type": "tuple"
        }
      ],
      "stateMutability": "view",
      "type": "function"
    },
    {
      "inputs": [
        {
          "internalType": "address",
          "name": "_account",
          "type": "address"
        }
      ],
      "name": "getUserLocks",
      "outputs": [
        {
          "internalType": "uint256[]",
          "name": "",
          "type": "uint256[]"
        }
      ],
      "stateMutability": "view",
      "type": "function"
    },
    {
      "inputs": [
        {
          "internalType": "address",
          "name": "",
          "type": "address"
        },
        {
          "internalType": "uint256",
          "name": "",
          "type": "uint256"
        }
      ],
      "name": "locksForUsers",
      "outputs": [
        {
          "internalType": "uint256",
          "name": "",
          "type": "uint256"
        }
      ],
      "stateMutability": "view",
      "type": "function"
    },
    {
      "inputs": [],
      "name": "owner",
      "outputs": [
        {
          "internalType": "address",
          "name": "",
          "type": "address"
        }
      ],
      "stateMutability": "view",
      "type": "function"
    },
    {
      "inputs": [],
      "name": "price",
      "outputs": [
        {
          "internalType": "uint256",
          "name": "",
          "type": "uint256"
        }
      ],
      "stateMutability": "view",
      "type": "function"
    },
    {
      "inputs": [
        {
          "internalType": "uint256",
          "name": "_amount",
          "type": "uint256"
        }
      ],
      "name": "purchaseTokens",
      "outputs": [],
      "stateMutability": "payable",
      "type": "function"
    },
    {
      "inputs": [
        {
          "internalType": "address",
          "name": "_account",
          "type": "address"
        }
      ],
      "name": "removeWhitelist",
      "outputs": [],
      "stateMutability": "nonpayable",
      "type": "function"
    },
    {
      "inputs": [],
      "name": "renounceOwnership",
      "outputs": [],
      "stateMutability": "nonpayable",
      "type": "function"
    },
    {
      "inputs": [
        {
          "internalType": "uint256",
          "name": "_price",
          "type": "uint256"
        }
      ],
      "name": "setPrice",
      "outputs": [],
      "stateMutability": "nonpayable",
      "type": "function"
    },
    {
      "inputs": [],
      "name": "signer",
      "outputs": [
        {
          "internalType": "address",
          "name": "",
          "type": "address"
        }
      ],
      "stateMutability": "view",
      "type": "function"
    },
    {
      "inputs": [],
      "name": "token",
      "outputs": [
        {
          "internalType": "address",
          "name": "",
          "type": "address"
        }
      ],
      "stateMutability": "view",
      "type": "function"
    },
    {
      "inputs": [
        {
          "internalType": "uint256",
          "name": "",
          "type": "uint256"
        }
      ],
      "name": "tokenLocks",
      "outputs": [
        {
          "internalType": "uint256",
          "name": "lockDate",
          "type": "uint256"
        },
        {
          "internalType": "uint256",
          "name": "amount",
          "type": "uint256"
        },
        {
          "internalType": "uint256",
          "name": "intialAmount",
          "type": "uint256"
        },
        {
          "internalType": "uint256",
          "name": "unlockDate",
          "type": "uint256"
        },
        {
          "internalType": "uint256",
          "name": "lockID",
          "type": "uint256"
        },
        {
          "internalType": "address",
          "name": "owner",
          "type": "address"
        }
      ],
      "stateMutability": "view",
      "type": "function"
    },
    {
      "inputs": [
        {
          "internalType": "address",
          "name": "newOwner",
          "type": "address"
        }
      ],
      "name": "transferOwnership",
      "outputs": [],
      "stateMutability": "nonpayable",
      "type": "function"
    },
    {
      "inputs": [
        {
          "internalType": "uint256",
          "name": "_index",
          "type": "uint256"
        },
        {
          "internalType": "uint256",
          "name": "_lockID",
          "type": "uint256"
        },
        {
          "internalType": "uint256",
          "name": "_amount",
          "type": "uint256"
        }
      ],
      "name": "unlockToken",
      "outputs": [],
      "stateMutability": "nonpayable",
      "type": "function"
    }
  ],
  "bytecode": "0x608060405234801561001057600080fd5b5060405162001ac938038062001ac9833981016040819052610031916100b3565b61003a33610063565b60018055600380546001600160a01b0319166001600160a01b03929092169190911790556100e1565b600080546001600160a01b038381166001600160a01b0319831681178455604051919092169283917f8be0079c531659141344cd1fd0a4f28419497f9722a3daafe3b4186f6b6457e09190a35050565b6000602082840312156100c4578081fd5b81516001600160a01b03811681146100da578182fd5b9392505050565b6119d880620000f16000396000f3fe6080604052600436106100f35760003560e01c80638da5cb5b1161008a578063d68f4dd111610059578063d68f4dd1146102d4578063f2fde38b14610349578063f80f5dd514610369578063fc0c546a1461038957600080fd5b80638da5cb5b1461022a57806391b7f5ed14610248578063946ca94914610268578063a035b1fe146102be57600080fd5b8063715018a6116100c6578063715018a6146101c057806371d18a06146101d757806378c8cda7146101f75780637b97008d1461021757600080fd5b8063088225b9146100f8578063238ac9331461012d57806323a35de9146101655780633969ca5914610192575b600080fd5b34801561010457600080fd5b506101186101133660046116ee565b6103a9565b60405190151581526020015b60405180910390f35b34801561013957600080fd5b5060025461014d906001600160a01b031681565b6040516001600160a01b039091168152602001610124565b34801561017157600080fd5b506101856101803660046116ab565b61087e565b6040516101249190611854565b34801561019e57600080fd5b506101b26101ad3660046116c5565b6108ea565b604051908152602001610124565b3480156101cc57600080fd5b506101d561091b565b005b3480156101e357600080fd5b506101d56101f2366004611829565b610981565b34801561020357600080fd5b506101d56102123660046116ab565b610c17565b6101d56102253660046117f9565b610c80565b34801561023657600080fd5b506000546001600160a01b031661014d565b34801561025457600080fd5b506101d56102633660046117f9565b610eb8565b34801561027457600080fd5b506102886102833660046117f9565b610f17565b60408051968752602087019590955293850192909252606084015260808301526001600160a01b031660a082015260c001610124565b3480156102ca57600080fd5b506101b260045481565b3480156102e057600080fd5b506102f46102ef3660046117f9565b610f66565b6040516101249190600060c08201905082518252602083015160208301526040830151604083015260608301516060830152608083015160808301526001600160a01b0360a08401511660a083015292915050565b34801561035557600080fd5b506101d56103643660046116ab565b61102d565b34801561037557600080fd5b506101d56103843660046116ab565b61110f565b34801561039557600080fd5b5060035461014d906001600160a01b031681565b600080546001600160a01b031633146104095760405162461bcd60e51b815260206004820181905260248201527f4f776e61626c653a2063616c6c6572206973206e6f7420746865206f776e657260448201526064015b60405180910390fd5b60005b845181101561058d5760006001600160a01b031685828151811061044057634e487b7160e01b600052603260045260246000fd5b60200260200101516001600160a01b0316141561045c57600080fd5b61049785828151811061047f57634e487b7160e01b600052603260045260246000fd5b6020026020010151600561117490919063ffffffff16565b6104e35760405162461bcd60e51b815260206004820152600d60248201527f4e6f742077686974656c697374000000000000000000000000000000000000006044820152606401610400565b6009600086838151811061050757634e487b7160e01b600052603260045260246000fd5b6020908102919091018101516001600160a01b031682528101919091526040016000205460ff161561057b5760405162461bcd60e51b815260206004820152601460248201527f596f7520616c726561647920636c61696d6564210000000000000000000000006044820152606401610400565b806105858161195b565b91505061040c565b5060005b8451811015610873576003546040516370a0823160e01b81523060048201526000916001600160a01b0316906370a082319060240160206040518083038186803b1580156105de57600080fd5b505afa1580156105f2573d6000803e3d6000fd5b505050506040513d601f19601f820116820180604052508101906106169190611811565b905084828151811061063857634e487b7160e01b600052603260045260246000fd5b602002602001015181101561078857600360009054906101000a90046001600160a01b03166001600160a01b03166340c10f19306106a68489878151811061069057634e487b7160e01b600052603260045260246000fd5b602002602001015161119b90919063ffffffff16565b6040517fffffffff0000000000000000000000000000000000000000000000000000000060e085901b1681526001600160a01b0390921660048301526024820152604401602060405180830381600087803b15801561070457600080fd5b505af1158015610718573d6000803e3d6000fd5b505050506040513d601f19601f8201168201806040525081019061073c91906117d2565b6107885760405162461bcd60e51b815260206004820152600960248201527f6d696e74206661696c00000000000000000000000000000000000000000000006044820152606401610400565b6108088583815181106107ab57634e487b7160e01b600052603260045260246000fd5b60200260200101518784815181106107d357634e487b7160e01b600052603260045260246000fd5b60200260200101518685815181106107fb57634e487b7160e01b600052603260045260246000fd5b60200260200101516111a7565b60016009600088858151811061082e57634e487b7160e01b600052603260045260246000fd5b6020908102919091018101516001600160a01b03168252810191909152604001600020805460ff1916911515919091179055508061086b8161195b565b915050610591565b506001949350505050565b6001600160a01b0381166000908152600760209081526040918290208054835181840281018401909452808452606093928301828280156108de57602002820191906000526020600020905b8154815260200190600101908083116108ca575b50505050509050919050565b6007602052816000526040600020818154811061090657600080fd5b90600052602060002001600091509150505481565b6000546001600160a01b031633146109755760405162461bcd60e51b815260206004820181905260248201527f4f776e61626c653a2063616c6c6572206973206e6f7420746865206f776e65726044820152606401610400565b61097f6000611409565b565b600260015414156109d45760405162461bcd60e51b815260206004820152601f60248201527f5265656e7472616e637947756172643a207265656e7472616e742063616c6c006044820152606401610400565b60026001819055506000600883815481106109ff57634e487b7160e01b600052603260045260246000fd5b600091825260209091206005600690920201908101549091506001600160a01b03163314610a6f5760405162461bcd60e51b815260206004820152600e60248201527f4c6f636b204d69736d61746368210000000000000000000000000000000000006044820152606401610400565b42816003015410610ac25760405162461bcd60e51b815260206004820152601560248201527f43616e6e6e6f74207769746864726177207965742100000000000000000000006044820152606401610400565b6001810154610ad1908361119b565b60018201819055610b885733600090815260076020526040902080548190610afb90600190611944565b81548110610b1957634e487b7160e01b600052603260045260246000fd5b9060005260206000200154818681548110610b4457634e487b7160e01b600052603260045260246000fd5b906000526020600020018190555080805480610b7057634e487b7160e01b600052603160045260246000fd5b60019003818190600052602060002001600090559055505b60035460405163a9059cbb60e01b8152336004820152602481018490526001600160a01b039091169063a9059cbb90604401602060405180830381600087803b158015610bd457600080fd5b505af1158015610be8573d6000803e3d6000fd5b505050506040513d601f19601f82011682018060405250810190610c0c91906117d2565b505060018055505050565b6000546001600160a01b03163314610c715760405162461bcd60e51b815260206004820181905260248201527f4f776e61626c653a2063616c6c6572206973206e6f7420746865206f776e65726044820152606401610400565b610c7c600582611466565b5050565b610ca7670de0b6b3a7640000610ca18360045461147b90919063ffffffff16565b90611487565b3414610cf55760405162461bcd60e51b815260206004820152601060248201527f4e6f7420656e6f7567682076616c7565000000000000000000000000000000006044820152606401610400565b6003546040516370a0823160e01b81523060048201526000916001600160a01b0316906370a082319060240160206040518083038186803b158015610d3957600080fd5b505afa158015610d4d573d6000803e3d6000fd5b505050506040513d601f19601f82011682018060405250810190610d719190611811565b905081811015610e2f576003546001600160a01b03166340c10f1930610d97858561119b565b6040517fffffffff0000000000000000000000000000000000000000000000000000000060e085901b1681526001600160a01b0390921660048301526024820152604401602060405180830381600087803b158015610df557600080fd5b505af1158015610e09573d6000803e3d6000fd5b505050506040513d601f19601f82011682018060405250810190610e2d91906117d2565b505b60035460405163a9059cbb60e01b8152336004820152602481018490526001600160a01b039091169063a9059cbb90604401602060405180830381600087803b158015610e7b57600080fd5b505af1158015610e8f573d6000803e3d6000fd5b505050506040513d601f19601f82011682018060405250810190610eb391906117d2565b505050565b6000546001600160a01b03163314610f125760405162461bcd60e51b815260206004820181905260248201527f4f776e61626c653a2063616c6c6572206973206e6f7420746865206f776e65726044820152606401610400565b600455565b60088181548110610f2757600080fd5b6000918252602090912060069091020180546001820154600283015460038401546004850154600590950154939550919390926001600160a01b031686565b610fa86040518060c00160405280600081526020016000815260200160008152602001600081526020016000815260200160006001600160a01b031681525090565b60088281548110610fc957634e487b7160e01b600052603260045260246000fd5b60009182526020918290206040805160c08101825260069093029091018054835260018101549383019390935260028301549082015260038201546060820152600482015460808201526005909101546001600160a01b031660a082015292915050565b6000546001600160a01b031633146110875760405162461bcd60e51b815260206004820181905260248201527f4f776e61626c653a2063616c6c6572206973206e6f7420746865206f776e65726044820152606401610400565b6001600160a01b0381166111035760405162461bcd60e51b815260206004820152602660248201527f4f776e61626c653a206e6577206f776e657220697320746865207a65726f206160448201527f64647265737300000000000000000000000000000000000000000000000000006064820152608401610400565b61110c81611409565b50565b6000546001600160a01b031633146111695760405162461bcd60e51b815260206004820181905260248201527f4f776e61626c653a2063616c6c6572206973206e6f7420746865206f776e65726044820152606401610400565b610c7c600582611493565b6001600160a01b038116600090815260018301602052604081205415155b90505b92915050565b60006111928284611944565b60038111156111f85760405162461bcd60e51b815260206004820152601b60248201527f4d6178206e756d626572206f662076657374696e6720697320313200000000006044820152606401610400565b8260006112058284611487565b90504262278d008160005b868110156113fe5761125a6040518060c00160405280600081526020016000815260200160008152602001600081526020016000815260200160006001600160a01b031681525090565b8481526020810186905261128361127c856112768560016118ed565b9061147b565b84906114a8565b606082018181526001600160a01b038b811660a08501818152600880546080880181815260018083018455600093845289517ff3f7a9fe364faab93b216da50a3214154f22a0a2b415b23a84c8169e8b636ee36006909402938401556020808b01517ff3f7a9fe364faab93b216da50a3214154f22a0a2b415b23a84c8169e8b636ee485015560409a8b01517ff3f7a9fe364faab93b216da50a3214154f22a0a2b415b23a84c8169e8b636ee585015597517ff3f7a9fe364faab93b216da50a3214154f22a0a2b415b23a84c8169e8b636ee684015581517ff3f7a9fe364faab93b216da50a3214154f22a0a2b415b23a84c8169e8b636ee784015593517ff3f7a9fe364faab93b216da50a3214154f22a0a2b415b23a84c8169e8b636ee8909201805473ffffffffffffffffffffffffffffffffffffffff191692909616919091179094559182526007845294812091518254958601835591815291909120909201919091559150806113f68161195b565b915050611210565b505050505050505050565b600080546001600160a01b0383811673ffffffffffffffffffffffffffffffffffffffff19831681178455604051919092169283917f8be0079c531659141344cd1fd0a4f28419497f9722a3daafe3b4186f6b6457e09190a35050565b6000611192836001600160a01b0384166114b4565b60006111928284611925565b60006111928284611905565b6000611192836001600160a01b0384166115d1565b600061119282846118ed565b600081815260018301602052604081205480156115c75760006114d8600183611944565b85549091506000906114ec90600190611944565b905081811461156d57600086600001828154811061151a57634e487b7160e01b600052603260045260246000fd5b906000526020600020015490508087600001848154811061154b57634e487b7160e01b600052603260045260246000fd5b6000918252602080832090910192909255918252600188019052604090208390555b855486908061158c57634e487b7160e01b600052603160045260246000fd5b600190038181906000526020600020016000905590558560010160008681526020019081526020016000206000905560019350505050611195565b6000915050611195565b600081815260018301602052604081205461161857508154600181810184556000848152602080822090930184905584548482528286019093526040902091909155611195565b506000611195565b80356001600160a01b038116811461163757600080fd5b919050565b600082601f83011261164c578081fd5b8135602061166161165c836118c9565b611898565b80838252828201915082860187848660051b8901011115611680578586fd5b855b8581101561169e57813584529284019290840190600101611682565b5090979650505050505050565b6000602082840312156116bc578081fd5b61119282611620565b600080604083850312156116d7578081fd5b6116e083611620565b946020939093013593505050565b600080600060608486031215611702578081fd5b833567ffffffffffffffff80821115611719578283fd5b818601915086601f83011261172c578283fd5b8135602061173c61165c836118c9565b8083825282820191508286018b848660051b890101111561175b578788fd5b8796505b848710156117845761177081611620565b83526001969096019591830191830161175f565b509750508701359250508082111561179a578283fd5b6117a68783880161163c565b935060408601359150808211156117bb578283fd5b506117c88682870161163c565b9150509250925092565b6000602082840312156117e3578081fd5b815180151581146117f2578182fd5b9392505050565b60006020828403121561180a578081fd5b5035919050565b600060208284031215611822578081fd5b5051919050565b60008060006060848603121561183d578283fd5b505081359360208301359350604090920135919050565b6020808252825182820181905260009190848201906040850190845b8181101561188c57835183529284019291840191600101611870565b50909695505050505050565b604051601f8201601f1916810167ffffffffffffffff811182821017156118c1576118c161198c565b604052919050565b600067ffffffffffffffff8211156118e3576118e361198c565b5060051b60200190565b6000821982111561190057611900611976565b500190565b60008261192057634e487b7160e01b81526012600452602481fd5b500490565b600081600019048311821515161561193f5761193f611976565b500290565b60008282101561195657611956611976565b500390565b600060001982141561196f5761196f611976565b5060010190565b634e487b7160e01b600052601160045260246000fd5b634e487b7160e01b600052604160045260246000fdfea26469706673582212203190de67b7a9caabda1648cff2bb4366b52ab5be5d2142f957ad9aef5ce11b1764736f6c63430008040033",
  "linkReferences": {},
  "deployedLinkReferences": {}
}