{
  "_format": "hh-sol-artifact-1",
  "contractName": "AkitaAirdrop",
  "sourceName": "contracts/AkitaAirdrop.sol",
  "abi": [
    {
      "inputs": [
        {
          "internalType": "address",
          "name": "_token",
          "type": "address"
        }
      ],
      "stateMutability": "nonpayable",
      "type": "constructor"
    },
    {
      "anonymous": false,
      "inputs": [
        {
          "indexed": true,
          "internalType": "address",
          "name": "previousOwner",
          "type": "address"
        },
        {
          "indexed": true,
          "internalType": "address",
          "name": "newOwner",
          "type": "address"
        }
      ],
      "name": "OwnershipTransferred",
      "type": "event"
    },
    {
      "inputs": [
        {
          "internalType": "address",
          "name": "_account",
          "type": "address"
        }
      ],
      "name": "addWhitelist",
      "outputs": [],
      "stateMutability": "nonpayable",
      "type": "function"
    },
    {
      "inputs": [
        {
          "internalType": "address",
          "name": "_signer",
          "type": "address"
        },
        {
          "internalType": "uint256",
          "name": "_nonce",
          "type": "uint256"
        },
        {
          "internalType": "address[]",
          "name": "_recipients",
          "type": "address[]"
        },
        {
          "internalType": "uint256[]",
          "name": "_amount",
          "type": "uint256[]"
        },
        {
          "internalType": "uint256[]",
          "name": "_no_of_vestings",
          "type": "uint256[]"
        },
        {
          "internalType": "bytes",
          "name": "signature",
          "type": "bytes"
        }
      ],
      "name": "bulkDropTokens",
      "outputs": [
        {
          "internalType": "bool",
          "name": "",
          "type": "bool"
        }
      ],
      "stateMutability": "nonpayable",
      "type": "function"
    },
    {
      "inputs": [
        {
          "internalType": "address[]",
          "name": "_recipients",
          "type": "address[]"
        },
        {
          "internalType": "uint256[]",
          "name": "_amount",
          "type": "uint256[]"
        },
        {
          "internalType": "uint256[]",
          "name": "_no_of_vestings",
          "type": "uint256[]"
        }
      ],
      "name": "dropTokens",
      "outputs": [
        {
          "internalType": "bool",
          "name": "",
          "type": "bool"
        }
      ],
      "stateMutability": "nonpayable",
      "type": "function"
    },
    {
      "inputs": [
        {
          "internalType": "bytes32",
          "name": "_messageHash",
          "type": "bytes32"
        }
      ],
      "name": "getEthSignedMessageHash",
      "outputs": [
        {
          "internalType": "bytes32",
          "name": "",
          "type": "bytes32"
        }
      ],
      "stateMutability": "pure",
      "type": "function"
    },
    {
      "inputs": [
        {
          "internalType": "uint256",
          "name": "_index",
          "type": "uint256"
        }
      ],
      "name": "getLock",
      "outputs": [
        {
          "components": [
            {
              "internalType": "uint256",
              "name": "lockDate",
              "type": "uint256"
            },
            {
              "internalType": "uint256",
              "name": "amount",
              "type": "uint256"
            },
            {
              "internalType": "uint256",
              "name": "intialAmount",
              "type": "uint256"
            },
            {
              "internalType": "uint256",
              "name": "unlockDate",
              "type": "uint256"
            },
            {
              "internalType": "uint256",
              "name": "lockID",
              "type": "uint256"
            },
            {
              "internalType": "address",
              "name": "owner",
              "type": "address"
            }
          ],
          "internalType": "struct AkitaAirdrop.TokenLock",
          "name": "",
          "type": "tuple"
        }
      ],
      "stateMutability": "view",
      "type": "function"
    },
    {
      "inputs": [
        {
          "internalType": "address",
          "name": "_signer",
          "type": "address"
        },
        {
          "internalType": "uint256",
          "name": "_nonce",
          "type": "uint256"
        }
      ],
      "name": "getMessageHash",
      "outputs": [
        {
          "internalType": "bytes32",
          "name": "",
          "type": "bytes32"
        }
      ],
      "stateMutability": "pure",
      "type": "function"
    },
    {
      "inputs": [
        {
          "internalType": "address",
          "name": "_account",
          "type": "address"
        }
      ],
      "name": "getUserLocks",
      "outputs": [
        {
          "internalType": "uint256[]",
          "name": "",
          "type": "uint256[]"
        }
      ],
      "stateMutability": "view",
      "type": "function"
    },
    {
      "inputs": [
        {
          "internalType": "address",
          "name": "",
          "type": "address"
        },
        {
          "internalType": "uint256",
          "name": "",
          "type": "uint256"
        }
      ],
      "name": "locksForUsers",
      "outputs": [
        {
          "internalType": "uint256",
          "name": "",
          "type": "uint256"
        }
      ],
      "stateMutability": "view",
      "type": "function"
    },
    {
      "inputs": [],
      "name": "owner",
      "outputs": [
        {
          "internalType": "address",
          "name": "",
          "type": "address"
        }
      ],
      "stateMutability": "view",
      "type": "function"
    },
    {
      "inputs": [],
      "name": "price",
      "outputs": [
        {
          "internalType": "uint256",
          "name": "",
          "type": "uint256"
        }
      ],
      "stateMutability": "view",
      "type": "function"
    },
    {
      "inputs": [
        {
          "internalType": "uint256",
          "name": "_amount",
          "type": "uint256"
        }
      ],
      "name": "purchaseTokens",
      "outputs": [],
      "stateMutability": "payable",
      "type": "function"
    },
    {
      "inputs": [
        {
          "internalType": "bytes32",
          "name": "_ethSignedMessageHash",
          "type": "bytes32"
        },
        {
          "internalType": "bytes",
          "name": "_signature",
          "type": "bytes"
        }
      ],
      "name": "recoverSigner",
      "outputs": [
        {
          "internalType": "address",
          "name": "",
          "type": "address"
        }
      ],
      "stateMutability": "pure",
      "type": "function"
    },
    {
      "inputs": [
        {
          "internalType": "address",
          "name": "_account",
          "type": "address"
        }
      ],
      "name": "removeWhitelist",
      "outputs": [],
      "stateMutability": "nonpayable",
      "type": "function"
    },
    {
      "inputs": [],
      "name": "renounceOwnership",
      "outputs": [],
      "stateMutability": "nonpayable",
      "type": "function"
    },
    {
      "inputs": [
        {
          "internalType": "uint256",
          "name": "_price",
          "type": "uint256"
        }
      ],
      "name": "setPrice",
      "outputs": [],
      "stateMutability": "nonpayable",
      "type": "function"
    },
    {
      "inputs": [],
      "name": "signer",
      "outputs": [
        {
          "internalType": "address",
          "name": "",
          "type": "address"
        }
      ],
      "stateMutability": "view",
      "type": "function"
    },
    {
      "inputs": [
        {
          "internalType": "bytes",
          "name": "sig",
          "type": "bytes"
        }
      ],
      "name": "splitSignature",
      "outputs": [
        {
          "internalType": "bytes32",
          "name": "r",
          "type": "bytes32"
        },
        {
          "internalType": "bytes32",
          "name": "s",
          "type": "bytes32"
        },
        {
          "internalType": "uint8",
          "name": "v",
          "type": "uint8"
        }
      ],
      "stateMutability": "pure",
      "type": "function"
    },
    {
      "inputs": [],
      "name": "token",
      "outputs": [
        {
          "internalType": "address",
          "name": "",
          "type": "address"
        }
      ],
      "stateMutability": "view",
      "type": "function"
    },
    {
      "inputs": [
        {
          "internalType": "uint256",
          "name": "",
          "type": "uint256"
        }
      ],
      "name": "tokenLocks",
      "outputs": [
        {
          "internalType": "uint256",
          "name": "lockDate",
          "type": "uint256"
        },
        {
          "internalType": "uint256",
          "name": "amount",
          "type": "uint256"
        },
        {
          "internalType": "uint256",
          "name": "intialAmount",
          "type": "uint256"
        },
        {
          "internalType": "uint256",
          "name": "unlockDate",
          "type": "uint256"
        },
        {
          "internalType": "uint256",
          "name": "lockID",
          "type": "uint256"
        },
        {
          "internalType": "address",
          "name": "owner",
          "type": "address"
        }
      ],
      "stateMutability": "view",
      "type": "function"
    },
    {
      "inputs": [
        {
          "internalType": "address",
          "name": "newOwner",
          "type": "address"
        }
      ],
      "name": "transferOwnership",
      "outputs": [],
      "stateMutability": "nonpayable",
      "type": "function"
    },
    {
      "inputs": [
        {
          "internalType": "uint256",
          "name": "_index",
          "type": "uint256"
        },
        {
          "internalType": "uint256",
          "name": "_lockID",
          "type": "uint256"
        },
        {
          "internalType": "uint256",
          "name": "_amount",
          "type": "uint256"
        }
      ],
      "name": "unlockToken",
      "outputs": [],
      "stateMutability": "nonpayable",
      "type": "function"
    }
  ],
  "bytecode": "0x60806040523480156200001157600080fd5b5060405162002248380380620022488339810160408190526200003491620000b9565b6200003f3362000069565b60018055600380546001600160a01b0319166001600160a01b0392909216919091179055620000e9565b600080546001600160a01b038381166001600160a01b0319831681178455604051919092169283917f8be0079c531659141344cd1fd0a4f28419497f9722a3daafe3b4186f6b6457e09190a35050565b600060208284031215620000cb578081fd5b81516001600160a01b0381168114620000e2578182fd5b9392505050565b61214f80620000f96000396000f3fe60806040526004361061016a5760003560e01c80638da5cb5b116100cb578063a7bb58031161007f578063f80f5dd511610059578063f80f5dd51461047e578063fa5408011461049e578063fc0c546a1461050c57600080fd5b8063a7bb5803146103ab578063d68f4dd1146103e9578063f2fde38b1461045e57600080fd5b8063946ca949116100b0578063946ca9491461031f57806397aba7f914610375578063a035b1fe1461039557600080fd5b80638da5cb5b146102e157806391b7f5ed146102ff57600080fd5b8063512c91df1161012257806371d18a061161010757806371d18a061461028e57806378c8cda7146102ae5780637b97008d146102ce57600080fd5b8063512c91df14610257578063715018a61461027757600080fd5b806323a35de91161015357806323a35de9146101dc5780632f9be363146102095780633969ca591461022957600080fd5b8063088225b91461016f578063238ac933146101a4575b600080fd5b34801561017b57600080fd5b5061018f61018a366004611e4c565b61052c565b60405190151581526020015b60405180910390f35b3480156101b057600080fd5b506002546101c4906001600160a01b031681565b6040516001600160a01b03909116815260200161019b565b3480156101e857600080fd5b506101fc6101f7366004611d48565b6108ce565b60405161019b9190611fcb565b34801561021557600080fd5b5061018f610224366004611d8b565b61093a565b34801561023557600080fd5b50610249610244366004611d62565b610d9d565b60405190815260200161019b565b34801561026357600080fd5b50610249610272366004611d62565b610dce565b34801561028357600080fd5b5061028c610e16565b005b34801561029a57600080fd5b5061028c6102a9366004611fa0565b610e7c565b3480156102ba57600080fd5b5061028c6102c9366004611d48565b611112565b61028c6102dc366004611ef0565b61117b565b3480156102ed57600080fd5b506000546001600160a01b03166101c4565b34801561030b57600080fd5b5061028c61031a366004611ef0565b6113b3565b34801561032b57600080fd5b5061033f61033a366004611ef0565b611412565b60408051968752602087019590955293850192909252606084015260808301526001600160a01b031660a082015260c00161019b565b34801561038157600080fd5b506101c4610390366004611f08565b611461565b3480156103a157600080fd5b5061024960045481565b3480156103b757600080fd5b506103cb6103c6366004611f4d565b6114e0565b60408051938452602084019290925260ff169082015260600161019b565b3480156103f557600080fd5b50610409610404366004611ef0565b611554565b60405161019b9190600060c08201905082518252602083015160208301526040830151604083015260608301516060830152608083015160808301526001600160a01b0360a08401511660a083015292915050565b34801561046a57600080fd5b5061028c610479366004611d48565b61161b565b34801561048a57600080fd5b5061028c610499366004611d48565b6116fd565b3480156104aa57600080fd5b506102496104b9366004611ef0565b6040517f19457468657265756d205369676e6564204d6573736167653a0a3332000000006020820152603c8101829052600090605c01604051602081830303815290604052805190602001209050919050565b34801561051857600080fd5b506003546101c4906001600160a01b031681565b600080546001600160a01b0316331461058c5760405162461bcd60e51b815260206004820181905260248201527f4f776e61626c653a2063616c6c6572206973206e6f7420746865206f776e657260448201526064015b60405180910390fd5b60005b84518110156105f15760006001600160a01b03168582815181106105c357634e487b7160e01b600052603260045260246000fd5b60200260200101516001600160a01b031614156105df57600080fd5b806105e9816120d2565b91505061058f565b5060005b84518110156108c3576003546040516370a0823160e01b81523060048201526000916001600160a01b0316906370a082319060240160206040518083038186803b15801561064257600080fd5b505afa158015610656573d6000803e3d6000fd5b505050506040513d601f19601f8201168201806040525081019061067a9190611f88565b905084828151811061069c57634e487b7160e01b600052603260045260246000fd5b60200260200101518110156107d857600360009054906101000a90046001600160a01b03166001600160a01b03166340c10f193061070a848987815181106106f457634e487b7160e01b600052603260045260246000fd5b602002602001015161176290919063ffffffff16565b6040517fffffffff0000000000000000000000000000000000000000000000000000000060e085901b1681526001600160a01b0390921660048301526024820152604401602060405180830381600087803b15801561076857600080fd5b505af115801561077c573d6000803e3d6000fd5b505050506040513d601f19601f820116820180604052508101906107a09190611ed0565b6107d85760405162461bcd60e51b81526020600482015260096024820152681b5a5b9d0819985a5b60ba1b6044820152606401610583565b6108588583815181106107fb57634e487b7160e01b600052603260045260246000fd5b602002602001015187848151811061082357634e487b7160e01b600052603260045260246000fd5b602002602001015186858151811061084b57634e487b7160e01b600052603260045260246000fd5b6020026020010151611775565b60016009600088858151811061087e57634e487b7160e01b600052603260045260246000fd5b6020908102919091018101516001600160a01b03168252810191909152604001600020805460ff191691151591909117905550806108bb816120d2565b9150506105f5565b506001949350505050565b6001600160a01b03811660009081526007602090815260409182902080548351818402810184019094528084526060939283018282801561092e57602002820191906000526020600020905b81548152602001906001019080831161091a575b50505050509050919050565b600080546001600160a01b031633146109955760405162461bcd60e51b815260206004820181905260248201527f4f776e61626c653a2063616c6c6572206973206e6f7420746865206f776e65726044820152606401610583565b60006109a18888610dce565b905060006109fc826040517f19457468657265756d205369676e6564204d6573736167653a0a3332000000006020820152603c8101829052600090605c01604051602081830303815290604052805190602001209050919050565b9050610a106000546001600160a01b031690565b6001600160a01b0316610a238286611461565b6001600160a01b031614610a795760405162461bcd60e51b815260206004820152601b60248201527f54686973206973206e6f7420736967656e64206279206f776e657200000000006044820152606401610583565b60005b8751811015610ade5760006001600160a01b0316888281518110610ab057634e487b7160e01b600052603260045260246000fd5b60200260200101516001600160a01b03161415610acc57600080fd5b80610ad6816120d2565b915050610a7c565b5060005b8751811015610d8d576003546040516370a0823160e01b81523060048201526000916001600160a01b0316906370a082319060240160206040518083038186803b158015610b2f57600080fd5b505afa158015610b43573d6000803e3d6000fd5b505050506040513d601f19601f82011682018060405250810190610b679190611f88565b9050878281518110610b8957634e487b7160e01b600052603260045260246000fd5b6020026020010151811015610caf57600360009054906101000a90046001600160a01b03166001600160a01b03166340c10f1930610be1848c87815181106106f457634e487b7160e01b600052603260045260246000fd5b6040517fffffffff0000000000000000000000000000000000000000000000000000000060e085901b1681526001600160a01b0390921660048301526024820152604401602060405180830381600087803b158015610c3f57600080fd5b505af1158015610c53573d6000803e3d6000fd5b505050506040513d601f19601f82011682018060405250810190610c779190611ed0565b610caf5760405162461bcd60e51b81526020600482015260096024820152681b5a5b9d0819985a5b60ba1b6044820152606401610583565b610d22888381518110610cd257634e487b7160e01b600052603260045260246000fd5b60200260200101518a8481518110610cfa57634e487b7160e01b600052603260045260246000fd5b602002602001015189858151811061084b57634e487b7160e01b600052603260045260246000fd5b6001600960008b8581518110610d4857634e487b7160e01b600052603260045260246000fd5b6020908102919091018101516001600160a01b03168252810191909152604001600020805460ff19169115159190911790555080610d85816120d2565b915050610ae2565b5060019998505050505050505050565b60076020528160005260406000208181548110610db957600080fd5b90600052602060002001600091509150505481565b6040516bffffffffffffffffffffffff19606084901b166020820152603481018290526000906054016040516020818303038152906040528051906020012090505b92915050565b6000546001600160a01b03163314610e705760405162461bcd60e51b815260206004820181905260248201527f4f776e61626c653a2063616c6c6572206973206e6f7420746865206f776e65726044820152606401610583565b610e7a60006119d7565b565b60026001541415610ecf5760405162461bcd60e51b815260206004820152601f60248201527f5265656e7472616e637947756172643a207265656e7472616e742063616c6c006044820152606401610583565b6002600181905550600060088381548110610efa57634e487b7160e01b600052603260045260246000fd5b600091825260209091206005600690920201908101549091506001600160a01b03163314610f6a5760405162461bcd60e51b815260206004820152600e60248201527f4c6f636b204d69736d61746368210000000000000000000000000000000000006044820152606401610583565b42816003015410610fbd5760405162461bcd60e51b815260206004820152601560248201527f43616e6e6e6f74207769746864726177207965742100000000000000000000006044820152606401610583565b6001810154610fcc9083611762565b600182018190556110835733600090815260076020526040902080548190610ff6906001906120bb565b8154811061101457634e487b7160e01b600052603260045260246000fd5b906000526020600020015481868154811061103f57634e487b7160e01b600052603260045260246000fd5b90600052602060002001819055508080548061106b57634e487b7160e01b600052603160045260246000fd5b60019003818190600052602060002001600090559055505b60035460405163a9059cbb60e01b8152336004820152602481018490526001600160a01b039091169063a9059cbb90604401602060405180830381600087803b1580156110cf57600080fd5b505af11580156110e3573d6000803e3d6000fd5b505050506040513d601f19601f820116820180604052508101906111079190611ed0565b505060018055505050565b6000546001600160a01b0316331461116c5760405162461bcd60e51b815260206004820181905260248201527f4f776e61626c653a2063616c6c6572206973206e6f7420746865206f776e65726044820152606401610583565b611177600582611a34565b5050565b6111a2670de0b6b3a764000061119c83600454611a4990919063ffffffff16565b90611a55565b34146111f05760405162461bcd60e51b815260206004820152601060248201527f4e6f7420656e6f7567682076616c7565000000000000000000000000000000006044820152606401610583565b6003546040516370a0823160e01b81523060048201526000916001600160a01b0316906370a082319060240160206040518083038186803b15801561123457600080fd5b505afa158015611248573d6000803e3d6000fd5b505050506040513d601f19601f8201168201806040525081019061126c9190611f88565b90508181101561132a576003546001600160a01b03166340c10f19306112928585611762565b6040517fffffffff0000000000000000000000000000000000000000000000000000000060e085901b1681526001600160a01b0390921660048301526024820152604401602060405180830381600087803b1580156112f057600080fd5b505af1158015611304573d6000803e3d6000fd5b505050506040513d601f19601f820116820180604052508101906113289190611ed0565b505b60035460405163a9059cbb60e01b8152336004820152602481018490526001600160a01b039091169063a9059cbb90604401602060405180830381600087803b15801561137657600080fd5b505af115801561138a573d6000803e3d6000fd5b505050506040513d601f19601f820116820180604052508101906113ae9190611ed0565b505050565b6000546001600160a01b0316331461140d5760405162461bcd60e51b815260206004820181905260248201527f4f776e61626c653a2063616c6c6572206973206e6f7420746865206f776e65726044820152606401610583565b600455565b6008818154811061142257600080fd5b6000918252602090912060069091020180546001820154600283015460038401546004850154600590950154939550919390926001600160a01b031686565b600080600080611470856114e0565b6040805160008152602081018083528b905260ff8316918101919091526060810184905260808101839052929550909350915060019060a0016020604051602081039080840390855afa1580156114cb573d6000803e3d6000fd5b5050604051601f190151979650505050505050565b600080600083516041146115365760405162461bcd60e51b815260206004820152601860248201527f696e76616c6964207369676e6174757265206c656e67746800000000000000006044820152606401610583565b50505060208101516040820151606090920151909260009190911a90565b6115966040518060c00160405280600081526020016000815260200160008152602001600081526020016000815260200160006001600160a01b031681525090565b600882815481106115b757634e487b7160e01b600052603260045260246000fd5b60009182526020918290206040805160c08101825260069093029091018054835260018101549383019390935260028301549082015260038201546060820152600482015460808201526005909101546001600160a01b031660a082015292915050565b6000546001600160a01b031633146116755760405162461bcd60e51b815260206004820181905260248201527f4f776e61626c653a2063616c6c6572206973206e6f7420746865206f776e65726044820152606401610583565b6001600160a01b0381166116f15760405162461bcd60e51b815260206004820152602660248201527f4f776e61626c653a206e6577206f776e657220697320746865207a65726f206160448201527f64647265737300000000000000000000000000000000000000000000000000006064820152608401610583565b6116fa816119d7565b50565b6000546001600160a01b031633146117575760405162461bcd60e51b815260206004820181905260248201527f4f776e61626c653a2063616c6c6572206973206e6f7420746865206f776e65726044820152606401610583565b611177600582611a61565b600061176e82846120bb565b9392505050565b60038111156117c65760405162461bcd60e51b815260206004820152601a60248201527f4d6178206e756d626572206f662076657374696e6720697320330000000000006044820152606401610583565b8260006117d38284611a55565b905042620151808160005b868110156119cc576118286040518060c00160405280600081526020016000815260200160008152602001600081526020016000815260200160006001600160a01b031681525090565b8481526020810186905261185161184a85611844856001612064565b90611a49565b8490611a76565b606082018181526001600160a01b038b811660a08501818152600880546080880181815260018083018455600093845289517ff3f7a9fe364faab93b216da50a3214154f22a0a2b415b23a84c8169e8b636ee36006909402938401556020808b01517ff3f7a9fe364faab93b216da50a3214154f22a0a2b415b23a84c8169e8b636ee485015560409a8b01517ff3f7a9fe364faab93b216da50a3214154f22a0a2b415b23a84c8169e8b636ee585015597517ff3f7a9fe364faab93b216da50a3214154f22a0a2b415b23a84c8169e8b636ee684015581517ff3f7a9fe364faab93b216da50a3214154f22a0a2b415b23a84c8169e8b636ee784015593517ff3f7a9fe364faab93b216da50a3214154f22a0a2b415b23a84c8169e8b636ee8909201805473ffffffffffffffffffffffffffffffffffffffff191692909616919091179094559182526007845294812091518254958601835591815291909120909201919091559150806119c4816120d2565b9150506117de565b505050505050505050565b600080546001600160a01b0383811673ffffffffffffffffffffffffffffffffffffffff19831681178455604051919092169283917f8be0079c531659141344cd1fd0a4f28419497f9722a3daafe3b4186f6b6457e09190a35050565b600061176e836001600160a01b038416611a82565b600061176e828461209c565b600061176e828461207c565b600061176e836001600160a01b038416611b9f565b600061176e8284612064565b60008181526001830160205260408120548015611b95576000611aa66001836120bb565b8554909150600090611aba906001906120bb565b9050818114611b3b576000866000018281548110611ae857634e487b7160e01b600052603260045260246000fd5b9060005260206000200154905080876000018481548110611b1957634e487b7160e01b600052603260045260246000fd5b6000918252602080832090910192909255918252600188019052604090208390555b8554869080611b5a57634e487b7160e01b600052603160045260246000fd5b600190038181906000526020600020016000905590558560010160008681526020019081526020016000206000905560019350505050610e10565b6000915050610e10565b6000818152600183016020526040812054611be657508154600181810184556000848152602080822090930184905584548482528286019093526040902091909155610e10565b506000610e10565b80356001600160a01b0381168114611c0557600080fd5b919050565b600082601f830112611c1a578081fd5b81356020611c2f611c2a83612040565b61200f565b80838252828201915082860187848660051b8901011115611c4e578586fd5b855b85811015611c7357611c6182611bee565b84529284019290840190600101611c50565b5090979650505050505050565b600082601f830112611c90578081fd5b81356020611ca0611c2a83612040565b80838252828201915082860187848660051b8901011115611cbf578586fd5b855b85811015611c7357813584529284019290840190600101611cc1565b600082601f830112611ced578081fd5b813567ffffffffffffffff811115611d0757611d07612103565b611d1a601f8201601f191660200161200f565b818152846020838601011115611d2e578283fd5b816020850160208301379081016020019190915292915050565b600060208284031215611d59578081fd5b61176e82611bee565b60008060408385031215611d74578081fd5b611d7d83611bee565b946020939093013593505050565b60008060008060008060c08789031215611da3578182fd5b611dac87611bee565b955060208701359450604087013567ffffffffffffffff80821115611dcf578384fd5b611ddb8a838b01611c0a565b95506060890135915080821115611df0578384fd5b611dfc8a838b01611c80565b94506080890135915080821115611e11578384fd5b611e1d8a838b01611c80565b935060a0890135915080821115611e32578283fd5b50611e3f89828a01611cdd565b9150509295509295509295565b600080600060608486031215611e60578283fd5b833567ffffffffffffffff80821115611e77578485fd5b611e8387838801611c0a565b94506020860135915080821115611e98578384fd5b611ea487838801611c80565b93506040860135915080821115611eb9578283fd5b50611ec686828701611c80565b9150509250925092565b600060208284031215611ee1578081fd5b8151801515811461176e578182fd5b600060208284031215611f01578081fd5b5035919050565b60008060408385031215611f1a578182fd5b82359150602083013567ffffffffffffffff811115611f37578182fd5b611f4385828601611cdd565b9150509250929050565b600060208284031215611f5e578081fd5b813567ffffffffffffffff811115611f74578182fd5b611f8084828501611cdd565b949350505050565b600060208284031215611f99578081fd5b5051919050565b600080600060608486031215611fb4578283fd5b505081359360208301359350604090920135919050565b6020808252825182820181905260009190848201906040850190845b8181101561200357835183529284019291840191600101611fe7565b50909695505050505050565b604051601f8201601f1916810167ffffffffffffffff8111828210171561203857612038612103565b604052919050565b600067ffffffffffffffff82111561205a5761205a612103565b5060051b60200190565b60008219821115612077576120776120ed565b500190565b60008261209757634e487b7160e01b81526012600452602481fd5b500490565b60008160001904831182151516156120b6576120b66120ed565b500290565b6000828210156120cd576120cd6120ed565b500390565b60006000198214156120e6576120e66120ed565b5060010190565b634e487b7160e01b600052601160045260246000fd5b634e487b7160e01b600052604160045260246000fdfea2646970667358221220ba0ddbb72c4676d107d452818118d4198712188a8534d181ce9d89fd16beee7a64736f6c63430008040033",
  "linkReferences": {},
  "deployedLinkReferences": {}
}