{
  "_format": "hh-sol-artifact-1",
  "contractName": "ERC721BasicTokenMock",
  "sourceName": "contracts/inherited/ERC721Basic.sol",
  "abi": [
    {
      "anonymous": false,
      "inputs": [
        {
          "indexed": false,
          "internalType": "address",
          "name": "_owner",
          "type": "address"
        },
        {
          "indexed": false,
          "internalType": "address",
          "name": "_approved",
          "type": "address"
        },
        {
          "indexed": false,
          "internalType": "uint256",
          "name": "_tokenId",
          "type": "uint256"
        }
      ],
      "name": "Approval",
      "type": "event"
    },
    {
      "anonymous": false,
      "inputs": [
        {
          "indexed": false,
          "internalType": "address",
          "name": "_owner",
          "type": "address"
        },
        {
          "indexed": false,
          "internalType": "address",
          "name": "_operator",
          "type": "address"
        },
        {
          "indexed": false,
          "internalType": "bool",
          "name": "_approved",
          "type": "bool"
        }
      ],
      "name": "ApprovalForAll",
      "type": "event"
    },
    {
      "anonymous": false,
      "inputs": [
        {
          "indexed": false,
          "internalType": "address",
          "name": "_from",
          "type": "address"
        },
        {
          "indexed": false,
          "internalType": "address",
          "name": "_to",
          "type": "address"
        },
        {
          "indexed": false,
          "internalType": "uint256",
          "name": "_tokenId",
          "type": "uint256"
        }
      ],
      "name": "Transfer",
      "type": "event"
    },
    {
      "constant": true,
      "inputs": [],
      "name": "InterfaceId_ERC165",
      "outputs": [
        {
          "internalType": "bytes4",
          "name": "",
          "type": "bytes4"
        }
      ],
      "payable": false,
      "stateMutability": "view",
      "type": "function"
    },
    {
      "constant": false,
      "inputs": [
        {
          "internalType": "address",
          "name": "_to",
          "type": "address"
        },
        {
          "internalType": "uint256",
          "name": "_tokenId",
          "type": "uint256"
        }
      ],
      "name": "approve",
      "outputs": [],
      "payable": false,
      "stateMutability": "nonpayable",
      "type": "function"
    },
    {
      "constant": true,
      "inputs": [
        {
          "internalType": "address",
          "name": "_owner",
          "type": "address"
        }
      ],
      "name": "balanceOf",
      "outputs": [
        {
          "internalType": "uint256",
          "name": "",
          "type": "uint256"
        }
      ],
      "payable": false,
      "stateMutability": "view",
      "type": "function"
    },
    {
      "constant": false,
      "inputs": [
        {
          "internalType": "uint256",
          "name": "_tokenId",
          "type": "uint256"
        }
      ],
      "name": "burn",
      "outputs": [],
      "payable": false,
      "stateMutability": "nonpayable",
      "type": "function"
    },
    {
      "constant": true,
      "inputs": [
        {
          "internalType": "uint256",
          "name": "_tokenId",
          "type": "uint256"
        }
      ],
      "name": "exists",
      "outputs": [
        {
          "internalType": "bool",
          "name": "",
          "type": "bool"
        }
      ],
      "payable": false,
      "stateMutability": "view",
      "type": "function"
    },
    {
      "constant": true,
      "inputs": [
        {
          "internalType": "uint256",
          "name": "_tokenId",
          "type": "uint256"
        }
      ],
      "name": "getApproved",
      "outputs": [
        {
          "internalType": "address",
          "name": "",
          "type": "address"
        }
      ],
      "payable": false,
      "stateMutability": "view",
      "type": "function"
    },
    {
      "constant": true,
      "inputs": [
        {
          "internalType": "address",
          "name": "_owner",
          "type": "address"
        },
        {
          "internalType": "address",
          "name": "_operator",
          "type": "address"
        }
      ],
      "name": "isApprovedForAll",
      "outputs": [
        {
          "internalType": "bool",
          "name": "",
          "type": "bool"
        }
      ],
      "payable": false,
      "stateMutability": "view",
      "type": "function"
    },
    {
      "constant": false,
      "inputs": [
        {
          "internalType": "address",
          "name": "_to",
          "type": "address"
        },
        {
          "internalType": "uint256",
          "name": "_tokenId",
          "type": "uint256"
        }
      ],
      "name": "mint",
      "outputs": [],
      "payable": false,
      "stateMutability": "nonpayable",
      "type": "function"
    },
    {
      "constant": true,
      "inputs": [
        {
          "internalType": "uint256",
          "name": "_tokenId",
          "type": "uint256"
        }
      ],
      "name": "ownerOf",
      "outputs": [
        {
          "internalType": "address",
          "name": "",
          "type": "address"
        }
      ],
      "payable": false,
      "stateMutability": "view",
      "type": "function"
    },
    {
      "constant": false,
      "inputs": [
        {
          "internalType": "address",
          "name": "_from",
          "type": "address"
        },
        {
          "internalType": "address",
          "name": "_to",
          "type": "address"
        },
        {
          "internalType": "uint256",
          "name": "_tokenId",
          "type": "uint256"
        }
      ],
      "name": "safeTransferFrom",
      "outputs": [],
      "payable": false,
      "stateMutability": "nonpayable",
      "type": "function"
    },
    {
      "constant": false,
      "inputs": [
        {
          "internalType": "address",
          "name": "_from",
          "type": "address"
        },
        {
          "internalType": "address",
          "name": "_to",
          "type": "address"
        },
        {
          "internalType": "uint256",
          "name": "_tokenId",
          "type": "uint256"
        },
        {
          "internalType": "bytes",
          "name": "_data",
          "type": "bytes"
        }
      ],
      "name": "safeTransferFrom",
      "outputs": [],
      "payable": false,
      "stateMutability": "nonpayable",
      "type": "function"
    },
    {
      "constant": false,
      "inputs": [
        {
          "internalType": "address",
          "name": "_to",
          "type": "address"
        },
        {
          "internalType": "bool",
          "name": "_approved",
          "type": "bool"
        }
      ],
      "name": "setApprovalForAll",
      "outputs": [],
      "payable": false,
      "stateMutability": "nonpayable",
      "type": "function"
    },
    {
      "constant": true,
      "inputs": [
        {
          "internalType": "bytes4",
          "name": "_interfaceId",
          "type": "bytes4"
        }
      ],
      "name": "supportsInterface",
      "outputs": [
        {
          "internalType": "bool",
          "name": "",
          "type": "bool"
        }
      ],
      "payable": false,
      "stateMutability": "view",
      "type": "function"
    },
    {
      "constant": true,
      "inputs": [],
      "name": "testint",
      "outputs": [
        {
          "internalType": "uint256",
          "name": "",
          "type": "uint256"
        }
      ],
      "payable": false,
      "stateMutability": "view",
      "type": "function"
    },
    {
      "constant": false,
      "inputs": [
        {
          "internalType": "address",
          "name": "_from",
          "type": "address"
        },
        {
          "internalType": "address",
          "name": "_to",
          "type": "address"
        },
        {
          "internalType": "uint256",
          "name": "_tokenId",
          "type": "uint256"
        }
      ],
      "name": "transferFrom",
      "outputs": [],
      "payable": false,
      "stateMutability": "nonpayable",
      "type": "function"
    }
  ],
  "bytecode": "0x60806040526100367f01ffc9a7000000000000000000000000000000000000000000000000000000006001600160e01b0361009f16565b6100687f80ac58cd000000000000000000000000000000000000000000000000000000006001600160e01b0361009f16565b61009a7f4f558e79000000000000000000000000000000000000000000000000000000006001600160e01b0361009f16565b61010b565b7fffffffff0000000000000000000000000000000000000000000000000000000080821614156100ce57600080fd5b7fffffffff00000000000000000000000000000000000000000000000000000000166000908152602081905260409020805460ff19166001179055565b610bf58061011a6000396000f3fe608060405234801561001057600080fd5b50600436106100f55760003560e01c806342966c6811610097578063a22cb46511610066578063a22cb465146102e8578063b88d4fde14610316578063e701c464146103dc578063e985e9c5146103e4576100f5565b806342966c68146102595780634f558e79146102765780636352211e1461029357806370a08231146102b0576100f5565b806319fa8f50116100d357806319fa8f501461019c57806323b872dd146101c157806340c10f19146101f757806342842e0e14610223576100f5565b806301ffc9a7146100fa578063081812fc14610135578063095ea7b31461016e575b600080fd5b6101216004803603602081101561011057600080fd5b50356001600160e01b031916610412565b604080519115158252519081900360200190f35b6101526004803603602081101561014b57600080fd5b5035610431565b604080516001600160a01b039092168252519081900360200190f35b61019a6004803603604081101561018457600080fd5b506001600160a01b03813516906020013561044c565b005b6101a461051f565b604080516001600160e01b03199092168252519081900360200190f35b61019a600480360360608110156101d757600080fd5b506001600160a01b03813581169160208101359091169060400135610543565b61019a6004803603604081101561020d57600080fd5b506001600160a01b0381351690602001356105eb565b61019a6004803603606081101561023957600080fd5b506001600160a01b038135811691602081013590911690604001356105f9565b61019a6004803603602081101561026f57600080fd5b503561062e565b6101216004803603602081101561028c57600080fd5b5035610643565b610152600480360360208110156102a957600080fd5b5035610660565b6102d6600480360360208110156102c657600080fd5b50356001600160a01b0316610688565b60408051918252519081900360200190f35b61019a600480360360408110156102fe57600080fd5b506001600160a01b03813516906020013515156106b9565b61019a6004803603608081101561032c57600080fd5b6001600160a01b0382358116926020810135909116916040820135919081019060808101606082013564010000000081111561036757600080fd5b82018360208201111561037957600080fd5b8035906020019184600183028401116401000000008311171561039b57600080fd5b91908080601f016020809104026020016040519081016040528093929190818152602001838380828437600092019190915250929550610744945050505050565b6102d661077f565b610121600480360360408110156103fa57600080fd5b506001600160a01b0381358116916020013516610785565b6001600160e01b03191660009081526020819052604090205460ff1690565b6000908152600260205260409020546001600160a01b031690565b600061045782610660565b9050806001600160a01b0316836001600160a01b0316141561047857600080fd5b336001600160a01b038216148061049457506104948133610785565b61049d57600080fd5b60008281526002602090815260409182902080546001600160a01b0380881673ffffffffffffffffffffffffffffffffffffffff199092168217909255835191851682529181019190915280820184905290517f8c5be1e5ebec7d5bd14f71427d1e84f3dd0314c0f7b2291e5b200ac8c7c3b9259181900360600190a1505050565b7f01ffc9a70000000000000000000000000000000000000000000000000000000081565b8061054e33826107b3565b61055757600080fd5b6001600160a01b03841661056a57600080fd5b6001600160a01b03831661057d57600080fd5b6105878483610812565b6105918483610881565b61059b8383610917565b604080516001600160a01b0380871682528516602082015280820184905290517fddf252ad1be2c89b69c2b068fc378daa952ba7f163c4a11628f55a4df523b3ef9181900360600190a150505050565b6105f582826109a7565b5050565b8061060433826107b3565b61060d57600080fd5b61062884848460405180602001604052806000815250610744565b50505050565b61064061063a82610660565b82610a11565b50565b6000908152600160205260409020546001600160a01b0316151590565b6000818152600160205260408120546001600160a01b03168061068257600080fd5b92915050565b60006001600160a01b03821661069d57600080fd5b506001600160a01b031660009081526003602052604090205490565b6001600160a01b0382163314156106cf57600080fd5b3360008181526004602090815260408083206001600160a01b03871680855290835292819020805486151560ff19909116811790915581519485529184019290925282820152517f17307eab39ab6107e8899845ad3d59bd9653f200f220920489ca2b5937696c319181900360600190a15050565b8161074f33826107b3565b61075857600080fd5b610763858585610543565b61076f85858585610a72565b61077857600080fd5b5050505050565b60055481565b6001600160a01b03918216600090815260046020908152604080832093909416825291909152205460ff1690565b6000806107bf83610660565b9050806001600160a01b0316846001600160a01b031614806107fa5750836001600160a01b03166107ef84610431565b6001600160a01b0316145b8061080a575061080a8185610785565b949350505050565b816001600160a01b031661082582610660565b6001600160a01b03161461083857600080fd5b6000818152600260205260409020546001600160a01b0316156105f5576000908152600260205260409020805473ffffffffffffffffffffffffffffffffffffffff1916905550565b816001600160a01b031661089482610660565b6001600160a01b0316146108a757600080fd5b6001600160a01b0382166000908152600360205260409020546108d190600163ffffffff610b9b16565b6001600160a01b03909216600090815260036020908152604080832094909455918152600190915220805473ffffffffffffffffffffffffffffffffffffffff19169055565b6000818152600160205260409020546001600160a01b03161561093957600080fd5b6000818152600160208181526040808420805473ffffffffffffffffffffffffffffffffffffffff19166001600160a01b038816908117909155845260039091529091205461098791610bad565b6001600160a01b0390921660009081526003602052604090209190915550565b6001600160a01b0382166109ba57600080fd5b6109c48282610917565b60408051600081526001600160a01b038416602082015280820183905290517fddf252ad1be2c89b69c2b068fc378daa952ba7f163c4a11628f55a4df523b3ef9181900360600190a15050565b610a1b8282610812565b610a258282610881565b604080516001600160a01b03841681526000602082015280820183905290517fddf252ad1be2c89b69c2b068fc378daa952ba7f163c4a11628f55a4df523b3ef9181900360600190a15050565b6000610a86846001600160a01b0316610bba565b610a925750600161080a565b60405163785cf2dd60e11b81526001600160a01b0386811660048301908152602483018690526060604484019081528551606485015285516000949389169363f0b9e5ba938b938a938a936084019060208501908083838d5b83811015610b03578181015183820152602001610aeb565b50505050905090810190601f168015610b305780820380516001836020036101000a031916815260200191505b50945050505050602060405180830381600087803b158015610b5157600080fd5b505af1158015610b65573d6000803e3d6000fd5b505050506040513d6020811015610b7b57600080fd5b50516001600160e01b03191663785cf2dd60e11b14915050949350505050565b600082821115610ba757fe5b50900390565b8181018281101561068257fe5b3b15159056fea265627a7a72315820d687e84c47826fb71b0452f8192331f9d4a3741880dfb3da8a91d99742cd8d4a64736f6c634300050c0032",
  "linkReferences": {},
  "deployedLinkReferences": {}
}