{
  "_format": "hh-sol-artifact-1",
  "contractName": "ERC721BasicToken",
  "sourceName": "contracts/inherited/ERC721Basic.sol",
  "abi": [
    {
      "inputs": [],
      "payable": false,
      "stateMutability": "nonpayable",
      "type": "constructor"
    },
    {
      "anonymous": false,
      "inputs": [
        {
          "indexed": false,
          "internalType": "address",
          "name": "_owner",
          "type": "address"
        },
        {
          "indexed": false,
          "internalType": "address",
          "name": "_approved",
          "type": "address"
        },
        {
          "indexed": false,
          "internalType": "uint256",
          "name": "_tokenId",
          "type": "uint256"
        }
      ],
      "name": "Approval",
      "type": "event"
    },
    {
      "anonymous": false,
      "inputs": [
        {
          "indexed": false,
          "internalType": "address",
          "name": "_owner",
          "type": "address"
        },
        {
          "indexed": false,
          "internalType": "address",
          "name": "_operator",
          "type": "address"
        },
        {
          "indexed": false,
          "internalType": "bool",
          "name": "_approved",
          "type": "bool"
        }
      ],
      "name": "ApprovalForAll",
      "type": "event"
    },
    {
      "anonymous": false,
      "inputs": [
        {
          "indexed": false,
          "internalType": "address",
          "name": "_from",
          "type": "address"
        },
        {
          "indexed": false,
          "internalType": "address",
          "name": "_to",
          "type": "address"
        },
        {
          "indexed": false,
          "internalType": "uint256",
          "name": "_tokenId",
          "type": "uint256"
        }
      ],
      "name": "Transfer",
      "type": "event"
    },
    {
      "constant": true,
      "inputs": [],
      "name": "InterfaceId_ERC165",
      "outputs": [
        {
          "internalType": "bytes4",
          "name": "",
          "type": "bytes4"
        }
      ],
      "payable": false,
      "stateMutability": "view",
      "type": "function"
    },
    {
      "constant": false,
      "inputs": [
        {
          "internalType": "address",
          "name": "_to",
          "type": "address"
        },
        {
          "internalType": "uint256",
          "name": "_tokenId",
          "type": "uint256"
        }
      ],
      "name": "approve",
      "outputs": [],
      "payable": false,
      "stateMutability": "nonpayable",
      "type": "function"
    },
    {
      "constant": true,
      "inputs": [
        {
          "internalType": "address",
          "name": "_owner",
          "type": "address"
        }
      ],
      "name": "balanceOf",
      "outputs": [
        {
          "internalType": "uint256",
          "name": "",
          "type": "uint256"
        }
      ],
      "payable": false,
      "stateMutability": "view",
      "type": "function"
    },
    {
      "constant": true,
      "inputs": [
        {
          "internalType": "uint256",
          "name": "_tokenId",
          "type": "uint256"
        }
      ],
      "name": "exists",
      "outputs": [
        {
          "internalType": "bool",
          "name": "",
          "type": "bool"
        }
      ],
      "payable": false,
      "stateMutability": "view",
      "type": "function"
    },
    {
      "constant": true,
      "inputs": [
        {
          "internalType": "uint256",
          "name": "_tokenId",
          "type": "uint256"
        }
      ],
      "name": "getApproved",
      "outputs": [
        {
          "internalType": "address",
          "name": "",
          "type": "address"
        }
      ],
      "payable": false,
      "stateMutability": "view",
      "type": "function"
    },
    {
      "constant": true,
      "inputs": [
        {
          "internalType": "address",
          "name": "_owner",
          "type": "address"
        },
        {
          "internalType": "address",
          "name": "_operator",
          "type": "address"
        }
      ],
      "name": "isApprovedForAll",
      "outputs": [
        {
          "internalType": "bool",
          "name": "",
          "type": "bool"
        }
      ],
      "payable": false,
      "stateMutability": "view",
      "type": "function"
    },
    {
      "constant": true,
      "inputs": [
        {
          "internalType": "uint256",
          "name": "_tokenId",
          "type": "uint256"
        }
      ],
      "name": "ownerOf",
      "outputs": [
        {
          "internalType": "address",
          "name": "",
          "type": "address"
        }
      ],
      "payable": false,
      "stateMutability": "view",
      "type": "function"
    },
    {
      "constant": false,
      "inputs": [
        {
          "internalType": "address",
          "name": "_from",
          "type": "address"
        },
        {
          "internalType": "address",
          "name": "_to",
          "type": "address"
        },
        {
          "internalType": "uint256",
          "name": "_tokenId",
          "type": "uint256"
        }
      ],
      "name": "safeTransferFrom",
      "outputs": [],
      "payable": false,
      "stateMutability": "nonpayable",
      "type": "function"
    },
    {
      "constant": false,
      "inputs": [
        {
          "internalType": "address",
          "name": "_from",
          "type": "address"
        },
        {
          "internalType": "address",
          "name": "_to",
          "type": "address"
        },
        {
          "internalType": "uint256",
          "name": "_tokenId",
          "type": "uint256"
        },
        {
          "internalType": "bytes",
          "name": "_data",
          "type": "bytes"
        }
      ],
      "name": "safeTransferFrom",
      "outputs": [],
      "payable": false,
      "stateMutability": "nonpayable",
      "type": "function"
    },
    {
      "constant": false,
      "inputs": [
        {
          "internalType": "address",
          "name": "_to",
          "type": "address"
        },
        {
          "internalType": "bool",
          "name": "_approved",
          "type": "bool"
        }
      ],
      "name": "setApprovalForAll",
      "outputs": [],
      "payable": false,
      "stateMutability": "nonpayable",
      "type": "function"
    },
    {
      "constant": true,
      "inputs": [
        {
          "internalType": "bytes4",
          "name": "_interfaceId",
          "type": "bytes4"
        }
      ],
      "name": "supportsInterface",
      "outputs": [
        {
          "internalType": "bool",
          "name": "",
          "type": "bool"
        }
      ],
      "payable": false,
      "stateMutability": "view",
      "type": "function"
    },
    {
      "constant": true,
      "inputs": [],
      "name": "testint",
      "outputs": [
        {
          "internalType": "uint256",
          "name": "",
          "type": "uint256"
        }
      ],
      "payable": false,
      "stateMutability": "view",
      "type": "function"
    },
    {
      "constant": false,
      "inputs": [
        {
          "internalType": "address",
          "name": "_from",
          "type": "address"
        },
        {
          "internalType": "address",
          "name": "_to",
          "type": "address"
        },
        {
          "internalType": "uint256",
          "name": "_tokenId",
          "type": "uint256"
        }
      ],
      "name": "transferFrom",
      "outputs": [],
      "payable": false,
      "stateMutability": "nonpayable",
      "type": "function"
    }
  ],
  "bytecode": "0x608060405234801561001057600080fd5b506100437f01ffc9a7000000000000000000000000000000000000000000000000000000006001600160e01b036100ac16565b6100757f80ac58cd000000000000000000000000000000000000000000000000000000006001600160e01b036100ac16565b6100a77f4f558e79000000000000000000000000000000000000000000000000000000006001600160e01b036100ac16565b610118565b7fffffffff0000000000000000000000000000000000000000000000000000000080821614156100db57600080fd5b7fffffffff00000000000000000000000000000000000000000000000000000000166000908152602081905260409020805460ff19166001179055565b610aaa806101276000396000f3fe608060405234801561001057600080fd5b50600436106100df5760003560e01c80634f558e791161008c578063a22cb46511610066578063a22cb46514610289578063b88d4fde146102b7578063e701c4641461037d578063e985e9c514610385576100df565b80634f558e79146102175780636352211e1461023457806370a0823114610251576100df565b806319fa8f50116100bd57806319fa8f501461018657806323b872dd146101ab57806342842e0e146101e1576100df565b806301ffc9a7146100e4578063081812fc1461011f578063095ea7b314610158575b600080fd5b61010b600480360360208110156100fa57600080fd5b50356001600160e01b0319166103b3565b604080519115158252519081900360200190f35b61013c6004803603602081101561013557600080fd5b50356103d2565b604080516001600160a01b039092168252519081900360200190f35b6101846004803603604081101561016e57600080fd5b506001600160a01b0381351690602001356103ed565b005b61018e6104c0565b604080516001600160e01b03199092168252519081900360200190f35b610184600480360360608110156101c157600080fd5b506001600160a01b038135811691602081013590911690604001356104e4565b610184600480360360608110156101f757600080fd5b506001600160a01b0381358116916020810135909116906040013561058c565b61010b6004803603602081101561022d57600080fd5b50356105c1565b61013c6004803603602081101561024a57600080fd5b50356105de565b6102776004803603602081101561026757600080fd5b50356001600160a01b0316610606565b60408051918252519081900360200190f35b6101846004803603604081101561029f57600080fd5b506001600160a01b0381351690602001351515610637565b610184600480360360808110156102cd57600080fd5b6001600160a01b0382358116926020810135909116916040820135919081019060808101606082013564010000000081111561030857600080fd5b82018360208201111561031a57600080fd5b8035906020019184600183028401116401000000008311171561033c57600080fd5b91908080601f0160208091040260200160405190810160405280939291908181526020018383808284376000920191909152509295506106c2945050505050565b6102776106fd565b61010b6004803603604081101561039b57600080fd5b506001600160a01b0381358116916020013516610703565b6001600160e01b03191660009081526020819052604090205460ff1690565b6000908152600260205260409020546001600160a01b031690565b60006103f8826105de565b9050806001600160a01b0316836001600160a01b0316141561041957600080fd5b336001600160a01b038216148061043557506104358133610703565b61043e57600080fd5b60008281526002602090815260409182902080546001600160a01b0380881673ffffffffffffffffffffffffffffffffffffffff199092168217909255835191851682529181019190915280820184905290517f8c5be1e5ebec7d5bd14f71427d1e84f3dd0314c0f7b2291e5b200ac8c7c3b9259181900360600190a1505050565b7f01ffc9a70000000000000000000000000000000000000000000000000000000081565b806104ef3382610731565b6104f857600080fd5b6001600160a01b03841661050b57600080fd5b6001600160a01b03831661051e57600080fd5b6105288483610790565b6105328483610801565b61053c8383610897565b604080516001600160a01b0380871682528516602082015280820184905290517fddf252ad1be2c89b69c2b068fc378daa952ba7f163c4a11628f55a4df523b3ef9181900360600190a150505050565b806105973382610731565b6105a057600080fd5b6105bb848484604051806020016040528060008152506106c2565b50505050565b6000908152600160205260409020546001600160a01b0316151590565b6000818152600160205260408120546001600160a01b03168061060057600080fd5b92915050565b60006001600160a01b03821661061b57600080fd5b506001600160a01b031660009081526003602052604090205490565b6001600160a01b03821633141561064d57600080fd5b3360008181526004602090815260408083206001600160a01b03871680855290835292819020805486151560ff19909116811790915581519485529184019290925282820152517f17307eab39ab6107e8899845ad3d59bd9653f200f220920489ca2b5937696c319181900360600190a15050565b816106cd3382610731565b6106d657600080fd5b6106e18585856104e4565b6106ed85858585610927565b6106f657600080fd5b5050505050565b60055481565b6001600160a01b03918216600090815260046020908152604080832093909416825291909152205460ff1690565b60008061073d836105de565b9050806001600160a01b0316846001600160a01b031614806107785750836001600160a01b031661076d846103d2565b6001600160a01b0316145b8061078857506107888185610703565b949350505050565b816001600160a01b03166107a3826105de565b6001600160a01b0316146107b657600080fd5b6000818152600260205260409020546001600160a01b0316156107fd576000818152600260205260409020805473ffffffffffffffffffffffffffffffffffffffff191690555b5050565b816001600160a01b0316610814826105de565b6001600160a01b03161461082757600080fd5b6001600160a01b03821660009081526003602052604090205461085190600163ffffffff610a5016565b6001600160a01b03909216600090815260036020908152604080832094909455918152600190915220805473ffffffffffffffffffffffffffffffffffffffff19169055565b6000818152600160205260409020546001600160a01b0316156108b957600080fd5b6000818152600160208181526040808420805473ffffffffffffffffffffffffffffffffffffffff19166001600160a01b038816908117909155845260039091529091205461090791610a62565b6001600160a01b0390921660009081526003602052604090209190915550565b600061093b846001600160a01b0316610a6f565b61094757506001610788565b60405163785cf2dd60e11b81526001600160a01b0386811660048301908152602483018690526060604484019081528551606485015285516000949389169363f0b9e5ba938b938a938a936084019060208501908083838d5b838110156109b85781810151838201526020016109a0565b50505050905090810190601f1680156109e55780820380516001836020036101000a031916815260200191505b50945050505050602060405180830381600087803b158015610a0657600080fd5b505af1158015610a1a573d6000803e3d6000fd5b505050506040513d6020811015610a3057600080fd5b50516001600160e01b03191663785cf2dd60e11b14915050949350505050565b600082821115610a5c57fe5b50900390565b8181018281101561060057fe5b3b15159056fea265627a7a723158209fbc700b823e64daef281fd1a96e498a0a6dafaf9472b86f6b1c981c18d049e864736f6c634300050c0032",
  "linkReferences": {},
  "deployedLinkReferences": {}
}