{
  "_format": "hh-sol-artifact-1",
  "contractName": "SupportsInterfaceWithLookup",
  "sourceName": "contracts/inherited/ERC721Basic.sol",
  "abi": [
    {
      "inputs": [],
      "payable": false,
      "stateMutability": "nonpayable",
      "type": "constructor"
    },
    {
      "constant": true,
      "inputs": [],
      "name": "InterfaceId_ERC165",
      "outputs": [
        {
          "internalType": "bytes4",
          "name": "",
          "type": "bytes4"
        }
      ],
      "payable": false,
      "stateMutability": "view",
      "type": "function"
    },
    {
      "constant": true,
      "inputs": [
        {
          "internalType": "bytes4",
          "name": "_interfaceId",
          "type": "bytes4"
        }
      ],
      "name": "supportsInterface",
      "outputs": [
        {
          "internalType": "bool",
          "name": "",
          "type": "bool"
        }
      ],
      "payable": false,
      "stateMutability": "view",
      "type": "function"
    }
  ],
  "bytecode": "0x608060405234801561001057600080fd5b506100437f01ffc9a7000000000000000000000000000000000000000000000000000000006001600160e01b0361004816565b6100b4565b7fffffffff00000000000000000000000000000000000000000000000000000000808216141561007757600080fd5b7fffffffff00000000000000000000000000000000000000000000000000000000166000908152602081905260409020805460ff19166001179055565b61015b806100c36000396000f3fe608060405234801561001057600080fd5b50600436106100365760003560e01c806301ffc9a71461003b57806319fa8f501461008e575b600080fd5b61007a6004803603602081101561005157600080fd5b50357fffffffff00000000000000000000000000000000000000000000000000000000166100cb565b604080519115158252519081900360200190f35b610096610102565b604080517fffffffff000000000000000000000000000000000000000000000000000000009092168252519081900360200190f35b7fffffffff000000000000000000000000000000000000000000000000000000001660009081526020819052604090205460ff1690565b7f01ffc9a7000000000000000000000000000000000000000000000000000000008156fea265627a7a723158205faccc5d8a3412a6a54cf4b0efad21d2738db0eba8ce6afeabcf743c2e33947a64736f6c634300050c0032",
  "linkReferences": {},
  "deployedLinkReferences": {}
}